:020000022000DC
:1060000000F000206D630200556302005763020038
:10601000596302005B6302005D6302000000000040
:106020000000000000000000000000005F630200AC
:106030006163020000000000636302006563020008
:106040006763020067630200676302006763020020
:106050006763020067630200F17302006763020076
:10606000676302006763020005A403006763020020
:1060700067630200676302006763020067630200F0
:10608000676302006D70040099C702006763020035
:10609000D170040067630200891404006763020082
:1060A00067630200676302006763020067630200C0
:1060B0006763020067630200000000000000000048
:1060C00067630200676302006763020067630200A0
:1060D000676302006763020067630200000000005C
:1060E00000000000000000000000000000000000B0
:1060F00000000000000000000000000000000000A0
:10610000000000000000000000000000000000008F
:10611000000000000000000000000000000000007F
:10612000000000000000000000000000000000006F
:10613000000000000000000000000000000000005F
:10614000000000000000000000000000000000004F
:10615000000000000000000000000000000000003F
:10616000000000000000000000000000000000002F
:10617000000000000000000000000000000000001F
:10618000000000000000000000000000000000000F
:1061900000000000000000000000000000000000FF
:1061A00000000000000000000000000000000000EF
:1061B00000000000000000000000000000000000DF
:1061C00000000000000000000000000000000000CF
:1061D00000000000000000000000000000000000BF
:1061E00000000000000000000000000000000000AF
:1061F000000000000000000000000000000000009F
:10620000344935480A1A02D0072291438D46334952
:1062100033480A1A06D00722914381F309880222E3
:1062200082F314882F483049304A00F042F8304851
:106230003049314A00F03DF830483149314A00F0E8
:1062400038F831483149324A00F033F831483249A0
:10625000324A00F02EF832483249334A00F029F829
:1062600032483349334A00F024F833483349002296
:1062700000F02AF832483349002200F025F832486D
:106280003249091A082902DB0022026041601F48D6
:106290001F49884205D00268043003B4904703BC0C
:1062A000F7E700208646EC4600200021284A904768
:1062B000FEE7884207D0521A05D0037801300B70F0
:1062C0000131013AF9D17047884202D002700130A1
:1062D000FAE7704700F0002000E8002000F00020FE
:1062E00000F00020289A0400042E0020B82E002080
:1062F000A0630200A06302006A750400289A0400EB
:10630000042E0020042E00202479040024790400A7
:1063100024790400247904002479040024790400F9
:106320002479040024790400289A0400DC9A0400EB
:10633000B82E0020B82E0020B82E0020445E002089
:10634000445E0020445E0020445E00204462002041
:10635000F16E0200FEE7FEE7FEE7FEE7FEE7FEE77E
:10636000FEE7FEE7FEE7FEE700F002B8FFF7FCBF3E
:1063700008484FF00701884385460748804707488B
:10638000016841F470010160BFF34F8FBFF36F8F5D
:10639000FFF736BF00F00020151B040088ED00E079
:1063A0003FDF704741DF70470C4B1B6813F4804F91
:1063B00003D00B4B1B68012B00DC704700B583B08A
:1063C000084BD3F80435084A0092BA220749022044
:1063D00007F0EEFA03B05DF804FB00BF582E002072
:1063E000542E002000100140A87904009E7904007A
:1063F00010B586B05068E0B11A4B1B6813F4804F9B
:1064000003D0194B1B68032B01DC06B010BD174BE2
:10641000D3F8043549881478527804900392029492
:106420000191134A0092C4221249042007F0C0FAD5
:10643000EBE70C4B1B6813F4804FE6D00A4B1B684C
:10644000032BE2DD094BD3F8043549881278029218
:106450000191094A0092C9220649042007F0A8FACE
:10646000D3E700BF582E0020542E0020001001401A
:10647000C87904009E7904001C7A040000B587B036
:106480008DF814003C4A1378591C11708DF81530A2
:106490003223049364230393384B1B6813F4804F17
:1064A00003D0374B1B68032B12DC022303AA05A978
:1064B000344820F03DFA112856D8DFE800F0155591
:1064C00055551D5555391D55555555555555551D40
:1064D0002D4BD3F8043501902C4A0092F5222C491B
:1064E000042007F065FAE0E79DF81410112000F091
:1064F000D3FE07B05DF804FB204B1B6813F4804FFC
:1065000003D01F4B1B68002B06DC062232214FF400
:10651000F01000F0DDFEECE71B4BD3F804351D4A0C
:10652000009240F209121A49012007F041FAECE703
:10653000124B1B6813F4804F03D0114B1B68002BC8
:1065400006DC062232214FF4F01000F0C1FED0E745
:106550000D4BD3F80435104A009240F217120C4943
:10656000012007F025FAECE70028C2D00B4A4FF4CF
:106570008F711BF0F9FBBCE7102F0020582E002074
:10658000542E0020B82E002000100140487A04004C
:106590009E790400647A0400807A04003C79040047
:1065A00008B50020FFF76AFF08BD000000B587B0FE
:1065B000394B1B6813F4804F03D0384B1B68032BF7
:1065C00023DC9DF81430042262F3061303F0F30376
:1065D000022262F301038DF8143042F21073049327
:1065E000642303934FF47A7306AA12E907000AF0B2
:1065F0005BFE072833D0082813D008B300B3284A1D
:1066000040F243111BF0B0FB1AE0264BD3F80435DF
:10661000254A009240F225122449042007F0C8F9C7
:10662000CFE71D4B1B6813F4804F03D01B4B1B6837
:10663000002B08DC062232214FF4F01000F048FE57
:1066400007B05DF804FB174BD3F80435184A0092E5
:1066500040F235121549012007F0AAF9EAE70E4B7E
:106660001B6813F4804F03D00C4B1B68002B06DC17
:10667000062232214FF4F01000F02AFEE0E7094B29
:10668000D3F804350B4A00924FF49E72074901205B
:1066900007F08EF9ECE700BF582E0020542E0020A2
:1066A0003C790400001001409C7A04009E790400AB
:1066B000D07A0400F47A040000B583B01F4B1B6845
:1066C00013F4804F03D01E4B1B68032B16DC0AF01B
:1066D000EFFE80B1082829D1184B1B6813F4804FB6
:1066E00003D0174B1B68002B14DC062232214FF419
:1066F000F01000F0EDFD03B05DF804FB114BD3F892
:106700000435114A00924FF4A5721049042007F095
:106710004FF9DCE70B4BD3F804350D4A009240F2F9
:1067200053120A49012007F043F9DEE70028E2D0BE
:10673000084A4FF4AD711BF017FBDCE7582E002020
:10674000542E002000100140287B04009E79040094
:106750004C7B04003C79040000B583B00F4B1B68F0
:1067600013F4804F03D00E4B1B68032B0ADC03226B
:10677000C8214FF4F01000F0ABFD0BF081FD03B029
:106780005DF804FB074BD3F80435074A0092D82282
:106790000649042007F00CF9E9E700BF582E002055
:1067A000542E0020001001406C7B04009E790400F0
:1067B00010B582B0441C494B1B6813F4804F03D0C2
:1067C000474B1B68032B0DDC0BF002FD18BB434B42
:1067D0001B6813F4804F03D0414B1B68012B0EDC68
:1067E00002B010BD3F4BD3F8043501943E4A0092ED
:1067F0004FF4B7723D49042007F0DAF8E4E7394B6B
:10680000D3F804353A4A00924FF4B972374902205E
:1068100007F0CEF8E4E7374820F0D0FC30B9601E2E
:10682000032846D8DFE800F008191D26324A4FF445
:10683000BB711BF099FAF2E70120FFF71FFE00225F
:106840004FF420312B4820F097FC0028C8D02A4A6A
:1068500040F27D111BF088FAC2E70020FFF70EFE20
:10686000BEE70AF01BFD10B9FFF7A0FEB8E7FFF77F
:1068700023FFB5E70BF0ACFCA0B9184B1B6813F471
:10688000804FADD0164B1B68032BA9DD154BD3F8F9
:1068900004351A4A00924FF4CC721449042007F0D0
:1068A00087F89DE70DF0DAF90BF088FCFFF754FF4D
:1068B00096E70A4B1B6813F4804F91D0084B1B6876
:1068C000032B8DDD074BD3F804350D4A00924FF4AE
:1068D000D2720649042007F06BF881E7582E002099
:1068E000542E002000100140887B04009E79040093
:1068F0009C7B0400F02E00203C790400BC7B04004B
:10690000E87D040000B583B03138032814D90D4B5D
:106910001B6813F4804F11D00B4B1B68032B0DDD4C
:106920000A4BD3F804350A4A009240F2B3120949DF
:10693000042007F03DF801E0FFF73AFF03B05DF8EF
:1069400004FB00BF582E0020542E002000100140F0
:10695000E87D04009E79040008B50378232B00D05D
:1069600008BDFFF7F9FEFBE700B58DB0202200213E
:1069700003A820F0C5FD01238DF80C3007238DF806
:106980000F3006238DF81430204B0793204B0B93C8
:10699000204903A80BF020FC60B30B2829D11E4B23
:1069A0001B6813F4804F03D01C4B1B68032B14DCB3
:1069B000194B1B6813F4804F1CD0184B1B68032B1A
:1069C00018DD174BD3F80435164A00924FF40B72BA
:1069D0001549042006F0ECFF0CE0114BD3F8043508
:1069E000124A009240F22B220F49042006F0E0FFE9
:1069F000DEE728B90E4804F0CDFC0DB05DF804FBCD
:106A00000C4A40F231211BF0AFF9F3E7596902005B
:106A1000B16C0200EC2E0020582E0020542E0020D5
:106A200000100140447C04009E790400F47B0400C3
:106A3000042E00203C79040000B583B0234A0421D1
:106A40004FF4C04006F098FF214B1B6813F4804FB1
:106A500003D0204B1B68032B19DC20F03DFB10BB3F
:106A600000F07AFC1C4800F097FC10BB00F07AFEA6
:106A700000F0AEFE00F0DAFEFFF776FF0120FFF730
:106A80008FFCE0B90AF0E8FB03B05DF804FB134BA0
:106A9000D3F80435124A00924FF4117211490420C0
:106AA00006F086FFD9E7104A40F246211BF05CF958
:106AB000D6E70D4A40F24D211BF056F9D6E70A4AB7
:106AC00040F25E211BF050F9DCE700BF4DD9020017
:106AD000582E0020542E0020B16702000010014003
:106AE000707C04009E7904003C79040010B584B0E9
:106AF0000378153B052B70D8DFE803F0036F604B7C
:106B00007D99041D5E4B1B6813F4804F03D05D4BD1
:106B10001B68032B10DC20460AF026FC082819D835
:106B2000072819D2002858D0002856D0564A4FF4CA
:106B3000EC711BF019F950E0544BD3F804358288FE
:106B40000192534A009240F2C1125249042006F0C9
:106B50002FFFE0E70E28E7D1494B1B6813F4804F65
:106B600003D0484B1B68002B06DC062232214FF471
:106B7000F01000F0ADFB30E0444BD3F80435019049
:106B8000454A00924FF4E7724249012006F010FF97
:106B9000EBE73B4B1B6813F4804F1ED0394B1B684F
:106BA000032B1ADD394BD3F804353C4A00924FF4DD
:106BB000F0723849042006F0FBFE0EE0304B1B68F3
:106BC00013F4804F03D02F4B1B68032B07DC0622E6
:106BD00032214FF4F01000F07BFB04B010BD2B4BC2
:106BE000D3F804352E4A00924FF4F272294904205A
:106BF00006F0DEFEEBE7224B1B6813F4804F03D058
:106C0000204B1B68032B04DC0121122000F044FB05
:106C1000E3E71E4BD3F8043502890192214A009222
:106C20004FF4F8721B49042006F0C2FEECE7144B47
:106C30001B6813F4804F03D0124B1B68032B0EDC30
:106C40000021122000F028FB174820F0B7FA002896
:106C5000C3D00D4A40F207211BF086F8BDE70B4B6D
:106C6000D3F804350289817A029101920F4A009289
:106C700040F2FF120749042006F09AFEE0E700BF49
:106C8000582E0020542E00203C79040000100140B2
:106C9000907C04009E790400B47C0400D47C040041
:106CA000F47C0400107D0400F02E0020387D0400E8
:106CB00000B583B0154B1B6813F4804F03D0144B01
:106CC0001B68032B0FDC1348134B03630023836201
:106CD00080F82C3080F82D3001211FF0F3FD70B9C1
:106CE00003B05DF804FB0D4BD3F804350C4A009259
:106CF00040F212220B49042006F05AFEE3E70A4A4A
:106D000040F219211BF030F8EAE700BF582E0020AE
:106D1000542E0020B82E0020D87D04000010014021
:106D2000687D04009E7904003C79040010B5044697
:106D300000214FF4F01000F0C0FA04EB840462006C
:106D400032214FF4C01000F0C3FA10BD08B500F0B6
:106D5000F5FA08BD00B585B003A811F0BDFA0D4BDA
:106D60001B6813F4804F03D00B4B1B68032B02DC12
:106D700005B05DF804FB094BD3F80435BDF80C20D1
:106D80000192074A00929E220649042006F010FE56
:106D9000EEE700BF582E0020542E002000100140C6
:106DA000887D04009E79040030B58BB064212A48A8
:106DB00000F00CFA294A0021294820F0C7F9A0B9AF
:106DC000284B1B78BBB903AC274D0FCD0FC495E8FA
:106DD000070084E8070003A800F0A2F968B1234A7D
:106DE00040F279211AF0C0FF07E0204A40F2692101
:106DF0001AF0BAFFE4E7FFF7ADFF00F03DFE00F048
:106E00002DFB0BF02FFAA8B9194B1B6813F4804F18
:106E100003D0184B1B68032B12DC00214FF4F01039
:106E200000F04BFA0222C8214FF4F01000F050FAA3
:106E30000BB030BD0D4A40F282211AF095FFE3E716
:106E40000D4BD3F804350D4A00924FF421720C49D2
:106E5000042006F0ADFDE0E705690200A16502002F
:106E6000E47D0400EC2E0020BC7D04003C7904008D
:106E7000582E0020542E002000100140E87D040010
:106E80009E79040000B583B0144B1B6813F4804F47
:106E900003D0134B1B68032B15DC00F099FC00F0AA
:106EA000C5FCFFF757FF00F049FA00214FF4F0103E
:106EB00000F003FA0422C8214FF4F01000F008FAA1
:106EC00003B05DF804FB074BD3F80435064A009283
:106ED000A3220649042006F06BFDDEE7582E0020B1
:106EE000542E002000100140A07D04009E79040073
:106EF00008B5FFF7A1FDFFF757FFFFF753FAFCE7CF
:106F000069DF70473A4B1B78002B70D000B587B013
:106F1000012804D0032863D007B05DF804FB0023E8
:106F2000019301A901201AF037F9002842D100236A
:106F300003930122114662F307118DF80C108DF8AE
:106F40000D200493ADF814301523ADF81630019AD6
:106F500003A94120FFF7D4FF78BB01A81AF076F906
:106F600070BB244B1B6803B198470123029302A90D
:106F70000DF1020011F0F6FF28BBBDF8020011F080
:106F8000A5FB0DF1010111F04BFDF8B90CF0DCFB94
:106F90009DF8011000200CF0A1FED0B904F08CF98E
:106FA000D8B9134B00221A70124B5B68002BB3D078
:106FB0009847B1E71AF0CAFEB9E71AF0C7FECCE766
:106FC0001AF0C4FECDE71AF0C1FED6E71AF0BEFEF5
:106FD000DCE7784600F00EFDE0E71AF0B7FEE0E7E8
:106FE0001AF0AEF9002897D01AF0B0FE94E7704777
:106FF000132F0020142F002008B5064B01221A7011
:10700000054804F0C7F904F0A9F900B908BD1AF061
:107010009DFEFBE7132F0020102E002008B50378FB
:107020001C2B00D008BD074B1B78002BFAD01AF0A0
:10703000CBF918B9044804F0B1F9F3E71AF086FE69
:10704000F8E700BF132F0020102E002008B50749D5
:1070500007481BF01DFB00B108BD022300220549B3
:10706000496905481BF030FBF6E700BF302F0020D0
:10707000D4300020142F0020A02F002008B5037862
:10708000023B082B3FD8DFE803F01C05113E3E2CE5
:107090003E3E36001E4B9B68002B34D0007A002801
:1070A00031D01C4A0121117098472CE0184BDB6845
:1070B0004BB3184A127832B3164A00211170984720
:1070C00021E0154B1B784BB9114B1B691BB1114AC1
:1070D000002111709847FFF7B9FF14E0FFF78CFF0C
:1070E00011E010220A4B99690C481BF077FB50B154
:1070F0001AF02CFE07E08168C0680BF001F818B99F
:10710000054B01221A7008BD1AF020FEF8E700BFF7
:10711000142F0020112F0020122F0020A02F00205C
:1071200070B586B004461A4A03AB07CA03C323F8F6
:10713000022B120C1A70174E35460FCC0FC594E86F
:10714000070085E80700B36903B3134B009303AB53
:10715000124A134913481BF059FA034610B1184656
:1071600006B070BD10481CF08FF803460028F6D119
:107170000D481CF0BFF801460A481BF073FA03469D
:107180000028ECD1FFF762FF0346E8E70723E6E7B4
:10719000287F0400142F00207D700200302F002073
:1071A000D4300020A02F0020502F002008B5064B1F
:1071B0001B681BB906E0044B1B68984714F0C2FA21
:1071C0000028F8DA08BD00BF1431002010B50C46C5
:1071D000144B1860144A012114481FF0B7FFA0B9DE
:1071E000610CE00341F26F7200238B4208BF8242C0
:1071F00010D24FF47A72002320F020F801460022CA
:107200000B481FF0B9FF38B910BD0A4A4A211AF0DD
:10721000ABFDE5E70521F2E7064A4B211AF0A4FD94
:10722000F2E700BF14310020AD710200A87F040016
:1072300018310020347F040008B5134B1B6873B16C
:107240004FF0A042D2F80435104909684B40C2F80B
:1072500004350D4A1368013B136023B108BD0020BB
:107260001AF074FDECE70A481FF0A8FF4FF0A042A7
:10727000D2F804350549096823EA0103054909687C
:107280000B43C2F80435E9E7383100203C310020D7
:10729000403100206831002039B1012303FA00F0A9
:1072A0004FF0A043C3F80C057047012303FA00F028
:1072B0004FF0A043C3F80805704721B14FF0A04339
:1072C000C3F80C0570474FF0A043C3F8080570479A
:1072D0005AB338B51346132900D838BD134A106085
:1072E0005B00013B124A13604FF0A043D3F8043512
:1072F0001840104B186000254C0CC8034FF47A72EC
:10730000002310F5FA7044EB05011FF097FF0146CA
:107310002A4609481FF030FF0028DED1034B1A68C7
:107320004FF0A043C3F80C25D7E770473C3100204D
:1073300038310020683100204031002008B5044871
:107340001FF03CFF0021034B1868FFF7B6FF08BD94
:10735000403100203C31002008B511230BE04FF0F4
:10736000A04103F5E072032041F8220001229A4077
:10737000C1F808250133142BF1D9054A012105482C
:107380001FF0E4FE00B908BD1AF0E0FCFBE700BF07
:1073900039720200AC7F0400F0B1104A1060002383
:1073A00009E00F4AD25C02F5E0724FF0A0410D48AF
:1073B00041F822000133032BF3D90B4B4FF000426D
:1073C000C3F804230020C3F87C01084BC02283F8D3
:1073D000062340221A6070470E207047603100205B
:1073E000B07F04000C0003000060004000E100E0FA
:1073F00010B50024144BC3F87C4103E0D11A14E00B
:107400000134E4B2032C1ED84FF0A043D3F810256A
:107410000E4B195D01238B409343F1D00C4B1B683D
:107420000C4AD2F80425991AE8D443F2333399422E
:10743000E6D9084BD3F80425054B1A60064B1B68A8
:1074400020469847DCE710BD00600040B07F040094
:10745000643100200010014060310020002800F05D
:1074600082802DE9F04FD1B004463F4B1B6813F4E6
:10747000804F03D03D4B1B68032B0BDC3A4B1B6842
:1074800013F4804F03D0394B1B68032B2ADC51B017
:10749000BDE8F08F00230F2B0FD8E25C34490D6854
:1074A000100959002E5C0FA800F8136002F00F02BB
:1074B0000131AA5C42540133EDE70FAA00238DF895
:1074C0005C3003F1804303F58833D3F8043502922E
:1074D000284A0192284A009242222849042006F0B4
:1074E00067FACBE7264BD3F804350D9320680202E8
:1074F00002F47F0242EA0062010A01F47F4142EA9B
:10750000010CA5882A0292B2E688310289B2277A54
:10751000637A94F80AE094F80B8094F80C9094F84D
:107520000DA094F80EB0E47B0B94CDF828B0CDF804
:1075300024A0CDF82090CDF81C80CDF818E005935C
:10754000049741EA1621039142EA152202924CEA7D
:10755000106001900B4A00920D9B432207490420C2
:1075600006F026FA93E77047582E0020542E00208C
:107570005C2E00202C800400408004001980040050
:10758000001001404880040072DF704773DF7047CD
:1075900074DF70472DE9F047A2B006460F469046CB
:1075A000314A02F1040900255560D5602F4803785F
:1075B000C3EB431C2E4C644414602E49614491601B
:1075C0001F2191809181013303F0010303704FF07B
:1075D0003C0A5246294613A81FF092FF06238DF855
:1075E0004F30ADF8486001238DF84A30ADF85C307B
:1075F00012AA1892ADF83C60ADF8408011970DEBDF
:107600000A021D928DF878305246294668461FF0CE
:1076100077FF02238DF800304A46214613A819F05F
:10762000ADFC90B9104B03F10C029968684619F053
:10763000A5FC68B9104A0C491048FFF7A5FF0828B7
:1076400009D070B922B0BDE8F0871AF07FFBE9E7F6
:107650001AF07CFBEEE7002203490848FFF794FF8D
:10766000EFE71AF073FBEDE7B03100206C3100203A
:1076700070310020C0310020202E00201C2E002060
:10768000B0F5202F0AD2074BA3FB0023DB0808B17B
:1076900003B90123044A9381916070474FF6FF7349
:1076A000F5E700BFCDCCCCCC202E002008B50121C1
:1076B000054B1878FFF76AFF18B9002004F06EFD3B
:1076C00008BD1AF043FBF8E71C2E002008B5044B58
:1076D0001878FFF75DFF00B908BD1AF037FBFBE72C
:1076E0001C2E002076DF70477ADF70477CDF704702
:1076F00069DF704708B51AF029FB08BD08B503F02B
:1077000051FE08BD00B583B0037823B1012B0BD027
:1077100003B05DF804FB3B214088FFF7E3FF00283E
:10772000F6D01AF013FBF3E7094B1B6813F4804FF4
:10773000EED0084B1B68032BEADD074BD3F804356A
:10774000064A009268220649042006F031F9DFE774
:10775000582E0020542E0020001001400881040003
:10776000ED80040000B585B019F0EAFD18BB0023D8
:10777000039303A9012019F00FFDF8B9002300932A
:107780000122114662F307118DF800108DF80120D7
:107790000193ADF808301523ADF80A30039A694615
:1077A0004120FFF7A5FF60B903A819F04FFD58B9B4
:1077B00005B05DF804FB1AF0C9FAD8E71AF0C6FA6A
:1077C000DCE71AF0C3FAEFE71AF0C0FAF0E70000BE
:1077D00000B585B09DF80C30012262F3030362F31B
:1077E00007138DF80C3015220F4903A8FFF77EFF11
:1077F00098B97823ADF80430C823ADF806300023DB
:10780000ADF808304FF4C873ADF80A3001A8FFF79F
:107810006BFF28B905B05DF804FB1AF097FAE8E7AA
:107820001AF094FAF6E700BF3481040000B58BB07B
:107830007823ADF80430C823ADF806300023ADF846
:1078400008304FF4C872ADF80A200693079301AAD6
:10785000039240F6CD4204924FF480320592032207
:107860008DF81820ADF81A308DF81C30064B0893AF
:10787000064B099303A819F063FF10B90BB05DF82C
:1078800004FB1AF063FAF9E705770200F5760200C7
:107890000620704700B587B044F20103984262D0D9
:1078A0001BD8012836D041F20103984276D1474BCC
:1078B0001B6813F4804F36D0454B1B68002B32DD1C
:1078C000444BD3F8043502920191434A009263225B
:1078D0004249012006F06CF825E044F20203984288
:1078E0005CD13A4B1B6813F4804F1CD0384B1B689B
:1078F000002B18DD374BD3F804351068039052681D
:1079000002920191364A009269223449012006F020
:107910004FF808E02D4B1B6813F4804F03D02C4B1D
:107920001B68002B12DC4FF0A0434FF4F012C3F899
:107930001825C3F80C25EFF3108372B64DF6AD6C25
:10794000284B1B78002B3ED030BFF9E7214BD3F8F2
:10795000043502920191244A009260221F490120BD
:1079600006F026F8DFE7194B1B6813F4804FDAD0D6
:10797000174B1B68002BD6DD164BD3F80435106867
:10798000049050680390029192680192174A009205
:1079900073221249012006F00BF8C4E70B4B1B6859
:1079A00013F4804FBFD00A4B1B68002BBBDD094B83
:1079B000D3F8043501910E4A00927B220749012039
:1079C00005F0F6FFAFE707B05DF804FB582E002086
:1079D000542E002000100140E0810400B181040019
:1079E00004820400382E0020C48104002482040094
:1079F0004882040000B583B0014600230093054B84
:107A000001936A4644F20200FFF744FF03B05DF8B9
:107A100004FB00BF4482040010B40346044C006819
:107A200059689A68DB680FC45DF8044B704700BF63
:107A3000003200200D4B0E4A92E8030083E8030059
:107A400003F108020B4903C982E8030093F90620F9
:107A500002F00F0242F040029A7193F9082002F0FE
:107A60003F0242F080021A72704700BF00320020CD
:107A700060000010A4000010004870470032002091
:107A800000231F2B09D8074901EBC30000224280C5
:107A9000426001F833200133F3E7034B00221A6000
:107AA000704700BF103200201033002030B405466C
:107AB0000F4B1B6800240AE01F230E4A12F8330004
:107AC000A0B102EBC3025288AA4207D001341F2C96
:107AD0000BD85A1E002BEFD01346EEE7054A02EBF7
:107AE000C30252688A42F1D100E0002030BC7047E6
:107AF000103300201032002030B40A4A13680A4CB8
:107B000004EBC30568806960012104F833100B445D
:107B10001360202B01D030BC7047134600221A603E
:107B2000F9E700BF1033002010320020006F024B35
:107B3000C01A18BF01207047D4330020F0B4144697
:107B40001D46002300E00133072B0ED81A01084917
:107B50008A5A8242F7D101EB0312D2E90267AF429F
:107B600008BFA642EFD1012000E00020F0BC704722
:107B70001833002030B4C1698269C3880D0A0C062D
:107B8000C2F30C01994216D25B1A1344A3F50053B9
:107B9000E41845F10005094A1368591C116003F007
:107BA0000703808A064A190102EB03135052C3E906
:107BB000024530BC70475B1A1344E9E79833002054
:107BC00018330020C37D002B42D0C3780A7802F01E
:107BD000800203F07F0313430B7002780B7803F0ED
:107BE0007F0343EAC2130B700378002B41D030B4FB
:107BF0008378082B14BF002201224B7803F07F0307
:107C000043EAC2134B70C58803F08003C5F38614A2
:107C100023434B708A7802F0030242EA8502D2B213
:107C20008A70057A02F0FC02C5F3C10422438A700F
:107C3000CB7803F01F0343EA4513DBB2CB70427AE3
:107C400003F0E00302F01F021343CB7030BC704717
:107C5000C3780A7802F0BF029B0103F0400313438C
:107C60000B70027903F0C00302F03F0213430B7064
:107C7000B3E770470023032B2CD810B402E0013384
:107C8000032B23D8144C742202FB034292F84C209D
:107C9000012AF4D1742202FB0342948AC2899442DD
:107CA000EDD10D4C742202FB0342D2888A42E6D108
:107CB000742202FB0342B2F85C2012B1848AA24211
:107CC000DDD10548742202FB030000E000205DF8CE
:107CD000044B70470020704754350020002300E01B
:107CE0000133032B13D80B49742202FB031292F8C1
:107CF0004C20022AF4D1742202FB0312918A828A58
:107D00009142EDD10348742202FB0300704700202A
:107D1000704700BF5435002008B904207047082080
:107D2000704730B403460C460978C17000214162A7
:107D3000A1680B2903D8217BF9B1012100E00121C1
:107D400019700020987029B1A1680731C90801395C
:107D5000597218720121D97503F10C056169206906
:107D600085E80300E1899982A1691962217F9975EB
:107D7000216AD9629A6230BC70470021E0E70000B6
:107D80000021164B1B688B4226D90023144A02EBB4
:107D9000C10252689A421DD910B4114A52F83120DA
:107DA00002EBC30412F8332082420DD001330C4A97
:107DB00002EBC10252689A42EFD80131074B1B68AF
:107DC0008B4205D90023F2E760685DF8044B7047E9
:107DD0000020FAE70131D4E7002070479C330020EF
:107DE000A033002030B58DB005460C462C22002172
:107DF00001A81FF085FB10238DF8043002958DF843
:107E00000C4001A801F0B4FA0DB030BD70B58CB0D3
:107E100006460D4614462C22002101A81FF070FBD7
:107E20000F238DF80430ADF808604FF0000365F3C0
:107E300000038DF80A308DF80B4001A801F098FA84
:107E40000CB070BD00B58DB010B913F1020F06D1A2
:107E5000074B186804F0D0FB0DB05DF804FB01215E
:107E60008DF804100293039201A801F081FAEFE764
:107E7000B8330020F8B5069C002960D01E460F4696
:107E800015685168D2F808C0D368E5602161C4F86C
:107E900014C0A36115695169E56121620023637013
:107EA0000278D20922705AB30423BB4249D8E17D3B
:107EB00041B3037803F07F03E3700023A3709AB10A
:107EC00043789B0103F4FE53827843EA9203E380F4
:107ED0008378DB0003F01803C27843EA521323725D
:107EE000C37803F01F036372002363623378032BAC
:107EF00021D83278144B53F82230E3620020F8BDC9
:107F00000123D2E70178C1F38011E170017801F01B
:107F10003F01217142B190F90130002B02DB0423B3
:107F2000A370CCE70823FBE70421A1700B44BB42FC
:107F3000C5D90920E3E77846FFF75CFDD9E70920BA
:107F4000DDE70920DBE700BF4484040070B50C4680
:107F50001D4603789BB104263244A26000F10C0355
:107F60002360836A6360C36AE3600023237420464E
:107F700004F0B2FE10B963691E442E6070BD012684
:107F8000EAE72DE9F0418EB00D4616461C468046C4
:107F900000282DD0002D2FD0002C31D0636A023361
:107FA000059304F10C00E378002B2DD00121A27879
:107FB00001AF3B46082A14BF0022012204F061FCF5
:107FC0000697CDF81C80B2B2ADF820200B95154471
:107FD0000C95A3788DF83430237B022B16D0002328
:107FE000ADF8283005A804F044FC0EB0BDE8F081DF
:107FF0007846FFF7FFFCCDE77846FFF7FBFCCBE7C1
:108000007846FFF7F7FCC9E70221D0E723692BB1D7
:10801000236909931023ADF82830E3E77846FFF78A
:10802000E9FCF5E72DE9F04188B004460D46C37D33
:10803000002B3CD0082605FB06F8637AAB4238D00B
:10804000257201AB324602A92046FFF77FFF0746A3
:1080500048BB4DB994F8573033B9A369C3F30C0347
:10806000E380012384F85730E37D7BB994F85630E0
:1080700063B91DBB206FB4F84E10A27823468A1A4C
:108080000146FFF77EFF012384F85630079920460A
:10809000FFF798FD216F3246414401981FF007FA1F
:1080A00002A804F03FFE384608B0BDE8F0810C2677
:1080B000C1E7B4F84E60A6EB0806C1E77846FFF7C3
:1080C00099FCD7E770B505460E4609B100230B6051
:1080D00095F85440002104E0631C85F854300134C5
:1080E000E4B26B7AA34210D32A6D0123A3401A4253
:1080F000F5D121462846FFF795FF014628B9002E05
:10810000EAD0336801333360E6E7084670BDF0B566
:1081100089B004460E46154683789A18C37D63B12C
:108120000B239A4221D801AB02A92046FFF70EFF8C
:10813000074620B1384609B0F0BD0F23F1E7079993
:108140002046FFF73FFDE37D43B12A4631460198C3
:108150001FF0ADF902A804F0E5FDEBE723462A463F
:1081600001993046FFF70DFFF4E70927E2E7000029
:1081700010B5044690F84C30012B0FD103F0EAFB08
:10818000237B012B0ED00B4BD968012384F8483098
:10819000014404F1300003F0B3FB10BD7846FFF753
:1081A00029FCEBE7A17D034BDA681B6903FB012186
:1081B000EBE700BFBC33002030B583B0002403E000
:1081C0002846FFF7D5FF0134032C16D80C4A742338
:1081D00003FB042393F84C30012BF4D100230193CB
:1081E000742505FB042501A92846FFF76BFF042829
:1081F000E6D0019B002BE6D0E2E703B030BD00BF24
:108200005435002038B5044690F84C30022B09D183
:10821000064B1D6803F09EFB411904F1300003F08A
:108220006FFB38BD7846FFF7E5FBF1E7BC33002074
:1082300038B5044690F84C30022B10D10A4B5D7DC6
:108240005A689B6803FB052503F084FB411904F180
:10825000540003F055FB012384F86C3038BD784698
:10826000FFF7C8FBEAE700BFBC33002010B50446A7
:10827000FFF75CFC90B904F1300003F029FB94F89F
:108280004C30022B0ED07422002120461FF038F90A
:10829000002084F84C0002F0A1FB10BD206F09F013
:1082A0001AFFE8E704F1540003F012FBEBE70000CB
:1082B00030B585B00D460446A8B194F84C30022B79
:1082C00015D02946A06DFFF78DFD2046FFF7CEFFA4
:1082D000114B1B6813F0040F03D0104B1B68032BCA
:1082E00009DC05B030BD7846FFF784FBE5E72046A2
:1082F000FFF740FCE5E70A4BD3F8043594F84C202F
:1083000002950192074A009240F2F31206490420B6
:1083100005F04EFBE5E700BF582E0020542E00204C
:1083200000100140D0820400C382040038B5054625
:10833000002406E02946742000FB0420FFF7B8FF64
:108340000134032C08D8054A742303FB042393F853
:108350004C30022BF4D1EDE738BD00BF543500207E
:1083600008B508460021FFF7A3FF08BD10B58CB083
:10837000044690F84C30012B0FD101238DF80430C6
:10838000A36D029303F0E6FA039001A800F0F0FF5A
:108390002046FFF76BFF0CB010BD7846FFF72AFBB5
:1083A000EBE708B5037B012B02D0FFF7DFFF08BD29
:1083B0000121FFF77DFFFAE708B590F8553053B17A
:1083C000013B80F85530002380F85430034B186887
:1083D00004F012F908BDFFF7E4FFFBE7B833002013
:1083E00010B5002400E00134032C14D80A4A742389
:1083F00003FB042393F84C30012BF4D1742303FBCB
:10840000042393F84830022BEDD1742000FB0420A4
:10841000FFF7D2FFE7E710BD5435002008B5037819
:10842000192B13D01A2B08D0182B00D008BD082008
:10843000FFF77CFFFFF7D4FFF8E70379012BF5D1B5
:108440000620FFF773FFFFF7CBFFEFE70379012B60
:10845000ECD10720FFF76AFFE8E70000062976D194
:10846000F0B585B015460678B20102F4FE524178A7
:108470008478C3781B0443EA0463047943EA042341
:1084800044791C4376B242EA91012846FFF7F2FB99
:108490000746E0B1002E2FDBC289A98A8A422BD081
:1084A0002B4B1B6813F0040F3ED02A4B1B68012B8B
:1084B0003ADD294BD3F8043502910192274A009204
:1084C00040F27B622649022005F072FA2CE0204B34
:1084D0001B6813F0040F27D01E4B1B68012B23DDF4
:1084E0001D4BD3F804351F4A009240F277621C49B5
:1084F000022005F05DFA17E0002E17DB3D6D2543E5
:108500003D65BCB13B78D3B17B7A5A1C01239340C3
:10851000013B9D4217D0002187F854103846FFF7E1
:10852000D1FD3846FFF724FE05B0F0BDAB8AA7F8B1
:108530005C30E3E703213846FFF7BAFEF4E77846FC
:10854000FFF758FAE0E73846FFF710FFECE770470F
:10855000582E0020542E00200010014024830400D7
:10856000C3820400F482040010B50446808A02F03D
:1085700061FD01281CD1237BE3B194F91620002A68
:108580001ADBE27D4AB1022B18D094F90330002B9C
:1085900016DBA378B3B900200BE0E2780AB9012B0F
:1085A00012D1237893B9A378042B11D1002000E0D5
:1085B000102010BD1020FCE70720FAE71020F8E794
:1085C0000720F6E70720F4E70720F2E70020F0E7AE
:1085D0000720EEE738B5044603784BB1C388C2697B
:1085E0008169808A06F0CCFB054645B9284638BD2E
:1085F000C2698169808A06F0BDFB0546F5E7E1693D
:10860000002201F00101A08AFFF700FCEEE72DE94E
:10861000F0418AB007460E4614461D461046FFF745
:10862000D9FF50B994F80380B8F1000F08D12B4658
:10863000224631463846FFF711FF0AB0BDE8F08107
:108640004046FFF79DFB02460028F6D08DF80480D7
:10865000236A0793A38AADF8123005AB2169E0685D
:1086600083E80300A37D8DF82030029703962378DA
:108670008DF81030E36A0993294601A89047DCE79A
:108680002DE9F04107460D4616464B1EDBB2012B85
:1086900010D8B6F5C07F11D8012D13D00024032CBB
:1086A00024D83E4A742303FB042393F84C305BB177
:1086B0000134F4E77846FFF79DF9EAE77846FFF7DB
:1086C00099F9E9E70124EAE74FF0740808FB042868
:1086D0001CB9334BC8F870300AE0304609F0F7FC9B
:1086E0002E4B742202FB0434206701E04FF0000897
:1086F000B8F1000F32D0D8F87030002B4BD03B4689
:10870000424607F1300ED3F800C05C689868D9681B
:10871000C2F800C054609060D160103310327345CD
:10872000F1D10023C8F85030A8F84E60012D18D0C0
:108730006FF00103C8F82830002388F86C30194B1B
:10874000C8F85C30C8F86480174BC8F83830C8F8EF
:108750004080012002F042F988F84C504046BDE8C4
:10876000F081124B1B7D88F85530002388F8563075
:1087700088F8573088F85430BA6AC8F85820A8F8F2
:108780005C306FF00103C8F82830094BC8F8383066
:10879000C8F84080DDE79846E0E700BF5435002088
:1087A000D4330020038F020061830200BC33002019
:1087B0000F890200F0B5C7B00F46164682783244E2
:1087C000C37D2BB14FF48073934279D3002303E030
:1087D0004FF4C073F8E70133032B17D83A4D7424D4
:1087E00004FB035494F84C40012CF4D1742101FB98
:1087F00003518C8A818A8C42EDD1742101FB035193
:10880000CC89C1898C42E6D1082552E00121FFF7CD
:1088100037FF0446002855D032463946006F1EF017
:1088200046FE0023459345A92046FFF74BFC05462D
:1088300008B1042840D1459B0BBB244B1B6813F0A7
:10884000040F35D0224B1B68032B31DDB4F84E707A
:10885000802F28BF80270023BB4214D2226FD25C16
:108860001C490D68100959002E5C04A800F813601B
:1088700002F00F020131AA5C42540133ECE72046BA
:10888000FFF776FCD9E704AA002302F8173003F1BA
:10889000804303F58833D3F8043502920E4A0192DF
:1088A0000E4A00924FF4AC620D49042005F080F8A6
:1088B0000025284647B0F0BD2046FFF7D7FCF8E773
:1088C0000925F6E70425F4E754350020582E00204A
:1088D000542E00205C2E0020688304004080040099
:1088E000C382040070B504460D461646FFF73CFEF1
:1088F00030B923782BB1324629462046FFF75AFF7C
:1089000070BD324629462046FFF701FCF8E710B556
:108910000C4691F84C30012B09D108F0BFFC50B146
:10892000002008F073FD022384F8483010BD78461B
:10893000FFF760F8F1E72046FFF73EFDF6E700009D
:1089400000B585B000228DF80F20A0B10B4602467D
:1089500002320A600DF10F01184603F08EFF9DF8F8
:108960000F3043B10C4B1B6813F0040F03D00B4BBB
:108970001B68032B04DC9DF80F0005B05DF804FBB9
:10898000074BD3F80435074A009240F215420649D6
:10899000042005F00DF8EEE7582E0020542E00209C
:1089A0000010014078830400C38204002DE9F043E5
:1089B0008FB004460E4615461F46D0F8188003783F
:1089C0004BB1C288C8F30C03934241D2D21A42443D
:1089D000A2F50052A26104F10C00E378002B3AD01A
:1089E0000121A2780DF128094B46082A14BF002264
:1089F000012203F046FFC4F81880CDF808900396D2
:108A0000A378EA1A92B2ADF8102032440892079780
:108A10008DF824300023ADF81830E3787BB3237B46
:108A2000022B1AD02546002345F8243F2A462179F7
:108A3000206A10F047FE606AA8B101A9FFF780FF25
:108A4000002840D12A462179206A10F03BFEF2E747
:108A5000D21A4244BEE70221C3E71023ADF8183012
:108A600023690593DEE7237B022B30D104F10C014F
:108A7000E08910F0FFFE0028D1D1052024E0237BFF
:108A8000012B01D005201FE0E389ADF80030A38A57
:108A9000ADF802300025012D13D82146002341F8FE
:108AA000243F0EAB03EB450333F8380C10F027FEE0
:108AB00001A9606AFFF744FF08B90135EBE7002020
:108AC00002E0052000E000200FB0BDE8F0830520A3
:108AD000FAE7000070B5F0B00E4614461D4610AB24
:108AE0000A4601462046FFF761FF50B1214B1B6843
:108AF00013F0040F03D0204B1B68052B2DDC70B046
:108B000070BD2046FFF766FD0028F8D103AB0122B7
:108B10008DF80C20A28AADF80E20002204928DF868
:108B2000142010AA0692A178711AADF81C1008AA98
:108B300093E8030082E803000AAB2169E06883E858
:108B40000300A37D8DF83830236A0C93636A0D937C
:108B50000F9505A800F00CFCD1E7084BD3F80435BD
:108B6000074A009240F201720649062004F020FFF5
:108B7000C5E700BF582E0020542E002000100140F1
:108B80008C830400C382040010B5547814F0010FE4
:108B900003D0D47D14B1FFF73AFD10BDFFF79AFF63
:108BA000FBE708B501390130FFF7EEFF08BD000013
:108BB00038B504460D46CB695B780371CB691B78E9
:108BC00083F00103C370CB6943628B8A0B2B07D8F8
:108BD000CB7A002B35D10B7B012B02D0002300E098
:108BE00001232370002B31D0287B02282BD0FFF7E4
:108BF00093F8A070AB8A03440B33174A82FB03231C
:108C00005B10013B6372002323720023E37504F1C0
:108C10000C0395E8030083E80300AB6923622B890A
:108C2000A382AB7AA3752B6AA362DF23E362284693
:108C300010F0F6FE20B12B78012B0AD0FF23E3625F
:108C400038BD0123CDE7054B987DD0E70423A37001
:108C5000DBE72023F3E700BFABAAAA2ABC3300203E
:108C600010B54FF4E872002115481EF049FC06F0DB
:108C700045FA0024134B1C608022214612481EF046
:108C80003FFC124B124A1A60124A5A604CF25032A0
:108C90009A601149D9601A6104221A759C750822DC
:108CA0005A750E4803F088FC0D4B18600D4B1C6084
:108CB0000D4806F01BFB0D4802F06CFB10BD00BF19
:108CC000543500209833002018330020BC33002096
:108CD00080969800F049020020A10700F58E02005E
:108CE000B83300209C330020457E02003C2E00203B
:108CF00008B506F037F808BD98B110B58CB0044639
:108D0000036983B1C36983B1836983B1014668464E
:108D1000FFF74EFFA28A21696846FFF7E3FD0CB01A
:108D200010BD0E2070470E20F9E70E20F7E70E2049
:108D3000F5E7000058B310B590B00A460446436802
:108D40003BB383693BB3014604A8FEF7EAFF134B2C
:108D50001B6813F0040F03D0114B1B68062B06DCB5
:108D6000A268616804A8FFF7BDFD10B010BD0D4BEF
:108D7000D3F804352278A169029101920A4A00923F
:108D800040F603020949072004F012FEE8E70E202E
:108D900070470E20E9E70E20E7E700BF582E0020BD
:108DA000542E002000100140B8830400C382040048
:108DB000037B012B01D00020704730B591B00446F1
:108DC0000D46334B1B6813F0040F03D0314B1B6867
:108DD000032B41DC04A900230593CDF81730E2886A
:108DE000C2F3861092008DF811202A0E8DF8122001
:108DF0002A0C8DF813202A0A8DF814208DF81550AE
:108E00006278022A0CBF80221A4642EA00028DF8DC
:108E100010204FF0060209924FF001028DF82C202D
:108E2000A28AADF82E200C938DF81C300891226A8E
:108E30000D928DF82830E36A0F9319D0E389ADF8CD
:108E40002A30A37DF3B98DF838306FF0010107A8FF
:108E5000FFF770FF11B030BD0F4BD3F804350F4A48
:108E6000009240F263220E49042004F0A1FDB1E714
:108E70000DF10E0103A810F019FDBDF80C30ADF88E
:108E80002A30DEE7074B5B7D8DF83830DDE700BF29
:108E9000582E0020542E002000100140E4830400CE
:108EA000C3820400BC33002090F84C30022B00D069
:108EB000704710B5044690F86C30022B00D010BDFE
:108EC000016DFFF775FF0028F9D1002384F86C309D
:108ED000F5E7000010B5002406E0054B742000FB08
:108EE0000430FFF7E1FF0134032CF6D910BD00BFB9
:108EF0005435002008B5FFF75FF9FFF7EBFF0120BD
:108F000008BD10B50C4691F84C30022B06D1022357
:108F100084F86C302046FFF7C7FF10BD7846FEF797
:108F200069FDF4E7F0B583B00446C5698269C3887A
:108F30002F0A2E06C2F30C05AB4232D95B1B134439
:108F4000A3F50053F61847F1000732463B46A08AC6
:108F5000FEF7F4FD002840F0B8802046FEF7BEFE84
:108F6000054648B3D0F81CC08269C3884FEA1C216B
:108F70004FEA0C60C2F30C0C9C4515D2A3EB0C031A
:108F80001344A3F50053C01841F10001B94208BFD2
:108F9000B0420DD38F4208BF86423BD3284603B070
:108FA000F0BD5B1B1344CDE7A3EB0C031344EAE7CE
:108FB00005212846FFF77CF9E388E269A169A08AC8
:108FC00005F09CFF002841D108F068F9002857D12E
:108FD000627A531CE17D002956D0082202FB03F27D
:108FE000002953D04FF48073934252D3022120467C
:108FF000FFF746FB05460028D0D108F04FF90028BE
:109000005FD100212046FFF7D3FE02210020FEF7AA
:10901000E9FEC3E708F042F940B12D4B1B6813F09D
:10902000040F03D02B4B1B68012B01DC0025B5E797
:10903000294BD3F80435E2880192284A009240F285
:1090400037322749022004F0B3FCEFE7E388E269F6
:10905000A169A08A05F0CCFF60B1237863B1617A81
:109060004B1C0121994001392046FFF7A1FE204603
:10907000FFF7B0FA002591E77846FEF7BBFCEEE774
:109080000520FFF753F9A3E70C22A7E74FF4C073BD
:10909000AAE70F4B1B6813F0040F03D00D4B1B689E
:1090A000002B01DC002579E70B4BD3F80435019246
:1090B0000C4A009240F27F320949012004F078FC0A
:1090C000F0E77846FEF796FC9BE7002566E700BFD1
:1090D000582E0020542E002000100140F48304007C
:1090E000C3820400208404002DE9F04182B00746C9
:1090F0000E46144698461046FFF714FF002844D049
:109100000546444B1B6813F0040F03D0424B1B6809
:10911000032B3DDC08F0C2F8002847D02B6D217AE4
:1091200001228A40134230D11A432A65043E237A31
:10913000E27D002A48D04FF0080C0CFB03FC697A52
:109140008B4244D0002A47D00823B34246D1AA69B3
:10915000A3699A4209D205F10C0E0C340FCCAEE88B
:109160000F0094E803008EE80300286F3246391D93
:1091700060441EF09CF92C6D2B78A3B36B7A5A1CBB
:1091800001239340013B9C4231D002B0BDE8F08105
:10919000224BD3F80435227A0192214A009240F200
:1091A000A3322049042004F003FCB3E72846FFF76C
:1091B00029F82B7B012BB1D195F86C30002BADD168
:1091C0002846FFF735F8A9E74FF00C0CB5E70CEB94
:1091D0000603A5F84E30BAE70C23B6E7042128466B
:1091E000FFF766F8D1E77846FEF704FCC6E708F01B
:1091F00055F850B143462A46B5F84E10286FFFF790
:10920000C3FC2846FFF732F8BFE7296D2846FFF771
:10921000CFFDEFE7582E0020542E00200010014013
:1092200034840400C38204002DE9F04190B000288A
:109230004FD00F4614461E468046002A4BD004AB42
:1092400000933346FEF716FE054618B1284610B0C7
:10925000BDE8F08104A8FFF787F905460028F5D19D
:10926000204608F037F900230293039302A960888F
:1092700010F000FB28B19DF8113043F001038DF888
:1092800011302269E168208905F0F0FD38B19DF8C0
:10929000113003F0FE038DF81130002BD6D09DF86D
:1092A0001130002BD2D013F0010F01D0039B089393
:1092B0009DF8103033B1334604AA39464046FFF7D3
:1092C00013FFC3E7334604AA39464046FFF769FC5B
:1092D000BCE70E25BAE70E25B8E7000020B3F8B5C5
:1092E0000E460546164B1F68022F1FD80024B442B5
:1092F0000FD205EBC4035B68D3B115F8340015F940
:109300003430002B16DBB8B1FEF73AFDB0B90134AA
:10931000EDE70C4B43F8375003EBC7035E600137B2
:10932000074B1F60002002E00E2070470420F8BDAC
:109330000E20FCE70B20FAE70F20F8E70F20F6E7F6
:109340009C330020A0330020084B196861B110B590
:1093500004E0064804F096FA214624B10C680B7923
:10936000002BF9D0F5E710BD704700BF283700206B
:1093700038B5054630B1104B1C68ACB10F4B01221B
:109380001A7004E07846FEF735FBF4E724683CB138
:109390002379002BFAD154F8043C28469847F5E786
:1093A000064B1B78022B00D038BDFFF7CDFF034BD7
:1093B00000221A70F8E700BF283700202437002069
:1093C00010B5044630B100232372211D034804F078
:1093D0002EFA10BD7846FEF70DFBF4E72837002083
:1093E00010B5044658B10A4B1B78013BDBB2012B88
:1093F00009D8074B02221A700123237210BD784648
:10940000FEF7F8FAEFE7211D024804F03BFAF5E712
:1094100024370020283700200A8883689B5A0733A6
:109420009BB223F0030313449BB20288043A934295
:1094300000D900230B80704710B582B004468368C2
:10944000C91AADF806100DF10601FFF7E5FFBDF8EA
:109450000630A068184402B010BD0088043880B2FD
:10946000704743888268D018D152012383707047B7
:10947000826800239370438083807047073189B2EC
:1094800021F0030189B2428883889A4204D29B1A50
:1094900099421EDC0020704710B59A420FD904880B
:1094A000A41AA14217D98B4217D3032C03D983687E
:1094B000134404229A7000234380184604E0826813
:1094C00013449B780BB1042010BDFFF7D1FF00209F
:1094D000FAE7042070470020F6E70420F4E738B5E7
:1094E00004460D468368828813448B4202D0784636
:1094F000FEF780FA0023AB70211D2046FFF78CFF9A
:10950000A288A36813449B78042B00D038BD0023A5
:10951000A380FBE710B50C468368428813448B4256
:1095200002D07846FEF766FA0023A37010BD70B52E
:10953000054614460E46002944D0002D46D0B6F10B
:10954000005F08D94FF08053D3F80C3103F50023A6
:10955000B6EB832F0ED3B6F5000F08D94FF080532A
:10956000D3F80C3103F50053B6EB832F02D37846C2
:10957000FEF740FA631E3344B3F1005F08D94FF0A1
:109580008052D2F80C2102F50022B3EB822F0ED3C9
:10959000B3F5000F08D94FF08052D2F80C2102F534
:1095A0000052B3EB822F02D37846FEF723FA042C45
:1095B00010D92C8000236B80AB80AE60043C3480DB
:1095C000B37070BD7846FEF715FAB6E77846FEF739
:1095D00011FAB4E77846FEF70DFAEAE738B5044623
:1095E000A0B16288A36813449B78012B12D0EFF3DB
:1095F000108572B6A388A16819448B78032B0DD00F
:109600002046FFF735FF05B962B638BD7846FEF74C
:10961000F1F9E6E77846FEF7EDF9E8E72046FFF7CF
:109620000BFFA368C31A638000238370EBE72DE967
:10963000F0410E4614460546D0B1EEB16A88AB68DB
:1096400013449B78012B1BD024B32846FFF705FF5A
:10965000A04221D3EFF3108872B621462846FFF7C7
:109660000DFF074680B1B8F1000F16D162B614E0C5
:109670007846FEF7BFF9E0E77846FEF7BBF9DDE78D
:109680007846FEF7B7F9DFE721462846FFF7E9FEFF
:109690003060E8E7092700E009273846BDE8F08197
:1096A000F8B50C4615460646E0B1FCB1A378012B8F
:1096B00020D12388AB4221D325B3EFF3108772B6B4
:1096C00025800223A370F1183046FFF7A5FE7388AA
:1096D000B288934203D0B268134400229A7007B94B
:1096E00062B6F8BD7846FEF785F9DEE77846FEF704
:1096F00081F9DBE77846FEF77DF9DAE77846FEF791
:1097000079F9D9E77846FEF775F9D6E770B50C46D2
:10971000054690B1ACB1EFF3108672B6AA88AB687B
:1097200013449A78042A10D09A78022A15D0032A72
:1097300018D0052006B962B670BD7846FEF75AF912
:10974000E8E77846FEF756F9E5E7291D2846FFF7D2
:1097500063FEAA88AB681344E6E703229A7023608D
:109760000020E7E77846FEF745F90020E2E738B544
:10977000044680B1EFF3108572B6A088A168014459
:109780008B78042B0BD08878022814BF002001208E
:1097900005B962B638BD7846FEF72CF9EAE72046EF
:1097A000FFF74AFE0146EEE738B5054678B1EFF31C
:1097B000108472B6A888A96801448878C31EDBB2F9
:1097C000012B08D82846FFF737FE0146F5E7784613
:1097D000FEF710F9EBE7022814BF0020012004B9BE
:1097E00062B638BD70B50C46064678B194B1EFF359
:1097F000108572B6A378012B10D0032B13D121460C
:109800003046FFF76CFE05B962B670BD7846FEF7CC
:10981000F1F8EBE77846FEF7EDF8E8E72146304649
:10982000FFF778FEEFE77846FEF7E4F8EBE710B5D0
:10983000EFF3108472B68388816819448B78042B07
:1098400006D08878B0FA80F0400904B962B610BD3D
:10985000FFF7F2FD0146F4E708B5064B98680022D1
:109860001A605A609A60DA601A615A619A6105F06A
:109870001FF808BD2C37002000B585B00A4BDB6807
:1098800002228DF8002001934FF480530293074A7F
:109890006946012001F0E4FA18B9012005B05DF82D
:1098A00004FB0020FAE700BF2C37002048370020D7
:1098B00000B585B00A4B1B6802228DF80020019389
:1098C0004FF480530293074A6946012001F0C8FA19
:1098D00018B9012005B05DF804FB0020FAE700BFCD
:1098E0004C37002048370020164BDA68137951793D
:1098F0005B1A03F57F2303F6FF7302EB03339A42EF
:1099000005D002F580520F4BDA600320704700B596
:1099100085B00D4B1B6801208DF8000001930B4BA7
:109920000393042302930A4A694601F099FA18B195
:10993000002005B05DF804FB024B01221A760220DC
:10994000F7E700BF2C3700204C37002050370020AD
:109950004837002000B585B00C4BDA680C4B1B680B
:10996000043301208DF800000192039340F6FC734C
:109970000293084A694601F073FA28B90120034BA3
:10998000187605B05DF804FB0020FAE72C370020BC
:109990004C3700204837002000B585B00A4B1B68C3
:1099A00001208DF800000193084B039304230293D8
:1099B000074A694601F054FA18B9012005B05DF86C
:1099C00004FB0020FAE700BF4C37002038370020A6
:1099D0004837002010B584B0104BDA681478104B6B
:1099E0001B68043301208DF8000001930392029458
:1099F0000C4A694601F034FA70B9094B1B6804F04F
:109A0000FC041C440434054B5C61D9680A780A44A0
:109A10001A61012004B010BD0020FBE72C370020A4
:109A20004C3700204837002008B50023092B09D8FF
:109A3000064A52F82320824201D00133F6E7044A55
:109A4000536002E07846FDF7D5FF08BD00850400AD
:109A50002C37002010B5214BDB6853B11F4B1B7E08
:109A60005BB91E4B5B68092B26D97846FDF7C2FF10
:109A700022E07846FDF7BEFFF0E77846FDF7BAFF33
:109A8000EFE7164A536801335360092B21D9784612
:109A9000FDF7B0FF1DE0114B00225A6019E00F4B9B
:109AA0001B7E1BB10D4B02221A7012E0FFF7D4FE91
:109AB0000FE00A4B1B7E83B9084B5A68084B53F8DA
:109AC0002230984704460228E9D00328E3D0012831
:109AD000D7D0012CEDD0032CEBD010BD2C370020BB
:109AE00000850400104B1B681B685A1E12F1030FFF
:109AF00018D8C3F30B020AB10020704710B50B4A07
:109B0000D3600023137653760124147093600848C1
:109B1000FFF78AFF0749204601F090F9FFF79AFF07
:109B2000204610BD002070474C3700202C37002005
:109B300079980200399B020008B50B78032B06D0F8
:109B40000B4B1B78012B06D0022B0BD008BD084B0A
:109B500000221A76F4E7064B1B7E002BF6D1FFF7A6
:109B600079FFF3E70B78032BF0D1FFF775FEEDE7F4
:109B70002C37002000B585B0174BDB6818784FF6FE
:109B8000FF7203F58051184405F066FBE0B1024610
:109B9000114BD9680B780B44984217D00E4B5B7E63
:109BA00083B10E4B01208DF8000001920393042332
:109BB00002930B4A694601F053F948B90120064B5C
:109BC000187606E0074BEDE7012002E0012000E0F7
:109BD000002005B05DF804FB2C3700203888040015
:109BE000483700203488040008B5104BDB6818782B
:109BF000002203F58051184405F02EFB08B1012026
:109C000008BD0A4BDA68137951795B1A03F57F2393
:109C100003F6FF7302EB03339A4205D002F580523C
:109C2000024BDA600320EBE70220E9E72C37002043
:109C3000F0B585B0514BDE6872793379591E8A428E
:109C400014D006F580510D780D444D490968081D62
:109C50000F7907449B1A06EB03366B88013B9BB2D6
:109C600047F6FE62934260D92C461AE00120434B2E
:109C700058767EE07846FDF7BDFE15E024F47F645B
:109C800024F00F0404F5805423781C44A64247D9DD
:109C9000A54247D26388013B9BB247F6FE629342DE
:109CA00011D92388002BE5D0238804EB830323F408
:109CB0007F6222F00F029342E0D06288B2F5FE4F3D
:109CC000DCD01C46E2E725462FE07846FDF792FE01
:109CD00015E024F47F6424F00F0404F58054237805
:109CE0001C44A64220D9A5423BD26388013B9BB2CB
:109CF00047F6FE62934211D92388002BE5D02388D2
:109D000004EB830323F47F6222F00F029342E0D03E
:109D10006288B2F5FE4FDCD01C46E2E7254604E03F
:109D2000002502E0002500E00025E5B1144B19688C
:109D30006A8801F58051384605F08EFA074690B1E1
:109D400001200E4B18768DF8000001950D4B039302
:109D5000042302930C4A694601F082F858B92C4654
:109D6000CAE70025E1E7B5FA85F56D09034B5D7695
:109D7000012005B0F0BD0020FBE700BF2C3700201C
:109D80004C37002030880400483700202DE9F0418E
:109D900086B0644B1B692BB1624B5B6933B14FF0EA
:109DA000000846E07846FDF725FEF5E77846FDF722
:109DB00021FEF4E77846FDF71DFE15E025F47F65EA
:109DC00025F00F0505F580552B781D44AF421CD9B1
:109DD000AC421ED26B88013B9BB247F6FE629342B7
:109DE00011D92B88002BE5D02B8805EB830323F4B6
:109DF0007F6222F00F029342E0D06A88B2F5FE4FF4
:109E0000DCD01D46E2E72C4600E000241CB10094A3
:109E10003AE00024FAE700230093019B002B5CD179
:109E20004FF00108002C77D0628847F6FF739A4202
:109E300072D0B8F1000F73D13A4B5A6922F47F66A1
:109E400026F00F06B61A06F580561C69DF683B79C6
:109E50007A799B1A07EB0337002301936388013B50
:109E60009BB247F6FE629342D1D92546B9E77846C0
:109E7000FDF7C0FD23E024F47F6424F00F0404F513
:109E80008054237823441C46A742C6D92388019ACC
:109E900002EB83029642C0D9009B634023F47F63A8
:109EA00023F00F03002BB8D16388013B9BB247F628
:109EB000FE618B42B1D801922388002BD7D0238832
:109EC00004EB830323F47F6222F00F029342D2D08B
:109ED0006288B2F5FE4FD6D1CDE7124A5269012011
:109EE0008DF808000392009A059204930E4A02A985
:109EF00000F0B6FF70B90B49019B23F003024B69D8
:109F000013444B6114B1074B1C618BE77846FDF796
:109F100071FDF8E7002000E0012006B0BDE8F08107
:109F20000120FAE72C3700204837002000B585B023
:109F300040F6F8731B68B3F1FF3F09D0B3F1FF3F60
:109F40000CD07BB1B3F1FF3F37D0A3F580520FE0C7
:109F50001E4A1268B2F1FF3FF0D103E01B4A1268BB
:109F6000002AEFD14FF080514B690A6902FB03F2DE
:109F7000A2F58052164B1A60164B1B6813F4801F13
:109F800016D0154B1B68062B12DD144BD3F8043585
:109F900040F6F8710968B1F1FF3F13D002920191C8
:109FA0000F4A009240F267220E49072003F000FD9D
:109FB000FFF798FD05B05DF804FB044B1A68A2F5A5
:109FC0008052D5E701490968E8E700BF1410001086
:109FD0004C370020582E0020542E00200010014045
:109FE000CC840400B384040010B50446B0B1104B17
:109FF0001B78BBB10E4BD968E3685879A3EB0032EC
:10A00000914211D31A79121A02F57F2202F6FF72D9
:10A0100003EB0233994209D8012004E07846FDF7AA
:10A02000E9FCE4E7002010BD0020FCE70020FAE78F
:10A030002C370020024B1878003818BF01207047D9
:10A040002C37002010B504460E4B1B7893B92378AB
:10A05000032B13D10B4B9C60E268DA6000225A603C
:10A060001A76012018705A76074900F0E7FEFFF7CC
:10A07000F1FC10BD7846FDF7BDFCE8E77846FDF73A
:10A08000B9FCE7E72C370020399B0200014B186828
:10A09000704700BF4C37002010B5044680B163689C
:10A0A0001BB123680BB1A36813B97846FDF7A2FC76
:10A0B000A3685A1E134207D10023E360236110BD39
:10A0C0007846FDF797FCEAE77846FDF793FCF3E75F
:10A0D000F8B500B30F4604468368F3B1EFF310857B
:10A0E00072B60369C268934211D0016842688668FB
:10A0F000013E334003FB021117B138461DF0D7F97A
:10A1000023690133236155B962B62846F8BD05B904
:10A1100062B60525F9E70E25F7E70925F5E70025DD
:10A12000F3E700000246C0F30B0040BB49B310B494
:10A1300001F6FF710C0B144B0221C3F80415124BEE
:10A14000D3F80034002BFAD001460AE00E4BC3F8D6
:10A1500008250D4BD3F80034002BFAD002F58052BD
:10A160000131A142F2D3084B0022C3F80425064B6B
:10A17000D3F80034002BFAD05DF8044B7047102060
:10A1800070470920704700BF00E0014010F0030F46
:10A190002FD110B4044611F0030F2CD16AB312F082
:10A1A000030F2CD19008174B0122C3F80425154B3F
:10A1B000D3F80034002BFAD002E004340431104606
:10A1C000421E50B10B68B3F1FF3FF6D023600D4B38
:10A1D000D3F80034002BFAD0EFE70A4B0022C3F883
:10A1E0000425084BD3F80034002BFAD05DF8044B5B
:10A1F0007047102070471020F8E70920F6E7092083
:10A20000F4E700BF00E00140094B1B7813F0040F96
:10A2100002D00378122B00D07047064B1A68064B09
:10A220005A60034B1A786FF382021A70F4E700BF8A
:10A23000E8370020D83700208437002010B582B0DE
:10A2400001900C46000C012810D12368094A1360C4
:10A2500009490B7843F001030B705B0883F001039D
:10A2600003F001031371002002B010BD7846FDF722
:10A27000C1FBEAE7D8370020E837002010B582B0EC
:10A2800001900C46000C02280FD12268094B1A607D
:10A2900022791A71002058719871D871064A137882
:10A2A00043F00203137002B010BD7846FDF7A2FB25
:10A2B000EBE700BFD0370020E837002010B582B0B0
:10A2C00001900C46000C032806D1054B186820604D
:10A2D0001B79237102B010BD7846FDF78BFBF4E7C4
:10A2E000D837002010B582B001900C46000C03282E
:10A2F0000CD1084B2068186022791A71064A13782D
:10A3000043F001031370002002B010BD7846FDF742
:10A3100071FBEEE7D8370020E837002010B582B097
:10A3200001900C46000C042805D1054B03CB20609E
:10A33000616002B010BD7846FDF75CFBF5E700BF39
:10A34000D037002010B582B001900C46000C0428D4
:10A350000BD1084B2068616803C3074A137843F0A8
:10A3600002031370002002B010BD7846FDF742FBD7
:10A37000EFE700BFD0370020E837002000B583B0FA
:10A380000190000C032806D1054B00221A601A71B7
:10A3900003B05DF804FB7846FDF72CFBF4E700BF43
:10A3A000D837002000B583B00190000C042806D1F6
:10A3B000054B00221A605A6003B05DF804FB784632
:10A3C000FDF718FBF4E700BFD037002010B582B0CE
:10A3D0000024ADF800400123ADF80230009806F0EB
:10A3E000B6F8ADF804400223ADF80630019806F047
:10A3F000AEF802B010BD000000B585B0184B1B7858
:10A4000013F0400F0FD0164B1B7813F0040F07D139
:10A41000144B5B6803F500530193B3F1807F06D9B9
:10A4200005B05DF804FB7846FDF7E4FAEBE70E4B68
:10A430001B788DF808300A4A137843F00403137030
:10A440000023ADF80C300323ADF80E3001A90398BA
:10A4500006F04CF80028E3D07846FDF7CBFADFE7AA
:10A46000E837002084370020E937002000B585B0A8
:10A470000022ADF809200F4B996801911B7B8DF8E4
:10A4800008300D490B780133DBB20B708DF80B30BF
:10A49000ADF80C200423ADF80E300DEB030103984A
:10A4A00006F024F810B905B05DF804FB7846FDF716
:10A4B000A1FAF8E784370020E937002000B585B01D
:10A4C0000F4B9A6801921A7B8DF808201B8AADF811
:10A4D00009300C4B1B788DF80B300023ADF80C3095
:10A4E0000423ADF80E300DEB0301039805F0FEFFD9
:10A4F00010B905B05DF804FB7846FDF77BFAF8E784
:10A5000084370020E937002000B58DB00B4B1B7B52
:10A51000012B0ED0094A926804928DF808300390FE
:10A5200002238DF8043001A8FEF722FF0DB05DF87C
:10A5300004FB024A9268013A0492EEE78437002055
:10A5400008B51D481D4B036000F024FF1C4B1B7811
:10A5500013F0200F2AD103F00303032B14D1194B5E
:10A560001968194A916019791173B3F805001082BE
:10A57000DB79164A1370164A1279934217D0B1B993
:10A58000114B00221A6007E00F4B00221A609A60FC
:10A590001A731A82FFF76AFF0B4B1A685A60084A4F
:10A5A000137843F040031370FFF726FF08BD084BF4
:10A5B0001A68054B1A60EFE7C437002009A20200B1
:10A5C000E8370020D037002084370020E93700200A
:10A5D000D837002010B582B00024ADF80040032326
:10A5E000ADF80230009805F0B2FFADF80440042346
:10A5F000ADF80630019805F0AAFF084B1C605C60BE
:10A600009C60DC601C61064A137803F0DF0343F0B2
:10A6100040031370FFF7F0FE02B010BD8437002036
:10A62000E837002038B50C4D00242C606C60AC601D
:10A63000EC602C6101F08EF9084B5860084A9A6072
:10A64000084ADA601C615C61074B1A7864F3C30244
:10A650001A706C6038BD00BF84370020603700205E
:10A66000C5A7020000879303E837002008B50C4B0C
:10A670001B7813F0100F00D008BD0A480A4B036086
:10A6800000F088FEFFF75CFFFFF7A0FE074801F02F
:10A69000F9F8034A137843F010031370ECE700BF96
:10A6A000E8370020783700201DA90200603700201D
:10A6B000034B1878800880F0010000F0010070471B
:10A6C000E837002010B501F0FFFE174B1B7B1BBBCA
:10A6D000154B9B7B2BBB144B1A8A41F282639A4227
:10A6E00006D8124B1B7813F0080F05D0012300E0A9
:10A6F00001231BB9082410E00023FAE70A4B0122CA
:10A700001A7300241C829A6801329A60FFF7AEFE29
:10A710002046FFF7F9FE00E0082401F019FF20466B
:10A7200010BD0824F9E700BF84370020E837002077
:10A7300010B501F0C9FE214B5B7BABB11F4B9B7B7E
:10A7400003BB1E4B1A8A41F282639A4206D81C4B05
:10A750001B7813F0080F05D0012300E001239BB103
:10A76000012302E00023FAE700231C460BB3134B3E
:10A7700000225A731B7B4BB1012B0ED07846FDF79C
:10A7800039F916E00023F0E70023EEE7FFF79AFF20
:10A7900078B17846FDF72EF90BE0084B00201860E1
:10A7A000586018731882FFF7AFFEFFF75FFEFFF7E0
:10A7B00023FE01F0CDFE204610BD00BF84370020EF
:10A7C000E837002008B52C4B1B7BDBB1012B2ED0CA
:10A7D0007846FDF70FF9284A138A01339BB213829A
:10A7E000264AA2FB03121209C2EB0212A3EB420398
:10A7F0009BB2002B3DD0204B5B8A13B1013B1E4A1C
:10A80000538208BD1C4B1A8A41F282639A4206D8D1
:10A810001B4B1B7813F0080F07D0012300E0012326
:10A82000002BD8D0FFF784FFE5E70023F8E7124BB1
:10A830001B8A41F28262934206D8114A127812F0C2
:10A84000080F14D0012200E00122002AC3D042F2F6
:10A85000B012934202D9084B01225A73FFF768FFE6
:10A860000028C8D1044B5B7B012BB4D1C3E7002285
:10A87000EBE7FFF723FEBEE784370020898888884E
:10A88000E837002010B5244B1B7B002B35D1044644
:10A89000214B5B8A2BBB1AB91F4B9B688B4205D39C
:10A8A000FAB11D4B9B6801338B421AD21A4B9B683D
:10A8B0002A338B4223D3184B9B7B03BB164B9960E7
:10A8C00000221A605A601A8242F6065159825A735F
:10A8D0001A73FFF7CBFDFFF78FFD2046FFF714FE3D
:10A8E0000DE062B10C4B9B6801338B4207D10A4BE0
:10A8F00001225A73FFF71CFF01E0012B00D010BDAD
:10A90000002AFCD1044B9B688B42F8D1024B0122F8
:10A910005A73FFF70DFFF2E78437002010B5037874
:10A92000042B02D0162B11D010BD42681278002AD9
:10A93000F8D08468027E437E012A14BF00220122DF
:10A94000416904F11000FFF79DFFEDE7037A427AB9
:10A95000C1680020FFF796FFE6E700001B4B1B785D
:10A9600013F0400F30D010B50446194B1A685B68DD
:10A970009A4225D2164B1B7B012B14D0154B9A42C1
:10A9800013D2134B1A685B68403B9A4215D2EFF31F
:10A99000108172B60E4A1368581C1060236001B90A
:10A9A00062B6002010BD0C4BE9E7094B01225A7337
:10A9B000FFF7BEFE0028EAD1E3E7FFF71DFDE6E75B
:10A9C000FFF71AFD0F20EDE70F207047E837002052
:10A9D00084370020FFFF7F0000E0FF0008B538B19A
:10A9E0000D4B01229A730D4A13680133136008BDA1
:10A9F0000A4B1B685BB1094A1368013B1360002BCB
:10AA0000F5D1054B00229A73FFF792FEEFE77846E7
:10AA1000FCF7F0FFEFE700BF843700205437002039
:10AA200000B58DB0ADF808008DF810200391032318
:10AA30008DF8043001A8FEF79BFC0DB05DF804FB17
:10AA4000014B9868704700BF84370020054B1B7B83
:10AA5000012B02D0034B98687047024B986801386D
:10AA6000704700BF84370020044B9B68584010F0AB
:10AA7000010F00D0013B1846704700BF843700200B
:10AA8000014B187B704700BF843700200F4B1B78A9
:10AA900013F0200F01D00820704770B50B4E43F023
:10AAA000200333700A4DA860297300242C82FFF71D
:10AAB000DDFC2046FFF728FD2C606C60337843F006
:10AAC00040033370FFF798FC204670BDE837002044
:10AAD000843700202DE9F041002624E02449BC23DE
:10AAE00003FB04F3CA5A0132CA520221284602F07B
:10AAF000E3FC01370221284602F0AEFC014679B1A1
:10AB00001B4ABC2303FB0423D3F80880B8F1000FD1
:10AB1000E4D0BC2303FB04F3D25A3046C047DDE740
:10AB200097B90136F6B2022E1FD83446BC2303FB78
:10AB300006F308330E4D1D4404350221284602F069
:10AB40008BFC01460027DAE7284602F01DFD0828A5
:10AB5000E7D1074BBC2202FB0434A368002BE0D0F2
:10AB60000022044930469847DBE70120BDE8F08128
:10AB7000F43700203885040008B5082383731023B8
:10AB8000437300F11C0343610323037300F11803B3
:10AB900003610C3002F0CAFC08BD000008B5037860
:10ABA000012B06D0022B07D07846FCF723FF0020AC
:10ABB00003E04FF4A97000E0004808BD645E0100A6
:10ABC00008B50378012B07D0022B13D07846FCF789
:10ABD00011FF4FF4FA7308E08368591A89084FF49B
:10ABE000A97303FB01F303F5FA730748984228BFE2
:10ABF000184608BD8368591A090B044B03FB01F37F
:10AC000003F5FA73F1E700BF60850100645E01009F
:10AC100038B5044601210C3002F01EFC054678B11F
:10AC2000084BC4F89C300023C4F8A0306168FFF7DB
:10AC3000C7FFC4F8A800C4F8AC40012384F8B830BA
:10AC4000284638BD65AD020010B50446FFF7E0FFA9
:10AC500020B104F19C000FF081FC00B910BD7846D2
:10AC6000FCF7C8FEFAE70000F8B505460C461646A4
:10AC700017680378012B19D11249A1FB0431C909C6
:10AC80008B00AC68E41BB4EB810F00D31C468CB185
:10AC9000686827F00307E968224639443844FFF71B
:10ACA00075FA58B933681C443460F8BD7846FCF72F
:10ACB000A1FEE1E77846FCF79DFEE9E77846FCF760
:10ACC00099FEEFE7EB5DF260F8B506460C461546D7
:10ACD00017680378022B17D1114BA3FB04231B0C1D
:10ACE0001A03B468E41BB4EB033F00D314467CB1F1
:10ACF000706827F0030721463844FFF713FA58B964
:10AD00002B681C442C60F8BD7846FCF773FEE3E723
:10AD10007846FCF76FFEEBE77846FCF76BFEEFE753
:10AD2000B77609BB38B505460C4611462378012B8A
:10AD300006D0022B0FD07846FCF75CFE002304E01F
:10AD4000021D2046FFF790FFA3686868984214BF71
:10AD50000020012038BD021D2046FFF7B5FFA36883
:10AD6000F3E700002DE9F8430F46D1F8A850254B32
:10AD70001B786BB90446A5F5FA7501F10C080121A1
:10AD8000404602F069FB064648B14FF0000924E056
:10AD90000FF020FC002387F8B830BDE8F883784630
:10ADA000FCF728FEF1E70FF015FC0121404602F008
:10ADB00083FB00237B6087F8B830134B186801F0E1
:10ADC0001BFC3846FFF740FFE7E7A4EB00093046DD
:10ADD000FFF7E4FE4844A8420DD8A5EB090231462E
:10ADE0003846FFF79FFF0028DDD101F03FFAB0EBB6
:10ADF0000409ECD5E9E70FF0EDFB3846FFF724FF37
:10AE0000CBE700BFF0370020EC37002010B5084832
:10AE100001F0D2FB074B1860002406E0064BBC2073
:10AE200000FB0430FFF7A8FE0134022CF6D910BD58
:10AE3000D5AA0200EC370020F437002038B50446CC
:10AE40000D46022805D80548BC2303FB0404A56071
:10AE500038BD7846FCF7CEFDF5E700BFF43700209B
:10AE60002DE9F84305460C461746022816D8CCB102
:10AE70002378012B1AD0022B3ED16368C3F30B0356
:10AE8000002B31D1A368C3F30B03002B30D1A3688F
:10AE9000002B34D17846FCF7ADFD30E07846FCF766
:10AEA000A9FDE4E77846FCF7A5FDE1E7636813F048
:10AEB000030F0DD1E36813F0030F0DD1A36813F056
:10AEC000030F0DD1A368D3B97846FCF793FD16E0C4
:10AED0007846FCF78FFDEDE77846FCF78BFDEDE754
:10AEE0007846FCF787FDEDE77846FCF783FDC9E778
:10AEF0007846FCF77FFDCAE77846FCF77BFDEFF369
:10AF0000108872B6BC2606FB05F606F108032A4E29
:10AF10001E4404360021304602F09EFA814678B382
:10AF20000021304602F0C8FA20686168A268E36830
:10AF3000C9F80000C9F80410C9F80820C9F80C3095
:10AF40002FB11D4ABC2303FB05235B883B801A4AB3
:10AF5000BC2303FB05235A8801325A8093F8B8308A
:10AF600083B9164B1B7813B10024A1460CE0124B99
:10AF7000BC2000FB0530FFF74BFE8146002403E0B8
:10AF8000042401E00024A146B8F1000F00D162B60C
:10AF9000B9F1000F09D0BC2000FB05F09830064D38
:10AFA000284404300FF0DAFA10B92046BDE8F883DF
:10AFB0007846FCF71FFDF8E7F4370020F037002053
:10AFC00038B50446EFF3108572B610B9164B1B68FE
:10AFD00073B18CB1144A136801331360124B1B68B0
:10AFE000003B18BF0123114A137005B962B638BD82
:10AFF0007846FCF7FFFCECE70B4B1C68013C1C603F
:10B0000034B1EBE7BC2000FB0420FFF71DFE013448
:10B01000022CE3D8064ABC2303FB042393F8B83080
:10B02000002BF4D1EEE700BF283A0020F0370020D3
:10B03000F437002018B1830B024AD05C704700201F
:10B04000704700BF4885040012DF704700B583B029
:10B0500001F01EFF40B10C4B1B6813F0400F03D0F2
:10B060000A4B1B68012B02DC03B05DF804FB084BA4
:10B07000D3F804350190074A009275220649022050
:10B0800002F096FCF0E700BF582E0020542E00205E
:10B0900000100140B8850400AB85040000B58DB0F8
:10B0A000104B1B78022B06D07846FCF7A3FC01203E
:10B0B0000DB05DF804FBFFF7FBFA18B90A48FEF77C
:10B0C0007FF9F4E7074B03221A702C22002101A814
:10B0D0001CF016FA1D238DF8043001A8FEF748F97C
:10B0E000E5E700BF303A0020482E00200B4B1B78CC
:10B0F000042B00D0704700B58DB0084B05221A70A4
:10B100002C22002101A81CF0FBF91C238DF804302F
:10B1100001A8FEF72DF90DB05DF804FB303A0020D0
:10B1200008B50378122B00D008BD0448FEF758F983
:10B13000034B186801F060FAF6E700BF482E0020C4
:10B140002C3A002070B58AB00FF0E8FF48B30646ED
:10B1500000238DF8103005AC05460FCD0FC42B68C9
:10B160002360727D052A04D9337D03F00F03072B7A
:10B170001ED1174B1A688AB104AB0393337DC3F316
:10B1800003038DF80430737D062B1BD9063B8DF825
:10B19000053006F11D03029301A8904730460FF0D9
:10B1A0009DFF0FF0D7FF80F00100C0B20AB070BD64
:10B1B000307D04AB063A06F11D0100F00F000EF0E1
:10B1C000A1FCD6E700238DF805300293E4E700BF29
:10B1D000343A002070B582B0324B1B78002B56D128
:10B1E0000446002857D0067A0F2E01D0062E54D1DF
:10B1F00006F06CFFE06870B1FCF70EFC0DF1070083
:10B20000FFF722FF0546002842D19DF80730012BA9
:10B2100004D002253CE0FCF70DFCEFE7FCF730FC26
:10B2200000F01CFB304601F0F7F8E07800F040F940
:10B2300000F0E8FE0FF014F91B4810F027F80EF0AC
:10B2400009FE0EF041FCFFF7E1FD05F095F800F076
:10B25000FFFC06F0FBFE06F003FA06F0BDFC2046FC
:10B2600001F026FDFDF7FCFC04F080FBFCF710FB71
:10B2700008B1062813D10D4801F09EF90C4B186057
:10B280000C4B00221A60074B01221A7000E00825BF
:10B29000284602B070BD0E25FAE70725F8E70546F7
:10B2A000F6E700BF303A002045B102009DB0020031
:10B2B0002C3A0020343A002010B582B0204B1B7885
:10B2C000012B0DD05AB2002A35D0043BDBB2012B42
:10B2D00033D80FF033F9044628B3204602B010BD2E
:10B2E00001F0F6FCFDF704FDFCF7D2FA0446B8B114
:10B2F000062815D0134B1B6813F4804FEDD0124B6A
:10B300001B68012BE9DD114BD3F804350190104A7D
:10B31000009240F289120F49022002F049FBDCE75B
:10B3200001F0A6F8D5E7064B02221A700A4B1868FE
:10B3300001F062F9D1E70824CFE70824CDE700BF88
:10B34000303A0020582E0020542E002000100140DA
:10B35000E4850400AB8504002C3A002008B5094BB5
:10B360001B78032B01D0082008BD064B04221A705D
:10B3700005480FF097F80028F6D07846FCF73AFB1E
:10B380000020F1E7303A0020EDB0020008B5FDF7EB
:10B39000B3FC08BD08B5FEF713F808BD08B5FEF705
:10B3A0001FF808BD08B500F0F3FD002008BD08B582
:10B3B00008F03CFA08BD0000064A13680133136028
:10B3C000B3F1704F02D0034B186870471346012247
:10B3D0001A60F8E7383A002010B5044618B1002387
:10B3E0002360636010BD7846FCF704FBF7E738B5CF
:10B3F0000C46054668B184B100236360EFF3108307
:10B4000072B62A686AB16A6854606C6003B962B641
:10B4100038BD7846FCF7EEFAEDE77846FCF7EAFA35
:10B42000EAE72C60F1E710B5044658B1EFF310835A
:10B4300072B6206808B142682260226832B103B94E
:10B4400062B610BD7846FCF7D5FAEFE76260F6E722
:10B4500010B5044608B1206810BD7846FCF7CAFA5A
:10B46000F9E735DF70473CDF70473DDF704700008C
:10B4700010B504464FF0FF30FFF7F3FFFF21002027
:10B48000FFF7F3FF21460020FFF7EDFFBFF34F8FDB
:10B490000549CA6802F4E062044B1343CB60BFF372
:10B4A0004F8F00BFFDE700BF00ED00E00400FA058C
:10B4B000072814D8DFE800F0080C1504110F0A065D
:10B4C0006420704714207047FA2070471E20704790
:10B4D0004FF4FA707047322070474B207047FA20C3
:10B4E0007047962070470000024B5868103840B2F1
:10B4F000704700BF00ED00E0034600280FDB5B1142
:10B50000084A52F82330424200F01F0002F01F02A6
:10B5100058BF504223FA00F000F00100704700F1DC
:10B520001F03ECE700E100E046DF7047F8B5044692
:10B530000D464B1EDBB2012B09D80023236163614A
:10B54000A361E3612046FFF7EFFF012016E0784694
:10B55000FCF750FAF1E7CA5CCE185200D2B2767806
:10B5600042EAD612CA5401339BB20E2BF3D9CB7BDD
:10B570005B00CB73002F08DB0130C0B2A8420BD8B0
:10B58000214611F9207F0023EFE794F82F3083F054
:10B59000870384F82F30EFE7F8BD2DE9F04190B034
:10B5A00084460C4696461F4602F10F084FEA2816BD
:10B5B00004AD0068DCF80410DCF80820DCF80C307E
:10B5C0000FC50EF00F055FEA181302D07DB10023FE
:10B5D00000E00023984663B1012104A8FFF7A6FF0D
:10B5E000B8F1000F1AD0701E000110230EE00123E5
:10B5F000F0E70221F1E7013B9BB22218D25C10A9CF
:10B60000194411F8101C4A400DF80320002BF2D108
:10B6100000250C950D950E950F9533E0711EADB27A
:10B620002A4604EB011168461BF041FF80230DF808
:10B6300005306B1C03E000220DF8032001330F2BB3
:10B64000F9DD10230AE0013B9BB21DF8032010A98D
:10B65000194411F8101C4A400DF80320002BF2D1B8
:10B66000D6E7013A92B210AB134413F8100C6318EA
:10B670009B5C584008AB9854002AF2D104A8FFF70D
:10B6800053FF0135731EAB4202DD29011022F3E79F
:10B6900010230AE0013B9BB210AAD11811F8402CEC
:10B6A00011F8101C4A4008A9CA54002BF2D104A872
:10B6B000FFF73AFF0CAC0FCC38607960BA60FB60E2
:10B6C00010B0BDE8F081000010B50446134B1B68B4
:10B6D00093B14168114B1B685B68CB1A002B0BDBE5
:10B6E0000E4B1B6818465B691BB15A68521A002A38
:10B6F000F8DB6361446103E0084B1A6862611C6017
:10B70000064A93889BB201339BB2938013B1012305
:10B71000237010BD7846FCF76DF9F8E7403A002039
:10B7200038B505461CE07846FCF764F96369204AA1
:10B7300013600023636193889BB2591E89B2918084
:10B74000F3B1A36803B302232370A36821692846D9
:10B75000984700F0FFF805462378DBB2022B17D09C
:10B76000134B1B681BB3124B1B685B685B1B642B82
:10B770001DD50F4B1C682378DBB2012BD6D0D2E746
:10B780007846FCF737F9DCE77846FCF733F9DAE777
:10B79000E26812B900232370E2E763681344636030
:10B7A0005B1B642BF9D42046FFF78EFFD8E738BD2A
:10B7B000403A002010B50446144B1B68834207D062
:10B7C000124B1B68D3B15A69A2420ED01346F9E757
:10B7D00043690E4A136093889BB2591E89B29180C7
:10B7E00063B97846FCF706F908E062695A610749CF
:10B7F0008B889BB25A1E92B28A8013B100232370A9
:10B8000010BD7846FCF7F6F8F8E700BF403A002094
:10B8100008B5064B1B6833B1044B1B6804495868D4
:10B8200000F046F908BD00F0A1F9FBE7403A00201E
:10B830004DB8020008B500F08DF8FFF771FF00F079
:10B8400089F8FFF7E5FF012008BD000008B5024BAD
:10B85000186800F0D1FE08BD3C3A002008B5064B40
:10B8600000221A605A60054800F0A6FE044B1860DA
:10B8700000F063F808BD00BF403A002035B8020070
:10B880003C3A002010B5044600F08AFF80B19CB11C
:10B89000A368ABB12378DBB2012B15D00023636121
:10B8A0002046FFF711FF00F055F8FFF7B1FF10BD7C
:10B8B0007846FCF79FF8EAE77846FCF79BF8E7E75D
:10B8C0007846FCF797F8E5E77846FCF793F8E5E764
:10B8D00010B5044600F064FF50B16CB12046FFF78C
:10B8E00069FF0023636100F035F8FFF791FF10BD99
:10B8F0007846FCF77FF8F0E77846FCF77BF8EDE751
:10B9000038B504460D4600F04BFF70B18CB12046AF
:10B91000FFF750FF0023636165602046FFF7D4FE08
:10B9200000F018F8FFF774FF38BD7846FCF762F8AE
:10B93000ECE77846FCF75EF8E9E708B51BF054FC45
:10B9400000B108BD1BF0C8FB0028FAD07846FCF710
:10B9500051F8F6E770B4EFF3108172B6184B1A681D
:10B96000184BD3F80455D3F80431012B22D001B978
:10B9700062B645EA026500266B01EA0E5B1B62EBCC
:10B980000602510241EAD3515802431941EB060025
:10B99000810141EA93619A01D31A61EB00005B19BE
:10B9A00046EB000013F580437041DB0B43EA404057
:10B9B00070BC7047034BD3F804550132D7E700BF82
:10B9C000483A00200010014010B50A4B4FF40032F5
:10B9D000C3F84823C3F80823074B1B682BB1064B59
:10B9E0001C68FFF7B7FFA04710BD7846FCF702F8C8
:10B9F000F5E700BF00100140543A0020EFF310813A
:10BA000072B6264B0022C3F80421254A136801337D
:10BA1000136001B962B6234B1B68002B3DD0214B4C
:10BA20001A68013A1A601B68002B36D103F1804373
:10BA300003F58833D3F804251B4B1B689A421ED2AA
:10BA4000EFF3108272B6154BD3F804350133164963
:10BA500009688B4210D3114BD3F8043503330F49D7
:10BA6000C1F8443502B962B60C4B4FF40032C3F84A
:10BA70004423C3F8042370470B4B1B68EFE710B552
:10BA80000A4B1B682BB1094B1C68FFF763FFA047EB
:10BA900010BD7846FBF7AEFFF5E770470010014098
:10BAA000483A00204C3A0020503A0020543A0020F6
:10BAB00030B583B00446002301930D46002936D0EB
:10BAC000244B1D60FFF746FF031B002B33DB0023D5
:10BAD000590CD803204C214A002300194FF00004D0
