:020000022000DC
:1060000000F000206D630200556302005763020038
:10601000596302005B6302005D6302000000000040
:106020000000000000000000000000005F630200AC
:106030006163020000000000636302006563020008
:106040006763020067630200676302006763020020
:1060500067630200676302007584030067630200E0
:106060006763020025800300DD55030067630200BB
:1060700067630200676302006763020067630200F0
:106080006763020041EA030095B9020067630200FA
:1060900011EB030067630200198E030067630200BF
:1060A00067630200676302006763020067630200C0
:1060B0006763020067630200000000000000000048
:1060C00067630200676302006763020067630200A0
:1060D000676302006763020067630200000000005C
:1060E00000000000000000000000000000000000B0
:1060F00000000000000000000000000000000000A0
:10610000000000000000000000000000000000008F
:10611000000000000000000000000000000000007F
:10612000000000000000000000000000000000006F
:10613000000000000000000000000000000000005F
:10614000000000000000000000000000000000004F
:10615000000000000000000000000000000000003F
:10616000000000000000000000000000000000002F
:10617000000000000000000000000000000000001F
:10618000000000000000000000000000000000000F
:1061900000000000000000000000000000000000FF
:1061A00000000000000000000000000000000000EF
:1061B00000000000000000000000000000000000DF
:1061C00000000000000000000000000000000000CF
:1061D00000000000000000000000000000000000BF
:1061E00000000000000000000000000000000000AF
:1061F000000000000000000000000000000000009F
:10620000344935480A1A02D0072291438D46334952
:1062100033480A1A06D00722914381F309880222E3
:1062200082F314882F483049304A00F042F8304851
:106230003049314A00F03DF830483149314A00F0E8
:1062400038F831483149324A00F033F831483249A0
:10625000324A00F02EF832483249334A00F029F829
:1062600032483349334A00F024F833483349002296
:1062700000F02AF832483349002200F025F832486D
:106280003249091A082902DB0022026041601F48D6
:106290001F49884205D00268043003B4904703BC0C
:1062A000F7E700208646EC4600200021284A904768
:1062B000FEE7884207D0521A05D0037801300B70F0
:1062C0000131013AF9D17047884202D002700130A1
:1062D000FAE7704700F0002000E8002000F00020FE
:1062E00000F00020E81B0400F02D0020802F00208B
:1062F000A0630200A0630200DEF30300E81B0400B9
:10630000F02D0020F02D002054F7030054F7030077
:1063100054F7030054F7030054F7030054F7030045
:1063200054F7030054F70300E81B0400781D040031
:10633000802F0020802F0020802F0020685D00200B
:10634000685D0020685D0020685D002068610020B5
:10635000E9660200FEE7FEE7FEE7FEE7FEE7FEE78E
:10636000FEE7FEE7FEE7FEE700F002B8FFF7FCBF3E
:1063700008484FF00701884385460748804707488B
:10638000016841F470010160BFF34F8FBFF36F8F5D
:10639000FFF736BF00F000200191030088ED00E018
:1063A00041DF7047014B1B680B807047A42F002012
:1063B000114B1B685B0407B50ED5104B1B68032BF4
:1063C0000ADD0F4B0F4AD3F804350F490092042021
:1063D00040F2171206F0A8FA0C48002100F0F2FC77
:1063E00030B10B4A992103B05DF804EB12F0CFBF36
:1063F00003B05DF804FB00BF342F0020302F0020D5
:1064000000100140F0F70300E9F70300F02D002031
:1064100074F70300024B0348196001F031B800BF64
:10642000A42F0020D82E00200B4B1B685B0407B55F
:106430000DD50A4B1B68032B09DD094B094AD3F81C
:106440000435094900920420A02206F06DFA03B039
:106450005DF804EB09F064BA342F0020302F0020DF
:106460000010014010F80300E9F703000378232B24
:1064700001D1FFF7D9BF70471FB503A80DF054FC39
:106480000C4B1B685B0411D50B4B1B68032B0DDDFC
:106490000A4BBDF80C20D3F804350192084A00924B
:1064A00008494FF48272042006F03EFA05B05DF808
:1064B00004FB00BF342F0020302F002000100140CB
:1064C00029F80300E9F703000E4B1B685B0407B5CE
:1064D0000ED50D4B1B68032B0ADD0C4B0C4AD3F871
:1064E00004350C490092042040F2091206F01CFA0F
:1064F00001F02CF901F048F903B05DF804EBFFF767
:10650000BBBF00BF342F0020302F002000100140FF
:1065100040F80300E9F703001FB518460B4B1B6852
:106520005B0410D50A4B1B68032B0CDD094BD3F819
:1065300004350191CDE90220074A009207499222D1
:10654000042006F0F1F905B05DF804FB342F0020BB
:10655000302F0020001001405AF80300E9F7030033
:10656000F7B5544DA0F131062B68032E03F4804398
:1065700000F29080A0F1300473B14F4B1B68032BE5
:106580000ADD4E4B4E4AD3F804354E490092019431
:10659000BB22042006F0C8F9022C3DD0042C46D0C2
:1065A000012C62D1484A136813F5804FD4BF474B82
:1065B000A3F580431360444E4548B6F9001000F03F
:1065C0005FFF444800F0D6FB2B685B0404465FD5B0
:1065D000394F3A68032A6ADD384B3268D3F80435FC
:1065E00001923D4A00923749EB22042006F09CF9C3
:1065F000002C4DD02B685A044AD53B68012B47DD4F
:106600002E4B364AD3F804352E4900920194EE22DF
:10661000022006F089F93BE02B4A136843F6FE712D
:106620008B42D4BF03F5804347F6FF73C2E709F0FE
:1066300075F940B10AF0AAFB09F026F903B0BDE8EC
:10664000F040FFF7F1BE2B68580421D51A4B1B68A8
:10665000032B1DDD194B224AD3F804350092DD22AD
:106660001849042006F060F912E02B6859040DD592
:10667000114B1B68032B09DD104B1A4AD3F8043564
:10668000104900920420E32206F04EF9012E92D91F
:1066900003B0F0BD002BFBD0074B1B68032BF7DDCD
:1066A000064B104AD3F804350092FC22D8E7002CA0
:1066B000A3D1EDE7342F0020302F0020001001403F
:1066C00096F80300E9F70300A42F00200080FFFFE5
:1066D000D82E0020F02D0020B3FC0300E0F80300CA
:1066E000A9F80300E0F9030000B5554E554A46F2FB
:1066F00001008DB0042106F0FBF8336858040ED574
:10670000514B1B68032B0ADD504B514AD3F804351B
:1067100050490092042040F2371206F005F94E4825
:1067200000F0CCFE18F044FB20B14C4A40F23B1183
:1067300012F02DFE00F0E2FF01F008F801F024F85D
:106740000021202203A818F0C3FD01238DF80C308E
:1067500007238DF80F3006238DF81430404B079334
:106760004049414B0B9303A809F09AF8C8B10B2894
:106770005CD13368590414D5334D2B68032B10DDDD
:10678000324C3A4AD4F804353249009204204FF48E
:10679000957206F0C9F833685A0402D52B68032BAA
:1067A00039DC3348642100F0C5FD2E4B1B78002BEB
:1067B00042D1304D0FCD03AC0FC495E8070084E8FB
:1067C000070003A800F05EFD20B1244A4FF4AC712D
:1067D00012F0DDFD01F0DCF800F0E2FD08F0EBFF67
:1067E00020B11E4A40F2611112F0D1FD33685B0402
:1067F0000ED5154B1B68032B0ADD144B1E4AD3F82C
:10680000043514490092042040F2631206F08CF81B
:10681000FFF7C6FDFCE7194AD4F804350D4900928C
:10682000042040F22B1206F07FF8BAE70B4A4FF42F
:10683000987112F0ACFDB4E7FFF71EFECAE700BF87
:10684000342F0020C5C80200302F00200010014066
:106850000EF90300E9F70300D82E002074F70300B7
:106860006D640200802F0020B163020038F903003C
:1068700061650200B0F90300E0F9030086F9030046
:1068800030B5D0F8884094F87C20B4F9423085B017
:10689000022A18BFA4F84030B4F84020ADF80A30FE
:1068A00002A9002320460393ADF8082017F01AFF31
:1068B000236B1BB1B4F9401020469847A56B35B146
:1068C00094F87C30B4F84220216F2046A8470A4B48
:1068D0001B685B040DD5094B1B68042B09DD084BB5
:1068E000084AD3F80435084900920520BE2206F074
:1068F0001BF805B030BD00BF342F0020302F002022
:106900000010014095FB030089FB03002DE9F043D3
:10691000D0F8884094F87C30022B85B004F1500503
:1069200037D0B4F94880B4F94200A0EB08092846F2
:1069300000F07FFB4E460346F717A0FB090103FB5F
:106940000711226F002318F09CFB4044236BA4F82E
:1069500040001BB1B4F9401020469847174B1B6804
:106960005B0413D5164B1B68062B0FDD154B284611
:10697000D3F80435039300F05CFB134A01900092B6
:10698000039B12499F22072005F0CEFF05B0BDE80A
:10699000F0832846B4F8466000F04BFBB4F944207D
:1069A000D317A2FB008900FB0399226F0023404606
:1069B000494618F066FB3044C8E700BF342F00207A
:1069C000302F002000100140ABFB030089FB0300C7
:1069D000184B1B685B0437B5044615460DD5164B9E
:1069E0001B68032B09DD154B154AD3F804351549EF
:1069F00000920420C82205F097FF636B04F1400168
:106A000020469847B4F840302B80B4F842306B8071
:106A100094F87C30022B07D1236F003B18BF012371
:106A20005B426B6003B030BD04F1500000F0E8FA47
:106A30006860F7E7342F0020302F0020001001405D
:106A4000BDFB030089FB030013B5D0F88800846BFD
:106A50002CB190F87C30B0F84220016FA0470A4B6F
:106A60001B685B040DD5094B1B68042B09DD084B23
:106A7000084AD3F80435084900920520842205F01D
:106A800053FF02B010BD00BF342F0020302F002074
:106A900000100140C8FB030089FB03000A4B1B6880
:106AA0005B0407B50DD5094B1B68042B09DD084BAA
:106AB000084AD3F80435084900920520752205F0EC
:106AC00033FF03B05DF804FB342F0020302F00208B
:106AD00000100140DDFB030089FB030030B587B0E7
:106AE00004460A9D002B3CD1C0F88030C36B002BBC
:106AF0003AD123660023B2F9001084F86C301B4BA6
:106B0000B4F940201B68A4F848205B04A1EB020202
:106B1000A4F842106264626614D5154B1B68032BFF
:106B200010DD144BD3F804350492226E0392D4F88E
:106B30008020CDE90112104A00921049F022042071
:106B400005F0F2FE04F1500000F03EFA3DB1B4F859
:106B500040302B80B4F842306B80236E6B6007B0FE
:106B600030BD5968C0F880101B68C2E7342F002080
:106B7000302F002000100140EDFB030089FB0300D3
:106B80002DE9F04385B004460C9F1646002B66D1D4
:106B9000C0F88030C36B002B64D12366012384F8D6
:106BA0006C303568DFF80C816B429BB204F1040055
:106BB000ADB258BF5D4217F055FE002854D1D8F849
:106BC0000030590410D5354B1B68032B0CDD344BBA
:106BD0003279D3F804350192324A009232494FF4A7
:106BE0008872042005F0A0FEB4F8483065642B4498
:106BF000A4F84230D8F8003065665A041FD5DFF893
:106C00009C90D9F80030032B19DD254D226ED5F864
:106C100004350392D4F88020029232680192234A0C
:106C20000092214940F21B12042005F07DFED8F8A5
:106C300000305B0403D5D9F80030032B19DC04F1D4
:106C4000500000F0C1F93FB1B4F840303B80B4F8D7
:106C500042307B80236E7B6005B0BDE8F0835A68CC
:106C6000C0F880201B6898E7B4F84030A4F848309A
:106C7000BAE7B4F94220D5F804350392B4F94020BC
:106C80000292B4F948200192094A009206494FF451
:106C90008F72042005F048FED1E700BF302F00209E
:106CA0000010014020FC030089FB030052FC03009C
:106CB0007BFC0300342F002030B585B00446089DCE
:106CC000002B45D1C0F88030C36B002B43D1B2F903
:106CD00000202366214BA4F8442047F6FF71002AC8
:106CE000C8BF0B46A4F84230B4F84030A4F8463090
:106CF000022384F86C301A4B62661B685B0414D55F
:106D0000184B1B68032B10DD174B216ED3F804358D
:106D10000391D4F88010CDE90121144A009214495E
:106D20004FF4A472042005F0FFFD04F1500000F0C0
:106D30004BF95DB1B4F840302B80B4F842306B8031
:106D4000236E003B18BF01235B426B6005B030BD72
:106D50005968C0F880101B68B9E700BF0080FFFFCA
:106D6000342F0020302F002000100140BEFC030013
:106D700089FB030073B5436B044600F1400198475B
:106D800004F1500000F02EF90025B4F94060A4F899
:106D900042602946C4F88050102204F1700018F0B7
:106DA00097FA1022294604F1600018F091FA69461A
:106DB0002046ADF80060ADF80260019517F092FC36
:106DC00002B070BD10B50446D8B1436BCBB1036BB4
:106DD0000BB9836BABB10C4BE362204617F056FC4A
:106DE00080B90A4B23650A4B63650A4BA3650A4BBE
:106DF000E365C4F8D84004F15000BDE8104000F04D
:106E00002DB90E2010BD00BFECFC03009D6A0200EE
:106E1000496A02000D69020081680200024B53F8C2
:106E200020300846184700BFFCFC0300024B53F813
:106E300020300846184700BF10FD0300836803B1E7
:106E400018477047006B003818BF0120704703696E
:106E5000013B033304D84069003818BF0120704754
:106E600000207047024601218C3007F092BF0A468D
:106E700000230B6302F18C00022107F08ABF70B57A
:106E800090F82C30022B064615D0383017F045FD0F
:106E90004FF47A74A0FB042304FB0133D40B44EABF
:106EA0004344DD0B326A00239D4208BF94422CBF4D
:106EB0000120002070BD0020FCE710B5002304462F
:106EC00003630362703003F0B5FE04F13800BDE8DF
:106ED000104017F04DBD10B50446383017F048FD8E
:106EE00000232362E3681BB12046BDE81040184729
:106EF00010BD00002DE9F04100F138050446284698
:106F000017F036FD04F110030FCB04F1200686E8DC
:106F10000F00636A83EAE376A6EBE37613B978465B
:106F200000F000FD206A4FF47A783246F317A0FB98
:106F3000080118F03FF8A26AA2FB08238B4208BFA1
:106F400082423CBF0B460246002B08BFB2F57A7F57
:106F50001DD3114ED903D00341EA524180194FF09D
:106F600000060E4A4FF0000346EB010118F022F82C
:106F70000123C4E9100184F83830284617F0D0FC0A
:106F800040B9636833B12046BDE8F041184721207D
:106F90000021EDE7BDE8F08120A1070040420F008D
:106FA00010B5044603F086FE236B4FF47A7101FBA3
:106FB000030104F1700003F054FE23681BB1204666
:106FC000BDE81040184710BD10B5044610B978460A
:106FD00000F0A8FC224604F18C000021BDE810401E
:106FE00007F0D7BE10B5044610B9784600F09AFCF9
:106FF000224604F18C000321BDE8104007F0C9BE11
:107000002DE93048044610B9784600F08BFC04F1B5
:107010003800256A17F081FC4FF47A73A0FB03BC9B
:1070200003FB01CC4FEADB3040EA4C40281ABDE8B4
:10703000308838B5044610B9784600F073FC04F186
:10704000380017F06AFC4FF47A73A0FB034503FB8A
:107050000155E00B40EA454038BD000038B5044614
:1070600010B9784600F05EFC094BA367094BE36456
:10707000C4F88040A46404F1380017F08DFC064980
:10708000054604F18C0007F053FE284638BD00BFCA
:107090006F6E0200656E020048FD030069DF7047F5
:1070A00030B5304D297887B019B1012803D00328B5
:1070B00050D007B030BD002401A9019411F068FD43
:1070C00008B112F057F940F211130394019AADF888
:1070D0000C3003A94FF4C813412004940593FFF723
:1070E000DDFF08B112F046F901A811F0A7FD08B1C3
:1070F00012F040F91C4C236803B19847012302A900
:107100000DF1020002930DF0A3F908B112F032F96B
:10711000BDF802000CF01CFF0DF101010DF02AF882
:1071200008B112F027F909F0C3FA9DF80110002008
:1071300009F060FE10B1784600F0F4FB03F0EAFAC3
:1071400008B112F017F900232B706368002BB0D040
:107150009847AEE711F0DEFD0028AAD012F00AF938
:10716000A7E700BFCE2F0020D02F002008B503785E
:107170001C2B0CD1064B1B784BB111F009FE08B14A
:1071800012F0F8F8BDE80840024803F025BB08BD3E
:10719000CE2F0020F82E002010B50749074812F026
:1071A00099FC024638B9064906484969BDE81040CD
:1071B000032312F0A8BC10BDEC2F00205833002090
:1071C000D02F00202432002010B50378023B082B7A
:1071D0004AD8DFE803F01E051249493849493F0003
:1071E000224B9B68002B3FD0007A00283CD0204ADD
:1071F0000121BDE81040117018471C4BDB68002BC3
:1072000032D01B4A117879B30021BDE810401170CB
:107210001847184B1A784AB9144B1B6913B1144913
:107220000A709847BDE81040FFF7B6BF124B1348ED
:1072300001221A7003F0CEFA03F0B4FAA0B1BDE84F
:10724000104012F097B8094B0D489969102212F0BE
:107250009FFCF3E7D0E9021008F0BAFA08B112F087
:1072600089F8044B01221A7010BD00BFD02F0020F6
:10727000CC2F0020CD2F0020CE2F0020F82E002074
:107280002432002070B51C4A1C4E5168044686B05A
:10729000106803AB03C31189927A19809A700FCCDE
:1072A00035460FC594E8070085E80700B36903B3C6
:1072B000134B0093134A1449144803AB12F0D6FB46
:1072C000A8B9134813F0EEFE0146104812F0EEFB89
:1072D00068B9104814F042F848B90E4814F070F834
:1072E00001460A4812F0E2FB08B9FFF755FF06B065
:1072F00070BD0720FBE700BF58FD0300D02F002022
:10730000C9710200EC2F00205833002024320020E5
:107310000C300020D431002010B5054C226832B169
:107320000FF0E2F9002802DB23689847F8E710BD68
:1073300098330020154B164A10B50C4618600121F1
:10734000144817F095FD18B1134A4A2112F01FF89E
:10735000610C0023E00341F26F728B4208BF82424E
:1073600010D24FF47A72002317F024FE01460B4826
:10737000002217F08FFD38B1BDE81040064A4B21BE
:1073800012F005B80521F2E710BD00BF98330020C8
:1073900019730200D4FD030063FD03009C33002039
:1073A000F0B50446CFB038B12D4D2B685A0403D543
:1073B0002C4E3368032B01DC4FB0F0BD2A4B1F6805
:1073C0000DAB411E00F10F0C184611F8012F4FEACA
:1073D000121E02F00F0217F80EE083F800E0BA5C0C
:1073E0005A70614503F10203EFD100231F4F80F86B
:1073F00020301F4AD7F8043501921E4A02900092AD
:107400001D494222042005F08FFA2B685B04D3D576
:107410003368032BD0DDE27B2168D7F804350B926B
:10742000A27B0A92627B0992227B0892E27A0792FF
:10743000A27A0692627A0592227A0492E28852BA7D
:1074400092B20392A28852BA09BA92B2CDE901125D
:107450000A4A009208494322042005F065FAABE786
:10746000342F0020302F0020382F00200010014042
:107470004EFE030060FE03003DFE030068FE0300B5
:1074800073B5438906680D460446017A23B9019114
:10749000784600F047FA0199628905F500456A438C
:1074A0004FF6FF73B2FBF3F292B2012A38BF01220A
:1074B000304602B0BDE8704010F078BA438913B589
:1074C000044613B1784600F02DFAD4E900010022F9
:1074D00010F01EFB10B1784600F024FA206810F07E
:1074E00013FB0F4B60811B685B040ED50D4B1B68B3
:1074F000032B0ADD0C4B0D4AD3F804350C490190DF
:1075000000920420662205F00FFA638913B97846C9
:1075100000F008FA206802B0BDE8104010F04ABC44
:10752000342F0020302F00200010014019FF0300ED
:107530000DFF030072DF704773DF704774DF704721
:107540002DE9F0470F463049304D0B78304C064658
:1075500030489046C3EB4312154401330244A2B0B5
:107560004FF0000A03F00103A2601F220B70C4F861
:1075700004A0C4F80CA0A280A28151463C2204A819
:10758000256017F0A5FE062301AA8DF813300E9290
:1075900001233C22514604F1040913A88DF802305E
:1075A000ADF820308DF83C30ADF80060CDF824D037
:1075B000ADF80460ADF80880039717F089FE022348
:1075C0004A46294604A88DF84C3011F0B1F808B1AC
:1075D00011F0D0FE104AA16813A811F0A9F808B163
:1075E00011F0C8FE0D4A0A490D48FFF7A3FF08280D
:1075F00004D107490A480022FFF79CFF08B111F0A7
:10760000B9FE22B0BDE8F087BC330020BD330020B6
:10761000FC3300200C34002008340020082F002008
:10762000042F0020B0F5202F0AD20A23B0FBF3F379
:1076300010B1012B38BF0123034A93819160704739
:107640004FF6FF73F5E700BF082F002008B5064B83
:1076500001211878FFF770FF08B111F08BFEBDE82B
:107660000840002003F0C4BE042F002008B5054BDD
:107670001878FFF763FF18B1BDE8084011F07ABE33
:1076800008BD00BF042F002076DF70477ADF704707
:107690007CDF704769DF704711F06CBE03F09EB865
:1076A00007B503784BB940883B21FFF7EDFFC0B128
:1076B00003B05DF804EB11F05DBE012B11D10A4B54
:1076C0001B685B040DD5094B1B68032B09DD084BB8
:1076D000084AD3F80435084900920420682205F0CE
:1076E00023F903B05DF804FB342F0020302F002075
:1076F00000100140AAFF030091FF03001FB511F025
:1077000009FB08B111F036FE0024694601200094FF
:1077100011F03EFA08B111F02DFE40F21113019460
:10772000009AADF8043001A94FF4C8134120029427
:107730000393FFF7AFFF08B111F01CFE684611F08C
:107740007DFA08B111F016FE04B010BD1FB511236B
:107750000B498DF80430192201A8FFF799FF08B1F1
:1077600011F008FE074A4FF0C87302A8CDE90223C2
:10777000FFF78CFF08B111F0FDFD05B05DF804FBCB
:10778000D6FF03007800C80000B5124A8BB04FF056
:10779000C873CDE90123002301AACDE90633039282
:1077A00040F6CD414FF48032ADF81A308DF81C30E0
:1077B000094B0893CDE90412084B0993032203A84F
:1077C0008DF8182011F028FC08B111F0D3FD0BB092
:1077D0005DF804FB7800C800A176020099760200EB
:1077E0000620704730B5454B44F201051B68A8429E
:1077F00087B0044603F4804365D017D801282ED003
:1078000041F2010084424DD0002B38D03C4B1B6824
:10781000002B34DD3B4B3C4AD3F8043501910092F8
:107820003A497B22012005F07FF828E044F202006B
:107830008442E9D11BB3324B1B68002B1FDD314B57
:107840001068D3F8043503905268CDE90112304A2C
:1078500000922E496922012005F066F80FE073B10D
:10786000274B1B68002B0ADD264BD3F80435CDE9E6
:107870000112284A25490092602205F055F84FF080
:10788000A0434FF4F012C3F81825C3F80C25EFF30A
:10789000108372B64DF6AD6C1F4A1378002B2AD1B7
:1078A00007B030BD002BEAD0154B1B68002BE6DD7E
:1078B000144BD3F80435CDE90112184A009213494C
:1078C00063220120D9E7002BD9D00D4B1B68002B78
:1078D000D5DD0C4B1068D3F8043504905068CDE921
:1078E0000210926801920E4A009208497322012008
:1078F00005F01AF8C3E730BFCFE700BF342F0020F0
:10790000302F002000100140E20004005500040068
:10791000A200040066000400202F00208000040064
:10792000C100040007B50023014600936A46044BDA
:10793000019344F20200FFF755FF03B05DF804FB2A
:1079400079040400044B00F1100250F8041B43F8C2
:10795000041B9042F9D170474A3400200A4A0B4B6D
:1079600003CA596018603C3203CA9A79986002F0E1
:107970000F0242F040029A711A7AD96002F03F0277
:1079800062F07F021A727047600000104A340020D3
:10799000004870474A34002000220649134601324D
:1079A000202A4B804B6001F8083BF8D1024A136053
:1079B000704700BF5C3400205C3500200C4BF0B5F4
:1079C0001B680C4D044620227BB1013B15F83300A7
:1079D00050B105EBC3067788A74202D176688E4284
:1079E00002D0013AF0D11046F0BD1F23EEE700BFF0
:1079F0005C3500205C340020094A30B51368094C1E
:107A000004EBC3051F2B69604FF0010104F833102C
:107A1000194408BF0023688014BF1160136030BD93
:107A20005C3500205C340020C0F30C038B4208441A
:107A300038BFA0F50050C01A704700000D4B0E4A29
:107A4000F0B51E6800218E4212D0156800230AE0AE
:107A500052F8044C04EBC30714F83340844201D1BC
:107A60007868F0BD01339D42F2D101310832EAE776
:107A70000020F6E7E4350020EC35002000B58DB09D
:107A800048B9991C07D0012101A8CDE902328DF82F
:107A9000041001F091F9034B186803F0A1FE0DB03A
:107AA0005DF804FBF0350020037810B5044613B9E7
:107AB0007846FFF737FF607A431C01209840013871
:107AC00010BD2DE9F0410E468EB015461C46074606
:107AD00010B97846FFF726FF16B97846FFF722FF60
:107AE000636AA27802330593E378A2F10800002BC1
:107AF00014BF012102210DF10408424242414346D4
:107B000004F10C0003F0B7FFA3788DF83430237B29
:107B1000ADF82050022B16FA85F5CDE906870B96B5
:107B20000C950FD1236913B97846FFF7FBFE236943
:107B30000993102305A8ADF8283003F098FF0EB084
:107B4000BDE8F0810023F5E7B2F5C07F2DE9F84FDD
:107B500082468946904602D97846FFF7E3FE284BD5
:107B600000269B4693F848705FB9404607F011FE27
:107B7000702404FB06B4E06648B900242046BDE842
:107B8000F88F0136042E03F17003EBD1F5E7D446EC
:107B9000BCE80F0025460FC5BCE80F000FC59CE8E8
:107BA0000F00B9F1010F85E80F00E764A4F84A80DF
:107BB0001BD1144BA4F852701B7D84F8513084F80B
:107BC0005070DAF8283063656FF00103A3620E4B42
:107BD000A4F85870A3632464012002F0B9F970235B
:107BE00003FB06B686F84890C8E76FF00103A3626E
:107BF000064BA36584F86870054B2466EAE700BF6E
:107C00000C360020F4350020B982020041880200C1
:107C1000B182020010B50446C06E07F0BCFD04F14D
:107C2000300003F007F894F84830022B03D104F138
:107C3000500002F0FFFF20467022002117F048FBA1
:107C4000002084F84800BDE8104002F081B910B56A
:107C500090F84830012B8CB0044602D07846FFF7EC
:107C600061FE01238DF80430636D029303F022F866
:107C7000039001A801F0A0F82046FFF7CBFF0CB05D
:107C800010BD10B50446808A02F010FC01281CD1FA
:107C9000237BD3B194F91620002A18DBE27D5AB178
:107CA000022B12D094F90330002B10DBA378002BA9
:107CB0000CBF0020072010BDE2780AB9012B06D1C5
:107CC000237833B9A378042BF2E71020F3E70720D9
:107CD000F1E70020EFE700001FB500230A468DF80A
:107CE0000F30E0B1023008600DF10F01104603F0D3
:107CF000C0FE9DF80F3093B10B4B1B685B070ED590
:107D00000A4B1B68032B0ADD094B0A4AD3F80435DA
:107D100009490092042040F2154204F005FE9DF846
:107D20000F0005B05DF804FB342F0020302F002039
:107D300000100140660104005A01040070B50446B9
:107D4000D4E906122378808A8CB0D3B1E38805F099
:107D5000B1FD054690B1A68AE4692C22002101A854
:107D600017F0B6FA04F001040F2301A88DF80430CF
:107D7000ADF80860ADF80A4001F01EF828460CB0D6
:107D800070BD05F093FDE4E72DE9F04F98461378B8
:107D9000D2F818A0F3B006460D46144623B1D18898
:107DA0005046FFF741FE9061E378A278002BA2F1E4
:107DB00008000DF10C0914BF0121022104F10C0788
:107DC00042424B464241384603F055FEA3788DF8B7
:107DD0003C30ADB2E81A80B2CDE90896E378C4F839
:107DE00018A006440E964FF0000912AEADF8280018
:107DF0000D96ADF83090002B5BD04FF0100B04F1D6
:107E0000240A237BC4F82490022B02BF2369ADF817
:107E100030B00B93206A217952460CF033FE606A31
:107E2000E0B9237B022B05D1E08939460CF0ECFE4A
:107E30000028E6D12E4B1B685B0737D52D4B1B68FE
:107E4000052B33DD2C4B2D4AD3F804352C490092F9
:107E5000062040F2017204F067FD27E007A9FFF752
:107E60003BFF0028D6D02046FFF768FFF0B9A17885
:107E70000B906D1A8DF81C0097E80300A38AADF8EB
:107E80002A3001220CAB8DF8282083E80300A37D63
:107E90008DF84030236A0E9307A8636A0896ADF800
:107EA00024500F93CDF8448000F086FF73B0BDE8F6
:107EB000F08F227B012ABDD1A146E089B4F814A03D
:107EC00049F8243F49460CF01FFE606A07A9FFF7F6
:107ED00003FF0028C7D16062494650460CF014FEEB
:107EE000606A07A9FFF7F8FE0028A3D0BBE700BF30
:107EF000342F0020302F00200010014079010400B1
:107F00005A010400C37D0A7830B56BB3C37822F000
:107F10007F0203F07F031A430A700B78027803F0A4
:107F20007F0343EAC2130B700378E3B18378083B05
:107F30005A425A414B7803F07F0343EAC2134B7015
:107F4000C58823F07F03C5F3861423434B70047A5E
:107F5000C4F3C10242EA85028A70437A03F01F0328
:107F600043EA4413CB7030BDC47822F0400343EAA7
:107F70008413DBB20B70027923F03F0302F03F025F
:107F800013430B70C9E72DE9F04F824689B00D46C7
:107F900009B100220A600AF10C039AF850400193DB
:107FA00001274FF0000B9AF80900A04203D20020ED
:107FB00009B0BDE8F08FDAF84C1007FA04F20A4273
:107FC00064D19AF81720019B8AF80840002A0CBF58
:107FD0000C26082684429AF80020029306FB04F936
:107FE00008BFBAF84A608DF818B008BFA6EB0906BA
:107FF000002A14BF4FF004084FF0010806EB0802F6
:108000000492DAF82820039202A8DAF82C200592CC
:1080100003F0D5FE0028CBD1079A904454B99AF8C2
:1080200053203AB9DAF818208AF85370C2F30C02D8
:10803000AAF806209AF817209AB99AF8522082B91D
:1080400014B17846FFF76EFCBAF84A109AF802208D
:108050008A1ADAF86C1053460846FFF732FD8AF8A0
:10806000527007995046FFF74DFFDAF86C10324610
:108070004944404617F003F902A803F0C1FE15B1C8
:108080002A6801322A60621C8AF850200134E4B266
:1080900089E7000038B590F84830012B044602D03B
:1080A0007846FFF73FFC02F005FE237B074A012BD1
:1080B00005BFD2E90315A37DD16805FB0311014477
:1080C00004F13000BDE8384002F0CBBDF4350020AB
:1080D000F0B5C37D16468278002B324414BF4FF4AE
:1080E00080734FF4C0739342C7B00F466BD3394BC4
:1080F000002493F84810012907D19D8A818A8D4276
:1081000003D1DD89C1898D425FD00134042C03F194
:108110007003EED10121FFF717FD054600283BD083
:1081200032463946C06E17F0AAF8002304A9284643
:108130000493FFF728FF30F0040406463ED1049B69
:1081400013B12846FFF7A6FF234B1B6813F0040367
:108150003DD0224B1B68032B1EDDB5F84A00204B97
:10816000802805AA1F6828BF802000231646834266
:1081700002F1020213D1002206F81320194B1A4A09
:10818000D3F804350192194A0092194902964FF426
:10819000AC62042004F0C8FB204647B0F0BDE96E95
:1081A000C95C4FEA111C01F00F0117F80CC002F86E
:1081B00002CC795C02F8011C0133D8E72846FFF7AE
:1081C00029FD3446E8E70924E6E70824E4E71C46ED
:1081D000E2E700BF0C360020342F0020302F0020B3
:1081E000382F002000100140A201040060FE0300AF
:1081F0005A010400F0B50D4691B0044610B9784616
:10820000FFF790FB94F84830022B18D1E188A06961
:10821000FFF70AFC1F4AE16913680F0A0E06591C92
:1082200011601D4A361803F007034FEA031147F1A6
:10823000000702EB0313A08A5052C3E902672C2205
:10824000002105A8666D17F043F8102305A88DF8E6
:10825000143006968DF81C5000F0AEFD2046FFF756
:10826000D9FC0E4B1B685B0712D50D4B1B68032B0B
:108270000EDD0C4B0C49D3F80435029594F84820D8
:1082800001920A4A0092042040F2F31204F04CFBDF
:1082900011B0F0BDE035002060350020342F002003
:1082A000302F0020001001405A010400B0010400EA
:1082B00008460021FFF79EBF10B591F84830012B0A
:1082C0000C4602D07846FFF72DFB94F851305BB195
:1082D000013B84F85130002384F85030084BBDE84E
:1082E0001040186803F07CBA217B0129204603D195
:1082F000BDE81040FFF77EBFBDE81040FFF7A7BC08
:10830000F03500202DE9F04306468FB010460F46A9
:1083100015469846FFF712FD0446002855D195F8FA
:108320000390B9F1000F40F08180062F4DD13778CE
:108330007378BA0102F4FE5242EA93024B4B18469C
:1083400093F84810012928D1B3F814C0E9898C4565
:1083500023D1D988914220D1B3F858C0A98ABCF161
:10836000000F01D08C4518D117F0800FD6F80220ED
:108370004FF070032CD003FB0403A3F8581013BA7A
:10838000702202FB0404E56C1D43E564002B3AD126
:1083900003212046FFF72EFF17E00134042C03F1E0
:1083A0007003CDD1324B1B685B070ED5314B1B6878
:1083B000012B0ADD304B314AD3F8043530490092A5
:1083C000022040F2776204F0AFFA0FB0BDE8F0830C
:1083D00003FB0403DD898D42D1D0254B1B685A076E
:1083E000F3D5244B1B68012BEFDD234B254AD3F833
:1083F00004350092CDE9015140F27B622049022010
:1084000004F092FAE1E72046FFF74EFB854203D1E4
:108410002046FFF71CFCD8E7002184F850102046C6
:10842000FFF7B1FD2046FFF735FECEE74846FFF7E0
:1084300005FB02460028C8D0D5E903012B6A0B933F
:10844000AB8AADF8223009AB83E80300AB7D8DF831
:1084500030302B788DF82030EB6A8DF81490CDE910
:1084600006670D93414605A89047AEE70C360020FD
:10847000342F0020302F002000100140D3010400D1
:108480005A01040001020400F0B50F46C17D837853
:10849000002989B0134414BF0B210F218B420446DD
:1084A00001922DD8014611F80C0B0291002814BF3F
:1084B0000426012633440493A36A0393E36A0593D5
:1084C00002A800238DF8183003F079FC054670B936
:1084D000079920460E44FFF715FDE37D019A4BB145
:1084E0003946304616F0CBFE02A803F089FC284638
:1084F00009B0F0BD234631463846FFF7E2FAF3E70C
:108500000925F4E710B54FF4E0720021134816F086
:10851000DFFE002405F0B6FA114B12481C6021461C
:10852000802216F0D5FE104B1049114A11489C7557
:10853000C3E9001210494CF25032C3E902211A611A
:1085400040F604029A8203F02DF90C4B18600C4B94
:108550000C481C60BDE8104005F07CBB0C360020C8
:10856000E035002060350020F4350020809698002A
:10857000F0490200ED8C020020A10700F035002038
:10858000E43500207D7A020005F088B930B5044654
:108590008FB000286DD00369002B6AD0C369002B0F
:1085A00067D08569002D64D05A788DF80C201A7830
:1085B0000B93838A82F001020B2B8DF80B20027B38
:1085C00009D90121022A8DF8081001D12A4A927D89
:1085D0005AB904220AE0C17A0029F2D1012A0CBF5B
:1085E000012200228DF808203CD1082213448DF886
:1085F0000A200B330C22B3FBF2F3013B8DF8113050
:1086000000238DF8103094E8030000238DF81F300C
:1086100005AB83E803002389ADF81C30A37A8DF8FD
:108620001E30236A0C932046DF230A950D930CF02D
:108630009DFB28B12378012B14BFFF2320230D932A
:108640002169A28A019102A80092FFF71AFB38B9AA
:108650009DF80830DDE9002102A83BB1FFF738FDA5
:108660000FB030BD04238DF80A30CCE7FFF70CFFC4
:10867000F6E70E20F4E700BFF435002070B50D4694
:1086800092B0044600285AD04368002B57D0826924
:10869000002A54D000230F93836806788DF81B605E
:1086A0000B2B94BF017B012101F001008DF8180014
:1086B00000208DF81A0031B10733DB08013B8DF83B
:1086C00021308DF82000D4E9040101238DF82F30EA
:1086D00009AB83E80300E389ADF82C30237F8DF8E4
:1086E0002E30236A0E92CDE91053164B1B685B07A0
:1086F00010D5154B1B68062B0CDD144B1449D3F811
:108700000435CDE90162134A0092072040F60302C6
:1087100004F00AF96168A268059106A80492FFF7BF
:10872000B0FA38B99DF81830DDE9042106A81BB16C
:10873000FFF7CEFC12B070BDFFF7A6FEFAE70E20E1
:10874000F8E700BF342F0020302F00200010014038
:108750005A0104004202040030B5037B012B91B0A2
:1087600004460D465DD1304B1B685B070ED52F4B81
:108770001B68032B0ADD2E4B2E4AD3F804352E49F5
:108780000092042040F2632204F0CEF8E2889100C7
:108790008DF81110290E8DF81210290C8DF8131078
:1087A00061780023022914BF19468021C2F3861282
:1087B00042EA01028DF810204FF0060209924FF0B4
:1087C00001028DF82C20A28AADF82E2004AACDF843
:1087D00016308DF81A306DBA0C938DF81C30089253
:1087E0008DF82830226AE36AADF814500D920F9389
:1087F00015D10DF10E0103A80CF0A8FABDF80C304C
:10880000ADF82A30A37D0BB10C4B5B7D8DF8383071
:108810006FF0010107A8FFF731FF11B030BDE38908
:10882000EEE70020F9E700BF342F0020302F0020B2
:10883000001001406D0204005A010400F4350020CC
:1088400010B591F84830022B0C4602D07846FFF75D
:1088500069F8022384F8683094F84830022B06D176
:10886000E16C2046FFF778FF08B984F8680010BD76
:108870002DE9F04F0D469DB0174698460446002856
:1088800000F03182002A00F02E8221B909263046FC
:108890001DB0BDE8F08F134613AE02F1180C186836
:1088A0005968324603C2083363451646F7D1237828
:1088B00094F900100020DA0981428DF84020B4BFFD
:1088C0000422012295428DF84100DFD39DF85760C4
:1088D000EEB103F07F0381428DF843308DF8420002
:1088E0002EDA6278A378920102F4FE5242EA9302F1
:1088F000ADF84620DB00E27803F0180343EA521398
:1089000002F01F028DF848308DF8492018E0C3F3BB
:108910008010002903F03F038DF843008DF84430A8
:1089200008DA94F90130002BB4BF082304238DF832
:108930004230D6E704231A4495428DF84230A5D33D
:108940000023199398F80030032B02D97846FEF7DC
:10895000E9FF98F80020C84B10A853F822301B9369
:10896000FFF78FF90646002891D1CDE9030003A94E
:1089700078880CF049F928B19DF8413043F00103A3
:108980008DF84130D7E90312388904F0C1FF00287F
:1089900055D19DF84130002B3FF479AF13F001031E
:1089A0001CBF049A14929DF84020002A00F089818F
:1089B000BDF846101698FFF737F8179BBDF854C05E
:1089C000AE494FEA036A4FEA132B1AEB000A4FF045
:1089D00000074BF1000B0B88634506D1D1E9022358
:1089E0009B4508BF92453FF452AF0137082F01F174
:1089F0001001F0D1A24B4FF00009184693F848201F
:108A0000022A25D19A8A624522D1702303FB0909E3
:108A1000B9F80610D9F81800FFF706F8D9F81C10B5
:108A20000A0612184FEA112343F100035B4508BF01
:108A3000524535D205214846FFF7DCFB0FE09DF893
:108A4000413003F0FE038DF84130002BA1D11EE729
:108A500009F10109B9F1040F03F17003CED1DDE989
:108A60001612BDF84630BDF8540004F07BFF002814
:108A700000F0BD80DDE91612BDF84630BDF85400A7
:108A800004F0A6FF00283FF402AF10A8FFF70CF88F
:108A9000014610A8FFF760FE10A8FFF74FF9F6E6B1
:108AA0009B4508BF9245FFF4F2AE764B1B685B070F
:108AB00011D5754B1B68032B0DDD744B9DF84820B9
:108AC000D3F804350192724A0092724940F2A332FF
:108AD000042003F029FF99F84830022B02D0784691
:108AE000FEF720FFDFF8B4A1DAF800B002F0E2F8F8
:108AF0000BEB000109F1300002F0B3F899F80C30EB
:108B0000012B1AD199F86830BBB999F84830022B7B
:108B100002D07846FEF706FFDAE901329AF815101E
:108B200002FB013A02F0C6F800EB0A0109F150001D
:108B300002F097F8012389F868309DF84810D9F8B9
:108B40004C3001228A4013EA020A7FF4A0AE13439C
:108B5000C9F84C309DF8573099F80920002B14BF04
:108B60004FF0080E4FF00C0E8A42A5F104050EFBE3
:108B700001FE40F095800EEB0503A9F84A30D9F8C4
:108B80001820169B9A420AD20DF14C0CBCE80F003B
:108B900009F10C070FC79CE8030087E80300D9F828
:108BA0006C00211D2A46704416F069FB4846D9F82E
:108BB0004C40FEF779FF84427FF469AED9F84C103F
:108BC0004846FFF7C9FD99F80130DA070BD599F847
:108BD0001730D9F86C00B9F84A10002B6CD0434616
:108BE0004A46FFF78FFB4846FFF714F862E09DF80E
:108BF00057209DF84930002A14BF08220C2203FB9D
:108C0000022214BF4FF480734FF4C0739A4216D9F6
:108C10001C4B1B6859077FF53AAE1B4B1B68002B9A
:108C20007FF735AE194B1B49D3F8043501921A4A28
:108C30000092012040F27F3203F076FE27E6022107
:108C400010A8FEF781FF814600287FF42EAF014671
:108C500010A8FFF781FD2C22494605A816F038FB25
:108C600010238DF8143005A80223CDF818908DF844
:108C70001C3000F0A1F80AE6A402040060350020D0
:108C80000C360020342F0020302F0020001001402F
:108C9000910204005A0104007D020400F435002012
:108CA000002B08BF0C27BD423FF469AF04214846A2
:108CB000FFF7A0FA0026EAE543464A46FFF764F8C4
:108CC00091E7002B3FF4E3AD9DF85730601C691E1F
:108CD00023B1434610AAFFF715FBD8E5434610AA77
:108CE000FFF752F8D3E50E26D1E500BFF7B5184CD3
:108CF00000262546374695F84830012B0BD101A9AF
:108D000028460197FFF73FF9042801D0019B13B1D2
:108D10002846FFF7BFF90136042E05F17005EAD1A8
:108D2000002594F84830022B0AD194F86830022BC1
:108D300006D1E16C2046FFF70FFD08B984F8680002
:108D40000135042D04F17004EBD1012003B0F0BD16
:108D50000C3600202DE9F8430F46064610B3144B9D
:108D60001C689846E4B9254600F10409BD4208D1C3
:108D7000104BC3E900650123C8F800302046BDE868
:108D8000F88359F835306BB116F9353016F83500DF
:108D9000002B09DB50B1FEF751FE38B90135E5E78C
:108DA0000424EBE70E24E9E70B24E7E70F24E5E7CB
:108DB000E4350020E8350020F8B5074610B97846BC
:108DC000FEF7B0FD0F4E346894B10F4D01232B70A8
:108DD00023791BB954F8043C384698472468002C82
:108DE000F6D12B78022B03D13168064C09B92970D2
:108DF000F8BD0B790E6813B1204603F01BFD314618
:108E0000F4E700BFD0370020CC37002010B504466F
:108E100010B97846FEF786FD00232372211D024813
:108E2000BDE8104003F0E5BCD037002010B5044683
:108E300010B97846FEF776FD074A1378013B012BFF
:108E400004D8022313700123237210BD211D03488F
:108E5000BDE8104003F0EEBCCC370020D037002036
:108E60000B888268D25A073222F003021344028828
:108E70009BB2043A934288BF00230B80704713B51E
:108E80008368C91AADF806100DF10601FFF7E8FF77
:108E9000BDF806308068184402B010BD70B50646B3
:108EA00015460C4611B97846FEF73CFD16B97846D2
:108EB000FEF738FDB4F1005F24D94FF08053D3F8AA
:108EC0000C3103F50023B4EB832F1ED26B1E234419
:108ED000B3F1005F26D94FF08052D2F80C2102F591
:108EE0000022B3EB822F20D2042D02D87846FEF761
:108EF00019FD002335807380B380B460043DA370F6
:108F0000258070BDB4F5000F08D94FF08053D3F819
:108F10000C3103F50053B4EB832FD7D37846FEF71B
:108F200001FDD3E7B3F5000F08D94FF08052D2F816
:108F30000C2102F50052B3EB822FD5D37846FEF711
:108F4000F1FCD1E738B5044610B97846FEF7EAFCE3
:108F50006288A36813449B78012B02D17846FEF700
:108F6000E1FCEFF3108572B6A268A18811448B78FA
:108F7000032B0AD12046FFF782FFA368C31A638040
:108F80000023837005B962B638BD002393706380F7
:108F9000A380F7E7F8B50E461546044610B97846A3
:108FA000FEF7C0FC16B97846FEF7BCFC6288A368E1
:108FB00013449B78012B02D17846FEF7B3FC002DB9
:108FC00037D02388043B9BB29D4232D8EFF3108701
:108FD00072B66288A388E81D20F003009A4280B22E
:108FE00004D29B1A984210DD042016E018D921887B
:108FF000891A814209D29842F6D8032981BFA36811
:109000009B1804229A70002363806288A1688B18E1
:109010008D5201229A700020336007B962B6F8BD04
:10902000A26813449B78002BDED193706380A380E9
:10903000EBE70920F3E7F8B50D461646044610B9EC
:109040007846FEF76FFC15B97846FEF76BFCAB78F7
:10905000012B02D07846FEF765FC2B88B34202D282
:109060007846FEF75FFC16B97846FEF75BFCEFF337
:10907000108772B60223AB70E1182E802046FFF7EE
:10908000EFFE6288A38893421FBFA3689B1800224B
:109090009A7007B962B6F8BD70B50D46044610B9AE
:1090A0007846FEF73FFC15B97846FEF73BFCEFF338
:1090B000108672B6A288A36813449A78042A06D14F
:1090C000211D2046FFF7CCFEA288A36813449A789E
:1090D000022A05D0032A08D0052006B962B670BD61
:1090E00003229A702B600020F7E77846FEF71AFCFF
:1090F000F9E738B5044610B97846FEF713FCEFF3EC
:10910000108572B6A088A16801448B78042B03D126
:109110002046FFF7B4FE01468878831E5842584126
:1091200005B962B638BD38B5044610B97846FEF7C1
:10913000F9FBEFF3108572B6A088A1680144887826
:10914000C31E012B05D9831E5842584105B962B68A
:1091500038BD2046FFF793FE0146F0E7F8B50D460F
:10916000044610B97846FEF7DDFB15B97846FEF7E0
:10917000D9FBEFF3108672B6AB78012B19D0032B15
:1091800022D1A288A36813449D4202D07846FEF7FC
:10919000C9FB0027AF70211D2046FFF761FEA288A2
:1091A000A36813449B78042B00D1A78006B962B64C
:1091B000F8BD6288A36813449D4202D07846FEF74A
:1091C000B1FB0023AB70F1E77846FEF7ABFBEDE7B0
:1091D00010B5EFF3108472B68288816811448B78E1
:1091E000042B02D1FFF74BFE01468878B0FA80F0DD
:1091F000400904B962B610BD037942799B1A03F5A0
:109200007F2303F6FF7300EB0330704710B505486A
:1092100084681C22002116F05BF82046BDE810404F
:1092200004F0D8B8D437002070B5194CE36813B9EE
:109230007846FEF777FB237E13B17846FEF772FB84
:109240006368092B02D97846FEF76CFB114D0026A6
:10925000636855F823309847022811D003280DD0B1
:10926000012810D163680133092B636002D9784665
:10927000FEF758FB237E002BEAD004E06660F9E796
:10928000237E0BB1207070BDBDE87040FFF7BEBFFC
:10929000D437002060030400038810B5044613B9D6
:1092A0007846FEF73FFB2088084B04EB800030EA4D
:1092B000030203D06288B2F5FE4F05D104EA030031
:1092C00000F580500478204410BD00BF00F0FFFF7F
:1092D00070B504460D4647F6FE66FFF7DDFFA8426F
:1092E00007D2844205D24388013B9BB2B342F4D8F3
:1092F00070BD0020FCE700000A78094B032A04BF78
:10930000002119761978012903D11B7E3BB9FFF79B
:109310008BBF022903D1032A01D1FFF777BF704722
:10932000D437002010B50C4CE3681878002203F500
:109330008051184404F052FC50B9E1680846FFF728
:109340005BFF814206D001F58051E160032010BD32
:109350000120FCE70220FAE7D43700201FB50A4BB2
:1093600002221B688DF800200193084A4FF48053B5
:1093700069460120029300F0D5FFB0FA80F0400961
:1093800005B05DF804FB00BFF4370020F037002083
:109390001FB50123CDE902210190054A8DF8003067
:1093A0006946184600F0BEFF05B05DF804FB00BF3B
:1093B000F0370020264BD86802794179013A914272
:1093C0002DE9F0471F4603D101205876BDE8F0870C
:1093D00000F580531F491C781C440B6813F8045F88
:1093E0001D44FFF709FF6388013B9BB247F6FE620D
:1093F000934200F58056884604D920463146FFF74F
:1094000067FF0446DFF850A04FF001092CB9B4FA09
:1094100084F464097C760120D8E7D8F800106288CB
:10942000284601F5805104F0D9FB05460028EED00E
:1094300004225146204687F81890FFF7A9FF28B963
:1094400020463146FFF744FF0446DFE70020BDE732
:10945000D4370020F43700206406040038B5104CDF
:10946000E36818784FF6FF7203F58051184404F052
:10947000B5FB88B1E36819780B4498420CD0657E3F
:109480000849094B0422002D08BF1946FFF780FF49
:1094900020B90120207638BD0120FCE70020FAE742
:1094A000D43700206C0604006806040070B50C4D2B
:1094B0000C4EE96830680C7804302246FFF768FFEC
:1094C00058B93268EB6804F0FC04043414441A7888
:1094D0006C6113442B61012070BD0020FCE700BFCC
:1094E000D4370020F437002008B5054B054918682B
:1094F0000422FFF74DFFB0FA80F0400908BD00BF1D
:10950000F4370020E0370020074B10B51968074CEE
:1095100040F6FC72E0680431FFF73AFF10B9012011
:10952000207610BD0020FCE7F4370020D43700205F
:1095300010B50C4CE1680846FFF75EFE81420AD187
:10954000094B0A4918680422FFF722FF40B901239A
:109550002376022010BD01F58051E1600320F9E778
:109560000020F7E7D4370020F4370020F837002038
:109570002DE9F74F324D2B6913B97846FEF7D2F932
:109580006B6913B97846FEF7CDF9DFF8B89047F666
:10959000FE6A6B69D5E9030603EA0908A8EB03082C
:1095A000FFF72AFE7388013B9BB2534508F58058AC
:1095B00000F5805B05D930465946FFF789FE06461F
:1095C00068B1344600275C4513D327BB012334B16F
:1095D000618847F6FF72914201D0002BD9D001205B
:1095E0002AE020460192FFF757FE019A04461746EB
:1095F000E9E7228807EB8202904509D986EA04034D
:1096000013EA090F04D16388013B9BB25345E8D9A3
:109610000FB90123DCE768693A463146FFF7B8FE27
:1096200048B96A693A446A6114B97846FEF77AF92A
:109630002C610023CBE7002003B0BDE8F08F00BF12
:10964000D437002000F0FFFF1FB50A4B0222DB6871
:109650008DF800200193084A4FF480536946012099
:10966000029300F05FFEB0FA80F0400905B05DF8AB
:1096700004FB00BFD4370020F03700201FB540F6B0
:10968000F87319684A1C0BD12C4B1A68013201D0AF
:109690001A6852B94FF0805358691A69424307E07B
:1096A0000029F7D0A1F5805202E01A68A2F5805295
:1096B0002348244C0068A2F58052C302226015D5CD
:1096C000214B1B68062B11DD481C08BF1B491F4B93
:1096D000D3F8043508BF0968CDE901121C4A00928D
:1096E0001C4940F26722072003F01EF9236819681D
:1096F0004B1E03331FD8C1F30B03E3B9164A1748B7
:10970000D1600121117016491383936001330A2B34
:1097100003D17846FEF706F904E051F8234084426D
:10972000F4D1536001200F4900F0ECFDFFF77CFD00
:10973000012004B010BD0020FBE700BF1410001092
:10974000342F0020F4370020302F0020001001407B
:109750002A03040013030400D437002049960200B2
:1097600060030400F992020010B5044610B978466F
:10977000FEF7D8F8094A107860B1E068D1684379FB
:10978000A0EB0333994206D3FFF736FD81428CBF2D
:109790000020012010BD0020FCE700BFD4370020CE
:1097A000024B1878003818BF01207047D4370020CA
:1097B00038B50E4C2378054613B17846FEF7B2F85B
:1097C0002B78032B02D07846FEF7ACF8EB68E36009
:1097D000012000230649A56063602070238300F008
:1097E00091FDBDE83840FFF71FBD00BFD437002012
:1097F000F9920200014B1868704700BFF43700204F
:1098000010B5044610B97846FEF78CF863681BB1B2
:1098100023680BB1A36813B97846FEF783F8A368F1
:109820005A1E1A4202D07846FEF77CF80023C4E99B
:10983000033310BD70B50E460446F0B18368F3B132
:10984000EFF3108572B6D0E90331994203D105B91F
:1098500062B605250FE04EB18368013B0B40D0E9AD
:109860000012304602FB031115F009FD2369013394
:10987000236135B962B6284670BD0E25FBE7092580
:10988000F9E70025F7E70000024AD2F80034002B80
:10989000FBD0704700E0014038B5C0F30B05EDB9CF
:1098A000F1B1104C0223C4F80435FFF7EDFF01F6C7
:1098B000FF7121F47F6121F00F010144884206D13C
:1098C0000023C4F80435FFF7DFFF284638BDC4F88D
:1098D0000805FFF7D9FF00F58050EFE71025F4E702
:1098E0000925F2E700E0014040EA010370B50646B1
:1098F00098071ED1FAB112F003001CD10F4B940847
:109900000122C3F80425FFF7BFFF0546A54206D193
:109910000A4B0022C3F80425FFF7B6FF70BD51F8CB
:1099200025305A1C03D046F82530FFF7ADFF01352E
:10993000ECE71020F2E70920F0E700BF00E001406B
:1099400041F2826398429DBF024B1878C0F3C00079
:10995000012070478338002013B50190000C0128C6
:109960000C4602D07846FDF7DDFF084A0849236817
:1099700013600B7843F001030B7083F00203C3F311
:1099800040030020137102B010BD00BF7C380020DE
:109990008338002013B50190000C02280C4602D039
:1099A0007846FDF7BFFF084B22681A6022791A71CA
:1099B000064A002058719871D871137843F0020359
:1099C000137002B010BD00BF74380020833800202F
:1099D00013B50190000C03280C4602D07846FDF721
:1099E000A1FF034B1A6822601B79237102B010BDDE
:1099F0007C38002013B50190000C03280C4602D0DF
:109A00007846FDF78FFF064B22681A6022791A719B
:109A1000044A1378002043F00103137002B010BD14
:109A20007C3800208338002013B50190000C0428F6
:109A30000C4602D07846FDF775FF034A1368236091
:109A40005368636002B010BD7438002013B50190F4
:109A5000000C04280C4602D07846FDF763FF064A46
:109A60002368136063685360044A1378002043F04E
:109A70000203137002B010BD743800208338002038
:109A800007B50190000C032802D07846FDF74AFF85
:109A9000034B00221A601A7103B05DF804FB00BF8B
:109AA0007C38002007B50190000C042802D07846CD
:109AB000FDF738FF034B00221A605A6003B05DF8CF
:109AC00004FB00BF7438002000B50A4B1A7B9B686A
:109AD0008DB0012A08BF03F1FF33049303900223E2
:109AE00001A88DF808208DF80430FFF765F90DB056
:109AF0005DF804FB28380020074A1378590709D578
:109B00000178122906D10549086805496FF38203D7
:109B100048601370704700BF833800207C380020F5
:109B2000283800201FB5124C2378590602D47846F5
:109B3000FDF7F8FE23785A0717D40E4A526802F54B
:109B40000052B2F1807F02920FD80B4A43F0040317
:109B500012788DF80C2002A94FF44030237005F0E4
:109B60001BF810B17846FDF7DDFE04B010BD00BF54
:109B70008338002028380020843800201FB50023B7
:109B8000ADF80D300C4B9A6802920C4A1B7B8DF895
:109B90000C3013780133DBB202A94FF4802013702C
:109BA0008DF80F3004F0F8FF10B17846FDF7BAFEDB
:109BB00005B05DF804FB00BF283800208438002081
:109BC00007B54FF4403005F039F84FF4802005F028
:109BD00035F814220021074815F07AFB064A13785D
:109BE00023F0600343F04003137003B05DF804EB0F
:109BF000FFF798BF283800208338002010B50C4CA0
:109C000014220021204615F063FB01F053F8094BA4
:109C1000094A0A499A600022C3E9031258605A614E
:109C2000074B6260197862F3C301197010BD00BF61
:109C30002838002004380020B99D020000879303D3
:109C40008338002037B5264D2B78DB062FD42548E6
:109C5000254B036000F0BEFD2448254B036000F057
:109C6000B9FD2B7813F0200212D103F00303032B6C
:109C7000204C1ED02260A26022732282FFF77EFF5A
:109C8000236863602B7843F040032B70FFF74AFF93
:109C90004FF4803004F0D2FF4FF4003004F0CEFFD8
:109CA000154800F0A5FF2B7843F010032B7003B08C
:109CB00030BD124B1A68A2601A79227398795979CB
:109CC00041EA00212182D9790D4B19700D4B187989
:109CD000884202D00AB92260D2E71B682360CFE72E
:109CE000833800201C380020559E02006838002070
:109CF000F99A020028380020043800207438002027
:109D0000843800207C380020034B187880F0040051
:109D1000C0F38000704700BF8338002010B501F009
:109D2000D1FC0D4A137BA3B9947B94B9108AFFF739
:109D300007FE70B10123137393681482013393609B
:109D4000FFF71CFF2046FFF7BFFE01F0FBFC20469B
:109D500010BD0824F9E700BF2838002010B501F035
:109D6000B1FC144A547B9CB1917B09BB108AFFF76C
:109D7000E7FD044660B1137B51732BB1012B0BD06F
:109D80007846FDF7CFFD03E0FFF7C8FF0028F7D1C5
:109D900001F0D8FC204610BD0846C2E9001111733D
:109DA0001182FFF791FEFFF7E9FEFFF7BBFEEFE739
:109DB0000024EDE7283800201FB5244C227B2AB16F
:109DC000012A0FD07846FDF7ADFD1CE0208AFFF791
:109DD000B7FDC0B1FFF7C2FF638A0BB1013B6382DD
:109DE00004B010BD218A0846FFF7AAFD58B142F21F
:109DF000B013994288BF6273FFF7B0FF0028EBD120
:109E0000637B002BE8D1238A01339BB21E211846C5
:109E10002382B3FBF1F201FB12339BB2002BDBD1A7
:109E2000A3680293237B8DF80C30094BADF80D002D
:109E30001B788DF80F3002A94FF4802004F0ACFE9F
:109E40000028C9D07846FDF76DFDC5E72838002009
:109E50008438002010B50378042B0ED143681B789A
:109E60005BB11C4B4269197B047E69BB598AF9B905
:109E7000012C996802D08A4203D810BD4C1CA24222
:109E800018D92A318A42F8D8997B0029F5D18468FB
:109E90009A60114A1A619981C3E90011FFF76EFEB9
:109EA000FFF740FE04F11000BDE81040FFF70CBEC4
:109EB000012CE2D1996801318A42DED10122BDE84C
:109EC00010405A73FFF74ABF0129D6D1012CD4D0D4
:109ED0009968F1E7283800200000062D38B5184BA6
:109EE0001B785B06054626D5164CD4E900239A421A
:109EF0001FD2207B144B1549012808BF0B469A42FC
:109F000007D263682268403B9A4208D3FFF70AFEF3
:109F100005E001236373FFF721FF0028F1D0EFF381
:109F2000108072B623685A1C22602B6028B962B672
:109F300038BDFFF7F7FD0F20FAE70020F8E700BF74
:109F40008338002028380020FFFF7F0000E0FF005A
:109F50000C4A10B51368144628B101200A4903447D
:109F60008873136010BD13B97846FDF7DBFC2368D6
:109F7000013B2360002BF5D1034ABDE810409373E9
:109F8000FFF7ECBEFC3700202838002000B58DB06C
:109F90000323ADF8080001A88DF8102003918DF877
:109FA0000430FEF709FF0DB05DF804FB014B986823
:109FB000704700BF28380020034B98681B7B012B9B
:109FC00008BF00F1FF30704728380020044B9B6821
:109FD0005840C20748BF03F1FF331846704700BF1F
:109FE00028380020014B187B704700BF283800201C
:109FF00070B50E4E337813F0200415D10C4D43F09C
:10A00000200333702973A8602C82FFF7B7FD204628
:10A01000FFF75AFD337843F04003C5E9004433703D
:10A02000FFF780FD204670BD0820FCE78338002044
:10A03000283800202DE9F3411D4CDFF878800025F9
:10A040000221204602F06CFAEFB201460026B9B9AF
:10A050006EB12046019102F0CAFA0828019906D192
:10A0600054F8043C1BB10A4638464146984701352E
:10A07000032D04F1BC04E3D1012002B0BDE8F0815E
:10A0800054F8043C1BB134F80C2C3846984734F88B
:10A090000C3C02210133204624F80C3C02F05CFA0F
:10A0A0000221204602F03CFA01360146CFE700BF0C
:10A0B0009C3800209803040038B5012104460C3078
:10A0C00002F02EFA054628B3164BC4F89C30002344
:10A0D000C4F8A03003786268012B07D0022B1BD094
:10A0E0007846FDF71FFC4FF4FA7307E081688B1A7E
:10A0F00099084FF4A9734B4303F5FA730A4A934244
:10A1000094BFC4F8A830C4F8A8200123C4F8AC4018
:10A1100084F8B830284638BD83689B1A1A0B034B65
:10A120005343E9E751A1020060850100645E01002C
:10A1300010B50446FFF7C0FF48B104F19C000BF0D6
:10A14000E3FA20B17846BDE81040FDF7EBBB10BD47
:10A150004A4B1B782DE9F74F07460C463BB10BF0F5
:10A1600009FB002384F8B83003B0BDE8F08F01F19B
:10A170000C09D1F8A8504846012102F0D1F9064651
:10A1800010B97846FDF7CEFBDFF8F8A0A5F5FA7810
:10A190004FF4A97B00253378012BA8EB050506D0E9
:10A1A000022B3BD07846FDF7BDFB00231FE0636820
:10A1B000B268B5FBFBF5D21AAD00954228BF154633
:10A1C00025B901937846FDF7ADFB019BF1687068F6
:10A1D00023F003032A4619441844FFF785FB10B106
:10A1E0007846FDF79FFB63681D446560B36862684D
:10A1F0009A422AD10BF0BEFA4846012102F0ACF98E
:10A200000023636084F8B8301D4B186801F0E8FA49
:10A21000204603B0BDE8F04FFFF78ABF6368B2681D
:10A22000B5FBFAF5D21A2D03954228BF154625B97C
:10A2300001937846FDF776FB019B706823F00303DA
:10A2400029461844FFF728FBC9E701F02DF93378B8
:10A25000C51B48BF3D1A012B0BD0022B0CD07846F2
:10A26000FDF760FB00232B44434594D90BF082FAA1
:10A27000CEE74FF4A973F6E75346F4E78C38002095
:10A2800088380020645E010070B51B481B4C01F04B
:10A2900089FA1B4B186004F11C0341F203060825E0
:10A2A000636104F10C0004F118032361A681A57316
:10A2B00002F079F904F1D803C4F8D03004F1C800F1
:10A2C00004F1D403C4F8CC30A4F8C86084F8CA50B0
:10A2D00002F069F904F5CA73C4F88C3104F5C87347
:10A2E000A4F8846184F88651C4F8883104F5C270FA
:10A2F000BDE8704002F057B935A002009038002048
:10A3000088380020022838B504460D4602D9784620
:10A31000FDF708FB0248BC2303FB0404A56038BD1D
:10A320009038002002282DE9F84F05460C46924649
:10A3300002D97846FDF7F6FA14B97846FDF7F2FA35
:10A340002378012B12D16368990702D07846FDF774
:10A35000E9FAE3689A0702D07846FDF7E3FAA368C2
:10A360009B0711D07846FDF7DDFA0DE0022B0DD1E9
:10A370006368C3F30B0313B17846FDF7D3FAA36800
:10A38000C3F30B03002BEDD1A36813B97846FDF797
:10A39000C9FAEFF3108772B6BC26DFF89C806E43D3
:10A3A00006F10C0BC3440021584602F0B9F881466F
:10A3B000002836D00021584602F0CEF804F11003F0
:10A3C00054F8042B49F8042B9C42F9D1BAF1000F40
:10A3D00005D0BC2303FB05835B88AAF80030BC20B2
:10A3E00000FB05856B8895F8B84001336B80F4B9A4
:10A3F000104B1D78B5B908EB0600FFF75DFE77B985
:10A4000062B63C4640B106F19C0040440BF07CF93A
:10A4100010B17846FDF786FA2046BDE8F88F2C4645
:10A42000F0E70424002FF7D127460020E8E70024B6
:10A43000F8E700BF8C3800209038002070B5EFF3AB
:10A44000108672B6144C236818BB13B97846FDF712
:10A4500069FA2368013B236093B9104D95F8B83031
:10A4600013B92846FFF764FE95F8743113B90C4808
:10A47000FFF75EFE95F8303213B90A48FFF758FE31
:10A480002368094A003B18BF0123137006B962B65E
:10A4900070BD01332360F3E7C43A002090380020F8
:10A4A0004C390020083A00208C38002010B1024BB3
:10A4B000800B185C704700BFA803040012DF7047D0
:10A4C00007B501F001FD90B10A4B1B685B060ED584
:10A4D000094B1B68012B0ADD084B094AD3F80435E8
:10A4E0000849019000920220752202F01DFA03B083
:10A4F0005DF804FB342F0020302F002000100140B5
:10A50000160404000B04040070B58AB00BF0FCFDC7
:10A510000446002834D000238DF8103006460FCEB4
:10A5200005AD0FC533682B60627D052A0CD9207DEF
:10A5300000F00F03072B07D004AB063A04F11D010E
:10A5400000F00F000AF06AFC114B1A68AAB104ABC4
:10A550000393237DC3F303038DF80430637D062B3F
:10A5600089BF063B00238DF8053004F11D0398BF19
:10A570008DF80530029301A8904720460BF0AEFD00
:10A580000BF0DCFD80F00100C0B20AB070BD00BF6E
:10A59000D03A002010B5114C2378022B8CB005D096
:10A5A0007846FDF7BFF901200CB010BDFFF7ACFBFA
:10A5B00018B90B48FEF72AFCF5E70BF071FD0323F1
:10A5C0002C22002101A8237014F082FE1D2301A873
:10A5D0008DF80430FEF7F0FBE5E700BFCC3A002031
:10A5E000242F002000B50A4B1A78042A8DB00CD114
:10A5F00005221A7000212C2201A814F069FE1C23E8
:10A6000001A88DF80430FEF7D7FB0DB05DF804FB10
:10A61000CC3A002008B50378122B08D10448FEF785
:10A6200005FC044B1868BDE8084001F0D9B808BD26
:10A63000242F0020C83A0020F7B5314F3A7805465C
:10A64000002A52D1002852D0067A0F2E01D0062EB1
:10A650004FD105F09DF8E868002843D0FDF772F966
:10A660000DF10700FFF72AFF0446C0BB9DF8073035
:10A67000012B40D1FDF790F900F0A6FA304600F02A
:10A68000D3FFE87800F026F900F008FE0AF0D2FFC8
:10A690001C480BF0F5FD0AF043FD0AF095FBFFF7AF
:10A6A000F3FD04F0A9F900F04FFC05F031F804F0D7
:10A6B0004BFE284601F06EFBFDF724FF03F074FD0E
:10A6C000FDF78EF808B1062817D10F4801F06AF897
:10A6D0000E4B18600E4B00221A6001233B7020467F
:10A6E00003B0F0BDFDF73AF9BAE70824F7E70E2406
:10A6F000F5E70724F3E70224F1E70446EFE700BF9C
:10A70000CC3A002009A5020095A50200C83A002015
:10A71000D03A002037B51C4D2A78012A04D0043ADB
:10A72000012A24D908241DE001F042FBFDF72CFF8B
:10A73000FDF756F80446C0B1062816D0134B1B6827
:10A740005B040FD5124B1B68012B0BDD114B124A1A
:10A75000D3F80435114901900092022040F2891289
:10A7600002F0E2F8204603B030BD00F089FF0AF0A5
:10A77000BDFF04460028F5D102232B70084B186852
:10A7800001F02EF8EEE700BFCC3A0020342F002075
:10A79000302F0020001001403F0404000B0404008F
:10A7A000C83A002008B5084B1A78032A0AD10422B7
:10A7B00006481A700AF060FF18B17846FDF7B2F843
:10A7C000002008BD0820FCE7CC3A0020E5A50200E7
:10A7D000FDF7DCBEFEF71ABBFEF728BB08B500F09C
:10A7E0002DFD002008BD05F0C1BF0000044B1A6814
:10A7F0000132B2F1704F08BF01221A601868704729
:10A80000D43A002010B5044610B97846FDF78AF80E
:10A810000023C4E9003310BD38B50D46044610B915
:10A820007846FDF77FF815B97846FDF77BF80023E9
:10A830006B60EFF3108372B6226822B92560656001
:10A8400003B962B638BD62685560F8E710B50446D2
:10A8500010B97846FDF766F8EFF3108272B62068FB
:10A8600020B90023636002B962B610BD436823605B
:10A87000002BF8D1F5E710B5044610B97846FDF77E
:10A8800051F8206810BD35DF70473CDF70473DDF71
:10A890007047000010B504464FF0FF30FFF7F3FF9C
:10A8A000FF210020FFF7F3FF21460020FFF7EDFF17
:10A8B000BFF34F8F0549064BCA6802F4E0621343A9
:10A8C000CB60BFF34F8F00BFFDE700BF00ED00E09E
:10A8D0000400FA0507289ABF024B33F81000FA204B
:10A8E000704700BF64040400024B5868103840B23F
:10A8F000704700BF00ED00E000280346B8BF00F13C
:10A900001F03084A5B1152F82330424202F01F0233
:10A9100000F01F0058BF504223FA00F000F0010081
:10A92000704700BF00E100E046DF704730B501F13D
:10A9300010031032103013F8014D12F8015D8B42F4
:10A9400084EA050400F8014DF5D130BD2DE9F04F42
:10A9500091B002F10F0604AC1D468946361103463C
:10A9600000F1100CA24618685968274603C708333F
:10A9700063453C46F7D102F00F04002E56D0B4FADE
:10A9800084F77F091022002108A814F0A1FCC7F168
:10A99000020B5046FFF7C8FF5FFA8BFB01220CA8A1
:10A9A0009DF930100F23804690F800C010F801EF99
:10A9B0004FEA4C0C013B4CEADE1C9BB200F801CC88
:10A9C000002BF1D19DF83F305B00DBB20029B8BF0E
:10A9D00083F087038DF83F30531C9B454FF00202F4
:10A9E000DDD2013E09EB061117B30CAA6846FFF74A
:10A9F0009DFF102200210CA814F06AFC0024B44230
:10AA000028DB4246694608A8FFF790FF5046FFF74B
:10AA10008BFF10AA434603CB934228606960984697
:10AA200005F10805F6D111B0BDE8F08F3746A9E76A
:10AA30002246684614F023FC10AB2344802203F81E
:10AA4000402C0134102C02D10CAA6946CEE70DF837
:10AA50000470F6E709EB0412414608A8FFF766FF09
:10AA60005046FFF761FF0134C9E7000038B5114BCC
:10AA70001A6804462AB11A6840685268821A002A85
:10AA80000DDA1A6862611C609A88013292B29A806B
:10AA900012B97846FCF746FF0123237038BD1A68C7
:10AAA000154652691AB15168091A0029F8DB62612A
:10AAB0006C61E9E7DC3A0020124B1A68824210B55B
:10AAC0001A4604460BD142691A609A8892B2511E06
:10AAD00089B299808AB97846FCF724FF0DE01B689B
:10AAE0005BB15969A1420BD16169596193889BB2ED
:10AAF000591E89B29180002BEDD00023237010BD28
:10AB00000B46EDE7DC3A0020014B186800F068BE08
:10AB1000D83A0020044B1A6822B11B6803495868D0
:10AB200000F052B900F0A6B9DC3A002009AB0200EF
:10AB30002DE9F04100F0BEF8224E054637464FF0B1
:10AB40000008336823B133685B685B1B642B06D451
:10AB500000F0B0F8FFF7DEFF0120BDE8F0813468B7
:10AB60002378012B02D07846FCF7DCFE63693B605A
:10AB7000BB88C4F814809BB25A1E92B2BA8013B933
:10AB80007846FCF7CFFEA36813B97846FCF7CAFEF7
:10AB90000223284621692370A368984700F08AF8A9
:10ABA0002378022B0546CCD1E2680AB92270C8E7A7
:10ABB00063681344591B6429FBD463602046FFF784
:10ABC00055FFBEE7DC3A002008B5064B06480022D8
:10ABD0001A605A6000F0E6FD044B1860BDE80840BA
:10ABE00000F05BB8DC3A002031AB0200D83A00201C
:10ABF00010B5044600F0D0FE10B97846FCF792FE7E
:10AC000014B97846FCF78EFEA36813B97846FCF7B2
:10AC100089FE2378012B02D17846FCF783FE0023BE
:10AC200063612046FFF722FF00F044F8BDE81040C2
:10AC3000FFF770BF10B5044600F0AEFE10B97846BD
:10AC4000FCF770FE14B97846FCF76CFE2046FFF75F
:10AC500033FF0023636100F02DF8BDE81040FFF7DB
:10AC600059BF38B504460D4600F096FE10B9784637
:10AC7000FCF758FE14B97846FCF754FE2046FFF75F
:10AC80001BFF0023636120466560FFF7EFFE00F0C5
:10AC900011F8BDE83840FFF73DBF08B514F060F982
:10ACA00038B914F085F820B17846BDE80840FCF7C3
:10ACB00039BE08BD10B5EFF3108072B60C4A0D4BCB
:10ACC0001968D2F80435D2F80441012C04BFD2F837
:10ACD0000435013100B962B6074843EA01614FF417
:10ACE00080420023E0FB0123D00B40EA434010BD2B
:10ACF00000100140E43A002040420F000A4B10B51A
:10AD00004FF40032094CC3F84823C3F808232268E3
:10AD100012B97846FCF706FE2468FFF7CBFF2346FE
:10AD2000BDE81040184700BF00100140F03A002075
:10AD300010B5EFF3108072B61E4B1F490022C3F806
:10AD400004210A6801320A6000B962B61B4A116820
:10AD500009B31168013911601268E2B9184AD3F8D1
:10AD600004051168884217D2EFF3108072B6D3F849
:10AD7000041514680131A1422ABFD3F804251268D2
:10AD80000332C3F8442500B962B64FF40032C3F869
:10AD90004423C3F8042310BD0A4C226812B9784634
:10ADA000FCF7C0FD2468FFF785FF2346BDE810408F
:10ADB000184700BF00100140E43A0020E83A0020A4
:10ADC000EC3A0020F03A002037B500230446019306
:10ADD0000D4611B97846FCF7A5FD204B1D60FFF725
:10ADE00069FF031B002BB8BF241A1D481D4AA8BFCA
:10ADF00000244FF4004500210023E5FB040114F07A
:10AE0000D9F8EFF31083019372B6174A174CD2F8B2
:10AE100004350328C3F1FF1101F57F4138BF03203A
:10AE20008142134910D30344C2F844354FF4003330
:10AE3000C2F84433C2F80433002323600B60019B43
:10AE400003B962B603B030BD03F17F43013303445D
:10AE50001A0E0132226023F07F43EFE7F03A002020
:10AE600020A1070040420F0000100140E83A0020F6
:10AE7000EC3A0020074B4FF40032C3F84823C3F8E4
:10AE80000823054A00231360044A1360044A136030
:10AE9000704700BF00100140E83A0020EC3A002063
:10AEA000F03A002030DF704731DF704710B5D0E94D
:10AEB00000238468C168A2EB731283EAF433036051
:10AEC0000C441344114444608160C360184610BDB3
:10AED00073B50D46064610B97846FCF723FD0024ED
:10AEE000A54201D802B070BD0DF10700FFF7DAFFEF
:10AEF0009DF80720002AF7D02B1B9A4288BF8DF8B7
:10AF0000073030199DF80710FFF7CEFF9DF8073086
:10AF10001C44E5E737B50421044600230DEB01008E
:10AF20000193FFF7D5FF074B2360019BE360C4E962
:10AF3000013314252046FFF7B9FF013DFAD103B0D4
:10AF400030BD00BFED5EEAF17047000007B526484E
:10AF5000019003F073FE4FF48173ADF80630019851
:10AF600003F06CFE4FF48273ADF80630019803F0E5
:10AF700065FE40F20113ADF80630019803F05EFE65
:10AF800040F20313ADF80630019803F057FE40F28B
:10AF90000513ADF80630019803F050FE4FF48373AB
:10AFA000ADF80630019803F049FE40F20713ADF802
:10AFB0000630019803F042FE4FF40073ADF80630FE
:10AFC000019803F03BFE4FF40C73ADF80630019886
:10AFD00003F034FE4FF40473ADF80630019803B06B
:10AFE0005DF804EB03F02ABE0300000148DF704760
:10AFF00049DF70474ADF7047074B032218681A740D
:10B00000064A5A6143F2B06140F6D863984288BF5D
:10B010000B469360704700BF203B0020403B002060
:10B02000054B1B68A0F1780228335843034BB0FB53
:10B03000F3F0101A704700BF3C3B002040420F0065
:10B0400038B50E4A0E4C0123637113680025013395
:10B050001360257400F084FA0AF002FC2068FFF700
:10B06000DFFF084A0146284600F0ECF920B1784697
:10B07000BDE83840FCF756BC38BD00BF543B00204B
:10B08000203B0020F9AF02001F4B10B45A6928B1D1
:10B090001968DC6811440134DC6019609968012486
:10B0A0000131E24001291C7499601C685A610ED07C
:10B0B00002291AD05B69154A1C44944203D840F611
:10B0C000D76293421CD85DF8044BFFF7B9BFB2F5C5
:10B0D000FA7F03D130B900225A61EBE740F6D8611C
:10B0E0008A42E7D840F6D862F6E7DA68022A02D147
:10B0F000064A121BF0E7012ADCD10028EBD0D9E781
:10B100005DF8044B704700BF203B002080969800FC
:10B1100070B5424C424D012323712B781BB1414B3A
:10B120001E78002E5BD000232374042853D8DFE858
:10B1300000F0034D4A4844003B4DA179AA68C4E998
:10B14000023323682260002934D001212174374959
:10B15000002B08BF0B46991AB1F57A7F26D39A4285
:10B1600024D8616143F2B06043F69822C5E9020237
:10B1700001236B71A371237C023B012B0DD86379F2
:10B1800043B10AF089FB2068FFF74AFF00F01AFA82
:10B1900000236371234B00221A70237C2448022B66
:10B1A00004BF012323760023237170BD4FF47A730B
:10B1B0006361D7E7FFF744FFD4E70120FFF764FF9F
:10B1C000D9E70020FAE70AF0F9FAD4E700F08CF9A1
:10B1D0000AF02CFBCFE77846FCF7A4FBCBE700F0A6
:10B1E00063F92B782060022B0FD0032B06D0012BA4
:10B1F00010D10223237400232B70BCE70A4B0D49A6
:10B200000D4A5E71C3E90212A67103232374064B33
:10B210006361F0E77846FCF785FBECE7203B002014
:10B22000513B0020503B0020403B0020809698007E
:10B23000303B0020A0860100FF1FA107043808B59D
:10B24000042825D8DFE800F016220A030F00114B6E
:10B250001B7E012B1CD1FFF7CBFEC8B17846BDE8A1
:10B260000840FCF75FBB0B4B00221A76BDE8084094
:10B270000AF04EBB08480123437143F6982240F67A
:10B28000D863C0E90232FFF7B5FEE6E70248FAE705
:10B2900008BD00BF203B0020403B00200D4A4FF47A
:10B2A00080710023918043F2B06C43F698211370B3
:10B2B000C2E902C1084A1060084A1370084A1370B4
:10B2C000084A1360084A1376136093800123937130
:10B2D000704700BF403B00203C3B0020503B00201B
:10B2E000513B0020543B0020203B002010B50D4C6A
:10B2F000227E012A09D0022A12D07AB90A48FFF721
:10B3000075FE10B17846FCF70DFB0848FFF772FE9A
:10B3100010B17846FCF706FB02232376002000E0FC
:10B32000112010BD203B002011B10200403B002045
:10B33000074B1B7C023B012B07D9064B18780138C1
:10B3400002288CBF0020012070470120704700BFF9
:10B35000203B0020513B0020014B1868704700BF84
:10B36000203B0020074A537910B543B11068FFF71E
:10B3700057FE044600F098F8231A48BF031B1846EE
:10B3800010BD00BF203B0020014B5879704700BF23
:10B39000203B0020014B1879704700BF203B002064
:10B3A000024B187E003818BF01207047203B002058
:10B3B000EFF3108372B6054A527922B1044A4FF472
:10B3C0008071C2F8001103B962B67047203B0020BB
:10B3D00000E100E0044B1B7E022B04D1034B012251
:10B3E0001A70FFF7E5BF7047203B0020513B00205B
:10B3F000054B1B7E022B06D1044A012808BF0323FC
:10B400001370FFF7D5BF7047203B0020513B002051
:10B41000064B19781A4631B128B90549097811B196
:10B420001870FFF7C5BF1070704700BF503B002079
:10B43000513B0020024B1B6803B962B6704700BF46
:10B44000683B0020022810B522D8EFF31084114B7E
:10B450001C6072B6104B43F82020104B002243F8BA
:10B4600020200F4B1B787BB1830003F1804303F551
:10B4700000431030C3F84021012202FA00F0094ACB
:10B48000C2F80403C3F84015FFF7D4FF002010BD35
:10B490000720FCE7683B0020583B0020743B00205D
:10B4A000643B00200080004008B5EFF310820A4B97
:10B4B0001A6072B6094B1B7853B1094B0022C3F8CE
:10B4C0004C210122DA64D3F84C05FFF7B3FF08BD25
:10B4D000044B1868F9E700BF683B0020643B00207C
:10B4E000008000406C3B00202DE9F84F0024174EEF
:10B4F000DFF85C80A1464FF0010BA50005F1804507
:10B5000005F50045D5F84031CBB1D8F8043304F146
:10B510001007FB40DB0712D5D6F800A0BAF1000FE8
:10B5200002D17846FCF7FEF90BFA07F7C6F800904F
:10B53000C8F80873FFF7B8FFD047C5F84091013449
:10B54000032C06F10406D8D1BDE8F88F583B002043
:10B5500000800040014B1B6818447047703B00207E
:10B5600008B5134B0022C3F84025C3F84021D3F897
:10B570004011C3F84425C3F84421D3F84411C3F85B
:10B580004825C3F84821D3F848310A4B1B681BB93A
:10B59000094B4FF480721A60084B01221A70FFF7B2
:10B5A00089FB0146FFF780FF054B081A186008BDAC
:10B5B00000800040683B002000E100E0643B002088
:10B5C000703B00200B4A0C490023136053609360CA
:10B5D0000A4A0B6010600A4A4B6013708B60094B7B
:10B5E0004FF0FF32C3F80823074B4FF48072C3F8C3
:10B5F00080217047743B0020583B00206C3B0020AA
:10B60000643B00200080004000E100E0044B1B7818
:10B610000F2B1EBF034B4FF48022C3F8002170474D
:10B62000D83C002000E100E010B5104C104B207019
:10B63000104803601023C0E90133FEF7E1F80E481B
:10B64000FFF7E0F823780F2B0AD0072B09D8EC225C
:10B650001A41D20705D5094A5B01DBB282F81233E1
:10B6600010BD7846BDE81040FCF75CB9D83C00201E
:10B67000943B0020803B0020DC3C002000E100E007
:10B680000D4B1B780F2B0DD00C4991F812335A0932
:10B69000EC231341DB0706D5094B9A6832B94FF406
:10B6A00080230B6070477846FCF73CB91A6842F477
:10B6B00080221A60704700BFD83C002000E100E003
:10B6C000405B0020F8B5EFF3108772B617480268A8
:10B6D000511C016002BB164B1B780F2B21D0EFF3DE
:10B6E000108C72B6134A144C95680123E5B9936027
:10B6F000124B134ED3F8801031401160C3F88060B4
:10B70000D3F8841051604FF0FF32C3F884202570C5
:10B71000BCF1000F00D162B6036813B97846FCF79C
:10B7200001F907B962B6F8BD2370F1E7943C002037
:10B73000D83C0020405B0020D93C002000E100E024
:10B74000FC06FFBD38B5EFF3108572B6104C2368C8
:10B7500013B97846FCF7E6F82368013B2360A3B9E8
:10B760000C4B1B780F2B10D00B4B9A686AB10B4A0D
:10B77000127852B9EFF3108072B609491C680C6058
:10B780005C684C609A6000B962B605B962B638BDB3
:10B79000943C0020D83C0020405B0020D93C002095
:10B7A00000E100E038B5054610B97846FCF7BAF874
:10B7B000094C23680D2B02D97846FCF7B3F8EFF358
:10B7C000108372B62068421C2260044A42F820505E
:10B7D00003B962B638BD00BF983C00209C3C0020F5
:10B7E0000E4B1B68834210B5044602D87846FCF71E
:10B7F00099F8EFF3108072B6094A6109012304F049
:10B800001F0403FA04F452F82130234342F8213094
:10B81000FFF7FCFE00B962B610BD00BF983C0020E7
:10B82000D43C002070B50D461646044610B9784643
:10B83000FCF778F815B97846FCF774F8EFF3108345
:10B8400072B60022C4E902562274246003B962B6BB
:10B8500070BD000070B5044610B97846FCF762F878
:10B86000A36813B97846FCF75DF8EFF3108672B65B
:10B87000237C03F0FF055BB90123064823742146AE
:10B88000FEF7CAFFFFF7C2FE284606B962B670BDD2
:10B890001120FAE7DC3C002010B5044610B97846C8
:10B8A000FCF740F8207C10BD2DE9FF47334E33787C
:10B8B00013B17846FCF736F80125DFF8CC90DFF8B5
:10B8C000CC80DFF8CCA035700024D9F80030A3423A
:10B8D00012D82B48DFF8A880FEF7B8FF002760BB1E
:10B8E000284C69462046FDF7A5FFA0B30023284653
:10B8F000337004B0BDE8F087630904F01F0158F805
:10B900002300C840C20716D5EFF3108072B601229B
:10B9100002FA01F158F8232022EA010248F8232014
:10B9200000B962B65AF824309847074618B920463D
:10B93000FFF756FF3D460134C7E70468237C13B97F
:10B940007846FBF7EFFFD4E902309847277440466A
:10B95000FEF77CFFC3E79DF8003043B1012BC0D157
:10B96000019B002BBDD0DDE902019847B9E7019B9F
:10B97000002BB6D002989847B3E700BFE43C002004
:10B98000DC3C0020803B0020983C0020D43C002080
:10B990009C3C0020FFF788BF07B5FEF7A5FF8DF898
:10B9A00003009DF803301749F02B0DD10B780F2BB6
:10B9B00025D01220FEF7A0FF80F00100C0B200F0F9
:10B9C000010003B05DF804FB9DF803305BB2002B6F
:10B9D000ABBF03F160430C4A03F5614303F00F036F
:10B9E000ACBF93F80033D35C5B090193019A0B78E9
:10B9F000934204D0019A9342DBD30020DFE7012079
:10BA0000DDE700BFD83C002014ED00E046DF7047C2
:10BA1000F0B58DB015466A460B46044600F1100C91
:10BA2000174620686168164603C6083464453246E6
:10BA3000F7D104AC03F1100618685968224603C216
:10BA40000833B3421446F7D13846FFF7DFFF08AC9E
:10BA50002A460CAD234603CBAB42106051601C4616
:10BA600002F10802F6D10DB0F0BDFEF76FBF01F094
:10BA70009EBD01F0D6BD022930B41DD811B3197096
:10BA8000C168D2010C045A7004F47F04C1F3074268
:10BA900022439A70C1F30721120C1A71D9700189DF
:10BAA0000A0A42EA01224188A3F805200A0A42EA6A
:10BAB0000122A3F8072022E0032926D0784630BCD3
:10BAC000FBF730BF827AC47A197002F07F0242EA33
:10BAD000C412C4685A702504C4F3074205F47F05F4
