:020000022000DC
:1060000000F000206D630200556302005763020038
:10601000596302005B6302005D6302000000000040
:106020000000000000000000000000005F630200AC
:106030006163020000000000636302006563020008
:106040006763020067630200676302006763020020
:106050006763020067630200C96A020067630200A7
:106060006763020067630200A560030067630200C4
:1060700067630200676302006763020067630200F0
:106080006763020065EA03000DBA0200676302005D
:10609000C9EA030067630200B9880300676302006E
:1060A00067630200676302006763020067630200C0
:1060B0006763020067630200000000000000000048
:1060C00067630200676302006763020067630200A0
:1060D000676302006763020067630200000000005C
:1060E00000000000000000000000000000000000B0
:1060F00000000000000000000000000000000000A0
:10610000000000000000000000000000000000008F
:10611000000000000000000000000000000000007F
:10612000000000000000000000000000000000006F
:10613000000000000000000000000000000000005F
:10614000000000000000000000000000000000004F
:10615000000000000000000000000000000000003F
:10616000000000000000000000000000000000002F
:10617000000000000000000000000000000000001F
:10618000000000000000000000000000000000000F
:1061900000000000000000000000000000000000FF
:1061A00000000000000000000000000000000000EF
:1061B00000000000000000000000000000000000DF
:1061C00000000000000000000000000000000000CF
:1061D00000000000000000000000000000000000BF
:1061E00000000000000000000000000000000000AF
:1061F000000000000000000000000000000000009F
:10620000344935480A1A02D0072291438D46334952
:1062100033480A1A06D00722914381F309880222E3
:1062200082F314882F483049304A00F042F8304851
:106230003049314A00F03DF830483149314A00F0E8
:1062400038F831483149324A00F033F831483249A0
:10625000324A00F02EF832483249334A00F029F829
:1062600032483349334A00F024F833483349002296
:1062700000F02AF832483349002200F025F832486D
:106280003249091A082902DB0022026041601F48D6
:106290001F49884205D00268043003B4904703BC0C
:1062A000F7E700208646EC4600200021284A904768
:1062B000FEE7884207D0521A05D0037801300B70F0
:1062C0000131013AF9D17047884202D002700130A1
:1062D000FAE7704700F0002000E8002000F00020FE
:1062E00000F0002050150400F02D00204C2E00205E
:1062F000A0630200A063020090F6030050150400A2
:10630000F02D0020F02D0020A4F90300A4F90300D3
:10631000A4F90300A4F90300A4F90300A4F90300FD
:10632000A4F90300A4F903004F150400AC15040000
:106330004C2E00204C2E00204C2E002048580020CF
:10634000485800204858002048580020485C002049
:1063500021680200FEE7FEE7FEE7FEE7FEE7FEE754
:10636000FEE7FEE7FEE7FEE700F002B8FFF7FCBF3E
:1063700008484FF00701884385460748804707488B
:10638000016841F470010160BFF34F8FBFF36F8F5D
:10639000FFF736BF00F00020358B030088ED00E0EA
:1063A00041DF7047F0B5EBB004464FF0A0434FF427
:1063B0000032C3F808250022C3F80C25826892F940
:1063C0000D300178D07B157C567C977C92F813C0F9
:1063D00092F814E05268CDF818E0CDF814C0049794
:1063E000039602950190009121494AA818F08FFD6B
:1063F000204B1B6813F4804F2FD01F4B1B68032BBF
:106400002BDD6778802F28BF80270023BB4210D266
:106410006268D25C19490D68100959002E5C09A800
:1064200000F8136002F00F020131AA5C42540133FC
:10643000ECE709AA002302F8173003F1804303F5C3
:106440008833D3F8043502924AAA01920C4A00928A
:1064500062220C49042006F00FFB4FF0A0434FF4DA
:106460000032C3F80C250022C3F808256BB0F0BD3C
:10647000A4F90300042E0020002E0020082E002086
:106480005CFA030054FA030000B583B00F4B1B689D
:1064900013F4804F03D00E4B1B68032B0ADC03223E
:1064A000C8214FF4F01000F0ABFA09F0DFFE03B0A2
:1064B0005DF804FB074BD3F80435074A0092982295
:1064C0000649042006F0D8FAE9E700BF042E0020B0
:1064D000002E00200010014064FA030054FA03006B
:1064E00008B50378232B00D008BDFFF7CDFFFBE7ED
:1064F00008B54023024A002102480FF069FC08BD9C
:106500004C2E00208C2E002000B58DB024220021BE
:1065100003A818F04BFD01238DF80C3007238DF8EC
:106520000F3006238DF814301F4B07931F4903A823
:1065300009F05AFE50B30B2827D11D4B1B6813F4EA
:10654000804F03D01B4B1B68032B13DC184B1B68BD
:1065500013F4804F1AD0174B1B68032B16DD164B14
:10656000D3F80435154A0092D2221549042006F0CA
:1065700083FA0BE0104BD3F80435124A0092D12273
:106580000F49042006F078FAE0E738B90E4804F025
:1065900057F8FFF7ADFF0DB05DF804FB0B4AD721AC
:1065A00012F0F2FBF2E700BFE1640200282F0020A6
:1065B000042E0020002E002000100140D0FA03001D
:1065C00054FA030080FA0300A5630200ECF903000B
:1065D00000B583B018F07CFA00BB00F055FA1D4AF4
:1065E00004214FF4804006F02BFA1B4B1B6813F478
:1065F000804F03D0194B1B68032B14DC00F038FBD1
:10660000FFF782FF144B1B6813F4804F03D0134B2A
:106610001B68032B12DC03B05DF804FB104AE72172
:1066200012F0B2FBD9E70F4BD3F804350E4A0092B3
:10663000EB220E49042006F01FFADFE7094BD3F8DE
:1066400004350B4A0092F1220849042006F014FA9E
:10665000E1E700BF15CA0200042E0020002E002032
:10666000ECF9030000100140FCFA030054FA0300A7
:1066700028FB030010B5044600214FF4F01000F091
:10668000B3F904EB8404620032214FF4C01000F02F
:10669000B7F910BD08B500F0E9F908BD00B585B03F
:1066A00003A80DF0E5FE0D4B1B6813F4804F03D0DB
:1066B0000B4B1B68032B02DC05B05DF804FB094B98
:1066C000D3F80435BDF80C200192074A0092B72296
:1066D0000649042006F0D0F9EEE700BF042E0020A2
:1066E000002E00200010014044FB030054FA030078
:1066F00000B58BB0254B1B78ABB903930693244BA5
:106700000493244B0593244B0793244B0893244B69
:10671000099303A800F0F8F838B1224A4FF48171C8
:1067200012F032FB01E0FFF7B9FF00F0EFFB00F0E1
:1067300001FA09F0E9FCB0B91B4B1B6813F4804F58
:1067400003D01A4B1B68032B13DC00214FF4F0100D
:1067500000F04AF90222C8214FF4F01000F050F97D
:106760000BB05DF804FB0F4A4FF4887112F00CFB7C
:10677000E2E70F4BD3F804350E4A00924FF48972CA
:106780000D49042006F078F9DFE700BF282F00202C
:10679000BD67020075660200956602005CFB03009F
:1067A000B8FB0300ECF90300042E0020002E0020AB
:1067B0000010014074FB030054FA030000B583B0DD
:1067C000124B1B6813F4804F03D0114B1B68032B33
:1067D00011DCFFF763FF00F049F900214FF4F010DE
:1067E00000F002F90422C8214FF4F01000F008F97B
:1067F00003B05DF804FB074BD3F80435064A00925A
:10680000BC220649042006F037F9E2E7042E0020F6
:10681000002E0020001001409CFB030054FA0300EE
:1068200008B5FFF7D5FEFFF763FFFFF7B9FDFCE7FB
:1068300008B50749074812F03BFF00B108BD012326
:10684000002205494969054812F04EFFF6E700BFEE
:10685000482F0020643200202C2F002030310020EF
:1068600008B50378023B082B41D8DFE803F01C058C
:106870001140402E404038001F4B9B68002B36D003
:10688000007A002833D01D4A0121117098472EE06C
:10689000194BDB685BB3194A127842B3174A0021DF
:1068A0001170984723E0164B1B784BB9124B1B69AC
:1068B0001BB1124A002111709847FFF7B9FF16E08B
:1068C0000D4B5B689BB1984711E010220A4B996908
:1068D0000C4812F093FF50B112F048FA07E08168BB
:1068E000C06809F015FC18B9054B01221A7008BDE3
:1068F00012F03CFAF8E700BF2C2F0020292F0020CF
:106900002A2F00203031002070B586B00446174A87
:1069100003AB07CA03C323F8022B120C1A70144EE0
:1069200035460FCC0FC594E8070085E80700B3692A
:10693000D3B1104B009303AB0F4A1049104812F02B
:1069400075FE034610B1184606B070BD0D4814F030
:106950008DFB01460A4812F095FE03460028F2D14D
:10696000FFF766FF0346EEE70723ECE7C8FB0300EB
:106970002C2F002061680200482F00206432002084
:1069800030310020682F002008B5134B1B6873B10D
:106990004FF0A042D2F80435104909684B40C2F8C4
:1069A00004350D4A1368013B136023B108BD002074
:1069B00012F0DCF9ECE70A4818F0FCF84FF0A042BE
:1069C000D2F804350549096823EA01030549096835
:1069D0000B43C2F80435E9E7A4320020A8320020B6
:1069E000AC320020D432002021B14FF0A043C3F8D4
:1069F0000C0570474FF0A043C3F80805704700002E
:106A00005AB338B51346132900D838BD134A10605D
:106A10005B00013B124A13604FF0A043D3F80435EA
:106A20001840104B186000254C0CC8034FF47A72C4
:106A3000002310F5FA7044EB050118F0FBF801464D
:106A40002A46094818F094F80028DED1034B1A684A
:106A50004FF0A043C3F80C25D7E77047A8320020B9
:106A6000A4320020D4320020AC32002008B5044803
:106A700018F0A0F80021034B1868FFF7B5FF08BD18
:106A8000AC320020A832002008B511230BE04FF0F3
:106A9000A04103F5E072032041F8220001229A4050
:106AA000C1F808250133142BF1D9054A0121054805
:106AB00018F048F800B908BD12F058F9FBE700BF1C
:106AC00089690200D4FB030010B50024144BC3F8FD
:106AD0007C4103E0D11A14E00134E4B2032C1ED847
:106AE0004FF0A043D3F810250E4B195D01238B40C6
:106AF0009343F1D00C4B1B680C4AD2F80425991A29
:106B0000E8D443F233339942E6D9084BD3F804254D
:106B1000054B1A60064B1B6820469847DCE710BD02
:106B200000600040D8FB0300D0320020001001407C
:106B3000CC320020002800F082802DE9F04FD1B047
:106B400004463F4B1B6813F4804F03D03D4B1B683A
:106B5000032B0BDC3A4B1B6813F4804F03D0394BEB
:106B60001B68032B2ADC51B0BDE8F08F00230F2BEC
:106B70000FD8E25C34490D68100959002E5C0FA84B
:106B800000F8136002F00F020131AA5C4254013395
:106B9000EDE70FAA00238DF85C3003F1804303F585
:106BA0008833D3F804350292284A0192284A009289
:106BB00042222849042005F05FFFCBE7264BD3F89B
:106BC00004350D932068020202F47F0242EA00625B
:106BD000010A01F47F4142EA010CA5882A0292B21F
:106BE000E688310289B2277A637A94F80AE094F849
:106BF0000B8094F80C9094F80DA094F80EB0E47B00
:106C00000B94CDF828B0CDF824A0CDF82090CDF885
:106C10001C80CDF818E00593049741EA16210391F2
:106C200042EA152202924CEA106001900B4A00924F
:106C30000D9B43220749042005F01EFF93E7704790
:106C4000042E0020002E0020082E002054FC0300FB
:106C50005CFA030041FC03000010014068FC0300E3
:106C600060DF704769DF704708B503F0E3FC08BDDB
:106C700010B588B011F0C8FD00282DD1234B079323
:106C8000079A069200230393049305938DF80C3022
:106C900003A90120FFF7E6FF08BB00230493059337
:106CA000F8230393069A03A9A120FFF7DBFFC8B9D5
:106CB00006A8FFF7D5FF0446069A079B9A4208D01C
:106CC000134B1B6813F4804F03D0124B1B68012B2E
:106CD0000BDCB4B908B010BD12F048F8CEE712F0E2
:106CE00045F8DAE712F042F8E2E70B4BD3F8043547
:106CF00001920A4A0092AB220949022005F0BCFE2B
:106D0000E7E7204612F032F8E4E700BFF02D00205C
:106D1000042E0020002E00200010014028FD03005A
:106D20000DFD03000620704700B587B044F2010353
:106D3000984262D01BD8012836D041F20103984214
:106D400076D1474B1B6813F4804F36D0454B1B68F8
:106D5000002B32DD444BD3F8043502920191434AB3
:106D6000009263224249012005F086FE25E044F2AC
:106D7000020398425CD13A4B1B6813F4804F1CD03D
:106D8000384B1B68002B18DD374BD3F804351068DF
:106D90000390526802920191364A00926922344966
:106DA000012005F069FE08E02D4B1B6813F4804FAD
:106DB00003D02C4B1B68002B12DC4FF0A0434FF488
:106DC000F012C3F81825C3F80C25EFF3108372B640
:106DD0004DF6AD6C284B1B78002B3ED030BFF9E749
:106DE000214BD3F8043502920191244A009260228B
:106DF0001F49012005F040FEDFE7194B1B6813F423
:106E0000804FDAD0174B1B68002BD6DD164BD3F81A
:106E100004351068049050680390029192680192C2
:106E2000174A009273221249012005F025FEC4E79B
:106E30000B4B1B6813F4804FBFD00A4B1B68002B11
:106E4000BBDD094BD3F8043501910E4A00927B2239
:106E50000749012005F010FEAFE707B05DF804FB1D
:106E6000042E0020002E002000100140F8FD030039
:106E7000C9FD03001CFE0300F02D0020DCFD030013
:106E80003CFE030060FE030000B583B00146002312
:106E90000093054B01936A4644F20200FFF744FF5A
:106EA00003B05DF804FB00BF5CFE030010B40346B2
:106EB000044C006859689A68DB680FC45DF8044B9D
:106EC000704700BFD83200200D4B0E4A92E80300F5
:106ED00083E8030003F108020B4903C982E80300B9
:106EE00093F9062002F00F0242F040029A7193F9E2
:106EF000082002F03F0242F080021A72704700BF81
:106F0000D832002060000010A40000100048704734
:106F1000D832002000231F2B09D8074901EBC300FA
:106F200000224280426001F833200133F3E7034B33
:106F300000221A60704700BFE8320020E8330020CA
:106F400030B405460F4B1B6800240AE01F230E4A8D
:106F500012F83300A0B102EBC3025288AA4207D054
:106F600001341F2C0BD85A1E002BEFD01346EEE72E
:106F7000054A02EBC30252688A42F1D100E00020C8
:106F800030BC7047E8330020E832002030B40A4AB1
:106F900013680A4C04EBC30568806960012104F89A
:106FA00033100B441360202B01D030BC70471346C4
:106FB00000221A60F9E700BFE8330020E832002021
:106FC000F0B414461D46002300E00133072B0ED811
:106FD0001A0108498A5A8242F7D101EB0312D2E919
:106FE0000267AF4208BFA642EFD1012000E00020B7
:106FF000F0BC7047F033002030B4C1698269C388A7
:107000000D0A0C06C2F30C01994216D25B1A134406
:10701000A3F50053E41845F10005094A1368591C0B
:10702000116003F00703808A064A190102EB03137B
:107030005052C3E9024530BC70475B1A1344E9E77C
:1070400070340020F0330020C37D002B42D0C37881
:107050000A7802F0800203F07F0313430B7002787A
:107060000B7803F07F0343EAC2130B700378002B05
:1070700041D030B48378082B14BF002201224B7812
:1070800003F07F0343EAC2134B70C58803F080030B
:10709000C5F3861423434B708A7802F0030242EA58
:1070A0008502D2B28A70057A02F0FC02C5F3C104EF
:1070B00022438A70CB7803F01F0343EA4513DBB207
:1070C000CB70427A03F0E00302F01F021343CB704F
:1070D00030BC7047C3780A7802F0BF029B0103F00E
:1070E000400313430B70027903F0C00302F03F0228
:1070F00013430B70B3E770470023032B31D810B450
:1071000002E00133032B28D8C3EBC302164C04EB77
:10711000021292F84820012AF3D1C3EBC30204EB18
:107120000212948AC2899442EBD1C3EBC3020E4C83
:1071300004EB0212D2888A42E3D1C3EBC30204EB10
:107140000212B2F8582012B1848AA242D9D1C3EBFC
:10715000C303054800EB031000E000205DF8044B7A
:1071600070470020704700BF9C340020002300E0DF
:107170000133032B16D8C3EBC3020B4901EB0212F8
:1071800092F84820022AF3D1C3EBC30201EB0212AA
:10719000918A828A9142EBD1C3EBC303024800EB90
:1071A00003107047002070479C34002008B9042069
:1071B00070470820704730B403460C460978C17008
:1071C00000214162A1680B2903D8217BF9B101217B
:1071D00000E0012119700020987029B1A1680731E1
:1071E000C9080139597218720121D97503F10C05CA
:1071F0006169206985E80300E1899982A1691962C2
:10720000217F9975216AD9629A6230BC704700214A
:10721000E0E700000021164B1B688B4226D90023B3
:10722000144A02EBC10252689A421DD910B4114AA5
:1072300052F8312002EBC30412F8332082420DD001
:1072400001330C4A02EBC10252689A42EFD8013175
:10725000074B1B688B4205D90023F2E760685DF895
:10726000044B70470020FAE70131D4E70020704753
:10727000743400207834002070B58CB006460D467A
:1072800014462C22002101A817F090FE0F238DF840
:107290000430ADF808604FF0000365F300038DF88B
:1072A0000A308DF80B4001A801F0EAF90CB070BD6E
:1072B00030B58DB005460C462C22002101A817F0F0
:1072C00075FE10238DF8043002958DF80C4001A84E
:1072D00001F0D6F90DB030BD00B58DB010B913F185
:1072E000020F06D1074B186804F0C0FA0DB05DF824
:1072F00004FB01218DF804100293039201A801F010
:10730000BFF9EFE780340020F8B5069C002960D073
:107310001E460F4615685168D2F808C0D368E5606C
:107320002161C4F814C0A36115695169E561216246
:10733000002363700278D20922705AB30423BB423F
:1073400049D8E17D41B3037803F07F03E370002364
:10735000A3709AB143789B0103F4FE53827843EA09
:107360009203E3808378DB0003F01803C27843EADA
:1073700052132372C37803F01F0363720023636206
:107380003378032B21D83278144B53F82230E36240
:107390000020F8BD0123D2E70178C1F38011E1702C
:1073A000017801F03F01217142B190F90130002BC9
:1073B00002DB0423A370CCE70823FBE70421A170C0
:1073C0000B44BB42C5D90920E3E77846FFF75CFDD3
:1073D000D9E70920DDE70920DBE700BF3000040022
:1073E00070B50C461D4603789BB104263244A2605A
:1073F00000F10C032360836A6360C36AE3600023C7
:107400002374204604F09AFD10B963691E442E606F
:1074100070BD0126EAE72DE9F0418EB00D46164613
:107420001C46804600282DD0002D2FD0002C31D0B6
:10743000636A0233059304F10C00E378002B2DD02E
:107440000121A27801AF3B46082A14BF0022012285
:1074500004F051FB0697CDF81C80B2B2ADF82020A5
:107460000B9515440C95A3788DF83430237B022BB3
:1074700016D00023ADF8283005A804F034FB0EB078
:10748000BDE8F0817846FFF7FFFCCDE77846FFF7CF
:10749000FBFCCBE77846FFF7F7FCC9E70221D0E712
:1074A00023692BB1236909931023ADF82830E3E752
:1074B0007846FFF7E9FCF5E72DE9F04188B004468E
:1074C0000D46C37D002B3CD0082605FB06F8637AE9
:1074D000AB4238D0257201AB324602A92046FFF7F5
:1074E0007FFF074648BB4DB994F8533033B9A369C1
:1074F000C3F30C03E380012384F85330E37D7BB9AD
:1075000094F8523063B91DBBE06EB4F84A10A2780B
:1075100023468A1A0146FFF77EFF012384F8523082
:1075200007992046FFF790FDE16E324641440198ED
:1075300017F013FD02A804F027FD384608B0BDE897
:10754000F0810C26C1E7B4F84A60A6EB0806C1E753
:107550007846FFF799FCD7E770B505460E4609B1A6
:1075600000230B6095F85040002104E0631C85F86F
:1075700050300134E4B26B7AA34210D3EA6C012399
:10758000A3401A42F5D121462846FFF795FF014650
:1075900028B9002EEAD0336801333360E6E70846A5
:1075A00070BDF0B589B004460E46154683789A182A
:1075B000C37D63B10B239A4221D801AB02A92046B7
:1075C000FFF70EFF074620B1384609B0F0BD0F2384
:1075D000F1E707992046FFF737FDE37D43B12A46DF
:1075E0003146019817F0B9FC02A804F0CDFCEBE796
:1075F00023462A4601993046FFF70DFFF4E7092795
:10760000E2E7000010B5044690F84830012B0CD199
:1076100003F0ECFA237B012B0BD0094BD968014412
:1076200004F1300003F0B8FA10BD7846FFF72CFCE7
:10763000EEE7A17D024BDA681B6903FB0121EEE74F
:107640008434002030B583B0002403E02846FFF7DF
:10765000D9FF0134032C18D8C4EBC4030C4A02EB45
:10766000031393F84830012BF3D100230193C4EBAB
:10767000C40502EB051501A92846FFF76DFF042894
:10768000E4D0019B002BE4D0E0E703B030BD00BFA5
:107690009C34002038B5044690F84830022B09D1BC
:1076A000064B1D6803F0A2FA411904F1300003F003
:1076B00073FA38BD7846FFF7E7FBF1E78434002022
:1076C00038B5044690F84830022B10D10A4B5D7D46
:1076D0005A689B6803FB052503F088FA411904F1F9
:1076E000500003F059FA012384F8683038BD784619
:1076F000FFF7CAFBEAE700BF8434002010B5044658
:10770000808A02F015FE01281CD1237BE3B194F995
:107710001620002A1ADBE27D4AB1022B18D094F918
:107720000330002B16DBA378B3B900200BE0E2781E
:107730000AB9012B12D1237893B9A378042B11D164
:10774000002000E0102010BD1020FCE70720FAE721
:107750001020F8E70720F6E70720F4E70720F2E714
:107760000020F0E70720EEE738B5044603784BB178
:10777000C388C2698169808A06F066FB054645B9FF
:10778000284638BDC2698169808A06F057FB0546E4
:10779000F5E7E169002201F00101A08AFFF76CFD25
:1077A000EEE700002DE9F04780460E4617464B1ED7
:1077B000DBB2012B0FD8B7F5C07F10D80024032C03
:1077C0001AD8C4EBC403314A02EB031393F84830D0
:1077D0004BB10134F3E77846FFF756FBEBE7784609
:1077E000FFF752FBEAE7C4EBC40502EB0515384688
:1077F00008F071FCE86600E000255DB3EB6E002B3D
:1078000042D043462C4608F1300ED3F800C05868E9
:107810009968DA68C4F800C06060A160E260103363
:1078200010347345F1D10023EB64A5F84A70012EA2
:1078300013D06FF00103AB62002385F86830144B5E
:10784000AB652D66134BAB632D64012002F044FA47
:1078500085F848602846BDE8F0870F4B1B7D85F80A
:107860005130002385F8523085F8533085F8503078
:10787000D8F828206A65A5F858306FF00103AB628C
:10788000064BAB632D64E0E71D46E3E79C34002024
:107890008B820200D57B020084340020217C020010
:1078A00000B585B000228DF80F20A0B10B4602462E
:1078B00002320A600DF10F01184604F018F99DF824
:1078C0000F3043B10C4B1B6813F0040F03D00B4B6C
:1078D0001B68032B04DC9DF80F0005B05DF804FB6A
:1078E000074BD3F80435074A009240F21542064987
:1078F000042005F0C1F8EEE7042E0020002E002041
:1079000000100140E8FE0300DBFE03002DE9F04318
:107910008FB004460E4615461F46D0F818800378EF
:107920004BB1C288C8F30C03934241D2D21A4244ED
:10793000A2F50052A26104F10C00E378002B3AD0CA
:107940000121A2780DF128094B46082A14BF002214
:10795000012204F0D0F8C4F81880CDF808900396FE
:10796000A378EA1A92B2ADF8102032440892079731
:107970008DF824300023ADF81830E3787BB3237BF7
:10798000022B1AD02546002345F8243F2A462179A8
:10799000206A0DF0A7FD606AA8B101A9FFF780FF7A
:1079A000002840D12A462179206A0DF09BFDF2E79C
:1079B000D21A4244BEE70221C3E71023ADF81830C3
:1079C00023690593DEE7237B022B30D104F10C0100
:1079D000E0890DF039FE0028D1D1052024E0237B79
:1079E000012B01D005201FE0E389ADF80030A38A08
:1079F000ADF802300025012D13D82146002341F8AF
:107A0000243F0EAB03EB450333F8380C0DF087FD34
:107A100001A9606AFFF744FF08B90135EBE70020D0
:107A200002E0052000E000200FB0BDE8F083052053
:107A3000FAE7000070B5F0B00E4614461D4610ABD4
:107A40000A4601462046FFF761FF50B1214B1B68F3
:107A500013F0040F03D0204B1B68052B2DDC70B0F6
:107A600070BD2046FFF780FE0028F8D103AB01224D
:107A70008DF80C20A28AADF80E20002204928DF819
:107A8000142010AA0692A178711AADF81C1008AA49
:107A900093E8030082E803000AAB2169E06883E809
:107AA0000300A37D8DF83830236A0C93636A0D932D
:107AB0000F9505A800F0E4FDD1E7084BD3F8043595
:107AC000074A009240F201720649062004F0D4FFF2
:107AD000C5E700BF042E0020002E0020001001404A
:107AE000FCFE0300DBFE030010B50446C06E08F088
:107AF000F6FA04F1300003F037F894F84830022B1E
:107B00000AD070220021204617F050FA002084F895
:107B1000480002F0E1F810BD04F1500003F024F831
:107B2000EFE710B58CB0044690F84830012B0FD128
:107B300001238DF80430636D029303F057F803902E
:107B400001A800F09DFD2046FFF7CEFF0CB010BD50
:107B50007846FFF799F9EBE730B585B00D46044656
:107B6000A8B194F84830022B15D02946606DFFF774
:107B70009FFB2046FFF7B8FF114B1B6813F0040F63
:107B800003D0104B1B68032B09DC05B030BD7846D1
:107B9000FFF77AF9E5E72046FFF72EFAE5E70A4B0B
:107BA000D3F8043594F8482002950192074A0092D0
:107BB00040F2F3120649042004F05EFFE5E700BF3F
:107BC000042E0020002E00200010014028FF03009A
:107BD000DBFE030008B508460021FFF7BDFF08BD26
:107BE00008B5037B012B02D0FFF79BFF08BD0121E5
:107BF000FFF7B2FFFAE7000008B590F8513053B133
:107C0000013B80F85130002380F85030034B186856
:107C100003F02CFE08BDFFF7E3FFFBE780340020F4
:107C200010B50C4691F84830012B03D12046FFF7E0
:107C3000E3FF10BD7846FFF727F9F7E7062976D16D
:107C4000F0B585B015460678B20102F4FE524178CF
:107C50008478C3781B0443EA0463047943EA042369
:107C600044791C4376B242EA91012846FFF744FA70
:107C70000746E0B1002E2FDBC289A98A8A422BD0A9
:107C80002B4B1B6813F0040F3ED02A4B1B68012BB3
:107C90003ADD294BD3F8043502910192274A00922C
:107CA00040F27B622649022004F0E6FE2CE0204BE5
:107CB0001B6813F0040F27D01E4B1B68012B23DD1C
:107CC0001D4BD3F804351F4A009240F277621C49DD
:107CD000022004F0D1FE17E0002E17DBFD6C2543D7
:107CE000FD64BCB13B78D3B17B7A5A1C012393402D
:107CF000013B9D4217D0002187F850103846FFF70E
:107D00002BFC3846FFF77EFC05B0F0BDAB8AA7F828
:107D10005830E3E703213846FFF71EFFF4E77846C3
:107D2000FFF7B2F8E0E73846FFF7FBFEECE77047F5
:107D3000042E0020002E0020001001407CFF0300D4
:107D4000DBFE03004CFF03002DE9F0418AB007463B
:107D50000E4614461D461046FFF706FD50B994F82E
:107D60000380B8F1000F08D12B4622463146384631
:107D7000FFF764FF0AB0BDE8F0814046FFF74AFA1A
:107D800002460028F6D08DF80480236A0793A38A60
:107D9000ADF8123005AB2169E06883E80300A37DEC
:107DA0008DF820300297039623788DF81030E36A1F
:107DB0000993294601A89047DCE710B5547814F0E0
:107DC000010F03D0D47D14B1FFF7BEFF10BDFFF744
:107DD00031FEFBE708B501390130FFF7EEFF08BDC2
:107DE000F0B5C7B00F46164682783244C37D2BB13A
:107DF0004FF4807393427CD3002303E04FF4C073AD
:107E0000F8E70133032B1AD8C3EBC3043B4D05EB52
:107E1000041494F848100129F3D1C3EBC30105EB16
:107E200001118C8A818A8C42EBD1C3EBC30105EB33
:107E30000111CC89C1898C42E3D1082552E001218E
:107E4000FFF7B0FC0446002855D032463946C06ED4
:107E500017F083F80023459345A92046FFF77CFBE4
:107E6000054608B1042840D1459B0BBB244B1B6839
:107E700013F0040F35D0234B1B68032B31DDB4F80E
:107E80004A70802F28BF80270023BB4214D2E26EA5
:107E9000D25C1D490D68100959002E5C04A800F839
:107EA000136002F00F020131AA5C42540133ECE787
:107EB0002046FFF7A7FBD9E704AA002302F81730F2
:107EC00003F1804303F58833D3F8043502920F4A57
:107ED00001920F4A00924FF4AC620E49042004F064
:107EE000CBFD0025284647B0F0BD2046FFF7FCFD3E
:107EF000F8E70925F6E70425F4E700BF9C340020E5
:107F0000042E0020002E0020082E0020C0FF0300B9
:107F10005CFA0300DBFE030070B504460D4616460E
:107F2000FFF7ECFB30B923782BB1324629462046C7
:107F3000FFF756FF70BD324629462046FFF731FB5A
:107F4000F8E7000038B504460D46CB695B7803714D
:107F5000CB691B7883F00103C370CB6943628B8AC2
:107F60000B2B07D8CB7A002B35D10B7B012B02D002
:107F7000002300E001232370002B31D0287B02284E
:107F80002BD0FFF713F9A070AB8A03440B33174AC9
:107F900082FB03235B10013B6372002323720023E7
:107FA000E37504F10C0395E8030083E80300AB6973
:107FB00023622B89A382AB7AA3752B6AA362DF238A
:107FC000E36228460DF06EFB20B12B78012B0AD01E
:107FD000FF23E36238BD0123CDE7054B987DD0E751
:107FE0000423A370DBE72023F3E700BFABAAAA2A90
:107FF0008434002010B54FF4E0720021134816F0CD
:10800000D5FF06F0DFF80024114B1C6080222146CA
:10801000104816F0CBFF104B104A1A60104A5A60F5
:108020004CF250329A600F49D9601A6104221A75D5
:108030009C7508225A750C4803F0F8FB0B4B18602E
:108040000B4B1C600B4806F0B5F910BD9C340020AA
:1080500070340020F0330020843400208096980093
:10806000F049020020A107007D8202008034002038
:1080700074340020D972020008B505F0D7FE08BD9F
:1080800098B110B58CB00446036983B1C36983B15C
:10809000836983B101466846FFF754FFA28A2169CC
:1080A0006846FFF739FF0CB010BD0E2070470E2058
:1080B000F9E70E20F7E70E20F5E7000058B310B5FA
:1080C00090B00A46044643683BB383693BB301461C
:1080D00004A8FFF770F8134B1B6813F0040F03D0CC
:1080E000114B1B68062B06DCA268616804A8FFF729
:1080F00013FF10B010BD0D4BD3F804352278A169E1
:10810000029101920A4A009240F6030209490720AF
:1081100004F0B2FCE8E70E2070470E20E9E70E20DD
:10812000E7E700BF042E0020002E002000100140D1
:10813000D0FF0300DBFE0300037B012B01D00020F6
:10814000704730B591B004460D46334B1B6813F0B1
:10815000040F03D0314B1B68032B41DC04A900231F
:108160000593CDF81730E288C2F3861092008DF89F
:1081700011202A0E8DF812202A0C8DF813202A0ABD
:108180008DF814208DF815506278022A0CBF8022D9
:108190001A4642EA00028DF810204FF006020992BA
:1081A0004FF001028DF82C20A28AADF82E200C93FE
:1081B0008DF81C300891226A0D928DF82830E36A00
:1081C0000F9319D0E389ADF82A30A37DF3B98DF868
:1081D00038306FF0010107A8FFF770FF11B030BD14
:1081E0000F4BD3F804350F4A009240F263220E4938
:1081F000042004F041FCB1E70DF10E0103A80DF0DD
:108200003FFABDF80C30ADF82A30DEE7074B5B7D56
:108210008DF83830DDE700BF042E0020002E00204E
:1082200000100140FCFF0300DBFE0300843400204B
:1082300090F84830022B00D0704710B5044690F8F3
:108240006830022B00D010BDC16CFFF775FF00280D
:10825000F9D1002384F86830F5E7000010B5002458
:1082600007E0C4EBC402130103481844FFF7E0FF22
:108270000134032CF5D910BD9C34002008B5FFF75C
:10828000E1F9FFF7EBFF012008BD10B50C4691F8AE
:108290004830022B06D1022384F868302046FFF7CD
:1082A000C7FF10BD7846FEF7EFFDF4E7F0B583B0E9
:1082B0000446C5698269C3882F0A2E06C2F30C05DD
:1082C000AB4232D95B1B1344A3F50053F61847F1B8
:1082D000000732463B46A08AFEF772FE002840F0B7
:1082E0008B802046FEF742FF054648B3D0F81CC0FD
:1082F0008269C3884FEA1C214FEA0C60C2F30C0C60
:108300009C4515D2A3EB0C031344A3F50053C018EE
:1083100041F10001B94208BFB0420DD38F4208BFFE
:10832000864230D3284603B0F0BD5B1B1344CDE733
:10833000A3EB0C031344EAE705212846FFF70CFCE6
:10834000E388E269A169A08A05F03CFEE8B9627A97
:10835000531CE17D99B3082202FB03F289B34FF469
:108360008073934230D302212046FFF71BFA054663
:108370000028D7D100212046FFF7DEFE0221002091
:10838000FEF796FFCEE70025CCE7E388E269A16916
:10839000A08A05F091FE60B1237863B1617A4B1C2D
:1083A0000121994001392046FFF7C6FE2046FFF71C
:1083B000DBF90025B6E77846FEF766FDEEE70C220E
:1083C000CAE74FF4C073CCE70C4B1B6813F0040FE3
:1083D00003D00B4B1B68002B01DC0025A2E7094BE7
:1083E000D3F804350192084A009240F27F320749DF
:1083F000012004F041FBF0E7002593E7042E002064
:10840000002E0020001001400C000400DBFE0300E1
:108410002DE9F04182B007460E46144698461046B4
:10842000FFF744FF002846D00546404B1B6813F079
:10843000040F03D03E4B1B68032B3FDC2846FFF79D
:1084400029F92B7B012B47D0EB6C217A01228A4042
:10845000134230D11A43EA64043E237AE27D002AB3
:1084600042D04FF0080C0CFB03FC697A8B423ED0E3
:10847000002A41D00823B34240D1AA69A3699A4295
:1084800009D205F10C0E0C340FCCAEE80F0094E8C5
:1084900003008EE80300E86E3246391D604416F092
:1084A0005CFDEC6C2B7873B36B7A5A1C0123934000
:1084B000013B9C422BD002B0BDE8F0811D4BD3F8AC
:1084C0000435227A01921C4A009240F2A3321B49E1
:1084D000042004F0D1FAB1E795F86830002BB3D14D
:1084E0002846FFF7EDF8AFE74FF00C0CBBE70CEBBD
:1084F0000603A5F84A30C0E70C23BCE70421284650
:10850000FFF72AFBD7E77846FEF7BEFCCCE7E96C1D
:108510002846FFF711FE43462A46B5F84A10E86E92
:10852000FFF74BFC2846FFF7DFFAC4E7042E0020D4
:10853000002E00200010014020000400DBFE03009C
:108540002DE9F04190B000284CD00F4614461E464D
:108550008046002A48D004AB00933346FEF7D4FE91
:10856000054618B1284610B0BDE8F08104A8FFF711
:10857000C5F805460028F5D100230293039302A90C
:1085800060880DF061F828B19DF8113043F00103C7
:108590008DF811302269E168208905F0CBFC38B1F3
:1085A0009DF8113003F0FE038DF81130002BD9D067
:1085B0009DF81130002BD5D013F0010F01D0039B93
:1085C00008939DF8103033B1334604AA394640462B
:1085D000FFF71EFFC6E7334604AA39464046FFF7B9
:1085E000F9FBBFE70E25BDE70E25BBE7F8B508B3DD
:1085F0000E460546164B1F68F7B93C46B4420FD2EB
:1086000005EBC4035B68D3B115F8340015F93430B9
:10861000002B16DBB8B1FEF7FDFDB0B90134EDE774
:108620000C4B43F8375003EBC7035E607B1C084AD2
:10863000136002E00E2700E004273846F8BD0E273D
:10864000FBE70B27F9E70F27F7E70F27F5E700BF51
:108650007434002078340020084B196861B110B5DB
:1086600004E0064804F073F9214624B10C680B7944
:10867000002BF9D0F5E710BD704700BF6036002031
:1086800038B5054630B1104B1C68ACB10F4B012218
:108690001A7004E07846FEF7F7FBF4E724683CB173
:1086A0002379002BFAD154F8043C28469847F5E783
:1086B000064B1B78022B00D038BDFFF7CDFF034BD4
:1086C00000221A70F8E700BF603600205C360020F8
:1086D00010B5044630B100232372211D034804F075
:1086E0000BF910BD7846FEF7CFFBF4E760360020AB
:1086F00010B5044658B10A4B1B78013BDBB2012B85
:1087000009D8074B02221A700123237210BD784644
:10871000FEF7BAFBEFE7211D024804F018F9F5E770
:108720005C360020603600200A8883689B5A073335
:108730009BB223F0030313449BB20288043A934292
:1087400000D900230B80704710B582B004468368BF
:10875000C91AADF806100DF10601FFF7E5FFBDF8E7
:108760000630A068184402B010BD0088043880B2FA
:10877000704743888268D018D152012383707047B4
:10878000826800239370438083807047073189B2E9
:1087900021F0030189B2428883889A4204D29B1A4D
:1087A00099421EDC0020704710B59A420FD9048808
:1087B000A41AA14217D98B4217D3032C03D983687B
:1087C000134404229A7000234380184604E0826810
:1087D00013449B780BB1042010BDFFF7D1FF00209C
:1087E000FAE7042070470020F6E70420F4E738B5E4
:1087F00004460D468368828813448B4202D0784633
:10880000FEF742FB0023AB70211D2046FFF78CFFD3
:10881000A288A36813449B78042B00D038BD0023A2
:10882000A380FBE710B50C468368428813448B4253
:1088300002D07846FEF728FB0023A37010BD70B568
:10884000054614460E46002944D0002D46D0B6F108
:10885000005F08D94FF08053D3F80C3103F50023A3
:10886000B6EB832F0ED3B6F5000F08D94FF0805327
:10887000D3F80C3103F50053B6EB832F02D37846BF
:10888000FEF702FB631E3344B3F1005F08D94FF0DB
:108890008052D2F80C2102F50022B3EB822F0ED3C6
:1088A000B3F5000F08D94FF08052D2F80C2102F531
:1088B0000052B3EB822F02D37846FEF7E5FA042C80
:1088C00010D92C8000236B80AB80AE60043C3480D8
:1088D000B37070BD7846FEF7D7FAB6E77846FEF774
:1088E000D3FAB4E77846FEF7CFFAEAE738B504469C
:1088F000A0B16288A36813449B78012B12D0EFF3D8
:10890000108572B6A388A16819448B78032B0DD00B
:108910002046FFF735FF05B962B638BD7846FEF749
:10892000B3FAE6E77846FEF7AFFAE8E72046FFF746
:108930000BFFA368C31A638000238370EBE72DE964
:10894000F0410E4614460546D0B1EEB16A88AB68D8
:1089500013449B78012B1BD024B32846FFF705FF57
:10896000A04221D3EFF3108872B621462846FFF7C4
:108970000DFF074680B1B8F1000F16D162B614E0C2
:108980007846FEF781FAE0E77846FEF77DFADDE704
:108990007846FEF779FADFE721462846FFF7E9FE39
:1089A0003060E8E7092700E009273846BDE8F08194
:1089B000F8B50C4615460646E0B1FCB1A378012B8C
:1089C00020D12388AB4221D325B3EFF3108772B6B1
:1089D00025800223A370F1183046FFF7A5FE7388A7
:1089E000B288934203D0B268134400229A7007B948
:1089F00062B6F8BD7846FEF747FADEE77846FEF73E
:108A000043FADBE77846FEF73FFADAE77846FEF707
:108A10003BFAD9E77846FEF737FAD6E770B50C4649
:108A2000054690B1ACB1EFF3108672B6AA88AB6878
:108A300013449A78042A10D09A78022A15D0032A6F
:108A400018D0052006B962B670BD7846FEF71CFA4C
:108A5000E8E77846FEF718FAE5E7291D2846FFF70C
:108A600063FEAA88AB681344E6E703229A7023608A
:108A70000020E7E77846FEF707FA0020E2E738B57E
:108A8000044680B1EFF3108572B6A088A168014456
:108A90008B78042B0BD08878022814BF002001208B
:108AA00005B962B638BD7846FEF7EEF9EAE720462A
:108AB000FFF74AFE0146EEE738B5054678B1EFF319
:108AC000108472B6A888A96801448878C31EDBB2F6
:108AD000012B08D82846FFF737FE0146F5E7784610
:108AE000FEF7D2F9EBE7022814BF0020012004B9F9
:108AF00062B638BD70B50C46064678B194B1EFF356
:108B0000108572B6A378012B10D0032B13D1214608
:108B10003046FFF76CFE05B962B670BD7846FEF7C9
:108B2000B3F9EBE77846FEF7AFF9E8E721463046C0
:108B3000FFF778FEEFE77846FEF7A6F9EBE710B50A
:108B4000EFF3108472B68388816819448B78042B04
:108B500006D08878B0FA80F0400904B962B610BD3A
:108B6000FFF7F2FD0146F4E708B5064B98680022CE
:108B70001A605A609A60DA601A615A619A6104F068
:108B8000FBFE08BD6436002000B585B00A4BDB68EB
:108B900002228DF8002001934FF480530293074A7C
:108BA0006946012001F0DAFA18B9012005B05DF834
:108BB00004FB0020FAE700BF643600208036002066
:108BC00000B585B00A4B1B6802228DF80020019386
:108BD0004FF480530293074A6946012001F0BEFA20
:108BE00018B9012005B05DF804FB0020FAE700BFCA
:108BF0008436002080360020164BDA6813795179CC
:108C00005B1A03F57F2303F6FF7302EB03339A42EB
:108C100005D002F580520F4BDA600320704700B593
:108C200085B00D4B1B6801208DF8000001930B4BA4
:108C30000393042302930A4A694601F08FFA18B19C
:108C4000002005B05DF804FB024B01221A760220D9
:108C5000F7E700BF64360020843600208836002005
:108C60008036002000B585B00C4BDA680C4B1B68D1
:108C7000043301208DF800000192039340F6FC7349
:108C80000293084A694601F069FA28B90120034BAA
:108C9000187605B05DF804FB0020FAE76436002082
:108CA000843600208036002000B585B00A4B1B6852
:108CB00001208DF800000193084B039304230293D5
:108CC000074A694601F04AFA18B9012005B05DF873
:108CD00004FB0020FAE700BF843600207036002035
:108CE0008036002010B584B0104BDA681478104B31
:108CF0001B68043301208DF8000001930392029455
:108D00000C4A694601F02AFA70B9094B1B6804F055
:108D1000FC041C440434054B5C61D9680A780A449D
:108D20001A61012004B010BD0020FBE7643600206A
:108D3000843600208036002008B50023092B09D88E
:108D4000064A52F82320824201D00133F6E7044A52
:108D5000536002E07846FEF797F808BDEC00040087
:108D60006436002010B5214BDB6853B11F4B1B7ECE
:108D70005BB91E4B5B68092B26D97846FEF784F851
:108D800022E07846FEF780F8F0E77846FEF77CF8B8
:108D9000EFE7164A536801335360092B21D978460F
:108DA000FEF772F81DE0114B00225A6019E00F4BDC
:108DB0001B7E1BB10D4B02221A7012E0FFF7D4FE8E
:108DC0000FE00A4B1B7E83B9084B5A68084B53F8D7
:108DD0002230984704460228E9D00328E3D001282E
:108DE000D7D0012CEDD0032CEBD010BD6436002081
:108DF000EC000400104B1B681B685A1E12F1030F95
:108E000018D8C3F30B020AB10020704710B50B4A03
:108E1000D3600023137653760124147093600848BE
:108E2000FFF78AFF0749204601F086F9FFF79AFF0E
:108E3000204610BD00207047843600206436002094
:108E4000898B0200498E020008B50B78032B06D0EF
:108E50000B4B1B78012B06D0022B0BD008BD084B07
:108E600000221A76F4E7064B1B7E002BF6D1FFF7A3
:108E700079FFF3E70B78032BF0D1FFF775FEEDE7F1
:108E80006436002000B585B0174BDB6818784FF6C4
:108E9000FF7203F58051184405F042FAE0B1024632
:108EA000114BD9680B780B44984217D00E4B5B7E60
:108EB00083B10E4B01208DF800000192039304232F
:108EC00002930B4A694601F049F948B90120064B63
:108ED000187606E0074BEDE7012002E0012000E0F4
:108EE000002005B05DF804FB643600202004040077
:108EF000803600201C04040008B5104BDB6818788D
:108F0000002203F58051184405F00AFA08B1012047
:108F100008BD0A4BDA68137951795B1A03F57F2390
:108F200003F6FF7302EB03339A4205D002F5805239
:108F3000024BDA600320EBE70220E9E76436002009
:108F4000F0B585B0514BDE6872793379591E8A428B
:108F500014D006F580510D780D444D490968081D5F
:108F60000F7907449B1A06EB03366B88013B9BB2D3
:108F700047F6FE62934260D92C461AE00120434B2B
:108F800058767EE07846FDF77FFF15E024F47F6495
:108F900024F00F0404F5805423781C44A64247D9DA
:108FA000A54247D26388013B9BB247F6FE629342DB
:108FB00011D92388002BE5D0238804EB830323F405
:108FC0007F6222F00F029342E0D06288B2F5FE4F3A
:108FD000DCD01C46E2E725462FE07846FDF754FF3B
:108FE00015E024F47F6424F00F0404F58054237802
:108FF0001C44A64220D9A5423BD26388013B9BB2C8
:1090000047F6FE62934211D92388002BE5D02388CE
:1090100004EB830323F47F6222F00F029342E0D03B
:109020006288B2F5FE4FDCD01C46E2E7254604E03C
:10903000002502E0002500E00025E5B1144B196889
:109040006A8801F58051384605F06AF9074690B103
:1090500001200E4B18768DF8000001950D4B0393FF
:10906000042302930C4A694601F078F858B92C465B
:10907000CAE70025E1E7B5FA85F56D09034B5D7692
:10908000012005B0F0BD0020FBE700BF64360020E2
:109090008436002018040400803600202DE9F041B9
:1090A00086B0644B1B692BB1624B5B6933B14FF0E7
:1090B000000846E07846FDF7E7FEF5E77846FDF75D
:1090C000E3FEF4E77846FDF7DFFE15E025F47F6563
:1090D00025F00F0505F580552B781D44AF421CD9AE
:1090E000AC421ED26B88013B9BB247F6FE629342B4
:1090F00011D92B88002BE5D02B8805EB830323F4B3
:109100007F6222F00F029342E0D06A88B2F5FE4FF0
:10911000DCD01D46E2E72C4600E000241CB10094A0
:109120003AE00024FAE700230093019B002B5CD176
:109130004FF00108002C77D0628847F6FF739A42FF
:1091400072D0B8F1000F73D13A4B5A6922F47F669E
:1091500026F00F06B61A06F580561C69DF683B79C3
:109160007A799B1A07EB0337002301936388013B4D
:109170009BB247F6FE629342D1D92546B9E77846BD
:10918000FDF782FE23E024F47F6424F00F0404F54D
:109190008054237823441C46A742C6D92388019AC9
:1091A00002EB83029642C0D9009B634023F47F63A5
:1091B00023F00F03002BB8D16388013B9BB247F625
:1091C000FE618B42B1D801922388002BD7D023882F
:1091D00004EB830323F47F6222F00F029342D2D088
:1091E0006288B2F5FE4FD6D1CDE7124A526901200E
:1091F0008DF808000392009A059204930E4A02A982
:1092000000F0ACFF70B90B49019B23F003024B69DE
:1092100013444B6114B1074B1C618BE77846FDF793
:1092200033FEF8E7002000E0012006B0BDE8F08141
:109230000120FAE7643600208036002000B585B0B2
:1092400040F6F8731B68B3F1FF3F09D0B3F1FF3F5D
:109250000CD07BB1B3F1FF3F37D0A3F580520FE0C4
:109260001E4A1268B2F1FF3FF0D103E01B4A1268B8
:10927000002AEFD14FF080514B690A6902FB03F2DB
:10928000A2F58052164B1A60164B1B6813F4801F10
:1092900016D0154B1B68062B12DD144BD3F8043582
:1092A00040F6F8710968B1F1FF3F13D002920191C5
:1092B0000F4A009240F267220E49072003F0DCFBC0
:1092C000FFF798FD05B05DF804FB044B1A68A2F5A2
:1092D0008052D5E701490968E8E700BF1410001083
:1092E00084360020042E0020002E002000100140B3
:1092F000B80004009F00040010B50446B0B1104B44
:109300001B78BBB10E4BD968E3685879A3EB0032E8
:10931000914211D31A79121A02F57F2202F6FF72D6
:1093200003EB0233994209D8012004E07846FDF7A7
:10933000ABFDE4E7002010BD0020FCE70020FAE7C9
:1093400064360020024B1878003818BF012070479F
:109350006436002010B504460E4B1B7893B9237871
:10936000032B13D10B4B9C60E268DA6000225A6039
:109370001A76012018705A76074900F0DDFEFFF7D3
:10938000F1FC10BD7846FDF77FFDE8E77846FDF774
:109390007BFDE7E764360020498E0200014B186828
:1093A000704700BF8436002010B5044680B1636862
:1093B0001BB123680BB1A36813B97846FDF764FDB0
:1093C000A3685A1E134207D10023E360236110BD36
:1093D0007846FDF759FDEAE77846FDF755FDF3E7D6
:1093E000F8B500B30F4604468368F3B1EFF3108578
:1093F00072B60369C268934211D0016842688668F8
:10940000013E334003FB021117B1384615F0A5FDAC
:1094100023690133236155B962B62846F8BD05B901
:1094200062B60525F9E70E25F7E70925F5E70025DA
:10943000F3E700000246C0F30B0040BB49B310B491
:1094400001F6FF710C0B144B0221C3F80415124BEB
:10945000D3F80034002BFAD001460AE00E4BC3F8D3
:1094600008250D4BD3F80034002BFAD002F58052BA
:109470000131A142F2D3084B0022C3F80425064B68
:10948000D3F80034002BFAD05DF8044B704710205D
:1094900070470920704700BF00E0014010F0030F43
:1094A0002FD110B4044611F0030F2CD16AB312F07F
:1094B000030F2CD19008174B0122C3F80425154B3C
:1094C000D3F80034002BFAD002E004340431104603
:1094D000421E50B10B68B3F1FF3FF6D023600D4B35
:1094E000D3F80034002BFAD0EFE70A4B0022C3F880
:1094F0000425084BD3F80034002BFAD05DF8044B58
:109500007047102070471020F8E70920F6E709207F
:10951000F4E700BF00E00140094B1B7813F0040F93
:1095200002D00378122B00D07047064B1A68064B06
:109530005A60034B1A786FF382021A70F4E700BF87
:109540002037002010370020BC36002010B582B034
:1095500001900C46000C012810D12368094A1360C1
:1095600009490B7843F001030B705B0883F001039A
:1095700003F001031371002002B010BD7846FDF71F
:1095800083FCEAE7103700202037002010B582B0B6
:1095900001900C46000C02280FD12268094B1A607A
:1095A00022791A71002058719871D871064A13787F
:1095B00043F00203137002B010BD7846FDF764FC5F
:1095C000EBE700BF083700202037002010B582B03D
:1095D00001900C46000C032806D1054B186820604A
:1095E0001B79237102B010BD7846FDF74DFCF4E7FE
:1095F0001037002010B582B001900C46000C0328F3
:109600000CD1084B2068186022791A71064A137829
:1096100043F001031370002002B010BD7846FDF73F
:1096200033FCEEE7103700202037002010B582B061
:1096300001900C46000C042805D1054B03CB20609B
:10964000616002B010BD7846FDF71EFCF5E700BF73
:109650000837002010B582B001900C46000C042899
:109660000BD1084B2068616803C3074A137843F0A5
:1096700002031370002002B010BD7846FDF704FC11
:10968000EFE700BF083700202037002000B583B087
:109690000190000C032806D1054B00221A601A71B4
:1096A00003B05DF804FB7846FDF7EEFBF4E700BF7E
:1096B0001037002000B583B00190000C042806D1BB
:1096C000054B00221A605A6003B05DF804FB78462F
:1096D000FDF7DAFBF4E700BF0837002010B582B0D1
:1096E0000024ADF800400123ADF80230009805F0E9
:1096F00056FFADF804400223ADF80630019805F09E
:109700004EFF02B010BD000000B585B0184B1B78AD
:1097100013F0400F0FD0164B1B7813F0040F07D136
:10972000144B5B6803F500530193B3F1807F06D9B6
:1097300005B05DF804FB7846FDF7A6FBEBE70E4BA2
:109740001B788DF808300A4A137843F0040313702D
:109750000023ADF80C300323ADF80E3001A90398B7
:1097600005F0ECFE0028E3D07846FDF78DFBDFE73F
:1097700020370020BC3600202137002000B585B0FE
:109780000022ADF809200F4B996801911B7B8DF8E1
:1097900008300D490B780133DBB20B708DF80B30BC
:1097A000ADF80C200423ADF80E300DEB0301039847
:1097B00005F0C4FE10B905B05DF804FB7846FDF76E
:1097C00063FBF8E7BC3600202137002000B585B0E8
:1097D0000F4B9A6801921A7B8DF808201B8AADF80E
:1097E00009300C4B1B788DF80B300023ADF80C3092
:1097F0000423ADF80E300DEB0301039805F09EFE37
:1098000010B905B05DF804FB7846FDF73DFBF8E7BD
:10981000BC3600202137002000B58DB00B4B1B7BE0
:10982000012B0ED0094A926804928DF808300390FB
:1098300002238DF8043001A8FEF722FF0DB05DF879
:1098400004FB024A9268013A0492EEE7BC3600201B
:1098500008B51D481D4B036000F0E8FE1C4B1B784B
:1098600013F0200F2AD103F00303032B14D1194B5B
:109870001968194A916019791173B3F805001082BB
:10988000DB79164A1370164A1279934217D0B1B990
:10989000114B00221A6007E00F4B00221A609A60F9
:1098A0001A731A82FFF76AFF0B4B1A685A60084A4C
:1098B000137843F040031370FFF726FF08BD084BF1
:1098C0001A68054B1A60EFE7FC3600201995020074
:1098D0002037002008370020BC3600202137002028
:1098E0001037002010B582B00024ADF800400323EB
:1098F000ADF80230009805F052FEADF804400423A4
:10990000ADF80630019805F04AFE084B1C605C601B
:109910009C60DC601C61064A137803F0DF0343F0AF
:1099200040031370FFF7F0FE02B010BDBC360020FC
:109930002037002038B50C4D00242C606C60AC60E2
:10994000EC602C6101F052F9084B5860084A9A60AB
:10995000084ADA601C615C61074B1A7864F3C30241
:109960001A706C6038BD00BFBC36002098360020ED
:10997000D59A0200008793032037002008B50C4BCE
:109980001B7813F0100F00D008BD0A480A4B036083
:1099900000F04CFEFFF75CFFFFF7A0FE074801F068
:1099A000BDF8034A137843F010031370ECE700BFCF
:1099B00020370020B03600202D9C02009836002071
:1099C000034B1878800880F0010000F00100704718
:1099D0002037002010B501F0B1FE174B1B7B1BBBDD
:1099E000154B9B7B2BBB144B1A8A41F282639A4224
:1099F00006D8124B1B7813F0080F05D0012300E0A6
:109A000001231BB9082410E00023FAE70A4B0122C6
:109A10001A7300241C829A6801329A60FFF7AEFE26
:109A20002046FFF7F9FE00E0082401F0CBFE2046B7
:109A300010BD0824F9E700BFBC3600202037002005
:109A400010B501F07BFE214B5B7BABB11F4B9B7BC9
:109A500003BB1E4B1A8A41F282639A4206D81C4B02
:109A60001B7813F0080F05D0012300E001239BB100
:109A7000012302E00023FAE700231C460BB3134B3B
:109A800000225A731B7B4BB1012B0ED07846FDF799
:109A9000FBF916E00023F0E70023EEE7FFF79AFF5B
:109AA00078B17846FDF7F0F90BE0084B002018601C
:109AB000586018731882FFF7AFFEFFF75FFEFFF7DD
:109AC00023FE01F07FFE204610BD00BFBC36002003
:109AD0002037002008B52C4B1B7BDBB1012B2ED08F
:109AE0007846FDF7D1F9284A138A01339BB21382D5
:109AF000264AA2FB03121209C2EB0212A3EB420395
:109B00009BB2002B3DD0204B5B8A13B1013B1E4A18
:109B1000538208BD1C4B1A8A41F282639A4206D8CE
:109B20001B4B1B7813F0080F07D0012300E0012323
:109B3000002BD8D0FFF784FFE5E70023F8E7124BAE
:109B40001B8A41F28262934206D8114A127812F0BF
:109B5000080F14D0012200E00122002AC3D042F2F3
:109B6000B012934202D9084B01225A73FFF768FFE3
:109B70000028C8D1044B5B7B012BB4D1C3E7002282
:109B8000EBE7FFF723FEBEE7BC3600208988888814
:109B90002037002010B5244B1B7B002B35D1044609
:109BA000214B5B8A2BBB1AB91F4B9B688B4205D399
:109BB000FAB11D4B9B6801338B421AD21A4B9B683A
:109BC0002A338B4223D3184B9B7B03BB164B9960E4
:109BD00000221A605A601A8242F6065159825A735C
:109BE0001A73FFF7CBFDFFF78FFD2046FFF714FE3A
:109BF0000DE062B10C4B9B6801338B4207D10A4BDD
:109C000001225A73FFF71CFF01E0012B00D010BDA9
:109C1000002AFCD1044B9B688B42F8D1024B0122F5
:109C20005A73FFF70DFFF2E7BC3600200378042BD0
:109C300000D0704743681B78002BFAD010B58468B9
:109C4000027E437E012A14BF00220122416904F1F1
:109C50001000FFF79FFF10BD1B4B1B7813F0400F48
:109C600030D010B50446194B1A685B689A4225D269
:109C7000164B1B7B012B14D0154B9A4213D2134B5E
:109C80001A685B68403B9A4215D2EFF3108172B6B6
:109C90000E4A1368581C1060236001B962B6002098
:109CA00010BD0C4BE9E7094B01225A73FFF7C8FEC0
:109CB0000028EAD1E3E7FFF727FDE6E7FFF724FDF9
:109CC0000F20EDE70F20704720370020BC36002022
:109CD000FFFF7F0000E0FF0008B538B10D4B012207
:109CE0009A730D4A13680133136008BD0A4B1B6851
:109CF0005BB1094A1368013B1360002BF5D1054B9A
:109D000000229A73FFF79CFEEFE77846FDF7BCF858
:109D1000EFE700BFBC3600208C36002000B58DB0C8
:109D2000ADF808008DF81020039103238DF804305E
:109D300001A8FEF7A5FC0DB05DF804FB014B986887
:109D4000704700BFBC360020054B1B7B012B02D0A7
:109D5000034B98687047024B98680138704700BF02
:109D6000BC360020044B9B68584010F0010F00D017
:109D7000013B1846704700BFBC360020014B187BE2
:109D8000704700BFBC3600200F4B1B7813F0200F2C
:109D900001D00820704770B50B4E43F0200333709C
:109DA0000A4DA860297300242C82FFF7E7FC2046A7
:109DB000FFF732FD2C606C60337843F04003337062
:109DC000FFF7A2FC204670BD20370020BC360020E3
:109DD0002DE9F041002624E02449BC2303FB04F3D1
:109DE000CA5A0132CA520221284602F085FC0137C4
:109DF0000221284602F050FC014679B11B4ABC23DF
:109E000003FB0423D3F80880B8F1000FE4D0BC238F
:109E100003FB04F3D25A3046C047DDE797B9013659
:109E2000F6B2022E1FD83446BC2303FB06F30833D8
:109E30000E4D1D4404350221284602F02DFC01463A
:109E40000027DAE7284602F0BFFC0828E7D1074BD5
:109E5000BC2202FB0434A368002BE0D0002204499A
:109E600030469847DBE70120BDE8F0812C37002021
:109E70002401040008B5082383731023437300F101
:109E80001C0343610323037300F1180303610C30C7
:109E900002F06CFC08BD000008B50378012B06D069
:109EA000022B07D07846FCF7EFFF002003E04FF4C9
:109EB000A97000E0004808BD645E010008B50378A1
:109EC000012B07D0022B13D07846FCF7DDFF4FF4AF
:109ED000FA7308E08368591A89084FF4A97303FBE1
:109EE00001F303F5FA730748984228BF184608BDE6
:109EF0008368591A090B044B03FB01F303F5FA734A
:109F0000F1E700BF60850100645E010038B50446DA
:109F100001210C3002F0C0FB054678B1084BC4F8B3
:109F20009C300023C4F8A0306168FFF7C7FFC4F875
:109F3000A800C4F8AC40012384F8B830284638BDE6
:109F400061A0020010B50446FFF7E0FF20B104F164
:109F50009C000CF031F900B910BD7846FCF794FF75
:109F6000FAE70000F8B505460C4616461768037870
:109F7000012B19D11249A1FB0431C9098B00AC682E
:109F8000E41BB4EB810F00D31C468CB1686827F04A
:109F90000307E968224639443844FFF77FFA58B985
:109FA00033681C443460F8BD7846FCF76DFFE1E788
:109FB0007846FCF769FFE9E77846FCF765FFEFE7CD
:109FC000EB5DF260F8B506460C4615461768037857
:109FD000022B17D1114BA3FB04231B0C1A03B468EB
:109FE000E41BB4EB033F00D314467CB1706827F048
:109FF000030721463844FFF71DFA58B92B681C4463
:10A000002C60F8BD7846FCF73FFFE3E77846FCF7A5
:10A010003BFFEBE77846FCF737FFEFE7B77609BB86
:10A0200038B505460C4611462378012B06D0022B85
:10A030000FD07846FCF728FF002304E0021D2046DD
:10A04000FFF790FFA3686868984214BF00200120C2
:10A0500038BD021D2046FFF7B5FFA368F3E70000F7
:10A060002DE9F8430F46D1F8A850254B1B786BB962
:10A070000446A5F5FA7501F10C080121404602F0ED
:10A080000BFB064648B14FF0000924E00CF0D0F875
:10A09000002387F8B830BDE8F8837846FCF7F4FE73
:10A0A000F1E70CF0C5F80121404602F025FB002342
:10A0B0007B6087F8B830134B186801F0D7FB38463F
:10A0C000FFF740FFE7E7A4EB00093046FFF7E4FEA7
:10A0D0004844A8420DD8A5EB090231463846FFF79F
:10A0E0009FFF0028DDD101F0FBF9B0EB0409ECD5AE
:10A0F000E9E70CF09DF83846FFF724FFCBE700BFF7
:10A10000283700202437002010B5084801F08EFBC6
:10A11000074B1860002406E0064BBC2000FB04300F
:10A12000FFF7A8FE0134022CF6D910BDD19D020024
:10A13000243700202C37002038B504460D4602286D
:10A1400005D80548BC2303FB0404A56038BD784648
:10A15000FCF79AFEF5E700BF2C3700202DE9F84305
:10A1600005460C461746022816D8CCB12378012B99
:10A170001AD0022B3ED16368C3F30B03002B31D1FD
:10A18000A368C3F30B03002B30D1A368002B34D199
:10A190007846FCF779FE30E07846FCF775FEE4E798
:10A1A0007846FCF771FEE1E7636813F0030F0DD109
:10A1B000E36813F0030F0DD1A36813F0030F0DD163
:10A1C000A368D3B97846FCF75FFE16E07846FCF743
:10A1D0005BFEEDE77846FCF757FEEDE77846FCF7C7
:10A1E00053FEEDE77846FCF74FFEC9E77846FCF7EB
:10A1F0004BFECAE77846FCF747FEEFF3108872B6CD
:10A20000BC2606FB05F606F108032A4E1E4404365A
:10A210000021304602F040FA814678B300213046F2
:10A2200002F06AFA20686168A268E368C9F8000071
:10A23000C9F80410C9F80820C9F80C302FB11D4A1C
:10A24000BC2303FB05235B883B801A4ABC2303FB2A
:10A2500005235A8801325A8093F8B83083B9164BD7
:10A260001B7813B10024A1460CE0124BBC2000FB6C
:10A270000530FFF74BFE8146002403E0042401E093
:10A280000024A146B8F1000F00D162B6B9F1000F69
:10A2900009D0BC2000FB05F09830064D284404305E
:10A2A0000BF08AFF10B92046BDE8F8837846FCF72A
:10A2B000EBFDF8E72C3700202837002038B504469E
:10A2C000EFF3108572B610B9164B1B6873B18CB1E1
:10A2D000144A136801331360124B1B68003B18BF0C
:10A2E0000123114A137005B962B638BD7846FCF7F0
:10A2F000CBFDECE70B4B1C68013C1C6034B1EBE779
:10A30000BC2000FB0420FFF71DFE0134022CE3D823
:10A31000064ABC2303FB042393F8B830002BF4D186
:10A32000EEE700BF60390020283700202C370020DE
:10A3300018B1830B024AD05C70470020704700BF01
:10A340003401040012DF704700B583B001F0C6FE8F
:10A3500040B10C4B1B6813F0400F03D00A4B1B6835
:10A36000012B02DC03B05DF804FB084BD3F8043585
:10A370000190074A009275220649022002F07CFBF8
:10A38000F0E700BF042E0020002E00200010014046
:10A39000A40104009701040000B58DB0114B1B7897
:10A3A000022B06D07846FCF76FFD01200DB05DF85A
:10A3B00004FBFFF705FB18B90B48FEF789F9F4E732
:10A3C0000CF06EFC074B03221A702C22002101A80E
:10A3D00014F0ECFD1D238DF8043001A8FEF750F9B0
:10A3E000E3E700BF68390020F42D002008B50378AA
:10A3F000122B00D008BD0448FEF77AF9034B186809
:10A4000001F034FAF6E700BFF42D00206439002093
:10A4100070B58AB00CF086FC48B3064600238DF870
:10A42000103005AC05460FCD0FC42B682360727D3C
:10A43000052A04D9337D03F00F03072B1ED1174BD8
:10A440001A688AB104AB0393337DC3F303038DF819
:10A450000430737D062B1BD9063B8DF8053006F1C1
:10A460001D03029301A8904730460CF03BFC0CF012
:10A4700075FC80F00100C0B20AB070BD307D04AB45
:10A48000063A06F11D0100F00F000BF07DF9D6E74A
:10A4900000238DF805300293E4E700BF6C390020FB
:10A4A00070B582B0314B1B78002B54D10446002884
:10A4B00055D0067A0F2E01D0062E52D105F00AFE95
:10A4C000E06870B1FCF7F2FC0DF10700FFF73AFF0E
:10A4D0000546002840D19DF80730012B04D0022505
:10A4E0003AE0FCF7F1FCEFE7FCF714FD00F002FBAB
:10A4F000304601F0CBF8E07800F026F900F0CAFE13
:10A500000BF0FEFD1A480CF0C5FC0BF0E5FA0BF061
:10A510001DF9FFF7F9FD04F057FF00F0E5FC05F029
:10A5200099FD05F05DFB204601F0F2FCFDF762FDB0
:10A5300004F060FAFCF7F6FB08B1062813D10D48C9
:10A5400001F074F90C4B18600C4B00221A60074B99
:10A5500001221A7000E00825284602B070BD0E25C1
:10A56000FAE70725F8E70546F6E700BF6839002057
:10A5700011A4020099A30200643900206C39002064
:10A5800010B582B0204B1B78012B0DD05AB2002A97
:10A5900035D0043BDBB2012B33D80BF0FDFD044674
:10A5A00028B3204602B010BD01F0C2FCFDF764FDE7
:10A5B000FCF7B8FB0446B8B1062815D0134B1B684E
:10A5C00013F4804FEDD0124B1B68012BE9DD114BCA
:10A5D000D3F804350190104A009240F289120F49D5
:10A5E000022002F049FADCE701F07CF8D5E7064BDF
:10A5F00002221A700A4B186801F038F9D1E70824D2
:10A60000CFE70824CDE700BF68390020042E0020E2
:10A61000002E002000100140D0010400970104002A
:10A620006439002008B5FDF72BFD08BD08B5FEF71D
:10A630004FF808BD08B500F0F3FD002008BD00008C
:10A64000014B1860704700BF6C3900207047000054
:10A65000064A136801331360B3F1704F02D0034B05
:10A6600018687047134601221A60F8E77039002015
:10A6700010B5044618B100232360636010BD78460E
:10A68000FCF702FCF7E738B50C46054668B184B123
:10A6900000236360EFF3108372B62A686AB16A68B8
:10A6A00054606C6003B962B638BD7846FCF7ECFBC9
:10A6B000EDE77846FCF7E8FBEAE72C60F1E710B538
:10A6C000044658B1EFF3108372B6206808B14268AF
:10A6D0002260226832B103B962B610BD7846FCF739
:10A6E000D3FBEFE76260F6E710B5044608B12068D7
:10A6F00010BD7846FCF7C8FBF9E735DF70473CDF53
:10A7000070473DDF7047000010B504464FF0FF3042
:10A71000FFF7F3FFFF210020FFF7F3FF21460020A2
:10A72000FFF7EDFFBFF34F8F0549CA6802F4E062FF
:10A73000044B1343CB60BFF34F8F00BFFDE700BF57
:10A7400000ED00E00400FA05072814D8DFE800F067
:10A75000080C1504110F0A06642070471420704776
:10A76000FA2070471E2070474FF4FA70704732206D
:10A7700070474B207047FA207047962070470000C2
:10A78000024B5868103840B2704700BF00ED00E03F
:10A79000034600280FDB5B11084A52F8233042427F
:10A7A00000F01F0002F01F0258BF504223FA00F0D1
:10A7B00000F00100704700F11F03ECE700E100E04A
:10A7C00046DF7047F8B504460D464B1EDBB2012B41
:10A7D00009D8002323616361A361E3612046FFF789
:10A7E000EFFF012016E07846FCF74EFBF1E7CA5C6C
:10A7F000CE185200D2B2767842EAD612CA54013349
:10A800009BB20E2BF3D9CB7B5B00CB73002F08DB05
:10A810000130C0B2A8420BD8214611F9207F002395
:10A82000EFE794F82F3083F0870384F82F30EFE7B9
:10A83000F8BD2DE9F04190B084460C4696461F467F
:10A8400002F10F084FEA281604AD0068DCF8041086
:10A85000DCF80820DCF80C300FC50EF00F055FEABD
:10A86000181302D07DB1002300E00023984663B1A5
:10A87000012104A8FFF7A6FFB8F1000F1AD0701E3F
:10A88000000110230EE00123F0E70221F1E7013B74
:10A890009BB22218D25C10A9194411F8101C4A402E
:10A8A0000DF80320002BF2D100250C950D950E9587
:10A8B0000F9533E0711EADB22A4604EB01116846D4
:10A8C00014F04BFB80230DF805306B1C03E00022D5
:10A8D0000DF8032001330F2BF9DD10230AE0013BB3
:10A8E0009BB21DF8032010A9194411F8101C4A400E
:10A8F0000DF80320002BF2D1D6E7013A92B210AB4B
:10A90000134413F8100C63189B5C584008AB985420
:10A91000002AF2D104A8FFF753FF0135731EAB42A2
:10A9200002DD29011022F3E710230AE0013B9BB26C
:10A9300010AAD11811F8402C11F8101C4A4008A98F
:10A94000CA54002BF2D104A8FFF73AFF0CAC0FCC8D
:10A9500038607960BA60FB6010B0BDE8F08100003B
:10A9600010B50446134B1B6893B14168114B1B682B
:10A970005B68CB1A002B0BDB0E4B1B6818465B6920
:10A980001BB15A68521A002AF8DB6361446103E084
:10A99000084B1A6862611C60064A93889BB20133B7
:10A9A0009BB2938013B10123237010BD7846FCF74E
:10A9B0006BFAF8E77839002038B505461CE0784690
:10A9C000FCF762FA6369204A13600023636193888D
:10A9D0009BB2591E89B29180F3B1A36803B30223DD
:10A9E0002370A36821692846984700F0FFF80546C0
:10A9F0002378DBB2022B17D0134B1B681BB3124B0F
:10AA00001B685B685B1B642B1DD50F4B1C68237890
:10AA1000DBB2012BD6D0D2E77846FCF735FADCE77B
:10AA20007846FCF731FADAE7E26812B900232370BE
:10AA3000E2E76368134463605B1B642BF9D4204630
:10AA4000FFF78EFFD8E738BD7839002010B50446EF
:10AA5000144B1B68834207D0124B1B68D3B15A6951
:10AA6000A2420ED01346F9E743690E4A1360938859
:10AA70009BB2591E89B2918063B97846FCF704FAFB
:10AA800008E062695A6107498B889BB25A1E92B2EC
:10AA90008A8013B10023237010BD7846FCF7F4F9C7
:10AAA000F8E700BF7839002008B5064B1B6833B1C2
:10AAB000044B1B680449586800F046F908BD00F0D3
:10AAC000A1F9FBE778390020E5AA020008B500F0FB
:10AAD0008DF8FFF771FF00F089F8FFF7E5FF01201F
:10AAE00008BD000008B5024B186800F0BFFE08BDA5
:10AAF0007439002008B5064B00221A605A600548D8
:10AB000000F094FE044B186000F063F808BD00BF2D
:10AB100078390020CDAA02007439002010B504460F
:10AB200000F078FF80B19CB1A368ABB12378DBB2B1
:10AB3000012B15D0002363612046FFF711FF00F0C1
:10AB400055F8FFF7B1FF10BD7846FCF79DF9EAE72D
:10AB50007846FCF799F9E7E77846FCF795F9E5E7D9
:10AB60007846FCF791F9E5E710B5044600F052FF8E
:10AB700050B16CB12046FFF769FF0023636100F01C
:10AB800035F8FFF791FF10BD7846FCF77DF9F0E747
:10AB90007846FCF779F9EDE738B504460D4600F044
:10ABA00039FF70B18CB12046FFF750FF002363617D
:10ABB00065602046FFF7D4FE00F018F8FFF774FF39
:10ABC00038BD7846FCF760F9ECE77846FCF75CF9AD
:10ABD000E9E708B514F004F800B108BD13F078FFF8
:10ABE0000028FAD07846FCF74FF9F6E770B4EFF397
:10ABF000108172B6184B1A68184BD3F80455D3F865
:10AC00000431012B22D001B962B645EA0265002663
:10AC10006B01EA0E5B1B62EB0602510241EAD35163
:10AC20005802431941EB0600810141EA93619A0100
:10AC3000D31A61EB00005B1946EB000013F580436B
:10AC40007041DB0B43EA404070BC7047034BD3F8C4
:10AC500004550132D7E700BF8039002000100140C1
:10AC600010B50A4B4FF40032C3F84823C3F8082349
:10AC7000074B1B682BB1064B1C68FFF7B7FFA047BB
:10AC800010BD7846FCF700F9F5E700BF0010014061
:10AC90008C390020EFF3108172B6264B0022C3F8E6
:10ACA0000421254A13680133136001B962B6234BAE
:10ACB0001B68002B3DD0214B1A68013A1A601B68B3
:10ACC000002B36D103F1804303F58833D3F80425F4
:10ACD0001B4B1B689A421ED2EFF3108272B6154BC3
:10ACE000D3F804350133164909688B4210D3114B50
:10ACF000D3F8043503330F49C1F8443502B962B6BD
:10AD00000C4B4FF40032C3F84423C3F804237047BC
:10AD10000B4B1B68EFE710B50A4B1B682BB1094BB7
:10AD20001C68FFF763FFA04710BD7846FCF7ACF83E
:10AD3000F5E7704700100140803900208439002079
:10AD4000883900208C39002030B583B004460023B8
:10AD500001930D46002936D0244B1D60FFF746FFB6
:10AD6000031B002B33DB0023590CD803204C214A52
:10AD7000002300194FF0000444EB010113F05AFFC7
:10AD8000EFF31083019372B61B4BD3F804350328FD
:10AD900038BF0320C3F1FF1202F57F42824218D36D
:10ADA0000344154AC2F844354FF40033C2F8443323
:10ADB000C2F80433114A1460114A1460019B03B9AC
:10ADC00062B603B030BD7846FCF75EF8C4E7231ADC
:10ADD000CAE7034403F17F4301331A0E01320749E6
:10ADE0000A6023F07F43064A1360E7E78C390020AE
:10ADF00020A1070040420F000010014084390020CC
:10AE000088390020074B4FF40032C3F84823C3F8B9
:10AE100008230023044A1360044A1360044A1360A1
:10AE2000704700BF0010014084390020883900209D
:10AE30008C39002030DF704731DF704710B4034693
:10AE400002684068A2EB70129C6880EAF4301860D7
:10AE5000D9680C445C60114499601044D8605DF876
:10AE6000044B704770B582B00D46064608B1002409
:10AE70000BE07846FCF708F8F9E79DF80710301961
:10AE8000FFF7DAFF9DF807301C44A5420DD90DF1FC
:10AE90000700FFF7CFFF9DF80730002BF7D02A1BE4
:10AEA0009342EAD98DF80720E7E702B070BD0000B1
:10AEB00030B583B005460024019404210DEB010058
:10AEC000FFF7D0FF074B2B60019B6B60AB60EB6023
:10AED00003E02846FFF7B2FF0134132CF9D903B081
:10AEE00030BD00BFED5EEAF17047000070B582B082
:10AEF00000241EE0174E33680193A5B204F5807359
:10AF0000ADF80630019804F04AFB7368019305F52B
:10AF10008173ADF80630019804F041FBB3680193EA
:10AF200005F58275ADF80650019804F038FB013440
:10AF3000E4B2012CDED9074CE06804F030FB206954
:10AF400004F02DFB606904F02AFBA06904F027FBE4
:10AF500002B070BDF801040048DF704749DF704758
:10AF60004ADF7047044B01225A7143F2B0629A6083
:10AF700043F69822DA607047DC390020094B03223F
:10AF80001A74094A5A611A6840F6D8639A4204D979
:10AF9000054B43F2B0629A607047034B40F6D862AB
:10AFA0009A607047BC390020DC39002008B50F4B8F
:10AFB0001B78022B12D0032B08D0012B03D078462C
:10AFC000FBF762FF0EE0022303740BE0084B002244
:10AFD0005A71084999600849D96082710323037442
:10AFE000034B4361014B00221A7008BDED3900206C
:10AFF000DC390020A0860100FF1FA10738B50446F8
:10B0000000250574012343710E4A13680133136050
:10B0100000F0C4FA0BF086F923680B4A1168283156
:10B0200001FB03F1094AA2FB0121A3EB9141084A6C
:10B030007839284600F02EFA00B938BD7846FBF77B
:10B0400023FFFAE7F0390020D839002083DE1B43C4
:10B050007DAF020010B5044600238360C36003681F
:10B060000D4A92680260817991B10121017403B99E
:10B070000A4B991A6161B1F57A7F01D39A4202D9DC
:10B080004FF47A736361FFF76DFF0123A37110BD65
:10B09000FFF7B4FFF7E700BFDC3900208096980087
:10B0A00010B50C4631B1C3680133C360426903680F
:10B0B0001344036083680133836001220274426990
:10B0C00052084261012B0DD0022B19D0426903684E
:10B0D000134417498B4222D840F6D7639A4221D8AD
:10B0E00000231DE0B2F5FA7F05D040F6D8639A42FE
:10B0F000ECD84361EAE7002CF7D100234361E5E790
:10B10000C368022B06D0012BE0D1002CDED1002336
:10B110004361DBE70268064B9B1A4361D6E70023D5
:10B1200013B110BD0123FBE7FFF768FFF9E700BF8C
:10B130008096980043791BB90D4B00221A70704716
:10B1400010B504460BF00AF923680A4A1068283043
:10B1500003FB00F0084AA2FB0020A3EB90407838E4
:10B1600000F04CFA00236371014B00221A7010BDED
:10B17000EC390020D839002083DE1B4308B5254B6D
:10B1800001221A71244B1B7813B1244B1B781BB37B
:10B19000204B00221A7404281AD8DFE800F00314A8
:10B1A000110C07001B48FFF755FF1CE0012119484F
:10B1B000FFF776FF17E000211648FFF771FF12E056
:10B1C0000BF05CF80FE000F0ABF90BF091F80AE03F
:10B1D0007846FBF759FE06E000F082F90D4B186047
:10B1E0001846FFF7E3FE0B4B1B7C023BDBB2012B47
:10B1F00008D9084B1B7C022B08D00648002303719A
:10B20000103008BD0348FFF795FFF2E7014B01221C
:10B210001A76F2E7BC390020ED390020EC39002025
:10B2200008B50438042814D8DFE800F01826140301
:10B230000E00164B1B7E012B0BD1FFF78FFE40B18A
:10B240007846FBF721FE04E0104B00221A760BF043
:10B25000ADF808BD7846FBF717FEFAE7FFF782FE68
:10B260000B4840F6D8638360FFF77AFE0028F0D0E1
:10B270007846FBF709FEECE70548FFF771FE00286A
:10B28000E7D07846FBF700FEE3E700BFBC390020BB
:10B29000DC39002010B40E4A002313701371012111
:10B2A000517143F2B064946043F69824D460094A23
:10B2B0001060094A1370094A1370094A1360094A59
:10B2C000137153711360137691715DF8044B7047DD
:10B2D000DC390020D8390020EC390020ED3900207D
:10B2E000F0390020BC39002008B5104B1B7E012B23
:10B2F00008D0022B17D00BB1002008BD0C48FFF777
:10B300002BFE40B90B48FFF72BFE40B9074B02223A
:10B310001A760020F1E77846FBF7B6FDF2E77846AB
:10B32000FBF7B2FDF2E71120E7E700BFBC390020D0
:10B330007DB10200DC3900200B4B1B7C023BDBB2F1
:10B34000012B0BD9094B1B78012B09D0022B09D0FB
:10B35000032B01D000207047012070470120704767
:10B360000120704701207047BC390020ED390020D2
:10B37000014B1868704700BFBC3900200D4B5B794A
:10B380000BB90020704710B50A4B1C680A4B1B68AC
:10B39000283303FB04F3094AA2FB0323A4EB9344E1
:10B3A000783C00F09DF80346201A00D410BD181B0D
:10B3B000FCE700BFBC390020D839002083DE1B43E6
:10B3C000014B1879704700BFBC390020EFF31083A0
:10B3D00072B6054A527922B1044A4FF48071C2F81C
:10B3E000001103B962B67047BC39002000E100E0EB
:10B3F00008B5054B1B7E022B00D008BD034B012274
:10B400001A70FFF7E3FFF8E7BC390020ED390020A0
:10B4100008B5074B1B7E022B00D008BD012804D0C5
:10B42000044A1370FFF7D2FFF7E70323F8E700BFE2
:10B43000BC390020ED39002008B5094B1B782BB131
:10B4400048B9084B1B7813B1012300E00023044ADC
:10B45000107013B908BD0023F9E7FFF7B7FFF9E74C
:10B46000EC390020ED39002010B4094B00F15002F6
:10B47000002443F8224000F110040122A240C3F846
:10B48000042300F5A87043F820105DF8044B7047C2
:10B4900000800040022817D810B5EFF310840C4B41
:10B4A0001C6072B60B4B43F820200B4B002243F874
:10B4B00020200A4B1B7823B9054B186830B962B6B7
:10B4C00005E0FFF7D1FFF7E707207047002010BD28
:10B4D000043A0020F4390020103A0020003A0020FD
:10B4E000EFF310820A4B1A6072B60A4B1B7863B1F5
:10B4F000094B0022C3F84C210122DA64D3F84C0531
:10B50000034B1B6803B962B67047044B1868F7E732
:10B51000043A0020003A002000800040083A002051
:10B520002DE9F041002411E00027174B43F8247067
:10B53000012303FA05F5154EC6F80853FFF7D0FFAF
:10B54000C04704F1500346F823700134022C18D888
:10B5500004F150030D4A52F82330002BF5D0D2F8F5
:10B56000043304F11005EB4013F0010FEDD0064B4E
:10B5700053F82480B8F1000FD6D17846FBF784FC4D
:10B58000D2E7BDE8F08100BFF43900200080004020
:10B59000014B1B68184470470C3A002010B500237B
:10B5A0000CE0114A03F5A871002042F8210003F1D4
:10B5B000500142F8210052F821200133022BF0D92A
:10B5C0000A4B1B681BB90A4B4FF480721A60094B77
:10B5D00001221A70FFF70AFB0446FFF781FF241AC5
:10B5E000054B1C6010BD00BF00800040043A0020E5
:10B5F00000E100E0003A00200C3A0020002307E0C0
:10B6000000220C4941F823200B4941F82320013343
:10B61000022BF5D9094B1860094B00221A70094B0F
:10B620004FF0FF32C3F80823074B4FF48072C3F882
:10B6300080217047F4390020103A0020083A002099
:10B64000003A00200080004000E100E008B50378E7
:10B650003BB1012B04D1436813B1C168806898479E
:10B6600008BD4368002BFBD080689847F8E70000CE
:10B67000044B1B780F2B04D0034B4FF48022C3F8EC
:10B6800000217047743B002000E100E010B5104C31
:10B6900020701048104B0360102343608360FDF757
:10B6A00083FE0E48FEF7E4FF23780F2B0FD0072B05
:10B6B0000AD8EC221A4112F0010F05D05B01DBB26F
:10B6C000074A82F8123302E07846FBF7DDFB10BD33
:10B6D000743B00201C3A0020303A0020783B0020C8
:10B6E00000E100E008B5124B1B780F2B00D108BD1C
:10B6F000104B93F812335A09EC23134113F0010F46
:10B700000ED00D4B9B6833B10B4A136843F4802372
:10B710001360002306E0074A4FF48021116001E026
:10B7200042F20203002BE2D07846FBF7ADFBDEE7E6
:10B73000743B002000E100E0B056002038B5EFF384
:10B74000108472B6194A1368591C116003BB184B58
:10B750001B780F2B1CD0EFF3108272B6154B9B6831
:10B76000E3B9144901238B60134BD3F88000134DC8
:10B7700028400860C3F88050D3F8840048604FF038
:10B78000FF31C3F884100E4B0021197002B962B664
:10B79000064B1B6833B104B962B638BD084B0121B2
:10B7A0001970F3E77846FBF76FFBF4E7303B0020B6
:10B7B000743B0020B056002000E100E0FC06FFBD15
:10B7C000753B002010B5EFF3108472B6124B1B6866
:10B7D000F3B1114A1368013B1360B3B90F4B1B78E7
:10B7E0000F2B12D00E4B1A780E4B9B686BB162B9BF
:10B7F000EFF3108172B60B4B18680B4A1060586853
:10B80000506000229A6001B962B604B962B610BDF8
:10B810007846FBF739FBDCE7303B0020743B002027
:10B82000753B0020B056002000E100E010B5044652
:10B8300080B10C4B1B680D2B10D8EFF3108272B641
:10B84000084B1868411C1960074B43F8204002B9A7
:10B8500062B610BD7846FBF717FBEAE77846FBF7C0
:10B8600013FBEAE7343B0020383B002038B50446A0
:10B870000D4B1B68834213D9EFF3108572B6610933
:10B880000A4A04F01F04012303FA04F452F8213099
:10B89000234342F82130FFF7EBFE05B962B638BD0D
:10B8A0007846FBF7F1FAE7E7343B0020703B0020D5
:10B8B00070B50D461646044658B175B1EFF31083C6
:10B8C00072B6A560E66000222274246003B962B6F5
:10B8D00070BD7846FBF7D8FAEFE77846FBF7D4FA65
:10B8E000ECE7000038B5044650B1A36863B1EFF34C
:10B8F000108572B6237C5BB1112005B962B638BDE4
:10B900007846FBF7C1FAF0E77846FBF7BDFAEEE7B9
:10B910000123237421460348FEF7B5FEFFF7A8FE76
:10B920000020EAE7783B002010B5044608B1207CEF
:10B9300010BD7846FBF7A8FAF9E7000070B584B0AF
:10B940002C4B1B7823B901252A4B1D7000240AE0DB
:10B950007846FBF799FAF6E7274B53F824309847D7
:10B960000646F0B10134254B1B68A3421ED961097C
:10B97000234A52F8213004F01F00C34013F0010F96
:10B98000F0D0EFF3108672B6012303FA00F052F8FC
:10B99000213023EA000342F82130002EDCD162B6C8
:10B9A000DAE72046FFF762FF3546DBE71548FEF78A
:10B9B00086FE0AE07846FBF767FAA368E0689847D6
:10B9C000002323740F48FEF77AFE20B10468237C1D
:10B9D000002BF2D1EEE769460B48FDF701FD18B9DF
:10B9E0006846FFF733FEF6E7024B00221A7028463E
:10B9F00004B070BD803B0020383B0020343B002069
:10BA0000703B0020783B00201C3A002008B5FFF76F
:10BA100095FF08BD00B583B0FEF7B2FE8DF80700B4
:10BA20009DF807305BB213F1100F18D09DF8073066
:10BA30005BB2002B21DB03F1604303F5614393F814
:10BA400000335B090093154B1B78009A934220D07A
:10BA5000009A934217D3002003B05DF804FB0F4B0C
:10BA60001B780F2B01D10120F6E71220FEF790FE84
:10BA700008B10020F0E70120EEE703F00F03084AC9
:10BA8000D35C5B09DEE71220FEF782FE18B10020CE
:10BA9000E2E70120E0E70120DEE700BF743B002081
:10BAA00014ED00E046DF704770B58CB003460E46DB
:10BAB00014466D46006859689A68DB680FC530689F
:10BAC0007168B268F3680FC56846FFF7EBFF08AD11
:10BAD0000FCD20606160A260E3600CB070BD08B55E
