:020000022000DC
:1060000000F000206D630200556302005763020038
:10601000596302005B6302005D6302000000000040
:106020000000000000000000000000005F630200AC
:106030006163020000000000636302006563020008
:106040006763020067630200676302006763020020
:1060500067630200676302006D70020067630200FD
:106060006763020067630200C98B03006763020075
:1060700067630200676302006763020067630200F0
:1060800067630200A52804007DC202006763020066
:1060900009290400676302003DBC03006763020036
:1060A00067630200676302006763020067630200C0
:1060B0006763020067630200000000000000000048
:1060C00067630200676302006763020067630200A0
:1060D000676302006763020067630200000000005C
:1060E00000000000000000000000000000000000B0
:1060F00000000000000000000000000000000000A0
:10610000000000000000000000000000000000008F
:10611000000000000000000000000000000000007F
:10612000000000000000000000000000000000006F
:10613000000000000000000000000000000000005F
:10614000000000000000000000000000000000004F
:10615000000000000000000000000000000000003F
:10616000000000000000000000000000000000002F
:10617000000000000000000000000000000000001F
:10618000000000000000000000000000000000000F
:1061900000000000000000000000000000000000FF
:1061A00000000000000000000000000000000000EF
:1061B00000000000000000000000000000000000DF
:1061C00000000000000000000000000000000000CF
:1061D00000000000000000000000000000000000BF
:1061E00000000000000000000000000000000000AF
:1061F000000000000000000000000000000000009F
:10620000344935480A1A02D0072291438D46334952
:1062100033480A1A06D00722914381F309880222E3
:1062200082F314882F483049304A00F042F8304851
:106230003049314A00F03DF830483149314A00F0E8
:1062400038F831483149324A00F033F831483249A0
:10625000324A00F02EF832483249334A00F029F829
:1062600032483349334A00F024F833483349002296
:1062700000F02AF832483349002200F025F832486D
:106280003249091A082902DB0022026041601F48D6
:106290001F49884205D00268043003B4904703BC0C
:1062A000F7E700208646EC4600200021284A904768
:1062B000FEE7884207D0521A05D0037801300B70F0
:1062C0000131013AF9D17047884202D002700130A1
:1062D000FAE7704700F0002000E8002000F00020FE
:1062E00000F00020C8530400F02D0020782E00207C
:1062F000A0630200A0630200022E0400C853040041
:10630000F02D0020F02D00207831040078310400B9
:1063100078310400783104007831040078310400C9
:106320007831040078310400C8530400505404004C
:10633000782E0020782E0020782E0020E05C0020AF
:10634000E05C0020E05C0020E05C0020E0600020D9
:10635000556B0200FEE7FEE7FEE7FEE7FEE7FEE71D
:10636000FEE7FEE7FEE7FEE700F002B8FFF7FCBF3E
:1063700008484FF00701884385460748804707488B
:10638000016841F470010160BFF34F8FBFF36F8F5D
:10639000FFF736BF00F00020FDC1030088ED00E0EC
:1063A00041DF70470C4B1B6813F4804F03D00B4B3D
:1063B0001B68012B00DC704700B583B0084BD3F895
:1063C0000435084A00929C220749022007F036F85B
:1063D00003B05DF804FB00BF2C2E0020282E002007
:1063E00000100140183204000E32040010B586B0CF
:1063F0005068E0B11A4B1B6813F4804F03D0194B5F
:106400001B68032B01DC06B010BD174BD3F8043515
:106410004988147852780490039202940191134AA7
:106420000092C3221249042007F008F8EBE70C4B56
:106430001B6813F4804FE6D00A4B1B68032BE2DD88
:10644000094BD3F804354988127802920191094A20
:106450000092C8220649042006F0F0FFD3E700BFEF
:106460002C2E0020282E002000100140383204007D
:106470000E3204008C32040000B583B0012A1ED015
:10648000022A36D03AB1254AB721032015F0E0FFA1
:1064900003B05DF804FB224B1B6813F4804FF7D068
:1064A000204B1B68032BF3DD1F4BD3F804351F4A29
:1064B0000092AA221E49042006F0C0FFE8E7062247
:1064C00032214FF4F01000F041FD154B1B6813F41E
:1064D000804FDDD0134B1B68032BD9DD124BD3F853
:1064E0000435144A0092AF221149042006F0A6FF99
:1064F000CEE70B4B1B6813F4804FC9D0094B1B68C8
:10650000032BC5DD084BD3F804350B4A0092B322A8
:106510000749042006F092FFBAE700BF9431040057
:106520002C2E0020282E002000100140B83204003C
:106530000E320400D8320400F832040030B587B0BF
:10654000441C634B1B6813F4804F03D0614B1B68E2
:10655000032B06DC631E032B12D8DFE803F00E3694
:106560000E365D4BD3F8043501945C4A0092EC2260
:106570005B49042006F062FFECE701238DF814303C
:10658000584A1378591C11708DF815303223049332
:10659000642303934E4B1B6813F4804F03D04D4B81
:1065A0001B68032B15DC022C22D9E31E012B20D8FB
:1065B000022303AA05A94C481BF0D6FD05469DF809
:1065C0001410122000F0A6FC37E000238DF81430E0
:1065D000D6E7414BD3F804359DF814200192434A85
:1065E000009240F203123E49042006F027FFDAE74A
:1065F000A4B9374B1B6813F4804F3AD0354B1B6856
:10660000032B36DD344BD3F80435394A00924FF46E
:106610008C723349042006F011FF2AE0354D28889A
:106620000FF0CEF803AA05A928461BF05FFD05462A
:106630009DF81410112000F06DFC112D3ED8DFE8FC
:1066400005F0183D3D3D093D3D27093D3D3D3D3DA2
:106650003D3D3D091E4B1B6813F4804F03D01D4B7D
:106660001B68032B07DC062232214FF4F01000F0E8
:106670006DFC07B030BD184BD3F8043501941E4AA9
:1066800000924FF492721649042006F0D7FEEAE712
:106690000F4B1B6813F4804FEBD00E4B1B68032B82
:1066A000E7DD0D4BD3F804350194144A00924FF402
:1066B00098720B49042006F0C1FEDAE7002DD8D00D
:1066C0000F4A4FF49A71284615F0C2FED1E700BF79
:1066D0002C2E0020282E0020001001401C33040026
:1066E0000E320400E12E0020AC2E002030330400D6
:1066F000D4340400782E00204C33040064330400AA
:106700009431040000B583B03138032814D90D4BFF
:106710001B6813F4804F11D00B4B1B68032B0DDD4E
:106720000A4BD3F804350A4A00924FF4A172094982
:10673000042006F083FE01E0FFF700FF03B05DF8E0
:1067400004FB00BF2C2E0020282E0020001001404A
:10675000D43404000E32040000B58DB02022002194
:1067600003A81CF0E9FA01238DF80C3007238DF8FB
:106770000F3006238DF814301F4B07931F4B0B93DC
:106780001F4903A80AF016FB60B30B2829D11D4B43
:106790001B6813F4804F03D01B4B1B68032B14DCC6
:1067A000184B1B6813F4804F1CD0174B1B68032B2E
:1067B00018DD164BD3F80435154A009240F26512E5
:1067C0001449042006F03AFE0CE0104BD3F80435CF
:1067D000114A00924FF4B2720E49042006F02EFEC8
:1067E000DEE710B90DB05DF804FB0C4A4FF4B5714B
:1067F00015F02EFEF6E700BFA1690200BD68020099
:10680000E02E00202C2E0020282E00200010014019
:10681000E03304000E32040090330400943104008D
:1068200000B583B01D4A042146F2010006F0EAFDDE
:106830001B4B1B6813F4804F03D01A4B1B68032BB0
:1068400013DC1CF065F8E0B900F0C4FB164800F05A
:10685000E1FBE0B900F0C4FD00F0F8FD00F024FE1B
:10686000FFF77AFF03B05DF804FB104BD3F8043553
:106870000F4A009240F271120E49042006F0DEFD2C
:10688000DFE70D4A40F2731115F0E2FDDCE70A4A3A
:1068900040F2771115F0DCFDDCE700BFD9D3020030
:1068A0002C2E0020282E00203D6502000010014003
:1068B0000C3404000E3204009431040010B582B090
:1068C000194B1B6813F4804F03D0184B1B68032B24
:1068D00001DC002411E0164BD3F80435154A009270
:1068E0004FF4A4721449042006F0A8FDF1E7134AFE
:1068F00040F2511115F0ACFD0134012C12D8104BAF
:10690000342000FB04300F4B03630023836280F8C4
:106910002C3080F82D30611CC9B21BF0B1FB00286F
:10692000EAD0E4E702B010BD2C2E0020282E002073
:10693000001001403C3404000E3204009431040085
:10694000782E0020C834040000B583B00F4B1B68BC
:1069500013F4804F03D00E4B1B68032B0ADC032279
:10696000C8214FF4F01000F0F1FA0AF077FA03B002
:106970005DF804FB074BD3F80435074A0092CF2299
:106980000649042006F05AFDE9E700BF2C2E00203E
:10699000282E0020001001405C3404000E32040058
:1069A00008B50378232B00D008BDFFF7CDFFFBE728
:1069B00010B5044600214FF4F01000F0BCFA04EBCF
:1069C0008404620032214FF4C01000F0BFFA10BD01
:1069D00008B500F0F1FA08BD00B585B003A810F0C5
:1069E000ABFA0D4B1B6813F4804F03D00B4B1B68A5
:1069F000032B02DC05B05DF804FB094BD3F804352A
:106A0000BDF80C200192074A009285220649042015
:106A100006F014FDEEE700BF2C2E0020282E0020EB
:106A200000100140783404000E32040030B58BB001
:106A30006421244800F008FA234B1B788BB903AC7F
:106A4000224D0FCD0FC495E8070084E8070003A886
:106A500000F098F938B11E4A40F2951115F0F8FC93
:106A600001E0FFF7B9FF00F045FE00F035FB0AF04A
:106A7000E7F9A8B9174B1B6813F4804F03D0164BE6
:106A80001B68032B12DC00214FF4F01000F053FAC6
:106A90000222C8214FF4F01000F058FA0BB030BDBC
:106AA0000B4A4FF4CF7115F0D3FCE3E70B4BD3F84F
:106AB00004350B4A00924FF4D0720A49042006F0C4
:106AC000BDFCE0E705670200E02E0020AC340400C6
:106AD000943104002C2E0020282E002000100140AC
:106AE000D43404000E32040000B583B0144B1B688C
:106AF00013F4804F03D0134B1B68032B15DC00F0FD
:106B0000A5FC00F0D1FCFFF767FF00F055FA00216B
:106B10004FF4F01000F00FFA0422C8214FF4F010E7
:106B200000F014FA03B05DF804FB074BD3F804350A
:106B3000064A00928A220649042006F07FFCDEE71E
:106B40002C2E0020282E002000100140903404003C
:106B50000E32040008B5FFF763FEFFF767FFFFF78B
:106B60001FFCFCE769DF70473A4B1B78002B70D0A5
:106B700000B587B0012804D0032863D007B05DF8C2
:106B800004FB0023019301A9012014F0F9FE002861
:106B900042D1002303930122114662F307118DF8BD
:106BA0000C108DF80D200493ADF814301323ADF8BC
:106BB0001630019A03A94120FFF7D4FF78BB01A842
:106BC00014F038FF70BB244B1B6803B198470123B6
:106BD000029302A90DF1020010F000FF28BBBDF8DE
:106BE000020010F073FB0DF1010110F013FDF8B974
:106BF0000BF098FB9DF8011000200BF05DFED0B962
:106C000004F0CCF8D8B9134B00221A70124B5B6811
:106C1000002BB3D09847B1E715F00CFCB9E715F09D
:106C200009FCCCE715F006FCCDE715F003FCD6E730
:106C300015F000FCDCE7784600F01AFDE0E715F0FF
:106C4000F9FBE0E714F070FF002897D015F0F2FB95
:106C500094E77047E42E0020E82E002008B5064B8C
:106C600001221A70054804F007F904F0E9F800B9A8
:106C700008BD15F0DFFBFBE7E42E0020F02D00201F
:106C800008B503781C2B00D008BD074B1B78002BE0
:106C9000FAD014F08DFF18B9044804F0F1F8F3E7C6
:106CA00015F0C8FBF8E700BFE42E0020F02D00200F
:106CB00008B50749074816F05FF800B108BD03237F
:106CC000002205494969054816F072F8F6E700BF49
:106CD000042F002070320020E82E00203C310020DC
:106CE00008B50378023B082B3FD8DFE803F01C050A
:106CF000113E3E2C3E3E36001E4B9B68002B34D08E
:106D0000007A002831D01C4A0121117098472CE0EC
:106D1000184BDB684BB3184A127832B3164A00217D
:106D20001170984721E0154B1B784BB9114B1B692B
:106D30001BB1114A002111709847FFF7B9FF14E009
:106D4000FFF78CFF11E010220A4B99690C4816F0EE
:106D5000B9F850B115F06EFB07E08168C06809F022
:106D6000BDFF18B9054B01221A7008BD15F062FB72
:106D7000F8E700BFE82E0020E22E0020E32E0020DE
:106D80003C31002070B586B004461F4A03AB07CAE9
:106D900003C323F8022B120C1A701C4E35460FCC7D
:106DA0000FC594E8070085E80700B36953B3184B93
:106DB000009303AB174A1849184815F09BFF034688
:106DC00010B1184606B070BD154817F0B3FC014667
:106DD000124815F0BBFF03460028F2D1114817F006
:106DE00023FE03460028ECD10E4817F053FE01465F
:106DF0000A4815F0ABFF03460028E2D1FFF758FF21
:106E00000346DEE70723DCE7EC360400E82E00202B
:106E1000E16C0200042F0020703200203C31002081
:106E2000242F0020EC30002008B5064B1B681BB94E
:106E300006E0044B1B68984713F03CF80028F8DA8A
:106E400008BD00BFB032002010B50C46144B1860CE
:106E5000144A012114481BF095FDA0B9610CE00310
:106E600041F26F7200238B4208BF824210D24FF46E
:106E70007A7200231BF0FEFD014600220B481BF036
:106E800097FD38B910BD0A4A4A2115F0E1FAE5E745
:106E90000521F2E7064A4B2115F0DAFAF2E700BFC6
:106EA000B0320020296E02006C370400B43200209A
:106EB000F836040008B5134B1B6873B14FF0A042BD
:106EC000D2F80435104909684B40C2F804350D4A20
:106ED0001368013B136023B108BD002015F0AAFA26
:106EE000ECE70A481BF086FD4FF0A042D2F80435CB
:106EF0000549096823EA0103054909680B43C2F8FB
:106F00000435E9E7D4320020D8320020DC320020FA
:106F10000433002039B1012303FA00F04FF0A043FD
:106F2000C3F80C057047012303FA00F04FF0A043AB
:106F3000C3F80805704721B14FF0A043C3F80C0512
:106F400070474FF0A043C3F8080570475AB338B5EF
:106F50001346132900D838BD134A10605B00013B6B
:106F6000124A13604FF0A043D3F804351840104B79
:106F7000186000254C0CC8034FF47A72002310F5FA
:106F8000FA7044EB05011BF075FD01462A460948DD
:106F90001BF00EFD0028DED1034B1A684FF0A04312
:106FA000C3F80C25D7E77047D8320020D432002030
:106FB00004330020DC32002008B504481BF01AFD21
:106FC0000021034B1868FFF7B6FF08BDDC32002034
:106FD000D832002008B511230BE04FF0A04103F593
:106FE000E072032041F8220001229A40C1F80825EE
:106FF0000133142BF1D9054A012105481BF0C2FCCD
:1070000000B908BD15F016FAFBE700BFB56E020027
:1070100070370400F0B1104A1060002309E00F4AF5
:10702000D25C02F5E0724FF0A0410D4841F8220019
:107030000133032BF3D90B4B4FF00042C3F8042369
:107040000020C3F87C01084BC02283F806234022AD
:107050001A6070470E207047FC320020743704001D
:107060000C0003000060004000E100E010B50024C7
:10707000144BC3F87C4103E0D11A14E00134E4B2AC
:10708000032C1ED84FF0A043D3F810250E4B195DEA
:1070900001238B409343F1D00C4B1B680C4AD2F870
:1070A0000425991AE8D443F233339942E6D9084BC0
:1070B000D3F80425054B1A60064B1B6820469847F9
:1070C000DCE710BD0060004074370400003300208E
:1070D00000100140FC320020002800F082802DE9E1
:1070E000F04FD1B004463F4B1B6813F4804F03D0E0
:1070F0003D4B1B68032B0BDC3A4B1B6813F4804F92
:1071000003D0394B1B68032B2ADC51B0BDE8F08F4C
:1071100000230F2B0FD8E25C34490D681009590089
:107120002E5C0FA800F8136002F00F020131AA5C78
:1071300042540133EDE70FAA00238DF85C3003F1D0
:10714000804303F58833D3F804350292284A01922C
:10715000284A009242222849042006F06FF9CBE722
:10716000264BD3F804350D932068020202F47F0207
:1071700042EA0062010A01F47F4142EA010CA5885B
:107180002A0292B2E688310289B2277A637A94F8A9
:107190000AE094F80B8094F80C9094F80DA094F801
:1071A0000EB0E47B0B94CDF828B0CDF824A0CDF838
:1071B0002090CDF81C80CDF818E00593049741EAA3
:1071C0001621039142EA152202924CEA10600190C6
:1071D0000B4A00920D9B43220749042006F02EF92A
:1071E00093E770472C2E0020282E0020302E002000
:1071F000F037040004380400DD37040000100140BB
:107200000C38040072DF704773DF704774DF70471B
:107210002DE9F047A2B006460F469046314A02F1EA
:10722000040900255560D5602F480378C3EB431C43
:107230002E4C644414602E49614491601F2191805A
:107240009181013303F0010303704FF03C0A524671
:10725000294613A81BF070FD06238DF84F30ADF8BA
:10726000486001238DF84A30ADF85C3012AA1892BC
:10727000ADF83C60ADF8408011970DEB0A021D920D
:107280008DF878305246294668461BF055FD02239A
:107290008DF800304A46214613A814F063FA90B9DD
:1072A000104B03F10C029968684614F05BFA68B958
:1072B000104A0C491048FFF7A5FF082809D070B9FB
:1072C00022B0BDE8F08715F0B5F8E9E715F0B2F89F
:1072D000EEE7002203490848FFF794FFEFE715F0B7
:1072E000A9F8EDE74C330020083300200C330020D0
:1072F0005C330020002E0020FC2D0020B0F5202F54
:107300000AD2074BA3FB0023DB0808B103B9012312
:10731000044A9381916070474FF6FF73F5E700BF11
:10732000CDCCCCCC002E002008B50121054B18781F
:10733000FFF76AFF18B9002004F0A2FC08BD15F0A1
:1073400079F8F8E7FC2D002008B5044B1878FFF712
:107350005DFF00B908BD15F06DF8FBE7FC2D0020BE
:1073600076DF70477ADF70477CDF704769DF7047F0
:1073700008B515F05FF808BD08B503F085FD08BD38
:1073800000B583B0037823B1012B0BD003B05DF8B7
:1073900004FB3B214088FFF7E3FF0028F6D015F0FF
:1073A00049F8F3E7094B1B6813F4804FEED0084B04
:1073B0001B68032BEADD074BD3F80435064A00921D
:1073C00068220649042006F039F8DFE72C2E002059
:1073D000282E002000100140CC380400B1380400F1
:1073E00000B585B014F0A0FB18BB0023039303A9DC
:1073F000012014F0C5FAF8B90023009301221146C8
:1074000062F307118DF800108DF801200193ADF89B
:1074100008301323ADF80A30039A69464120FFF77C
:10742000A5FF60B903A814F005FB58B905B05DF8D5
:1074300004FB14F0FFFFD8E714F0FCFFDCE714F0C6
:10744000F9FFEFE714F0F6FFF0E7000000B585B0B4
:107450009DF80C30012262F3030362F307138DF8E9
:107460000C3013220F4903A8FFF77EFF98B9782349
:10747000ADF80430C823ADF806300023ADF808306D
:107480004FF4C873ADF80A3001A8FFF76BFF28B9B5
:1074900005B05DF804FB14F0CDFFE8E714F0CAFF77
:1074A000F6E700BFF838040000B58BB07823ADF8DC
:1074B0000430C823ADF806300023ADF808304FF48F
:1074C000C872ADF80A200693079301AA039240F60A
:1074D000CD4204924FF48032059203228DF8182099
:1074E000ADF81A308DF81C30064B0893064B099303
:1074F00003A814F0FFFC10B90BB05DF804FB14F006
:1075000099FFF9E78173020071730200062070474A
:1075100000B587B044F20103984262D01BD801281D
:1075200036D041F20103984276D1474B1B6813F4E1
:10753000804F36D0454B1B68002B32DD444BD3F8CF
:10754000043502920191434A00926322424901208C
:1075500005F074FF25E044F2020398425CD13A4BF7
:107560001B6813F4804F1CD0384B1B68002B18DDB0
:10757000374BD3F80435106803905268029201919A
:10758000364A009269223449012005F057FF08E08D
:107590002D4B1B6813F4804F03D02C4B1B68002B22
:1075A00012DC4FF0A0434FF4F012C3F81825C3F8D3
:1075B0000C25EFF3108372B64DF6AD6C284B1B789B
:1075C000002B3ED030BFF9E7214BD3F804350292AF
:1075D0000191244A009260221F49012005F02EFFEC
:1075E000DFE7194B1B6813F4804FDAD0174B1B6889
:1075F000002BD6DD164BD3F8043510680490506884
:107600000390029192680192174A009273221249E4
:10761000012005F013FFC4E70B4B1B6813F4804FE8
:10762000BFD00A4B1B68002BBBDD094BD3F80435D8
:1076300001910E4A00927B220749012005F0FEFECF
:10764000AFE707B05DF804FB2C2E0020282E0020A9
:1076500000100140A039040071390400C43904004D
:10766000182E002084390400E4390400083A04008C
:1076700000B583B0014600230093054B01936A4691
:1076800044F20200FFF744FF03B05DF804FB00BFC3
:10769000043A040010B40346044C006859689A6820
:1076A000DB680FC45DF8044B704700BF9C330020BB
:1076B0000D4B0E4A92E8030083E8030003F1080231
:1076C0000B4903C982E8030093F9062002F00F0278
:1076D00042F040029A7193F9082002F03F0242F012
:1076E00080021A72704700BF9C33002060000010B7
:1076F000A4000010004870479C33002000231F2B7B
:1077000009D8074901EBC30000224280426001F81A
:1077100033200133F3E7034B00221A60704700BFA8
:10772000AC330020AC34002030B405460F4B1B684E
:1077300000240AE01F230E4A12F83300A0B102EB26
:10774000C3025288AA4207D001341F2C0BD85A1EFC
:10775000002BEFD01346EEE7054A02EBC302526856
:107760008A42F1D100E0002030BC7047AC340020E8
:10777000AC33002030B40A4A13680A4C04EBC3054A
:1077800068806960012104F833100B441360202BDA
:1077900001D030BC7047134600221A60F9E700BFE1
:1077A000AC340020AC330020F0B414461D46002356
:1077B00000E00133072B0ED81A0108498A5A824289
:1077C000F7D101EB0312D2E90267AF4208BFA6422C
:1077D000EFD1012000E00020F0BC7047B034002061
:1077E00030B4C1698269C3880D0A0C06C2F30C016A
:1077F000994216D25B1A1344A3F50053E41845F1DD
:107800000005094A1368591C116003F00703808AB8
:10781000064A190102EB03135052C3E9024530BC7A
:1078200070475B1A1344E9E730350020B03400207C
:10783000C37D002B42D0C3780A7802F0800203F0A7
:107840007F0313430B7002780B7803F07F0343EA46
:10785000C2130B700378002B41D030B48378082B0F
:1078600014BF002201224B7803F07F0343EAC213C6
:107870004B70C58803F08003C5F3861423434B7017
:107880008A7802F0030242EA8502D2B28A70057A4F
:1078900002F0FC02C5F3C10422438A70CB7803F0E6
:1078A0001F0343EA4513DBB2CB70427A03F0E003D7
:1078B00002F01F021343CB7030BC7047C3780A78C4
:1078C00002F0BF029B0103F0400313430B700279E7
:1078D00003F0C00302F03F0213430B70B3E770479D
:1078E0000023032B31D810B402E00133032B28D836
:1078F000C3EBC302164C04EB021292F84820012A93
:10790000F3D1C3EBC30204EB0212948AC2899442FE
:10791000EBD1C3EBC3020E4C04EB0212D2888A42B5
:10792000E3D1C3EBC30204EB0212B2F8582012B148
:10793000848AA242D9D1C3EBC303054800EB0310EC
:1079400000E000205DF8044B70470020704700BF46
:107950005C350020002300E00133032B16D8C3EB75
:10796000C3020B4901EB021292F84820022AF3D11C
:10797000C3EBC30201EB0212918A828A9142EBD1DE
:10798000C3EBC303024800EB0310704700207047AD
:107990005C35002008B9042070470820704730B4D7
:1079A00003460C460978C17000214162A1680B2989
:1079B00003D8217BF9B1012100E0012119700020D9
:1079C000987029B1A1680731C90801395972187234
:1079D0000121D97503F10C056169206985E803006F
:1079E000E1899982A1691962217F9975216AD96219
:1079F0009A6230BC70470021E0E700000021164B7E
:107A00001B688B4226D90023144A02EBC10252683C
:107A10009A421DD910B4114A52F8312002EBC30426
:107A200012F8332082420DD001330C4A02EBC1021E
:107A300052689A42EFD80131074B1B688B4205D937
:107A40000023F2E760685DF8044B70470020FAE716
:107A50000131D4E70020704734350020383500204C
:107A600070B58CB006460D4614462C22002101A8A4
:107A70001BF062F90F238DF80430ADF808604FF069
:107A8000000365F300038DF80A308DF80B4001A860
:107A900001F0EAF90CB070BD30B58DB005460C466A
:107AA0002C22002101A81BF047F910238DF8043087
:107AB00002958DF80C4001A801F0D6F90DB030BD4B
:107AC00000B58DB010B913F1020F06D1074B18683D
:107AD00004F004FB0DB05DF804FB01218DF80410E7
:107AE0000293039201A801F0BFF9EFE740350020AF
:107AF000F8B5069C002960D01E460F4615685168EF
:107B0000D2F808C0D368E5602161C4F814C0A3614D
:107B100015695169E5612162002363700278D20919
:107B200022705AB30423BB4249D8E17D41B30378A4
:107B300003F07F03E3700023A3709AB143789B01A5
:107B400003F4FE53827843EA9203E3808378DB00F8
:107B500003F01803C27843EA52132372C37803F088
:107B60001F036372002363623378032B21D83278BA
:107B7000144B53F82230E3620020F8BD0123D2E712
:107B80000178C1F38011E170017801F03F012171AA
:107B900042B190F90130002B02DB0423A370CCE743
:107BA0000823FBE70421A1700B44BB42C5D909207F
:107BB000E3E77846FFF75CFDD9E70920DDE7092018
:107BC000DBE700BFD83B040070B50C461D460378C8
:107BD0009BB104263244A26000F10C032360836A47
:107BE0006360C36AE36000232374204604F0E8FD69
:107BF00010B963691E442E6070BD0126EAE72DE9C5
:107C0000F0418EB00D4616461C46804600282DD009
:107C1000002D2FD0002C31D0636A0233059304F17C
:107C20000C00E378002B2DD00121A27801AF3B4658
:107C3000082A14BF0022012204F095FB0697CDF814
:107C40001C80B2B2ADF820200B9515440C95A3789A
:107C50008DF83430237B022B16D00023ADF828306A
:107C600005A804F078FB0EB0BDE8F0817846FFF778
:107C7000FFFCCDE77846FFF7FBFCCBE77846FFF744
:107C8000F7FCC9E70221D0E723692BB123690993E7
:107C90001023ADF82830E3E77846FFF7E9FCF5E775
:107CA0002DE9F04188B004460D46C37D002B3CD041
:107CB000082605FB06F8637AAB4238D0257201AB83
:107CC000324602A92046FFF77FFF074648BB4DB961
:107CD00094F8533033B9A369C3F30C03E380012351
:107CE00084F85330E37D7BB994F8523063B91DBBFF
:107CF000E06EB4F84A10A27823468A1A0146FFF7CC
:107D00007EFF012384F8523007992046FFF790FD4B
:107D1000E16E3246414401981AF0E5FF02A804F0F2
:107D200075FD384608B0BDE8F0810C26C1E7B4F80F
:107D30004A60A6EB0806C1E77846FFF799FCD7E74B
:107D400070B505460E4609B100230B6095F850400A
:107D5000002104E0631C85F850300134E4B26B7AF2
:107D6000A34210D3EA6C0123A3401A42F5D1214665
:107D70002846FFF795FF014628B9002EEAD0336860
:107D800001333360E6E7084670BDF0B589B00446BC
:107D90000E46154683789A18C37D63B10B239A4229
:107DA00021D801AB02A92046FFF70EFF074620B1FC
:107DB000384609B0F0BD0F23F1E707992046FFF7D9
:107DC00037FDE37D43B12A46314601981AF08BFF17
:107DD00002A804F01BFDEBE723462A460199304632
:107DE000FFF70DFFF4E70927E2E7000010B50446AE
:107DF00090F84830012B0CD103F01EFB237B012BA4
:107E00000BD0094BD968014404F1300003F0EAFAC1
:107E100010BD7846FFF72CFCEEE7A17D024BDA6837
:107E20001B6903FB0121EEE74435002030B583B028
:107E3000002403E02846FFF7D9FF0134032C18D8AB
:107E4000C4EBC4030C4A02EB031393F84830012B34
:107E5000F3D100230193C4EBC40502EB051501A97E
:107E60002846FFF76DFF0428E4D0019B002BE4D0E7
:107E7000E0E703B030BD00BF5C35002038B50446F4
:107E800090F84830022B09D1064B1D6803F0D4FA54
:107E9000411904F1300003F0A5FA38BD7846FFF728
:107EA000E7FBF1E74435002038B5044690F8483048
:107EB000022B10D10A4B5D7D5A689B6803FB052598
:107EC00003F0BAFA411904F1500003F08BFA0123D0
:107ED00084F8683038BD7846FFF7CAFBEAE700BF90
:107EE0004435002010B50446808A02F015FE0128B2
:107EF0001CD1237BE3B194F91620002A1ADBE27D22
:107F00004AB1022B18D094F90330002B16DBA3786A
:107F1000B3B900200BE0E2780AB9012B12D1237823
:107F200093B9A378042B11D1002000E0102010BDDC
:107F30001020FCE70720FAE71020F8E70720F6E713
:107F40000720F4E70720F2E70020F0E70720EEE73C
:107F500038B5044603784BB1C388C2698169808A09
:107F600006F054FC054645B9284638BDC26981690A
:107F7000808A06F045FC0546F5E7E169002201F03C
:107F80000101A08AFFF76CFDEEE700002DE9F04744
:107F900080460E4617464B1EDBB2012B0FD8B7F5B5
:107FA000C07F10D80024032C1AD8C4EBC403314A74
:107FB00002EB031393F848304BB10134F3E77846F2
:107FC000FFF756FBEBE77846FFF752FBEAE7C4EB17
:107FD000C40502EB0515384608F067FEE86600E0C8
:107FE00000255DB3EB6E002B42D043462C4608F1D2
:107FF000300ED3F800C058689968DA68C4F800C039
:108000006060A160E260103310347345F1D1002349
:10801000EB64A5F84A70012E13D06FF00103AB6238
:10802000002385F86830144BAB652D66134BAB63AA
:108030002D64012002F044FA85F848602846BDE826
:10804000F0870F4B1B7D85F85130002385F85230A7
:1080500085F8533085F85030D8F828206A65A5F89F
:1080600058306FF00103AB62064BAB632D64E0E761
:108070001D46E3E75C350020738A0200BD830200E1
:10808000443500200984020000B585B000228DF837
:108090000F20A0B10B46024602320A600DF10F011B
:1080A000184604F05CF99DF80F3043B10C4B1B6887
:1080B00013F0040F03D00B4B1B68032B04DC9DF85B
:1080C0000F0005B05DF804FB074BD3F80435074AF1
:1080D000009240F215420649042005F0AFF9EEE7A0
:1080E0002C2E0020282E002000100140903A040081
:1080F000833A04002DE9F0438FB004460E4615463E
:108100001F46D0F8188003784BB1C288C8F30C031F
:10811000934241D2D21A4244A2F50052A26104F124
:108120000C00E378002B3AD00121A2780DF1280948
:108130004B46082A14BF0022012204F014F9C4F8A7
:108140001880CDF808900396A378EA1A92B2ADF899
:1081500010203244089207978DF824300023ADF8A0
:108160001830E3787BB3237B022B1AD025460023FB
:1081700045F8243F2A462179206A0FF045FF606ABE
:10818000A8B101A9FFF780FF002840D12A46217934
:10819000206A0FF039FFF2E7D21A4244BEE702210B
:1081A000C3E71023ADF8183023690593DEE7237B7E
:1081B000022B30D104F10C01E0890FF0D7FF002829
:1081C000D1D1052024E0237B012B01D005201FE025
:1081D000E389ADF80030A38AADF802300025012D07
:1081E00013D82146002341F8243F0EAB03EB45038F
:1081F00033F8380C0FF025FF01A9606AFFF744FF40
:1082000008B90135EBE7002002E0052000E000207E
:108210000FB0BDE8F0830520FAE7000070B5F0B0BC
:108220000E4614461D4610AB0A4601462046FFF78F
:1082300061FF50B1214B1B6813F0040F03D0204B9A
:108240001B68052B2DDC70B070BD2046FFF780FE4B
:108250000028F8D103AB01228DF80C20A28AADF8DA
:108260000E20002204928DF8142010AA0692A17804
:10827000711AADF81C1008AA93E8030082E8030005
:108280000AAB2169E06883E80300A37D8DF83830EC
:10829000236A0C93636A0D930F9505A800F0E4FD23
:1082A000D1E7084BD3F80435074A009240F2017237
:1082B0000649062005F0C2F8C5E700BF2C2E0020B5
:1082C000282E002000100140A43A0400833A040044
:1082D00010B50446C06E08F0ECFC04F1300003F069
:1082E00069F894F84830022B0AD070220021204609
:1082F0001AF022FD002084F8480002F0E1F810BDD9
:1083000004F1500003F056F8EFE710B58CB00446C6
:1083100090F84830012B0FD101238DF80430636DA4
:10832000029303F089F8039001A800F09DFD204618
:10833000FFF7CEFF0CB010BD7846FFF799F9EBE7D9
:1083400030B585B00D460446A8B194F84830022BEC
:1083500015D02946606DFFF79FFB2046FFF7B8FF59
:10836000114B1B6813F0040F03D0104B1B68032B39
:1083700009DC05B030BD7846FFF77AF9E5E720461D
:10838000FFF72EFAE5E70A4BD3F8043594F84820B6
:1083900002950192074A009240F2F3120649042026
:1083A00005F04CF8E5E700BF2C2E0020282E002019
:1083B00000100140D03A0400833A040008B5084692
:1083C0000021FFF7BDFF08BD08B5037B012B02D0DC
:1083D000FFF79BFF08BD0121FFF7B2FFFAE700009E
:1083E00008B590F8513053B1013B80F8513000236B
:1083F00080F85030034B186803F070FE08BDFFF79B
:10840000E3FFFBE74035002010B50C4691F84830FB
:10841000012B03D12046FFF7E3FF10BD7846FFF79D
:1084200027F9F7E7062976D1F0B585B01546067825
:10843000B20102F4FE5241788478C3781B0443EA07
:108440000463047943EA042344791C4376B242EA84
:1084500091012846FFF744FA0746E0B1002E2FDBD2
:10846000C289A98A8A422BD02B4B1B6813F0040FB8
:108470003ED02A4B1B68012B3ADD294BD3F804353B
:1084800002910192274A009240F27B622649022023
:1084900004F0D4FF2CE0204B1B6813F0040F27D00E
:1084A0001E4B1B68012B23DD1D4BD3F804351F4ADF
:1084B000009240F277621C49022004F0BFFF17E0EF
:1084C000002E17DBFD6C2543FD64BCB13B78D3B1B6
:1084D0007B7A5A1C01239340013B9D4217D0002117
:1084E00087F850103846FFF72BFC3846FFF77EFC24
:1084F00005B0F0BDAB8AA7F85830E3E70321384652
:10850000FFF71EFFF4E77846FFF7B2F8E0E73846DA
:10851000FFF7FBFEECE770472C2E0020282E0020F2
:1085200000100140243B0400833A0400F43A0400A4
:108530002DE9F0418AB007460E4614461D46104606
:10854000FFF706FD50B994F80380B8F1000F08D189
:108550002B46224631463846FFF764FF0AB0BDE895
:10856000F0814046FFF74AFA02460028F6D08DF81F
:108570000480236A0793A38AADF8123005AB216902
:10858000E06883E80300A37D8DF82030029703960E
:1085900023788DF81030E36A0993294601A89047A3
:1085A000DCE710B5547814F0010F03D0D47D14B17A
:1085B000FFF7BEFF10BDFFF731FEFBE708B501393D
:1085C0000130FFF7EEFF08BDF0B5C7B00F46164605
:1085D00082783244C37D2BB14FF4807393427CD3B5
:1085E000002303E04FF4C073F8E70133032B1AD8DC
:1085F000C3EBC3043B4D05EB041494F84810012968
:10860000F3D1C3EBC30105EB01118C8A818A8C4243
:10861000EBD1C3EBC30105EB0111CC89C1898C42BD
:10862000E3D1082552E00121FFF7B0FC0446002801
:1086300055D032463946C06E1AF055FB002345939B
:1086400045A92046FFF77CFB054608B1042840D128
:10865000459B0BBB244B1B6813F0040F35D0234BF9
:108660001B68032B31DDB4F84A70802F28BF8027A8
:108670000023BB4214D2E26ED25C1D490D68100982
:1086800059002E5C04A800F8136002F00F020131BB
:10869000AA5C42540133ECE72046FFF7A7FBD9E779
:1086A00004AA002302F8173003F1804303F588334E
:1086B000D3F8043502920F4A01920F4A00924FF408
:1086C000AC620E49042004F0B9FE0025284647B0EC
:1086D000F0BD2046FFF7FCFDF8E70925F6E7042585
:1086E000F4E700BF5C3500202C2E0020282E00204F
:1086F000302E0020683B040004380400833A040054
:1087000070B504460D461646FFF7ECFB30B92378EA
:108710002BB1324629462046FFF756FF70BD324640
:1087200029462046FFF731FBF8E7000038B504463C
:108730000D46CB695B780371CB691B7883F001032D
:10874000C370CB6943628B8A0B2B07D8CB7A002B83
:1087500035D10B7B012B02D0002300E001232370D5
:10876000002B31D0287B02282BD0FFF713F9A07003
:10877000AB8A03440B33174A82FB03235B10013B94
:108780006372002323720023E37504F10C0395E860
:10879000030083E80300AB6923622B89A382AB7AD1
:1087A000A3752B6AA362DF23E36228460FF00CFD5A
:1087B00020B12B78012B0AD0FF23E36238BD0123BF
:1087C000CDE7054B987DD0E70423A370DBE720239A
:1087D000F3E700BFABAAAA2A4435002010B54FF436
:1087E000E072002113481AF0A7FA06F0CDF9002430
:1087F000114B1C608022214610481AF09DFA104B44
:10880000104A1A60104A5A604CF250329A600F496E
:10881000D9601A6104221A759C7508225A750C4891
:1088200003F03CFC0B4B18600B4B1C600B4806F034
:10883000A3FA10BD5C35002030350020B034002094
:108840004435002080969800F049020020A10700DE
:10885000658A02004035002034350020C17A0200CC
:1088600008B505F0C5FF08BD98B110B58CB0044639
:10887000036983B1C36983B1836983B101466846E3
:10888000FFF754FFA28A21696846FFF739FF0CB051
:1088900010BD0E2070470E20F9E70E20F7E70E20DE
:1088A000F5E7000058B310B590B00A460446436897
:1088B0003BB383693BB3014604A8FFF770F8134B41
:1088C0001B6813F0040F03D0114B1B68062B06DC4A
:1088D000A268616804A8FFF713FF10B010BD0D4B2C
:1088E000D3F804352278A169029101920A4A0092D4
:1088F00040F603020949072004F0A0FDE8E70E2036
:1089000070470E20E9E70E20E7E700BF2C2E00207D
:10891000282E002000100140783B0400833A040018
:10892000037B012B01D00020704730B591B0044685
:108930000D46334B1B6813F0040F03D0314B1B68FB
:10894000032B41DC04A900230593CDF81730E288FE
:10895000C2F3861092008DF811202A0E8DF8122095
:108960002A0C8DF813202A0A8DF814208DF8155042
:108970006278022A0CBF80221A4642EA00028DF871
:1089800010204FF0060209924FF001028DF82C20C2
:10899000A28AADF82E200C938DF81C300891226A23
:1089A0000D928DF82830E36A0F9319D0E389ADF862
:1089B0002A30A37DF3B98DF838306FF0010107A894
:1089C000FFF770FF11B030BD0F4BD3F804350F4ADD
:1089D000009240F263220E49042004F02FFDB1E71B
:1089E0000DF10E0103A80FF0DDFBBDF80C30ADF862
:1089F0002A30DEE7074B5B7D8DF83830DDE700BFBE
:108A00002C2E0020282E002000100140A43B040042
:108A1000833A04004435002090F84830022B00D0FF
:108A2000704710B5044690F86830022B00D010BD96
:108A3000C16CFFF775FF0028F9D1002384F8683076
:108A4000F5E7000010B5002407E0C4EBC4021301F1
:108A500003481844FFF7E0FF0134032CF5D910BD9B
:108A60005C35002008B5FFF7E1F9FFF7EBFF0120C7
:108A700008BD10B50C4691F84830022B06D10223F0
:108A800084F868302046FFF7C7FF10BD7846FEF730
:108A9000EFFDF4E7F0B583B00446C5698269C38889
:108AA0002F0A2E06C2F30C05AB4232D95B1B1344CE
:108AB000A3F50053F61847F1000732463B46A08A5B
:108AC000FEF772FE002840F08B802046FEF742FF42
:108AD000054648B3D0F81CC08269C3884FEA1C2100
:108AE0004FEA0C60C2F30C0C9C4515D2A3EB0C03AF
:108AF0001344A3F50053C01841F10001B94208BF67
:108B0000B0420DD38F4208BF864230D3284603B00F
:108B1000F0BD5B1B1344CDE7A3EB0C031344EAE762
:108B200005212846FFF70CFCE388E269A169A08AC9
:108B300005F02AFFE8B9627A531CE17D99B3082257
:108B400002FB03F289B34FF48073934230D30221C6
:108B50002046FFF71BFA05460028D7D10021204602
:108B6000FFF7DEFE02210020FEF796FFCEE700258C
:108B7000CCE7E388E269A169A08A05F07FFF60B1D4
:108B8000237863B1617A4B1C012199400139204659
:108B9000FFF7C6FE2046FFF7DBF90025B6E778466B
:108BA000FEF766FDEEE70C22CAE74FF4C073CCE790
:108BB0000C4B1B6813F0040F03D00B4B1B68002BEE
:108BC00001DC0025A2E7094BD3F804350192084ADD
:108BD000009240F27F320749012004F02FFCF0E7B9
:108BE000002593E72C2E0020282E002000100140A5
:108BF000B43B0400833A04002DE9F04182B00746FB
:108C00000E46144698461046FFF744FF002846D00B
:108C10000546404B1B6813F0040F03D03E4B1B6806
:108C2000032B3FDC2846FFF729F92B7B012B47D08C
:108C3000EB6C217A01228A40134230D11A43EA6454
:108C4000043E237AE27D002A42D04FF0080C0CFB50
:108C500003FC697A8B423ED0002A41D00823B342FC
:108C600040D1AA69A3699A4209D205F10C0E0C34CD
:108C70000FCCAEE80F0094E803008EE80300E86E26
:108C80003246391D60441AF02EF8EC6C2B7873B321
:108C90006B7A5A1C01239340013B9C422BD002B0BB
:108CA000BDE8F0811D4BD3F80435227A01921C4AAD
:108CB000009240F2A3321B49042004F0BFFBB1E74D
:108CC00095F86830002BB3D12846FFF7EDF8AFE7F1
:108CD0004FF00C0CBBE70CEB0603A5F84A30C0E7DD
:108CE0000C23BCE704212846FFF72AFBD7E7784688
:108CF000FEF7BEFCCCE7E96C2846FFF711FE4346C1
:108D00002A46B5F84A10E86EFFF74BFC2846FFF7F5
:108D1000DFFAC4E72C2E0020282E0020001001408E
:108D2000C83B0400833A04002DE9F04190B00028CC
:108D30004CD00F4614461E468046002A48D004AB4D
:108D400000933346FEF7D4FE054618B1284610B00E
:108D5000BDE8F08104A8FFF7C5F805460028F5D165
:108D600000230293039302A960880FF0FFF928B152
:108D70009DF8113043F001038DF811302269E1684C
:108D8000208905F0B9FD38B19DF8113003F0FE03DC
:108D90008DF81130002BD9D09DF81130002BD5D093
:108DA00013F0010F01D0039B08939DF8103033B1ED
:108DB000334604AA39464046FFF71EFFC6E733464E
:108DC00004AA39464046FFF7F9FBBFE70E25BDE789
:108DD0000E25BBE7F8B508B30E460546164B1F68CF
:108DE000F7B93C46B4420FD205EBC4035B68D3B17C
:108DF00015F8340015F93430002B16DBB8B1FEF746
:108E0000FDFDB0B90134EDE70C4B43F8375003EBEF
:108E1000C7035E607B1C084A136002E00E2700E077
:108E200004273846F8BD0E27FBE70B27F9E70F2785
:108E3000F7E70F27F5E700BF34350020383500206D
:108E4000084B196861B110B504E0064804F060FAF7
:108E5000214624B10C680B79002BF9D0F5E710BD41
:108E6000704700BF2037002038B5054630B1104BA1
:108E70001C68ACB10F4B01221A7004E07846FEF773
:108E8000F7FBF4E724683CB12379002BFAD154F8BE
:108E9000043C28469847F5E7064B1B78022B00D088
:108EA00038BDFFF7CDFF034B00221A70F8E700BF73
:108EB000203700201C37002010B5044630B10023B5
:108EC0002372211D034804F0F8F910BD7846FEF71F
:108ED000CFFBF4E72037002010B5044658B10A4B09
:108EE0001B78013BDBB2012B09D8074B02221A7019
:108EF0000123237210BD7846FEF7BAFBEFE7211D70
:108F0000024804F005FAF5E71C370020203700205E
:108F10000A8883689B5A07339BB223F003031344E8
:108F20009BB20288043A934200D900230B80704719
:108F300010B582B004468368C91AADF806100DF169
:108F40000601FFF7E5FFBDF80630A068184402B03F
:108F500010BD0088043880B2704743888268D018FA
:108F6000D15201238370704782680023937043803D
:108F700083807047073189B221F0030189B24288AA
:108F800083889A4204D29B1A99421EDC00207047C3
:108F900010B59A420FD90488A41AA14217D98B425E
:108FA00017D3032C03D98368134404229A70002337
:108FB0004380184604E0826813449B780BB1042078
:108FC00010BDFFF7D1FF0020FAE704207047002012
:108FD000F6E70420F4E738B504460D468368828836
:108FE00013448B4202D07846FEF742FB0023AB705D
:108FF000211D2046FFF78CFFA288A36813449B78AD
:10900000042B00D038BD0023A380FBE710B50C462D
:109010008368428813448B4202D07846FEF728FBCF
:109020000023A37010BD70B5054614460E460029F6
:1090300044D0002D46D0B6F1005F08D94FF08053E0
:10904000D3F80C3103F50023B6EB832F0ED3B6F51E
:10905000000F08D94FF08053D3F80C3103F50053BB
:10906000B6EB832F02D37846FEF702FB631E334430
:10907000B3F1005F08D94FF08052D2F80C2102F50D
:109080000022B3EB822F0ED3B3F5000F08D94FF0B7
:109090008052D2F80C2102F50052B3EB822F02D39A
:1090A0007846FEF7E5FA042C10D92C8000236B805B
:1090B000AB80AE60043C3480B37070BD7846FEF780
:1090C000D7FAB6E77846FEF7D3FAB4E77846FEF764
:1090D000CFFAEAE738B50446A0B16288A368134422
:1090E0009B78012B12D0EFF3108572B6A388A1688C
:1090F00019448B78032B0DD02046FFF735FF05B9B7
:1091000062B638BD7846FEF7B3FAE6E77846FEF772
:10911000AFFAE8E72046FFF70BFFA368C31A6380A6
:1091200000238370EBE72DE9F0410E461446054617
:10913000D0B1EEB16A88AB6813449B78012B1BD089
:1091400024B32846FFF705FFA04221D3EFF3108890
:1091500072B621462846FFF70DFF074680B1B8F1E9
:10916000000F16D162B614E07846FEF781FAE0E708
:109170007846FEF77DFADDE77846FEF779FADFE715
:1091800021462846FFF7E9FE3060E8E7092700E0BE
:1091900009273846BDE8F081F8B50C461546064665
:1091A000E0B1FCB1A378012B20D12388AB4221D3BD
:1091B00025B3EFF3108772B625800223A370F11850
:1091C0003046FFF7A5FE7388B288934203D0B26899
:1091D000134400229A7007B962B6F8BD7846FEF7CC
:1091E00047FADEE77846FEF743FADBE77846FEF714
:1091F0003FFADAE77846FEF73BFAD9E77846FEF71A
:1092000037FAD6E770B50C46054690B1ACB1EFF32E
:10921000108672B6AA88AB6813449A78042A10D0D4
:109220009A78022A15D0032A18D0052006B962B60A
:1092300070BD7846FEF71CFAE8E77846FEF718FAA4
:10924000E5E7291D2846FFF763FEAA88AB681344AB
:10925000E6E703229A7023600020E7E77846FEF7EE
:1092600007FA0020E2E738B5044680B1EFF3108535
:1092700072B6A088A16801448B78042B0BD0887843
:10928000022814BF0020012005B962B638BD784617
:10929000FEF7EEF9EAE72046FFF74AFE0146EEE761
:1092A00038B5054678B1EFF3108472B6A888A9687E
:1092B00001448878C31EDBB2012B08D82846FFF78B
:1092C00037FE0146F5E77846FEF7D2F9EBE70228CC
:1092D00014BF0020012004B962B638BD70B50C4639
:1092E000064678B194B1EFF3108572B6A378012BDE
:1092F00010D0032B13D121463046FFF76CFE05B981
:1093000062B670BD7846FEF7B3F9EBE77846FEF734
:10931000AFF9E8E721463046FFF778FEEFE77846F9
:10932000FEF7A6F9EBE710B5EFF3108472B6838869
:10933000816819448B78042B06D08878B0FA80F0C5
:10934000400904B962B610BDFFF7F2FD0146F4E72B
:1093500008B5064B986800221A605A609A60DA6075
:109360001A615A619A6104F0E9FF08BD24370020B0
:1093700000B585B00A4BDB6802228DF8002001930E
:109380004FF480530293074A6946012001F0DAFA4C
:1093900018B9012005B05DF804FB0020FAE700BF12
:1093A000243700204037002000B585B00A4B1B68E9
:1093B00002228DF8002001934FF480530293074A54
:1093C0006946012001F0BEFA18B9012005B05DF828
:1093D00004FB0020FAE700BF44370020403700209C
:1093E000164BDA68137951795B1A03F57F2303F67C
:1093F000FF7302EB03339A4205D002F580520F4B04
:10940000DA600320704700B585B00D4B1B68012062
:109410008DF8000001930B4B0393042302930A4A37
:10942000694601F08FFA18B1002005B05DF804FB21
:10943000024B01221A760220F7E700BF24370020F2
:1094400044370020483700204037002000B585B061
:109450000C4BDA680C4B1B68043301208DF80000BC
:109460000192039340F6FC730293084A694601F0A7
:1094700069FA28B90120034B187605B05DF804FBA2
:109480000020FAE72437002044370020403700202E
:1094900000B585B00A4B1B6801208DF800000193D0
:1094A000084B039304230293074A694601F04AFAE2
:1094B00018B9012005B05DF804FB0020FAE700BFF1
:1094C00044370020303700204037002010B584B0EA
:1094D000104BDA681478104B1B68043301208DF8A8
:1094E00000000193039202940C4A694601F02AFAA3
:1094F00070B9094B1B6804F0FC041C440434054B90
:109500005C61D9680A780A441A61012004B010BD70
:109510000020FBE72437002044370020403700209C
:1095200008B50023092B09D8064A52F823208242A5
:1095300001D00133F6E7044A536002E07846FEF7B3
:1095400097F808BD943C04002437002010B5214B47
:10955000DB6853B11F4B1B7E5BB91E4B5B68092B4D
:1095600026D97846FEF784F822E07846FEF780F8A0
:10957000F0E77846FEF77CF8EFE7164A53680133C8
:109580005360092B21D97846FEF772F81DE0114B84
:1095900000225A6019E00F4B1B7E1BB10D4B0222BB
:1095A0001A7012E0FFF7D4FE0FE00A4B1B7E83B95E
:1095B000084B5A68084B53F8223098470446022853
:1095C000E9D00328E3D00128D7D0012CEDD0032C1B
:1095D000EBD010BD24370020943C0400104B1B68D6
:1095E0001B685A1E12F1030F18D8C3F30B020AB1FD
:1095F0000020704710B50B4AD360002313765376D2
:109600000124147093600848FFF78AFF0749204639
:1096100001F086F9FFF79AFF204610BD0020704741
:109620004437002024370020719302003196020055
:1096300008B50B78032B06D00B4B1B78012B06D0FB
:10964000022B0BD008BD084B00221A76F4E7064B1C
:109650001B7E002BF6D1FFF779FFF3E70B78032B86
:10966000F0D1FFF775FEEDE72437002000B585B097
:10967000174BDB6818784FF6FF7203F580511844DA
:1096800005F030FBE0B10246114BD9680B780B4472
:10969000984217D00E4B5B7E83B10E4B01208DF8A4
:1096A000000001920393042302930B4A694601F0E0
:1096B00049F948B90120064B187606E0074BEDE75B
:1096C000012002E0012000E0002005B05DF804FB6D
:1096D00024370020CC3F040040370020C83F04005E
:1096E00008B5104BDB681878002203F58051184448
:1096F00005F0F8FA08B1012008BD0A4BDA681379C1
:1097000051795B1A03F57F2303F6FF7302EB0333F2
:109710009A4205D002F58052024BDA600320EBE753
:109720000220E9E724370020F0B585B0514BDE6810
:1097300072793379591E8A4214D006F580510D781A
:109740000D444D490968081D0F7907449B1A06EB23
:1097500003366B88013B9BB247F6FE62934260D9A9
:109760002C461AE00120434B58767EE07846FDF700
:109770007FFF15E024F47F6424F00F0404F5805487
:1097800023781C44A64247D9A54247D26388013BAF
:109790009BB247F6FE62934211D92388002BE5D095
:1097A000238804EB830323F47F6222F00F029342A9
:1097B000E0D06288B2F5FE4FDCD01C46E2E72546D9
:1097C0002FE07846FDF754FF15E024F47F6424F081
:1097D0000F0404F5805423781C44A64220D9A542E6
:1097E0003BD26388013B9BB247F6FE62934211D99C
:1097F0002388002BE5D0238804EB830323F47F62C6
:1098000022F00F029342E0D06288B2F5FE4FDCD026
:109810001C46E2E7254604E0002502E0002500E0C2
:109820000025E5B1144B19686A8801F58051384666
:1098300005F058FA074690B101200E4B18768DF8C6
:10984000000001950D4B0393042302930C4A6946D3
:1098500001F078F858B92C46CAE70025E1E7B5FAD7
:1098600085F56D09034B5D76012005B0F0BD002044
:10987000FBE700BF2437002044370020C43F04002A
:10988000403700202DE9F04186B0644B1B692BB1B5
:10989000624B5B6933B14FF0000846E07846FDF754
:1098A000E7FEF5E77846FDF7E3FEF4E77846FDF7D7
:1098B000DFFE15E025F47F6525F00F0505F58055E1
:1098C0002B781D44AF421CD9AC421ED26B88013BA1
:1098D0009BB247F6FE62934211D92B88002BE5D04C
:1098E0002B8805EB830323F47F6222F00F0293425F
:1098F000E0D06A88B2F5FE4FDCD01D46E2E72C4688
:1099000000E000241CB100943AE00024FAE70023B0
:109910000093019B002B5CD14FF00108002C77D005
:10992000628847F6FF739A4272D0B8F1000F73D184
:109930003A4B5A6922F47F6626F00F06B61A06F5EE
:1099400080561C69DF683B797A799B1A07EB0337ED
:10995000002301936388013B9BB247F6FE6293426A
:10996000D1D92546B9E77846FDF782FE23E024F4F5
:109970007F6424F00F0404F58054237823441C46AC
:10998000A742C6D92388019A02EB83029642C0D926
:10999000009B634023F47F6323F00F03002BB8D1B7
:1099A0006388013B9BB247F6FE618B42B1D80192BE
:1099B0002388002BD7D0238804EB830323F47F6212
:1099C00022F00F029342D2D06288B2F5FE4FD6D178
:1099D000CDE7124A526901208DF808000392009ADF
:1099E000059204930E4A02A900F0ACFF70B90B492E
:1099F000019B23F003024B6913444B6114B1074BE5
:109A00001C618BE77846FDF733FEF8E7002000E0A5
:109A1000012006B0BDE8F0810120FAE724370020DC
:109A20004037002000B585B040F6F8731B68B3F1ED
:109A3000FF3F09D0B3F1FF3F0CD07BB1B3F1FF3F43
:109A400037D0A3F580520FE01E4A1268B2F1FF3FF3
:109A5000F0D103E01B4A1268002AEFD14FF0805189
:109A60004B690A6902FB03F2A2F58052164B1A6099
:109A7000164B1B6813F4801F16D0154B1B68062B62
:109A800012DD144BD3F8043540F6F8710968B1F1D2
:109A9000FF3F13D0029201910F4A009240F26722D9
:109AA0000E49072003F0CAFCFFF798FD05B05DF8EA
:109AB00004FB044B1A68A2F58052D5E701490968F6
:109AC000E8E700BF14100010443700202C2E0020BF
:109AD000282E002000100140603C0400473C040098
:109AE00010B50446B0B1104B1B78BBB10E4BD96812
:109AF000E3685879A3EB0032914211D31A79121A14
:109B000002F57F2202F6FF7203EB0233994209D875
:109B1000012004E07846FDF7ABFDE4E7002010BD2E
:109B20000020FCE70020FAE724370020024B1878D9
:109B3000003818BF012070472437002010B50446B4
:109B40000E4B1B7893B92378032B13D10B4B9C60DE
:109B5000E268DA6000225A601A76012018705A769C
:109B6000074900F0DDFEFFF7F1FC10BD7846FDF778
:109B70007FFDE8E77846FDF77BFDE7E72437002027
:109B800031960200014B1868704700BF443700202F
:109B900010B5044680B163681BB123680BB1A3689C
:109BA00013B97846FDF764FDA3685A1E134207D126
:109BB0000023E360236110BD7846FDF759FDEAE715
:109BC0007846FDF755FDF3E7F8B500B30F460446B8
:109BD0008368F3B1EFF3108572B60369C2689342EC
:109BE00011D0016842688668013E334003FB0211D0
:109BF00017B1384619F077F823690133236155B955
:109C000062B62846F8BD05B962B60525F9E70E2506
:109C1000F7E70925F5E70025F3E700000246C0F362
:109C20000B0040BB49B310B401F6FF710C0B144B91
:109C30000221C3F80415124BD3F80034002BFAD0DC
:109C400001460AE00E4BC3F808250D4BD3F800344B
:109C5000002BFAD002F580520131A142F2D3084B19
:109C60000022C3F80425064BD3F80034002BFAD0A9
:109C70005DF8044B7047102070470920704700BF03
:109C800000E0014010F0030F2FD110B4044611F092
:109C9000030F2CD16AB312F0030F2CD19008174B8D
:109CA0000122C3F80425154BD3F80034002BFAD059
:109CB00002E0043404311046421E50B10B68B3F187
:109CC000FF3FF6D023600D4BD3F80034002BFAD0C1
:109CD000EFE70A4B0022C3F80425084BD3F8003401
:109CE000002BFAD05DF8044B70471020704710200D
:109CF000F8E70920F6E70920F4E700BF00E001409B
:109D0000094B1B7813F0040F02D00378122B00D0FC
:109D10007047064B1A68064B5A60034B1A786FF36C
:109D200082021A70F4E700BFE0370020D03700202D
:109D30007C37002010B582B001900C46000C012841
:109D400010D12368094A136009490B7843F00103D5
:109D50000B705B0883F0010303F001031371002013
:109D600002B010BD7846FDF783FCEAE7D03700204B
:109D7000E037002010B582B001900C46000C02289C
:109D80000FD12268094B1A6022791A71002058718C
:109D90009871D871064A137843F00203137002B029
:109DA00010BD7846FDF764FCEBE700BFC837002024
:109DB000E037002010B582B001900C46000C03285B
:109DC00006D1054B186820601B79237102B010BDC5
:109DD0007846FDF74DFCF4E7D037002010B582B08F
:109DE00001900C46000C03280CD1084B2068186029
:109DF00022791A71064A137843F001031370002088
:109E000002B010BD7846FDF733FCEEE7D0370020F6
:109E1000E037002010B582B001900C46000C0428F9
:109E200005D1054B03CB2060616002B010BD7846C0
:109E3000FDF71EFCF5E700BFC837002010B582B063
:109E400001900C46000C04280BD1084B2068616877
:109E500003C3074A137843F002031370002002B0D3
:109E600010BD7846FDF704FCEFE700BFC8370020BF
:109E7000E037002000B583B00190000C032806D124
:109E8000054B00221A601A7103B05DF804FB784696
:109E9000FDF7EEFBF4E700BFD037002000B583B03C
:109EA0000190000C042806D1054B00221A605A606C
:109EB00003B05DF804FB7846FDF7DAFBF4E700BF7A
:109EC000C837002010B582B00024ADF8004001234F
:109ED000ADF80230009806F086F8ADF80440022391
:109EE000ADF80630019806F07EF802B010BD000013
:109EF00000B585B0184B1B7813F0400F0FD0164BF0
:109F00001B7813F0040F07D1144B5B6803F5005363
:109F10000193B3F1807F06D905B05DF804FB784664
:109F2000FDF7A6FBEBE70E4B1B788DF808300A4ACD
:109F3000137843F0040313700023ADF80C300323AF
:109F4000ADF80E3001A9039806F01CF80028E3D004
:109F50007846FDF78DFBDFE7E03700207C370020F7
:109F6000E137002000B585B00022ADF809200F4B85
:109F7000996801911B7B8DF808300D490B780133EE
:109F8000DBB20B708DF80B30ADF80C200423ADF86C
:109F90000E300DEB0301039805F0F4FF10B905B086
:109FA0005DF804FB7846FDF763FBF8E77C3700209B
:109FB000E137002000B585B00F4B9A6801921A7BFB
:109FC0008DF808201B8AADF809300C4B1B788DF8F2
:109FD0000B300023ADF80C300423ADF80E300DEB40
:109FE0000301039805F0CEFF10B905B05DF804FB3E
:109FF0007846FDF73DFBF8E77C370020E13700208D
:10A0000000B58DB00B4B1B7B012B0ED0094A92681B
:10A0100004928DF80830039002238DF8043001A8D3
:10A02000FEF722FF0DB05DF804FB024A9268013A88
:10A030000492EEE77C37002008B51D481D4B0360F5
:10A0400000F01AFF1C4B1B7813F0200F2AD103F0ED
:10A050000303032B14D1194B1968194A916019791C
:10A060001173B3F805001082DB79164A1370164A93
:10A070001279934217D0B1B9114B00221A6007E050
:10A080000F4B00221A609A601A731A82FFF76AFF58
:10A090000B4B1A685A60084A137843F04003137058
:10A0A000FFF726FF08BD084B1A68054B1A60EFE75B
:10A0B000BC370020019D0200E0370020C837002097
:10A0C0007C370020E1370020D037002010B582B067
:10A0D0000024ADF800400323ADF80230009805F0ED
:10A0E00082FFADF804400423ADF80630019805F076
:10A0F0007AFF084B1C605C609C60DC601C61064A57
:10A10000137803F0DF0343F040031370FFF7F0FE12
:10A1100002B010BD7C370020E037002038B50C4D70
:10A1200000242C606C60AC60EC602C6101F084F960
:10A13000084B5860084A9A60084ADA601C615C6102
:10A14000074B1A7864F3C3021A706C6038BD00BF05
:10A150007C37002058370020BDA2020000879303FF
:10A16000E037002008B50C4B1B7813F0100F00D01F
:10A1700008BD0A480A4B036000F07EFEFFF75CFF53
:10A18000FFF7A0FE074801F0EFF8034A137843F009
:10A1900010031370ECE700BFE03700207037002099
:10A1A00015A4020058370020034B1878800880F06F
:10A1B000010000F001007047E037002010B501F009
:10A1C000F5FE174B1B7B1BBB154B9B7B2BBB144B13
:10A1D0001A8A41F282639A4206D8124B1B7813F016
:10A1E000080F05D0012300E001231BB9082410E06B
:10A1F0000023FAE70A4B01221A7300241C829A6892
:10A2000001329A60FFF7AEFE2046FFF7F9FE00E04C
:10A21000082401F00FFF204610BD0824F9E700BF15
:10A220007C370020E037002010B501F0BFFE214B45
:10A230005B7BABB11F4B9B7B03BB1E4B1A8A41F26E
:10A2400082639A4206D81C4B1B7813F0080F05D086
:10A25000012300E001239BB1012302E00023FAE780
:10A2600000231C460BB3134B00225A731B7B4BB1CC
:10A27000012B0ED07846FDF7FBF916E00023F0E73E
:10A280000023EEE7FFF79AFF78B17846FDF7F0F983
:10A290000BE0084B00201860586018731882FFF715
:10A2A000AFFEFFF75FFEFFF723FE01F0C3FE20467F
:10A2B00010BD00BF7C370020E037002008B52C4BD4
:10A2C0001B7BDBB1012B2ED07846FDF7D1F9284A54
:10A2D000138A01339BB21382264AA2FB031212098E
:10A2E000C2EB0212A3EB42039BB2002B3DD0204BEA
:10A2F0005B8A13B1013B1E4A538208BD1C4B1A8A6C
:10A3000041F282639A4206D81B4B1B7813F0080F68
:10A3100007D0012300E00123002BD8D0FFF784FFF2
:10A32000E5E70023F8E7124B1B8A41F28262934271
:10A3300006D8114A127812F0080F14D0012200E05A
:10A340000122002AC3D042F2B012934202D9084B34
:10A3500001225A73FFF768FF0028C8D1044B5B7BCA
:10A36000012BB4D1C3E70022EBE7FFF723FEBEE7E2
:10A370007C37002089888888E037002010B5244B7E
:10A380001B7B002B35D10446214B5B8A2BBB1AB9B2
:10A390001F4B9B688B4205D3FAB11D4B9B68013361
:10A3A0008B421AD21A4B9B682A338B4223D3184B09
:10A3B0009B7B03BB164B996000221A605A601A827D
:10A3C00042F6065159825A731A73FFF7CBFDFFF715
:10A3D0008FFD2046FFF714FE0DE062B10C4B9B6829
:10A3E00001338B4207D10A4B01225A73FFF71CFF3E
:10A3F00001E0012B00D010BD002AFCD1044B9B686A
:10A400008B42F8D1024B01225A73FFF70DFFF2E79E
:10A410007C3700200378042B00D0704743681B78FA
:10A42000002BFAD010B58468027E437E012A14BF47
:10A4300000220122416904F11000FFF79FFF10BDC7
:10A440001B4B1B7813F0400F30D010B50446194B4E
:10A450001A685B689A4225D2164B1B7B012B14D0DD
:10A46000154B9A4213D2134B1A685B68403B9A42D1
:10A4700015D2EFF3108172B60E4A1368581C1060A3
:10A48000236001B962B6002010BD0C4BE9E7094B0F
:10A4900001225A73FFF7C8FE0028EAD1E3E7FFF76D
:10A4A00027FDE6E7FFF724FD0F20EDE70F207047BB
:10A4B000E03700207C370020FFFF7F0000E0FF0036
:10A4C00008B538B10D4B01229A730D4A1368013358
:10A4D000136008BD0A4B1B685BB1094A1368013B56
:10A4E0001360002BF5D1054B00229A73FFF79CFEF9
:10A4F000EFE77846FDF7BCF8EFE700BF7C370020B8
:10A500004C37002000B58DB0ADF808008DF8102054
:10A51000039103238DF8043001A8FEF7A5FC0DB0CC
:10A520005DF804FB014B9868704700BF7C37002042
:10A53000054B1B7B012B02D0034B98687047024BE5
:10A5400098680138704700BF7C370020044B9B6837
:10A55000584010F0010F00D0013B1846704700BF73
:10A560007C370020014B187B704700BF7C370020F0
:10A570000F4B1B7813F0200F01D00820704770B5E7
:10A580000B4E43F0200333700A4DA860297300245A
:10A590002C82FFF7E7FC2046FFF732FD2C606C6051
:10A5A000337843F040033370FFF7A2FC204670BDC0
:10A5B000E03700207C3700202DE9F041002624E020
:10A5C0002449BC2303FB04F3CA5A0132CA520221B4
:10A5D000284602F0E5FC01370221284602F0B0FCD3
:10A5E000014679B11B4ABC2303FB0423D3F808803E
:10A5F000B8F1000FE4D0BC2303FB04F3D25A304679
:10A60000C047DDE797B90136F6B2022E1FD83446AF
:10A61000BC2303FB06F308330E4D1D440435022111
:10A62000284602F08DFC01460027DAE7284602F0B2
:10A630001FFD0828E7D1074BBC2202FB0434A368A6
:10A64000002BE0D00022044930469847DBE7012088
:10A65000BDE8F081EC370020CC3C040008B50823AD
:10A6600083731023437300F11C03436103230373BB
:10A6700000F1180303610C3002F0CCFC08BD0000AF
:10A6800008B50378012B06D0022B07D07846FCF7DB
:10A69000EFFF002003E04FF4A97000E0004808BD80
:10A6A000645E010008B50378012B07D0022B13D09C
:10A6B0007846FCF7DDFF4FF4FA7308E08368591A17
:10A6C00089084FF4A97303FB01F303F5FA730748F4
:10A6D000984228BF184608BD8368591A090B044BD5
:10A6E00003FB01F303F5FA73F1E700BF6085010096
:10A6F000645E010038B5044601210C3002F020FCF4
:10A70000054678B1084BC4F89C300023C4F8A0304B
:10A710006168FFF7C7FFC4F8A800C4F8AC40012384
:10A7200084F8B830284638BD49A8020010B5044660
:10A73000FFF7E0FF20B104F19C000EF0F1FA00B940
:10A7400010BD7846FCF794FFFAE70000F8B505461F
:10A750000C46164617680378012B19D11249A1FB44
:10A760000431C9098B00AC68E41BB4EB810F00D342
:10A770001C468CB1686827F00307E9682246394413
:10A780003844FFF77FFA58B933681C443460F8BD89
:10A790007846FCF76DFFE1E77846FCF769FFE9E7EB
:10A7A0007846FCF765FFEFE7EB5DF260F8B506462B
:10A7B0000C46154617680378022B17D1114BA3FBE3
:10A7C00004231B0C1A03B468E41BB4EB033F00D34F
:10A7D00014467CB1706827F0030721463844FFF720
:10A7E0001DFA58B92B681C442C60F8BD7846FCF75C
:10A7F0003FFFE3E77846FCF73BFFEBE77846FCF7E3
:10A8000037FFEFE7B77609BB38B505460C4611466A
:10A810002378012B06D0022B0FD07846FCF728FFB7
:10A82000002304E0021D2046FFF790FFA36868683C
:10A83000984214BF0020012038BD021D2046FFF7BA
:10A84000B5FFA368F3E700002DE9F8430F46D1F800
:10A85000A850254B1B786BB90446A5F5FA7501F194
:10A860000C080121404602F06BFB064648B14FF050
:10A87000000924E00EF090FA002387F8B830BDE814
:10A88000F8837846FCF7F4FEF1E70EF085FA012133
:10A89000404602F085FB00237B6087F8B830134BFD
:10A8A000186801F01BFC3846FFF740FFE7E7A4EB10
:10A8B00000093046FFF7E4FE4844A8420DD8A5EB56
:10A8C000090231463846FFF79FFF0028DDD101F02D
:10A8D0003FFAB0EB0409ECD5E9E70EF05DFA384633
:10A8E000FFF724FFCBE700BFE8370020E437002064
:10A8F00010B5084801F0D2FB074B1860002406E0B1
:10A90000064BBC2000FB0430FFF7A8FE0134022CEC
:10A91000F6D910BDB9A50200E4370020EC370020BD
:10A9200038B504460D46022805D80548BC2303FB6C
:10A930000404A56038BD7846FCF79AFEF5E700BF31
:10A94000EC3700202DE9F84305460C46174602284F
:10A9500016D8CCB12378012B1AD0022B3ED16368D4
:10A96000C3F30B03002B31D1A368C3F30B03002BFC
:10A9700030D1A368002B34D17846FCF779FE30E063
:10A980007846FCF775FEE4E77846FCF771FEE1E7F0
:10A99000636813F0030F0DD1E36813F0030F0DD1BB
:10A9A000A36813F0030F0DD1A368D3B97846FCF761
:10A9B0005FFE16E07846FCF75BFEEDE77846FCF7B5
:10A9C00057FEEDE77846FCF753FEEDE77846FCF7D7
:10A9D0004FFEC9E77846FCF74BFECAE77846FCF71E
:10A9E00047FEEFF3108872B6BC2606FB05F606F1AB
:10A9F00008032A4E1E4404360021304602F0A0FA15
:10AA0000814678B30021304602F0CAFA20686168B6
:10AA1000A268E368C9F80000C9F80410C9F8082062
:10AA2000C9F80C302FB11D4ABC2303FB05235B88FA
:10AA30003B801A4ABC2303FB05235A8801325A8003
:10AA400093F8B83083B9164B1B7813B10024A14694
:10AA50000CE0124BBC2000FB0530FFF74BFE81469B
:10AA6000002403E0042401E00024A146B8F1000F13
:10AA700000D162B6B9F1000F09D0BC2000FB05F08F
:10AA80009830064D284404300EF04AF910B920469B
:10AA9000BDE8F8837846FCF7EBFDF8E7EC370020DB
:10AAA000E837002038B50446EFF3108572B610B9C8
:10AAB000164B1B6873B18CB1144A136801331360D1
:10AAC000124B1B68003B18BF0123114A137005B9D4
:10AAD00062B638BD7846FCF7CBFDECE70B4B1C6843
:10AAE000013C1C6034B1EBE7BC2000FB0420FFF705
:10AAF0001DFE0134022CE3D8064ABC2303FB0423C9
:10AB000093F8B830002BF4D1EEE700BF203A0020D4
:10AB1000E8370020EC37002018B1830B024AD05CE4
:10AB200070470020704700BFDC3C040012DF704714
:10AB300000B583B001F020FF40B10C4B1B6813F04F
:10AB4000400F03D00A4B1B68012B02DC03B05DF8F9
:10AB500004FB084BD3F804350190074A0092752294
:10AB60000649022002F06AFCF0E700BF2C2E00200C
:10AB7000282E0020001001404C3D04003F3D040001
:10AB800000B58DB0114B1B78022B06D07846FCF730
:10AB90006FFD01200DB05DF804FBFFF705FB18B950
:10ABA0000B48FEF789F9F4E70EF02EFE074B03225F
:10ABB0001A702C22002101A818F0BEF81D238DF870
:10ABC000043001A8FEF750F9E3E700BF283A00205F
:10ABD0001C2E00200B4B1B78042B00D0704700B5B7
:10ABE0008DB0084B05221A702C22002101A818F004
:10ABF000A3F81C238DF8043001A8FEF735F90DB039
:10AC00005DF804FB283A002008B50378122B00D029
:10AC100008BD0448FEF760F9034B186801F05EFABE
:10AC2000F6E700BF1C2E0020243A002070B58AB041
:10AC30000EF02CFE48B3064600238DF8103005AC0C
:10AC400005460FCD0FC42B682360727D052A04D9F9
:10AC5000337D03F00F03072B1ED1174B1A688AB1FF
:10AC600004AB0393337DC3F303038DF80430737D8A
:10AC7000062B1BD9063B8DF8053006F11D03029308
:10AC800001A8904730460EF0E1FD0EF01BFE80F06B
:10AC90000100C0B20AB070BD307D04AB063A06F1C7
:10ACA0001D0100F00F000DF001FBD6E700238DF829
:10ACB00005300293E4E700BF2C3A002070B582B063
:10ACC000314B1B78002B54D10446002855D0067A0E
:10ACD0000F2E01D0062E52D105F0E6FFE06870B1CC
:10ACE000FCF7D8FC0DF10700FFF720FF0546002810
:10ACF00040D19DF80730012B04D002253AE0FCF743
:10AD0000D7FCEFE7FCF7FAFC00F01AFB304601F045
:10AD1000F5F8E07800F03EF900F0E6FE0DF082FF75
:10AD20001A480EF06BFE0DF069FC0DF0A1FAFFF76A
:10AD3000DFFD05F06DF800F0FDFC05F075FF05F096
:10AD400039FD204601F026FDFDF748FD04F040FBEB
:10AD5000FCF7DCFB08B1062813D10D4801F09EF981
:10AD60000C4B18600C4B00221A60074B01221A7022
:10AD700000E00825284602B070BD0E25FAE7072539
:10AD8000F8E70546F6E700BF283A00202DAC0200A0
:10AD900081AB0200243A00202C3A002010B582B08A
:10ADA000204B1B78012B0DD05AB2002A35D0043B22
:10ADB000DBB2012B33D80DF0A3FF044628B32046A5
:10ADC00002B010BD01F0F6FCFDF74AFDFCF79EFB5A
:10ADD0000446B8B1062815D0134B1B6813F4804FF6
:10ADE000EDD0124B1B68012BE9DD114BD3F8043574
:10ADF0000190104A009240F289120F49022002F09D
:10AE00001DFBDCE701F0A6F8D5E7064B02221A701D
:10AE10000A4B186801F062F9D1E70824CFE708244B
:10AE2000CDE700BF283A00202C2E0020282E00203D
:10AE300000100140783D04003F3D0400243A00200A
:10AE400008B5094B1B78032B01D0082008BD064B21
:10AE500004221A7005480DF007FF0028F6D0784646
:10AE6000FCF706FC0020F1E7283A0020D5AB0200F1
:10AE700008B5FDF7F9FC08BD08B5FEF71DF808BDDB
:10AE800008B5FEF729F808BD08B500F0F3FD00206D
:10AE900008BD08B507F0B8FA08BD0000064A1368F7
:10AEA00001331360B3F1704F02D0034B1868704741
:10AEB000134601221A60F8E7303A002010B5044624
:10AEC00018B100232360636010BD7846FCF7D0FB07
:10AED000F7E738B50C46054668B184B100236360D6
:10AEE000EFF3108372B62A686AB16A6854606C60C6
:10AEF00003B962B638BD7846FCF7BAFBEDE7784691
:10AF0000FCF7B6FBEAE72C60F1E710B5044658B150
:10AF1000EFF3108372B6206808B14268226022689D
:10AF200032B103B962B610BD7846FCF7A1FBEFE77A
:10AF30006260F6E710B5044608B1206810BD784697
:10AF4000FCF796FBF9E735DF70473CDF70473DDFE4
:10AF50007047000010B504464FF0FF30FFF7F3FFD5
:10AF6000FF210020FFF7F3FF21460020FFF7EDFF50
:10AF7000BFF34F8F0549CA6802F4E062044B1343E4
:10AF8000CB60BFF34F8F00BFFDE700BF00ED00E0D7
:10AF90000400FA05072814D8DFE800F0080C1504AF
:10AFA000110F0A066420704714207047FA2070477A
:10AFB0001E2070474FF4FA707047322070474B20C4
:10AFC0007047FA207047962070470000024B58687F
:10AFD000103840B2704700BF00ED00E00346002883
:10AFE0000FDB5B11084A52F82330424200F01F0089
:10AFF00002F01F0258BF504223FA00F000F0010097
:10B00000704700F11F03ECE700E100E046DF704706
:10B01000F8B504460D464B1EDBB2012B09D80023C0
:10B0200023616361A361E3612046FFF7EFFF012025
:10B0300016E07846FCF71CFBF1E7CA5CCE1852001C
:10B04000D2B2767842EAD612CA5401339BB20E2BA2
:10B05000F3D9CB7B5B00CB73002F08DB0130C0B290
:10B06000A8420BD8214611F9207F0023EFE794F87E
:10B070002F3083F0870384F82F30EFE7F8BD2DE9F8
:10B08000F04190B084460C4696461F4602F10F08E8
:10B090004FEA281604AD0068DCF80410DCF808203C
:10B0A000DCF80C300FC50EF00F055FEA181302D064
:10B0B0007DB1002300E00023984663B1012104A87C
:10B0C000FFF7A6FFB8F1000F1AD0701E0001102381
:10B0D0000EE00123F0E70221F1E7013B9BB22218C9
:10B0E000D25C10A9194411F8101C4A400DF8032035
:10B0F000002BF2D100250C950D950E950F9533E0A0
:10B10000711EADB22A4604EB0111684617F0EBFD43
:10B1100080230DF805306B1C03E000220DF803209E
:10B1200001330F2BF9DD10230AE0013B9BB21DF820
:10B13000032010A9194411F8101C4A400DF80320EF
:10B14000002BF2D1D6E7013A92B210AB134413F8B8
:10B15000100C63189B5C584008AB9854002AF2D13D
:10B1600004A8FFF753FF0135731EAB4202DD29012E
:10B170001022F3E710230AE0013B9BB210AAD1187A
:10B1800011F8402C11F8101C4A4008A9CA54002B91
:10B19000F2D104A8FFF73AFF0CAC0FCC386079600D
:10B1A000BA60FB6010B0BDE8F081000010B5044645
:10B1B000134B1B6893B14168114B1B685B68CB1A3A
:10B1C000002B0BDB0E4B1B6818465B691BB15A68E2
:10B1D000521A002AF8DB6361446103E0084B1A68E5
:10B1E00062611C60064A93889BB201339BB29380D4
:10B1F00013B10123237010BD7846FCF739FAF8E744
:10B20000383A002038B505461CE07846FCF730FA9D
:10B210006369204A13600023636193889BB2591EBF
:10B2200089B29180F3B1A36803B302232370A368AA
:10B2300021692846984700F0FFF805462378DBB2DD
:10B24000022B17D0134B1B681BB3124B1B685B6898
:10B250005B1B642B1DD50F4B1C682378DBB2012BC5
:10B26000D6D0D2E77846FCF703FADCE77846FCF75D
:10B27000FFF9DAE7E26812B900232370E2E76368B6
:10B28000134463605B1B642BF9D42046FFF78EFFE9
:10B29000D8E738BD383A002010B50446144B1B6877
:10B2A000834207D0124B1B68D3B15A69A2420ED019
:10B2B0001346F9E743690E4A136093889BB2591EFF
:10B2C00089B2918063B97846FCF7D2F908E06269E7
:10B2D0005A6107498B889BB25A1E92B28A8013B179
:10B2E0000023237010BD7846FCF7C2F9F8E700BFD1
:10B2F000383A002008B5064B1B6833B1044B1B6875
:10B300000449586800F046F908BD00F0A1F9FBE7D0
:10B31000383A002031B3020008B500F08DF8FFF78D
:10B3200071FF00F089F8FFF7E5FF012008BD00007C
:10B3300008B5024B186800F0D1FE08BD343A002071
:10B3400008B5064B00221A605A60054800F0A6FEB8
:10B35000044B186000F063F808BD00BF383A0020C5
:10B3600019B30200343A002010B5044600F08AFFF9
:10B3700080B19CB1A368ABB12378DBB2012B15D0AF
:10B38000002363612046FFF711FF00F055F8FFF737
:10B39000B1FF10BD7846FCF76BF9EAE77846FCF799
:10B3A00067F9E7E77846FCF763F9E5E77846FCF7E5
:10B3B0005FF9E5E710B5044600F064FF50B16CB1E9
:10B3C0002046FFF769FF0023636100F035F8FFF7BF
:10B3D00091FF10BD7846FCF74BF9F0E77846FCF793
:10B3E00047F9EDE738B504460D4600F04BFF70B164
:10B3F0008CB12046FFF750FF002363616560204653
:10B40000FFF7D4FE00F018F8FFF774FF38BD784658
:10B41000FCF72EF9ECE77846FCF72AF9E9E708B5DE
:10B4200017F0FEFA00B108BD17F072FA0028FAD042
:10B430007846FCF71DF9F6E770B4EFF3108172B6A9
:10B44000184B1A68184BD3F80455D3F80431012B64
:10B4500022D001B962B645EA026500266B01EA0E08
:10B460005B1B62EB0602510241EAD35158024319B9
:10B4700041EB0600810141EA93619A01D31A61EB25
:10B4800000005B1946EB000013F580437041DB0BB5
:10B4900043EA404070BC7047034BD3F80455013277
:10B4A000D7E700BF403A00200010014010B50A4B1A
:10B4B0004FF40032C3F84823C3F80823074B1B6836
:10B4C0002BB1064B1C68FFF7B7FFA04710BD7846AD
:10B4D000FCF7CEF8F5E700BF001001404C3A002021
:10B4E000EFF3108172B6264B0022C3F80421254ADF
:10B4F00013680133136001B962B6234B1B68002B3C
:10B500003DD0214B1A68013A1A601B68002B36D1D6
:10B5100003F1804303F58833D3F804251B4B1B68E4
:10B520009A421ED2EFF3108272B6154BD3F804354F
:10B530000133164909688B4210D3114BD3F80435F7
:10B5400003330F49C1F8443502B962B60C4B4FF4CE
:10B550000032C3F84423C3F8042370470B4B1B6825
:10B56000EFE710B50A4B1B682BB1094B1C68FFF7BE
:10B5700063FFA04710BD7846FCF77AF8F5E77047FF
:10B5800000100140403A0020443A0020483A002090
:10B590004C3A002030B583B00446002301930D4699
:10B5A000002936D0244B1D60FFF746FF031B002BFC
:10B5B00033DB0023590CD803204C214A0023001907
:10B5C0004FF0000444EB010117F054FAEFF310833D
:10B5D000019372B61B4BD3F80435032838BF032000
:10B5E000C3F1FF1202F57F42824218D30344154A89
:10B5F000C2F844354FF40033C2F84433C2F8043380
:10B60000114A1460114A1460019B03B962B603B079
:10B6100030BD7846FCF72CF8C4E7231ACAE7034488
:10B6200003F17F4301331A0E013207490A6023F008
:10B630007F43064A1360E7E74C3A002020A1070049
:10B6400040420F0000100140443A0020483A0020D8
:10B65000074B4FF40032C3F84823C3F808230023F4
:10B66000044A1360044A1360044A1360704700BF21
:10B6700000100140443A0020483A00204C3A002093
:10B6800030DF704731DF704710B40346026840680E
:10B69000A2EB70129C6880EAF4301860D9680C4400
:10B6A0005C60114499601044D8605DF8044B7047A9
:10B6B00070B582B00D46064608B100240BE078460E
:10B6C000FBF7D6FFF9E79DF807103019FFF7DAFF0F
:10B6D0009DF807301C44A5420DD90DF10700FFF776
:10B6E000CFFF9DF80730002BF7D02A1B9342EAD9F1
:10B6F0008DF80720E7E702B070BD000030B583B0D9
:10B7000005460024019404210DEB0100FFF7D0FF52
:10B71000074B2B60019B6B60AB60EB6003E028463E
:10B72000FFF7B2FF0134132CF9D903B030BD00BFCD
:10B73000ED5EEAF17047000070B582B000241EE0B3
:10B74000194E33680193A5B204F58073ADF8063045
:10B75000019804F048FC7368019305F58173ADF816
:10B760000630019804F03FFCB368019305F582753B
:10B77000ADF80650019804F036FC0134E4B2012C17
:10B78000DED9094CE06804F02EFC206904F02BFCA3
:10B79000606904F028FCA06904F025FCE06904F06D
:10B7A00022FC02B070BD00BFA03D040048DF70471E
:10B7B00049DF70474ADF7047044B01225A7143F258
:10B7C000B0629A6043F69822DA6070479C3A002093
:10B7D000094B03221A74094A5A611A6840F6D86361
:10B7E0009A4204D9054B43F2B0629A607047034B0A
:10B7F00040F6D8629A6070477C3A00209C3A00205C
:10B8000008B50F4B1B78022B12D0032B08D0012B4D
:10B8100003D07846FBF72CFF0EE0022303740BE005
:10B82000084B00225A71084999600849D960827111
:10B8300003230374034B4361014B00221A7008BDBC
:10B84000AD3A00209C3A0020A0860100FF1FA1070E
:10B8500038B5044600250574012343710E4A136868
:10B860000133136000F0D2FA0DF010FB23680B4A8D
:10B870001168283101FB03F1094AA2FB0121A3EB66
:10B880009141084A7839284600F03CFA00B938BDA1
:10B890007846FBF7EDFEFAE7B03A0020983A002030
:10B8A00083DE1B43D1B7020010B50446002383603A
:10B8B000C36003680D4A92680260817991B10121E9
:10B8C000017403B90A4B991A6161B1F57A7F01D30A
:10B8D0009A4202D94FF47A736361FFF76DFF012337
:10B8E000A37110BDFFF7B4FFF7E700BF9C3A00203B
:10B8F0008096980010B50C4631B1C3680133C3601F
:10B900004269036813440360836801338360012242
:10B910000274426952084261012B0DD0022B19D0EA
:10B9200042690368134417498B4222D840F6D76313
:10B930009A4221D800231DE0B2F5FA7F05D040F6E7
:10B94000D8639A42ECD84361EAE7002CF7D1002390
:10B950004361E5E7C368022B06D0012BE0D1002C40
:10B96000DED100234361DBE70268064B9B1A43618B
:10B97000D6E7002313B110BD0123FBE7FFF768FFF3
:10B98000F9E700BF8096980043791BB90D4B002260
:10B990001A70704710B504460DF094FA23680A4AED
:10B9A0001068283003FB00F0084AA2FB0020A3EB3C
:10B9B0009040783800F05AFA00236371014B00225E
:10B9C0001A7010BDAC3A0020983A002083DE1B4369
:10B9D00008B5254B01221A71244B1B7813B1244B57
:10B9E0001B781BB3204B00221A7404281AD8DFE8F6
:10B9F00000F00314110C07001B48FFF755FF1CE073
:10BA000001211948FFF776FF17E000211648FFF7DC
:10BA100071FF12E00DF0E6F90FE000F0B9F90DF05A
:10BA20001BFA0AE07846FBF723FE06E000F090F9E7
:10BA30000D4B18601846FFF7E3FE0B4B1B7C023BD7
:10BA4000DBB2012B08D9084B1B7C022B08D006481F
:10BA500000230371103008BD0348FFF795FFF2E79C
:10BA6000014B01221A76F2E77C3A0020AD3A002021
:10BA7000AC3A002008B50438042814D8DFE800F0F8
:10BA8000182614030E00164B1B7E012B0BD1FFF75B
:10BA90008FFE40B17846FBF7EBFD04E0104B00222F
:10BAA0001A760DF037FA08BD7846FBF7E1FDFAE7A4
:10BAB000FFF782FE0B4840F6D8638360FFF77AFEFB
:10BAC0000028F0D07846FBF7D3FDECE70548FFF7F8
:10BAD00071FE0028E7D07846FBF7CAFDE3E700BF18
