:020000022000DC
:1060000000F000206D630200556302005763020038
:10601000596302005B6302005D6302000000000040
:106020000000000000000000000000005F630200AC
:106030006163020000000000636302006563020008
:106040006763020067630200676302006763020020
:106050006763020067630200BD70020067630200AD
:106060006763020067630200AD54030067630200C8
:1060700067630200676302006763020067630200F0
:1060800067630200E9D9030061B60200676302009A
:10609000B9DA030067630200DD7F03006763020073
:1060A00067630200676302006763020067630200C0
:1060B0006763020067630200000000000000000048
:1060C00067630200676302006763020067630200A0
:1060D000676302006763020067630200000000005C
:1060E00000000000000000000000000000000000B0
:1060F00000000000000000000000000000000000A0
:10610000000000000000000000000000000000008F
:10611000000000000000000000000000000000007F
:10612000000000000000000000000000000000006F
:10613000000000000000000000000000000000005F
:10614000000000000000000000000000000000004F
:10615000000000000000000000000000000000003F
:10616000000000000000000000000000000000002F
:10617000000000000000000000000000000000001F
:10618000000000000000000000000000000000000F
:1061900000000000000000000000000000000000FF
:1061A00000000000000000000000000000000000EF
:1061B00000000000000000000000000000000000DF
:1061C00000000000000000000000000000000000CF
:1061D00000000000000000000000000000000000BF
:1061E00000000000000000000000000000000000AF
:1061F000000000000000000000000000000000009F
:10620000344935480A1A02D0072291438D46334952
:1062100033480A1A06D00722914381F309880222E3
:1062200082F314882F483049304A00F042F8304851
:106230003049314A00F03DF830483149314A00F0E8
:1062400038F831483149324A00F033F831483249A0
:10625000324A00F02EF832483249334A00F029F829
:1062600032483349334A00F024F833483349002296
:1062700000F02AF832483349002200F025F832486D
:106280003249091A082902DB0022026041601F48D6
:106290001F49884205D00268043003B4904703BC0C
:1062A000F7E700208646EC4600200021284A904768
:1062B000FEE7884207D0521A05D0037801300B70F0
:1062C0000131013AF9D17047884202D002700130A1
:1062D000FAE7704700F0002000E8002000F00020FE
:1062E00000F00020780D0400F02D0020782E002012
:1062F000A0630200A06302001AE30300780D04000B
:10630000F02D0020F02D002090E6030090E6030021
:1063100090E6030090E6030090E6030090E6030099
:1063200090E6030090E60300780D0400000E0400E0
:10633000782E0020782E0020782E0020DC5C0020B3
:10634000DC5C0020DC5C0020DC5C0020DC600020E9
:10635000696A0200FEE7FEE7FEE7FEE7FEE7FEE70A
:10636000FEE7FEE7FEE7FEE700F002B8FFF7FCBF3E
:1063700008484FF00701884385460748804707488B
:10638000016841F470010160BFF34F8FBFF36F8F5D
:10639000FFF736BF00F00020C582030088ED00E063
:1063A00041DF7047012A07B518D0022A2BD0002AF6
:1063B00038D1204B1B6859040DD51F4B1B68032B8C
:1063C00009DD1E4B1E4AD3F804350092BC221D493C
:1063D000042006F00FF903B05DF804FB0622322119
:1063E0004FF4F01000F0D4FD124B1B685A04F2D5A4
:1063F000114B1B68032BEEDD104B134AD3F8043509
:106400000092C122E3E70B4B1B685B04E3D50A4B08
:106410001B68032BDFDD094B0C4AD3F804350092CF
:10642000C522D4E70A4AC921032003B05DF804EB72
:1064300012F08FB82C2E0020282E002000100140D2
:106440003FE7030038E703005FE703007FE703004F
:10645000B0E6030070B5954D2B685B0488B000F181
:1064600001040FD5924B1B68032B0BDD914B924A15
:10647000D3F8043591490092019440F201120420AE
:1064800006F0B8F8013C052C15D8DFE804F0033C11
:106490000E47344D8A4AB2F900308A498B422CDBD0
:1064A000A3F51C53103B1BB228E0874A1368A3F5E1
:1064B0001C53103B136004F063FA844A13681060A5
:1064C00003F5371303F5D86383423FBF7E490B7949
:1064D00001330B7164264FF4FA63CDE906362B685D
:1064E00003F48043062C00F2CF80DFE804F0222280
:1064F0005F5F8686B300764ACDE7764B138093784C
:1065000001339370D7E76E4AB2F9003045F6EE01D9
:106510008B420BDC03F51C531033C4E76A4A136843
:1065200003F51C531033C5E7694AEDE747F6FF73DF
:10653000E4E7CBB15E4B1B68032B15DD5D4B4FF4DD
:10654000FA626424D3F80435CDE903245C4A9178D7
:106550000291B2F9002001925F4A0092574940F23D
:106560003B12042006F046F85C4E5D4C327838232E
:106570005343E05A0CF058FB30785149C0EBC0004F
:1065800006AA04EBC00017F0A3F8082800F2E18087
:10659000082800F2E080DFE810F08700DE00DE006F
:1065A000DE00AD00DE00DE00CA00AD00C3B1404B2E
:1065B0001B68032B14DD3F4B4FF4FA626420D3F8C1
:1065C0000435CDE90320404A117902911268019205
:1065D000444A009239494FF4A272042006F00AF8A6
:1065E0003E4B3F4C18783849C0EBC000002306AA48
:1065F00004EBC00017F0B0F8C7E7CBB12C4B1B6819
:10660000032B15DD2B4B4FF4FA626421D3F80435CC
:10661000CDE903212E4A91780291B2F9002001922E
:10662000314A009225494FF4A772042005F0E2FF99
:106630002A4E2B4C327838235343E05A0CF0F4FAAC
:1066400030782349C0EBC00006AA04EBC00017F065
:10665000BFF89AE721490A780132D2B2022A28BF4C
:1066600000220A7003B3124B1B68032B1CDD114B75
:10667000D3F8043501921D4A00924FF4AC720F49D1
:10668000042005F0B7FF0FE073B1094B1B68032B23
:106690000ADD084B164AD3F8043508490092042055
:1066A0004FF4AE7205F0A6FF08B070BD2C2E00208E
:1066B000282E002000100140A1E7030038E7030066
:1066C000FA2E002011A7FFFF7C2E0020002F0020B3
:1066D000F62E00200080FFFFB4E70300782E002094
:1066E000842E002011E8030075E80300D5E80300BC
:1066F00014EB03002B685A0412D51A4B1B68032BAA
:106700000EDD194B194AD3F8043502901278019224
:10671000174A009217494FF4B472042005F06AFF3B
:10672000062232214FF4F01000F032FCBCE72B6857
:106730005B04B9D50B4B1B68032BB5DD0B4A0A4B29
:106740001278D3F8043501920B4A00924FF4BA72D2
:1067500095E71128CED0094A4FF4BC7111F0F9FE2B
:10676000A2E700BF282E002000100140782E002054
:10677000F7E8030038E703001AE90300B0E6030076
:106780001B4B1B685B0437B50ED51A4B1B68032BDC
:106790000ADD194B194AD3F804351949009204202F
:1067A0004FF4C67205F026FF164C174D65630023A3
:1067B00001212046E362238616F060FF20B1134AD0
:1067C00040F2951111F0C5FE00231148E566022143
:1067D0006366A4F8683016F051FF38B10B4A40F2F6
:1067E000951103B0BDE8304011F0B3BE03B030BD29
:1067F0002C2E0020282E00200010014044E9030028
:1068000038E70300842E002008EB0300B0E6030005
:10681000BC2E002007B50378232B1CD10F4B1B681F
:106820005B040DD50E4B1B68032B09DD0D4B0E4A87
:10683000D3F804350D4900920420E12205F0DAFE78
:106840000322C8214FF4F01000F0A2FB03B05DF862
:1068500004EB08F0C9BE03B05DF804FB2C2E002049
:10686000282E00200010014064E9030038E70300EF
:1068700010B5044600214FF4F01004EB840400F03E
:106880007DFB62003221BDE810404FF4C01000F0E3
:106890007FBB00F0AFBB00001FB503A80DF0BCF933
:1068A0000B4B1B685B0410D50A4B1B68032B0CDDDC
:1068B000094BBDF80C20D3F804350192074A009229
:1068C00007499722042005F095FE05B05DF804FB0A
:1068D0002C2E0020282E0020001001407DE903000E
:1068E00038E70300144B1B685B0407B50DD5134B49
:1068F0001B68032B09DD124B124AD3F804351249E9
:10690000009204209C2205F075FE00F085FD00F049
:10691000A1FDFFF7C1FF00F06DFB00214FF4F01067
:1069200000F02CFB0422C8214FF4F01003B05DF8F6
:1069300004EB00F02DBB00BF2C2E0020282E0020E1
:106940000010014094E9030038E703000A4B1B687C
:106950005B0407B50DD5094B1B68012B09DD084BFE
:10696000084AD3F80435084900920220AE2205F007
:1069700041FE03B05DF804FB2C2E0020282E0020E1
:1069800000100140AEE9030038E703007FB51B4B60
:1069900050681B6803F48043D0B1B3B1184B1B6837
:1069A000032B12DD174BD3F804350490B2F9020023
:1069B0000390B2F9002002924A880192124A009292
:1069C0001249D522042005F015FE07B05DF804FB3E
:1069D000002BFAD00A4B1B68032BF6DD094BB2F9EA
:1069E0000020D3F8043502924A880192084A0092A6
:1069F0000649DA22042005F0FDFDE6E72C2E0020F2
:106A0000282E002000100140CDE9030038E70300E4
:106A10001FEA030007B53138062804D803B05DF833
:106A200004EBFFF717BD0B4B1B685B040ED50A4B3D
:106A30001B68032B0ADD094B094AD3F804350949C1
:106A4000009204204FF4C37205F0D4FD03B05DF84A
:106A500004FB00BF2C2E0020282E00200010014037
:106A600014EB030038E7030000B55E4E5E4A46F2C1
:106A700001008DB0042105F0A1FD336858040ED546
:106A80005A4B1B68032B0ADD594B5A4AD3F804357D
:106A900059490092042040F2B51205F0ABFD17F001
:106AA0005BF920B1554A40F2B71111F052FD00F0E8
:106AB000B1FA534800F0DAFA20B1504A40F2BB1163
:106AC00011F047FD00F080FC00F0A6FC00F0C2FCD5
:106AD0000021202203A817F099FB01238DF80C3028
:106AE00007238DF80F3006238DF81430454B07939C
:106AF0004549464B0B9303A808F038FDC8B10B2855
:106B000067D13368590414D5384D2B68032B10DD39
:106B1000374C3F4AD4F804353749009204204FF4EB
:106B2000D47205F067FD33685A0402D52B68032B35
:106B300044DC3848642100F0C1F9334B1B78002B4A
:106B40004DD1354D0FCD03AC0FC495E8070084E857
:106B5000070003A800F05AF920B1284A40F2D911E1
:106B600011F0F7FC00F07AFD00F0DAFA08F089FC89
:106B700020B1224A4FF4F17111F0EBFC33685B0451
:106B80000ED51A4B1B68032B0ADD194B234AD3F889
:106B900004351949009204204FF4F27205F02AFDE1
:106BA00000214FF4F01000F0E9F90222C8214FF45F
:106BB000F01000F0EDF9FFF7F3FBFCE7184AD4F80A
:106BC00004350D490092042040F2A91205F012FD8F
:106BD000AFE70A4A4FF4D77111F0BBFCA9E7FFF702
:106BE0005BFEBFE72C2E002091C50200282E00205E
:106BF0000010014048EA030038E70300B0E6030054
:106C00005564020015680200F42E0020816702001E
:106C100072EA0300156A0200ECEA030014EB0300B9
:106C2000C0EA030069DF704730B5304D297887B07E
:106C300019B1012803D0032850D007B030BD00247B
:106C400001A9019411F086F808B111F075FC40F229
:106C500011130394019AADF80C3003A94FF4881373
:106C6000412004940593FFF7DDFF08B111F064FCA7
:106C700001A811F0C5F808B111F05EFC1C4C2368A6
:106C800003B19847012302A90DF1020002930DF010
:106C900059FB08B111F050FCBDF802000DF0D2F81C
:106CA0000DF101010DF0E0F908B111F045FC09F01A
:106CB00063FB9DF80110002009F000FF10B1784639
:106CC00000F096FC03F08CFB08B111F035FC0023BA
:106CD0002B706368002BB0D09847AEE711F0FCF83A
:106CE0000028AAD011F028FCA7E700BF062F00203B
:106CF000082F002008B503781C2B0CD1064B1B78FD
:106D00004BB111F027F908B111F016FCBDE80840AD
:106D1000024803F0C7BB08BD062F0020F02D00205D
:106D200010B50749074811F0B7FF024638B90649C0
:106D300006484969BDE81040032311F0C6BF10BDE5
:106D4000242F002090320020082F00205C310020EA
:106D500010B50378023B082B4AD8DFE803F01E0584
:106D60001249493849493F00224B9B68002B3FD0CC
:106D7000007A00283CD0204A0121BDE81040117063
:106D800018471C4BDB68002B32D01B4A117879B3B3
:106D90000021BDE8104011701847184B1A784AB905
:106DA000144B1B6913B114490A709847BDE8104091
:106DB000FFF7B6BF124B134801221A7003F070FBA5
:106DC00003F056FBA0B1BDE8104011F0B5BB094B74
:106DD0000D489969102211F0BDFFF3E7D0E90210C8
:106DE00008F05CFB08B111F0A7FB044B01221A70FC
:106DF00010BD00BF082F0020042F0020052F002009
:106E0000062F0020F02D00205C31002070B51C4AB8
:106E10001C4E5168044686B0106803AB03C3118949
:106E2000927A19809A700FCC35460FC594E8070006
:106E300085E80700B36903B3134B0093134A144961
:106E4000144803AB11F0F4FEA8B9134813F00CFA80
:106E50000146104811F00CFF68B9104813F060FBB0
:106E600048B90E4813F08EFB01460A4811F000FFA6
:106E700008B9FFF755FF06B070BD0720FBE700BF5C
:106E800098EF0300082F0020516D0200242F0020EE
:106E9000903200205C310020442F00200C31002073
:106EA00010B5054C226832B10FF086FB002802DBDA
:106EB00023689847F8E710BDD0320020154B164ADA
:106EC00010B50C4618600121144816F0A5FF18B142
:106ED000134A4A2111F03DFB610C0023E00341F20B
:106EE0006F728B4208BF824210D24FF47A72002335
:106EF00017F02AF801460B48002216F09FFF38B120
:106F0000BDE81040064A4B2111F023BB0521F2E7F2
:106F100010BD00BFD0320020A16E020014F00300AB
:106F2000A3EF0300D432002070B5104C206808B9DC
:106F300011F002FB4FF0A0450D4ED5F80435326834
:106F40005340C5F804352368013B236063B9094801
:106F500016F0C0FF3268D5F8043523EA0203064A6A
:106F600012681343C5F8043570BD00BFF432002029
:106F7000F8320020FC320020243300204FF0A043E0
:106F800011B1C3F80C057047C3F80805704700003D
:106F9000F8B52AB3132923D9124B134C5200013AE6
:106FA0004FF0A0451A602060D5F8043518400F4B0B
:106FB0004FF4FA76186000274FF40040E0FB0167B9
:106FC0004FF47A7200233046394616F0BDFF002296
:106FD0000146074816F032FF10B92368C5F80C3592
:106FE000F8BD00BFF4320020F83200202433002026
:106FF000FC32002008B5054816F06CFF044B1A68F7
:107000004FF0A043C3F8082508BD00BFFC320020A4
:10701000F832002008B54FF0A04303224FF40031AE
:10702000C3F84427C3F808154FF48021C3F8482754
:10703000C3F808154FF40021C3F84C27C3F808150E
:10704000C3F850274FF48012C3F808250548064AB4
:10705000012116F0E1FE18B1BDE8084011F06CBA4C
:1070600008BD00BF18F00300296F0200D8B10F4B14
:107070000F4A18604FF0A0430020C3F83427C3F82C
:107080003827C3F83C27C3F840270A4B4FF000428B
:10709000C3F80423C3F87C01074BC02283F80623FE
:1070A00040221A6070470E20704700BF1C3300203A
:1070B0000C0003000060004000E100E0F8B5134B55
:1070C000134D144E144F0024C3F87C414FF0A043DD
:1070D00015F8011BD3F8102501238B40934310D0E2
:1070E0003368D7F80425991A48BFD11A43F23333CD
:1070F000994206D9D7F804353360084B20461B68FF
:1071000098470134042CE1D1F8BD00BF0060004075
:107110001CF0030020330020001001401C3300202D
:10712000F0B50446CFB038B12D4D2B685A0403D5C5
:107130002C4E3368032B01DC4FB0F0BD2A4B1F6887
:107140000DAB411E00F10F0C184611F8012F4FEA4C
:10715000121E02F00F0217F80EE083F800E0BA5C8E
:107160005A70614503F10203EFD100231F4F80F8ED
:1071700020301F4AD7F8043501921E4A029000922F
:107180001D494222042005F035FA2B685B04D3D553
:107190003368032BD0DDE27B2168D7F804350B92EE
:1071A000A27B0A92627B0992227B0892E27A079282
:1071B000A27A0692627A0592227A0492E28852BA00
:1071C00092B20392A28852BA09BA92B2CDE90112E0
:1071D0000A4A009208494322042005F00BFAABE763
:1071E0002C2E0020282E0020302E002000100140E0
:1071F00096F00300A8F0030085F00300B0F0030050
:1072000072DF704773DF704774DF70472DE9F04716
:107210000F463049304D0B78304C0646304890468A
:10722000C3EB4312154401330244A2B04FF0000AED
:1072300003F00103A2601F220B70C4F804A0C4F87D
:107240000CA0A280A28151463C2204A8256016F021
:10725000DDFF062301AA8DF813300E9201233C2294
:10726000514604F1040913A88DF80230ADF820301E
:107270008DF83C30ADF80060CDF824D0ADF8046056
:10728000ADF80880039716F0C1FF02234A4629464D
:1072900004A88DF84C3010F02DFB08B111F04CF91A
:1072A000104AA16813A810F025FB08B111F044F9A9
:1072B0000D4A0A490D48FFF7A3FF082804D10749E2
:1072C0000A480022FFF79CFF08B111F035F922B0FF
:1072D000BDE8F087283300202933002068330020E0
:1072E0007833002074330020002E0020FC2D002075
:1072F000B0F5202F0AD20A23B0FBF3F310B1012B13
:1073000038BF0123034A9381916070474FF6FF73A2
:10731000F5E700BF002E002008B5064B01211878C4
:10732000FFF770FF08B111F007F9BDE80840002031
:1073300003F0C4BEFC2D002008B5054B1878FFF7FC
:1073400063FF18B1BDE8084011F0F6B808BD00BFF2
:10735000FC2D002076DF70477ADF70477CDF7047B6
:1073600069DF704711F0E8B803F09EB807B50378FD
:107370004BB940883B21FFF7EDFFC0B103B05DF88A
:1073800004EB11F0D9B8012B11D10A4B1B685B0437
:107390000DD5094B1B68032B09DD084B084AD3F8B0
:1073A0000435084900920420682205F023F903B04F
:1073B0005DF804FB2C2E0020282E00200010014038
:1073C0006EF1030055F103001FB510F085FD08B103
:1073D00011F0B2F8002469460120009410F0BAFCC4
:1073E00008B111F0A9F840F211130194009AADF818
:1073F000043001A94FF48813412002940393FFF74E
:10740000AFFF08B111F098F8684610F0F9FC08B128
:1074100011F092F804B010BD1FB511220B498DF880
:10742000042001A8FFF79AFF08B111F085F8084A77
:107430004FF0C87302A8CDE90223FFF78DFF08B112
:1074400011F07AF805B05DF804FB00BF9AF1030073
:107450007800C80000B5124A8BB04FF0C873CDE970
:107460000123002301AACDE90633039240F6CD4162
:107470004FF48032ADF81A308DF81C30094B089368
:10748000CDE90412084B0993032203A88DF81820B4
:1074900010F0A4FE08B111F04FF80BB05DF804FB3A
:1074A0007800C8006D730200657302000620704703
:1074B00030B5454B44F201051B68A84287B004462D
:1074C00003F4804365D017D801282ED041F2010083
:1074D00084424DD0002B38D03C4B1B68002B34DD50
:1074E0003B4B3C4AD3F80435019100923A497B2248
:1074F000012005F07FF828E044F202008442E9D13F
:107500001BB3324B1B68002B1FDD314B1068D3F8C7
:10751000043503905268CDE90112304A00922E4999
:107520006922012005F066F80FE073B1274B1B6854
:10753000002B0ADD264BD3F80435CDE90112284A89
:1075400025490092602205F055F84FF0A0434FF412
:10755000F012C3F81825C3F80C25EFF3108372B6A8
:107560004DF6AD6C1F4A1378002B2AD107B030BD01
:10757000002BEAD0154B1B68002BE6DD144BD3F82B
:107580000435CDE90112184A009213496322012003
:10759000D9E7002BD9D00D4B1B68002BD5DD0C4B48
:1075A0001068D3F8043504905068CDE90210926851
:1075B00001920E4A009208497322012005F01AF840
:1075C000C3E730BFCFE700BF2C2E0020282E0020BD
:1075D000001001409EF2030011F203005EF203006E
:1075E00022F20300182E00203CF203007DF203007B
:1075F00007B50023014600936A46044B019344F209
:107600000200FFF755FF03B05DF804FB35F60300F9
:10761000044B00F1100250F8041B43F8041B904285
:10762000F9D17047B63300200A4A0B4B03CA5960A0
:1076300018603C3203CA9A79986002F00F0242F057
:1076400040029A711A7AD96002F03F0262F07F021A
:107650001A72704760000010B6330020004870476F
:10766000B63300200022064913460132202A4B80FF
:107670004B6001F8083BF8D1024A1360704700BF25
:10768000C8330020C83400200C4BF0B51B680C4DEB
:10769000044620227BB1013B15F8330050B105EBC5
:1076A000C3067788A74202D176688E4202D0013A9B
:1076B000F0D11046F0BD1F23EEE700BFC834002014
:1076C000C8330020094A30B51368094C04EBC305E0
:1076D0001F2B69604FF0010104F83310194408BFF3
:1076E0000023688014BF1160136030BDC8340020CF
:1076F000C8330020C0F30C038B42084438BFA0F508
:107700000050C01A704700000D4B0E4AF0B51E68BD
:1077100000218E4212D0156800230AE052F8044C72
:1077200004EBC30714F83340844201D17868F0BDFC
:1077300001339D42F2D101310832EAE70020F6E739
:10774000543500205C35002000B58DB048B9991C37
:1077500007D0012101A8CDE902328DF8041001F013
:1077600091F9034B186803F0A1FE0DB05DF804FB1E
:1077700060350020037810B5044613B97846FFF74A
:1077800037FF607A431C01209840013810BD2DE975
:10779000F0410E468EB015461C46074610B9784695
:1077A000FFF726FF16B97846FFF722FF636AA27833
:1077B00002330593E378A2F10800002B14BF0121E6
:1077C00002210DF1040842424241434604F10C00FB
:1077D00003F0B7FFA3788DF83430237BADF8205049
:1077E000022B16FA85F5CDE906870B960C950FD17D
:1077F000236913B97846FFF7FBFE23690993102329
:1078000005A8ADF8283003F098FF0EB0BDE8F08170
:107810000023F5E7B2F5C07F2DE9F84F824689468F
:10782000904602D97846FFF7E3FE284B00269B4698
:1078300093F848705FB9404607F011FE702404FBCE
:1078400006B4E06648B900242046BDE8F88F01364A
:10785000042E03F17003EBD1F5E7D446BCE80F002A
:1078600025460FC5BCE80F000FC59CE80F00B9F115
:10787000010F85E80F00E764A4F84A801BD1144B80
:10788000A4F852701B7D84F8513084F85070DAF8F7
:10789000283063656FF00103A3620E4BA4F85870A3
:1078A000A3632464012002F0B9F9702303FB06B638
:1078B00086F84890C8E76FF00103A362064BA36502
:1078C00084F86870054B2466EAE700BF7C35002029
:1078D00064350020857F02000D8502007D7F020057
:1078E00010B50446C06E07F0BCFD04F1300003F093
:1078F00007F894F84830022B03D104F1500002F04D
:10790000FFFF20467022002116F080FC002084F842
:107910004800BDE8104002F081B910B590F8483039
:10792000012B8CB0044602D07846FFF761FE01239C
:107930008DF80430636D029303F022F8039001A8E0
:1079400001F0A0F82046FFF7CBFF0CB010BD10B53A
:107950000446808A02F010FC01281CD1237BD3B19D
:1079600094F91620002A18DBE27D5AB1022B12D0BE
:1079700094F90330002B10DBA378002B0CBF002000
:10798000072010BDE2780AB9012B06D1237833B95C
:10799000A378042BF2E71020F3E70720F1E700209B
:1079A000EFE700001FB500230A468DF80F30E0B165
:1079B000023008600DF10F01104603F0C0FE9DF883
:1079C0000F3093B10B4B1B685B070ED50A4B1B683E
:1079D000032B0ADD094B0A4AD3F804350949009202
:1079E000042040F2154204F005FE9DF80F0005B09A
:1079F0005DF804FB2C2E0020282E002000100140F2
:107A000022F3030016F3030070B50446D4E906120E
:107A10002378808A8CB0D3B1E38805F0B1FD0546A8
:107A200090B1A68AE4692C22002101A816F0EEFB91
:107A300004F001040F2301A88DF80430ADF80860AC
:107A4000ADF80A4001F01EF828460CB070BD05F0F4
:107A500093FDE4E72DE9F04F98461378D2F818A08B
:107A6000F3B006460D46144623B1D1885046FFF7C1
:107A700041FE9061E378A278002BA2F108000DF19D
:107A80000C0914BF0121022104F10C0742424B46AC
:107A90004241384603F055FEA3788DF83C30ADB234
:107AA000E81A80B2CDE90896E378C4F818A0064435
:107AB0000E964FF0000912AEADF828000D96ADF805
:107AC0003090002B5BD04FF0100B04F1240A237B85
:107AD000C4F82490022B02BF2369ADF830B00B9399
:107AE000206A217952460CF047FF606AE0B9237B97
:107AF000022B05D1E08939460DF000F80028E6D1C7
:107B00002E4B1B685B0737D52D4B1B68052B33DDD0
:107B10002C4B2D4AD3F804352C490092062040F214
:107B2000017204F067FD27E007A9FFF73BFF00287B
:107B3000D6D02046FFF768FFF0B9A1780B906D1AF8
:107B40008DF81C0097E80300A38AADF82A300122C3
:107B50000CAB8DF8282083E80300A37D8DF840301E
:107B6000236A0E9307A8636A0896ADF824500F9312
:107B7000CDF8448000F086FF73B0BDE8F08F227B23
:107B8000012ABDD1A146E089B4F814A049F8243FE8
:107B900049460CF033FF606A07A9FFF703FF00288E
:107BA000C7D16062494650460CF028FF606A07A9B9
:107BB000FFF7F8FE0028A3D0BBE700BF2C2E002063
:107BC000282E00200010014035F3030016F30300B7
:107BD000C37D0A7830B56BB3C37822F07F0203F01F
:107BE0007F031A430A700B78027803F07F0343EA9D
:107BF000C2130B700378E3B18378083B5A425A41B1
:107C00004B7803F07F0343EAC2134B70C58823F01F
:107C10007F03C5F3861423434B70047AC4F3C10277
:107C200042EA85028A70437A03F01F0343EA441351
:107C3000CB7030BDC47822F0400343EA8413DBB23A
:107C40000B70027923F03F0302F03F0213430B70E5
:107C5000C9E72DE9F04F824689B00D4609B10022EF
:107C60000A600AF10C039AF85040019301274FF083
:107C7000000B9AF80900A04203D2002009B0BDE829
:107C8000F08FDAF84C1007FA04F20A4264D19AF83D
:107C90001720019B8AF80840002A0CBF0C260826F2
:107CA00084429AF80020029306FB04F908BFBAF850
:107CB0004A608DF818B008BFA6EB0906002A14BF69
:107CC0004FF004084FF0010806EB08020492DAF8BE
:107CD0002820039202A8DAF82C20059203F0D5FEA2
:107CE0000028CBD1079A904454B99AF853203AB956
:107CF000DAF818208AF85370C2F30C02AAF80620AA
:107D00009AF817209AB99AF8522082B914B1784695
:107D1000FFF76EFCBAF84A109AF802208A1ADAF8CD
:107D20006C1053460846FFF732FD8AF852700799E7
:107D30005046FFF74DFFDAF86C1032464944404692
:107D400016F03BFA02A803F0C1FE15B12A68013211
:107D50002A60621C8AF850200134E4B289E70000EE
:107D600038B590F84830012B044602D07846FFF72A
:107D70003FFC02F005FE237B074A012B05BFD2E939
:107D80000315A37DD16805FB0311014404F1300004
:107D9000BDE8384002F0CBBD64350020F0B5C37DAE
:107DA00016468278002B324414BF4FF480734FF490
:107DB000C0739342C7B00F466BD3394B002493F87E
:107DC0004810012907D19D8A818A8D4203D1DD891E
:107DD000C1898D425FD00134042C03F17003EED1D0
:107DE0000121FFF717FD054600283BD032463946F2
:107DF000C06E16F0E2F9002304A928460493FFF7A9
:107E000028FF30F0040406463ED1049B13B12846F7
:107E1000FFF7A6FF234B1B6813F004033DD0224B52
:107E20001B68032B1EDDB5F84A00204B802805AAED
:107E30001F6828BF802000231646834202F10202F9
:107E400013D1002206F81320194B1A4AD3F804352F
:107E50000192194A0092194902964FF4AC6204202B
:107E600004F0C8FB204647B0F0BDE96EC95C4FEA9C
:107E7000111C01F00F0117F80CC002F802CC795C5C
:107E800002F8011C0133D8E72846FFF729FD3446E4
:107E9000E8E70924E6E70824E4E71C46E2E700BF38
:107EA0007C3500202C2E0020282E0020302E002093
:107EB000001001405EF30300A8F0030016F3030076
:107EC000F0B50D4691B0044610B97846FFF790FB27
:107ED00094F84830022B18D1E188A069FFF70AFC1A
:107EE0001F4AE16913680F0A0E06591C11601D4AEA
:107EF000361803F007034FEA031147F1000702EBBE
:107F00000313A08A5052C3E902672C22002105A85E
:107F1000666D16F07BF9102305A88DF814300696CF
:107F20008DF81C5000F0AEFD2046FFF7D9FC0E4B3B
:107F30001B685B0712D50D4B1B68032B0EDD0C4B2A
:107F40000C49D3F80435029594F8482001920A4A66
:107F50000092042040F2F31204F04CFB11B0F0BD8B
:107F600050350020D03400202C2E0020282E002058
:107F70000010014016F303006CF3030008460021D3
:107F8000FFF79EBF10B591F84830012B0C4602D088
:107F90007846FFF72DFB94F851305BB1013B84F834
:107FA0005130002384F85030084BBDE81040186869
:107FB00003F07CBA217B0129204603D1BDE81040A3
:107FC000FFF77EBFBDE81040FFF7A7BC603500207B
:107FD0002DE9F04306468FB010460F4615469846E9
:107FE000FFF712FD0446002855D195F80390B9F12A
:107FF000000F40F08180062F4DD137787378BA0199
:1080000002F4FE5242EA93024B4B184693F8481092
:10801000012928D1B3F814C0E9898C4523D1D98826
:10802000914220D1B3F858C0A98ABCF1000F01D009
:108030008C4518D117F0800FD6F802204FF070034E
:108040002CD003FB0403A3F8581013BA702202FBD0
:108050000404E56C1D43E564002B3AD1032120465E
:10806000FFF72EFF17E00134042C03F17003CDD18C
:10807000324B1B685B070ED5314B1B68012B0ADDA9
:10808000304B314AD3F8043530490092022040F297
:10809000776204F0AFFA0FB0BDE8F08303FB04038E
:1080A000DD898D42D1D0254B1B685A07F3D5244B6F
:1080B0001B68012BEFDD234B254AD3F804350092D2
:1080C000CDE9015140F27B622049022004F092FA8E
:1080D000E1E72046FFF74EFB854203D12046FFF73C
:1080E0001CFCD8E7002184F850102046FFF7B1FDB2
:1080F0002046FFF735FECEE74846FFF705FB024670
:108100000028C8D0D5E903012B6A0B93AB8AADF8E0
:10811000223009AB83E80300AB7D8DF830302B783B
:108120008DF82030EB6A8DF81490CDE906670D9339
:10813000414605A89047AEE77C3500202C2E002054
:10814000282E0020001001408FF3030016F30300D7
:10815000BDF30300F0B50F46C17D8378002989B0D7
:10816000134414BF0B210F218B42044601922DD8DA
:10817000014611F80C0B0291002814BF04260126B9
:1081800033440493A36A0393E36A059302A800238C
:108190008DF8183003F079FC054670B90799204630
:1081A0000E44FFF715FDE37D019A4BB13946304689
:1081B00016F003F802A803F089FC284609B0F0BDC8
:1081C000234631463846FFF7E2FAF3E70925F4E79C
:1081D00010B54FF4E0720021134816F017F8002490
:1081E00005F0B6FA114B12481C602146802216F0A9
:1081F0000DF8104B1049114A11489C75C3E9001243
:1082000010494CF25032C3E902211A6140F60402CF
:108210009A8203F02DF90C4B18600C4B0C481C6033
:10822000BDE8104005F07CBB7C35002050350020B7
:10823000D03400206435002080969800F049020078
:10824000B989020020A107006035002054350020C4
:108250004977020005F088B930B504468FB0002890
:108260006DD00369002B6AD0C369002B67D0856984
:10827000002D64D05A788DF80C201A780B93838ADD
:1082800082F001020B2B8DF80B20027B09D9012112
:10829000022A8DF8081001D12A4A927D5AB9042287
:1082A0000AE0C17A0029F2D1012A0CBF0122002282
:1082B0008DF808203CD1082213448DF80A200B3396
:1082C0000C22B3FBF2F3013B8DF8113000238DF843
:1082D000103094E8030000238DF81F3005AB83E8CD
:1082E00003002389ADF81C30A37A8DF81E30236A71
:1082F0000C932046DF230A950D930CF09FFC28B1C8
:108300002378012B14BFFF2320230D932169A28A18
:10831000019102A80092FFF71AFB38B99DF80830C6
:10832000DDE9002102A83BB1FFF738FD0FB030BDF9
:1083300004238DF80A30CCE7FFF70CFFF6E70E2098
:10834000F4E700BF6435002070B50D4692B00446D6
:1083500000285AD04368002B57D08269002A54D095
:1083600000230F93836806788DF81B600B2B94BF56
:10837000017B012101F001008DF8180000208DF82B
:108380001A0031B10733DB08013B8DF821308DF83D
:108390002000D4E9040101238DF82F3009AB83E8D4
:1083A0000300E389ADF82C30237F8DF82E30236A4B
:1083B0000E92CDE91053164B1B685B0710D5154B79
:1083C0001B68062B0CDD144B1449D3F80435CDE99A
:1083D0000162134A0092072040F6030204F00AF9F2
:1083E0006168A268059106A80492FFF7B0FA38B94F
:1083F0009DF81830DDE9042106A81BB1FFF7CEFC7B
:1084000012B070BDFFF7A6FEFAE70E20F8E700BF36
:108410002C2E0020282E00200010014016F303000F
:10842000FEF3030030B5037B012B91B004460D46EB
:108430005DD1304B1B685B070ED52F4B1B68032BA0
:108440000ADD2E4B2E4AD3F804352E490092042023
:1084500040F2632204F0CEF8E28891008DF811100A
:10846000290E8DF81210290C8DF813106178002355
:10847000022914BF19468021C2F3861242EA010282
:108480008DF810204FF0060209924FF001028DF88E
:108490002C20A28AADF82E2004AACDF816308DF833
:1084A0001A306DBA0C938DF81C3008928DF8283074
:1084B000226AE36AADF814500D920F9315D10DF1B5
:1084C0000E0103A80CF0AAFBBDF80C30ADF82A3061
:1084D000A37D0BB10C4B5B7D8DF838306FF0010143
:1084E00007A8FFF731FF11B030BDE389EEE70020A8
:1084F000F9E700BF2C2E0020282E0020001001409C
:1085000029F4030016F303006435002010B591F838
:108510004830022B0C4602D07846FFF769F8022358
:1085200084F8683094F84830022B06D1E16C20467C
:10853000FFF778FF08B984F8680010BD2DE9F04F07
:108540000D469DB0174698460446002800F031823B
:10855000002A00F02E8221B9092630461DB0BDE860
:10856000F08F134613AE02F1180C186859683246A2
:1085700003C2083363451646F7D1237894F90010F7
:108580000020DA0981428DF84020B4BF0422012284
:1085900095428DF84100DFD39DF85760EEB103F0AE
:1085A0007F0381428DF843308DF842002EDA6278E5
:1085B000A378920102F4FE5242EA9302ADF84620FB
:1085C000DB00E27803F0180343EA521302F01F02C3
:1085D0008DF848308DF8492018E0C3F38010002949
:1085E00003F03F038DF843008DF8443008DA94F926
:1085F0000130002BB4BF082304238DF84230D6E7A6
:1086000004231A4495428DF84230A5D300231993D0
:1086100098F80030032B02D97846FEF7E9FF98F866
:108620000020C84B10A853F822301B93FFF78FF996
:108630000646002891D1CDE9030003A978880CF003
:108640005DFA28B19DF8413043F001038DF84130C7
:10865000D7E90312388904F0C1FF002855D19DF8ED
:108660004130002B3FF479AF13F001031CBF049A93
:1086700014929DF84020002A00F08981BDF8461030
:108680001698FFF737F8179BBDF854C0AE494FEA6C
:10869000036A4FEA132B1AEB000A4FF000074BF165
:1086A000000B0B88634506D1D1E902239B4508BF27
:1086B00092453FF452AF0137082F01F11001F0D17C
:1086C000A24B4FF00009184693F84820022A25D102
:1086D0009A8A624522D1702303FB0909B9F8061072
:1086E000D9F81800FFF706F8D9F81C100A06121876
:1086F0004FEA112343F100035B4508BF524535D2D1
:1087000005214846FFF7DCFB0FE09DF8413003F000
:10871000FE038DF84130002BA1D11EE709F10109BC
:10872000B9F1040F03F17003CED1DDE91612BDF8E3
:108730004630BDF8540004F07BFF002800F0BD80F7
:10874000DDE91612BDF84630BDF8540004F0A6FF6E
:1087500000283FF402AF10A8FFF70CF8014610A85C
:10876000FFF760FE10A8FFF74FF9F6E69B4508BF3C
:108770009245FFF4F2AE764B1B685B0711D5754B43
:108780001B68032B0DDD744B9DF84820D3F804358E
:108790000192724A0092724940F2A332042003F01F
:1087A00029FF99F84830022B02D07846FEF720FFC7
:1087B000DFF8B4A1DAF800B002F0E2F80BEB000148
:1087C00009F1300002F0B3F899F80C30012B1AD1FE
:1087D00099F86830BBB999F84830022B02D0784636
:1087E000FEF706FFDAE901329AF8151002FB013AAA
:1087F00002F0C6F800EB0A0109F1500002F097F808
:10880000012389F868309DF84810D9F84C300122CE
:108810008A4013EA020A7FF4A0AE1343C9F84C3031
:108820009DF8573099F80920002B14BF4FF0080E1F
:108830004FF00C0E8A42A5F104050EFB01FE40F03C
:1088400095800EEB0503A9F84A30D9F81820169B3D
:108850009A420AD20DF14C0CBCE80F0009F10C074A
:108860000FC79CE8030087E80300D9F86C00211DBE
:108870002A46704415F0A1FC4846D9F84C40FEF752
:1088800079FF84427FF469AED9F84C104846FFF76F
:10889000C9FD99F80130DA070BD599F81730D9F8E6
:1088A0006C00B9F84A10002B6CD043464A46FFF7DB
:1088B0008FFB4846FFF714F862E09DF857209DF8BB
:1088C0004930002A14BF08220C2203FB022214BFE5
:1088D0004FF480734FF4C0739A4216D91C4B1B6837
:1088E00059077FF53AAE1B4B1B68002B7FF735AE5F
:1088F000194B1B49D3F8043501921A4A0092012002
:1089000040F27F3203F076FE27E6022110A8FEF740
:1089100081FF814600287FF42EAF014610A8FFF7A3
:1089200081FD2C22494605A815F070FC10238DF816
:10893000143005A80223CDF818908DF81C3000F0F3
:10894000A1F80AE660F40300D03400207C35002052
:108950002C2E0020282E0020001001404DF4030092
:1089600016F3030039F4030064350020002B08BF20
:108970000C27BD423FF469AF04214846FFF7A0FA37
:108980000026EAE543464A46FFF764F891E7002BE4
:108990003FF4E3AD9DF85730601C691E23B1434698
:1089A00010AAFFF715FBD8E5434610AAFFF752F8C7
:1089B000D3E50E26D1E500BFF7B5184C00262546B5
:1089C000374695F84830012B0BD101A9284601976D
:1089D000FFF73FF9042801D0019B13B12846FFF7A8
:1089E000BFF90136042E05F17005EAD1002594F88F
:1089F0004830022B0AD194F86830022B06D1E16C82
:108A00002046FFF70FFD08B984F868000135042DF2
:108A100004F17004EBD1012003B0F0BD7C350020DF
:108A20002DE9F8430F46064610B3144B1C689846D0
:108A3000E4B9254600F10409BD4208D1104BC3E951
:108A400000650123C8F800302046BDE8F88359F8D6
:108A500035306BB116F9353016F83500002B09DBCF
:108A600050B1FEF751FE38B90135E5E70424EBE7D4
:108A70000E24E9E70B24E7E70F24E5E7543500204F
:108A800058350020F8B5074610B97846FEF7B0FD16
:108A90000F4E346894B10F4D01232B7023791BB90D
:108AA00054F8043C384698472468002CF6D12B78BB
:108AB000022B03D13168064C09B92970F8BD0B7936
:108AC0000E6813B1204603F01BFD3146F4E700BFEA
:108AD000403700203C37002010B5044610B97846D6
:108AE000FEF786FD00232372211D0248BDE81040D9
:108AF00003F0E5BC4037002010B5044610B97846B5
:108B0000FEF776FD074A1378013B012B04D80223B8
:108B100013700123237210BD211D0348BDE81040CE
:108B200003F0EEBC3C370020403700200B88826801
:108B3000D25A073222F00302134402889BB2043A4D
:108B4000934288BF00230B80704713B58368C91A0E
:108B5000ADF806100DF10601FFF7E8FFBDF806308D
:108B60008068184402B010BD70B5064615460C4624
:108B700011B97846FEF73CFD16B97846FEF738FD88
:108B8000B4F1005F24D94FF08053D3F80C3103F5D2
:108B90000023B4EB832F1ED26B1E2344B3F1005F7E
:108BA00026D94FF08052D2F80C2102F50022B3EB07
:108BB000822F20D2042D02D87846FEF719FD00231B
:108BC00035807380B380B460043DA370258070BD90
:108BD000B4F5000F08D94FF08053D3F80C3103F5EA
:108BE0000053B4EB832FD7D37846FEF701FDD3E7CC
:108BF000B3F5000F08D94FF08052D2F80C2102F5DE
:108C00000052B3EB822FD5D37846FEF7F1FCD1E7C3
:108C100038B5044610B97846FEF7EAFC6288A368C6
:108C200013449B78012B02D17846FEF7E1FCEFF369
:108C3000108572B6A268A18811448B78032B0AD1E3
:108C40002046FFF782FFA368C31A63800023837066
:108C500005B962B638BD002393706380A380F7E73F
:108C6000F8B50E461546044610B97846FEF7C0FC26
:108C700016B97846FEF7BCFC6288A36813449B785B
:108C8000012B02D17846FEF7B3FC002D37D02388A4
:108C9000043B9BB29D4232D8EFF3108772B66288D4
:108CA000A388E81D20F003009A4280B204D29B1AE8
:108CB000984210DD042016E018D92188891A8142D3
:108CC00009D29842F6D8032981BFA3689B180422D1
:108CD0009A70002363806288A1688B188D520122EC
:108CE0009A700020336007B962B6F8BDA2681344D9
:108CF0009B78002BDED193706380A380EBE7092083
:108D0000F3E7F8B50D461646044610B97846FEF767
:108D10006FFC15B97846FEF76BFCAB78012B02D0DF
:108D20007846FEF765FC2B88B34202D27846FEF700
:108D30005FFC16B97846FEF75BFCEFF3108772B65E
:108D40000223AB70E1182E802046FFF7EFFE628809
:108D5000A38893421FBFA3689B1800229A7007B98B
:108D600062B6F8BD70B50D46044610B97846FEF7F8
:108D70003FFC15B97846FEF73BFCEFF3108672B660
:108D8000A288A36813449A78042A06D1211D20469C
:108D9000FFF7CCFEA288A36813449A78022A05D074
:108DA000032A08D0052006B962B670BD03229A7066
:108DB0002B600020F7E77846FEF71AFCF9E738B594
:108DC000044610B97846FEF713FCEFF3108572B62F
:108DD000A088A16801448B78042B03D12046FFF7BB
:108DE000B4FE01468878831E5842584105B962B6E0
:108DF00038BD38B5044610B97846FEF7F9FBEFF3F5
:108E0000108572B6A088A16801448878C31E012B22
:108E100005D9831E5842584105B962B638BD20466F
:108E2000FFF793FE0146F0E7F8B50D46044610B98A
:108E30007846FEF7DDFB15B97846FEF7D9FBEFF370
:108E4000108672B6AB78012B19D0032B22D1A288E1
:108E5000A36813449D4202D07846FEF7C9FB002761
:108E6000AF70211D2046FFF761FEA288A36813445E
:108E70009B78042B00D1A78006B962B6F8BD628842
:108E8000A36813449D4202D07846FEF7B1FB00234D
:108E9000AB70F1E77846FEF7ABFBEDE710B5EFF30B
:108EA000108472B68288816811448B78042B02D1B9
:108EB000FFF74BFE01468878B0FA80F0400904B90C
:108EC00062B610BD037942799B1A03F57F2303F63E
:108ED000FF7300EB0330704710B5054884681C220F
:108EE000002115F093F92046BDE8104004F0D8B8F1
:108EF0004437002070B5194CE36813B97846FEF783
:108F000077FB237E13B17846FEF772FB6368092B6B
:108F100002D97846FEF76CFB114D0026636855F8C0
:108F200023309847022811D003280DD0012810D1F2
:108F300063680133092B636002D97846FEF758FB5A
:108F4000237E002BEAD004E06660F9E7237E0BB1B4
:108F5000207070BDBDE87040FFF7BEBF44370020F1
:108F60001CF50300038810B5044613B97846FEF7D4
:108F70003FFB2088084B04EB800030EA030203D05B
:108F80006288B2F5FE4F05D104EA030000F5805077
:108F90000478204410BD00BF00F0FFFF70B5044608
:108FA0000D4647F6FE66FFF7DDFFA84207D2844272
:108FB00005D24388013B9BB2B342F4D870BD002078
:108FC000FCE700000A78094B032A04BF0021197648
:108FD0001978012903D11B7E3BB9FFF78BBF02290A
:108FE00003D1032A01D1FFF777BF70474437002030
:108FF00010B50C4CE3681878002203F58051184432
:1090000004F052FC50B9E1680846FFF75BFF81426B
:1090100006D001F58051E160032010BD0120FCE77E
:109020000220FAE7443700201FB50A4B02221B68D2
:109030008DF800200193084A4FF4805369460120BF
:10904000029300F0D5FFB0FA80F0400905B05DF85A
:1090500004FB00BF64370020603700201FB50123E8
:10906000CDE902210190054A8DF800306946184685
:1090700000F0BEFF05B05DF804FB00BF60370020C4
:10908000264BD86802794179013A91422DE9F0479F
:109090001F4603D101205876BDE8F08700F58053C4
:1090A0001F491C781C440B6813F8045F1D44FFF72C
:1090B00009FF6388013B9BB247F6FE62934200F5CD
:1090C0008056884604D920463146FFF767FF04469C
:1090D000DFF850A04FF001092CB9B4FA84F4640908
:1090E0007C760120D8E7D8F800106288284601F580
:1090F000805104F0D9FB05460028EED004225146E9
:10910000204687F81890FFF7A9FF28B92046314676
:10911000FFF744FF0446DFE70020BDE744370020A7
:109120006437002020F8030038B5104CE368187845
:109130004FF6FF7203F58051184404F0B5FB88B177
:10914000E36819780B4498420CD0657E0849094BB6
:109150000422002D08BF1946FFF780FF20B9012027
:10916000207638BD0120FCE70020FAE744370020D4
:1091700028F8030024F8030070B50C4D0C4EE96884
:1091800030680C7804302246FFF768FF58B932681F
:10919000EB6804F0FC04043414441A786C61134442
:1091A0002B61012070BD0020FCE700BF4437002088
:1091B0006437002008B5054B054918680422FFF7FD
:1091C0004DFFB0FA80F0400908BD00BF64370020B1
:1091D00050370020074B10B51968074C40F6FC7259
:1091E000E0680431FFF73AFF10B90120207610BD86
:1091F0000020FCE7643700204437002010B50C4CF9
:10920000E1680846FFF75EFE81420AD1094B0A4930
:1092100018680422FFF722FF40B9012323760220B9
:1092200010BD01F58051E1600320F9E70020F7E768
:109230004437002064370020683700202DE9F74FBD
:10924000324D2B6913B97846FEF7D2F96B6913B921
:109250007846FEF7CDF9DFF8B89047F6FE6A6B69FD
:10926000D5E9030603EA0908A8EB0308FFF72AFE7D
:109270007388013B9BB2534508F5805800F5805B2D
:1092800005D930465946FFF789FE064668B134468F
:1092900000275C4513D327BB012334B1618847F60F
:1092A000FF72914201D0002BD9D001202AE0204644
:1092B0000192FFF757FE019A04461746E9E7228814
:1092C00007EB8202904509D986EA040313EA090FE5
:1092D00004D16388013B9BB25345E8D90FB9012300
:1092E000DCE768693A463146FFF7B8FE48B96A6973
:1092F0003A446A6114B97846FEF77AF92C61002382
:10930000CBE7002003B0BDE8F08F00BF443700205A
:1093100000F0FFFF1FB50A4B0222DB688DF800202A
:109320000193084A4FF4805369460120029300F0EC
:109330005FFEB0FA80F0400905B05DF804FB00BFA5
:1093400044370020603700201FB540F6F8731968D5
:109350004A1C0BD12C4B1A68013201D01A6852B941
:109360004FF0805358691A69424307E00029F7D04B
:10937000A1F5805202E01A68A2F580522348244CDD
:109380000068A2F58052C302226015D5214B1B68EC
:10939000062B11DD481C08BF1B491F4BD3F80435B1
:1093A00008BF0968CDE901121C4A00921C4940F22D
:1093B0006722072003F01EF9236819684B1E033348
:1093C0001FD8C1F30B03E3B9164A1748D160012136
:1093D000117016491383936001330A2B03D1784629
:1093E000FEF706F904E051F823408442F4D15360BB
:1093F00001200F4900F0ECFDFFF77CFD012004B0D7
:1094000010BD0020FBE700BF141000102C2E002020
:1094100064370020282E002000100140E6F40300ED
:10942000CFF4030044370020159302001CF503001D
:10943000C58F020010B5044610B97846FEF7D8F87B
:10944000094A107860B1E068D1684379A0EB033332
:10945000994206D3FFF736FD81428CBF00200120E0
:1094600010BD0020FCE700BF44370020024B1878F5
:10947000003818BF012070474437002038B50E4C23
:109480002378054613B17846FEF7B2F82B78032B04
:1094900002D07846FEF7ACF8EB68E36001200023C9
:1094A0000649A56063602070238300F091FDBDE84C
:1094B0003840FFF71FBD00BF44370020C58F0200B2
:1094C000014B1868704700BF6437002010B5044690
:1094D00010B97846FEF78CF863681BB123680BB1AE
:1094E000A36813B97846FEF783F8A3685A1E1A4298
:1094F00002D07846FEF77CF80023C4E9033310BDA0
:1095000070B50E460446F0B18368F3B1EFF31085F1
:1095100072B6D0E90331994203D105B962B6052587
:109520000FE04EB18368013B0B40D0E9001230469A
:1095300002FB031114F041FE23690133236135B9A5
:1095400062B6284670BD0E25FBE70925F9E7002520
:10955000F7E70000024AD2F80034002BFBD0704736
:1095600000E0014038B5C0F30B05EDB9F1B1104C86
:109570000223C4F80435FFF7EDFF01F6FF7121F473
:109580007F6121F00F010144884206D10023C4F815
:109590000435FFF7DFFF284638BDC4F80805FFF79C
:1095A000D9FF00F58050EFE71025F4E70925F2E731
:1095B00000E0014040EA010370B5064698071ED15D
:1095C000FAB112F003001CD10F4B94080122C3F82A
:1095D0000425FFF7BFFF0546A54206D10A4B00222E
:1095E000C3F80425FFF7B6FF70BD51F825305A1CAB
:1095F00003D046F82530FFF7ADFF0135ECE710202A
:10960000F2E70920F0E700BF00E0014041F2826389
:1096100098429DBF024B1878C0F3C00001207047EC
:10962000F337002013B50190000C01280C4602D03E
:109630007846FDF7DDFF084A0849236813600B7878
:1096400043F001030B7083F00203C3F340030020D7
:10965000137102B010BD00BFEC370020F3370020BB
:1096600013B50190000C02280C4602D07846FDF795
:10967000BFFF084B22681A6022791A71064A00203F
:1096800058719871D871137843F00203137002B0C7
:1096900010BD00BFE4370020F337002013B5019060
:1096A000000C03280C4602D07846FDF7A1FF034BBF
:1096B0001A6822601B79237102B010BDEC370020BC
:1096C00013B50190000C03280C4602D07846FDF734
:1096D0008FFF064B22681A6022791A71044A1378A8
:1096E000002043F00103137002B010BDEC370020DE
:1096F000F337002013B50190000C04280C4602D06B
:109700007846FDF775FF034A13682360536863606A
:1097100002B010BDE437002013B50190000C0428FE
:109720000C4602D07846FDF763FF064A23681360B3
:1097300063685360044A1378002043F002031370F7
:1097400002B010BDE4370020F337002007B50190C8
:10975000000C032802D07846FDF74AFF034B002295
:109760001A601A7103B05DF804FB00BFEC370020EB
:1097700007B50190000C042802D07846FDF738FFA9
:10978000034B00221A605A6003B05DF804FB00BF6F
:10979000E437002000B50A4B1A7B9B688DB0012A84
:1097A00008BF03F1FF3304930390022301A88DF84F
:1097B00008208DF80430FFF765F90DB05DF804FB63
:1097C00098370020074A1378590709D501781229DC
:1097D00006D10549086805496FF382034860137094
:1097E000704700BFF3370020EC3700209837002087
:1097F0001FB5124C2378590602D47846FDF7F8FEBF
:1098000023785A0717D40E4A526802F50052B2F173
:10981000807F02920FD80B4A43F0040312788DF830
:109820000C2002A94FF44030237005F01BF810B152
:109830007846FDF7DDFE04B010BD00BFF337002011
:1098400098370020F43700201FB50023ADF80D3005
:109850000C4B9A6802920C4A1B7B8DF80C301378E3
:109860000133DBB202A94FF4802013708DF80F3062
:1098700004F0F8FF10B17846FDF7BAFE05B05DF8C8
:1098800004FB00BF98370020F437002007B54FF4E1
:10989000403005F039F84FF4802005F035F81422F7
:1098A0000021074814F0B2FC064A137823F0600345
:1098B00043F04003137003B05DF804EBFFF798BF6B
:1098C00098370020F337002010B50C4C14220021EB
:1098D000204614F09BFC01F053F8094B094A0A4951
:1098E0009A600022C3E9031258605A61074B626014
:1098F000197862F3C301197010BD00BF98370020BA
:1099000074370020859A020000879303F337002004
:1099100037B5264D2B78DB062FD42548254B036021
:1099200000F0BEFD2448254B036000F0B9FD2B7804
:1099300013F0200212D103F00303032B204C1ED09E
:109940002260A26022732282FFF77EFF2368636099
:109950002B7843F040032B70FFF74AFF4FF4803021
:1099600004F0D2FF4FF4003004F0CEFF154800F0B1
:10997000A5FF2B7843F010032B7003B030BD124BC2
:109980001A68A2601A7922739879597941EA0021FC
:109990002182D9790D4B19700D4B1879884202D06C
:1099A0000AB92260D2E71B682360CFE7F3370020B3
:1099B0008C370020219B0200D8370020C597020079
:1099C0009837002074370020E4370020F437002057
:1099D000EC370020034B187880F00400C0F38000BF
:1099E000704700BFF337002010B501F0D1FC0D4ADD
:1099F000137BA3B9947B94B9108AFFF707FE70B16B
:109A0000012313739368148201339360FFF71CFFE3
:109A10002046FFF7BFFE01F0FBFC204610BD0824E6
:109A2000F9E700BF9837002010B501F0B1FC144AE7
:109A3000547B9CB1917B09BB108AFFF7E7FD04467C
:109A400060B1137B51732BB1012B0BD07846FDF71E
:109A5000CFFD03E0FFF7C8FF0028F7D101F0D8FCE5
:109A6000204610BD0846C2E9001111731182FFF7AC
:109A700091FEFFF7E9FEFFF7BBFEEFE70024EDE7FD
:109A8000983700201FB5244C227B2AB1012A0FD021
:109A90007846FDF7ADFD1CE0208AFFF7B7FDC0B1A9
:109AA000FFF7C2FF638A0BB1013B638204B010BDB4
:109AB000218A0846FFF7AAFD58B142F2B013994235
:109AC00088BF6273FFF7B0FF0028EBD1637B002BE8
:109AD000E8D1238A01339BB21E2118462382B3FBAF
:109AE000F1F201FB12339BB2002BDBD1A36802938E
:109AF000237B8DF80C30094BADF80D001B788DF8E9
:109B00000F3002A94FF4802004F0ACFE0028C9D029
:109B10007846FDF76DFDC5E798370020F437002043
:109B200010B50378042B0ED143681B785BB11C4B36
:109B30004269197B047E69BB598AF9B9012C99687D
:109B400002D08A4203D810BD4C1CA24218D92A3137
:109B50008A42F8D8997B0029F5D184689A60114A25
:109B60001A619981C3E90011FFF76EFEFFF740FE0D
:109B700004F11000BDE81040FFF70CBE012CE2D14B
:109B8000996801318A42DED10122BDE810405A7342
:109B9000FFF74ABF0129D6D1012CD4D09968F1E74B
:109BA000983700200000062D38B5184B1B785B064F
:109BB000054626D5164CD4E900239A421FD2207BB5
:109BC000144B1549012808BF0B469A4207D2636817
:109BD0002268403B9A4208D3FFF70AFE05E00123C2
:109BE0006373FFF721FF0028F1D0EFF3108072B606
:109BF00023685A1C22602B6028B962B638BDFFF773
:109C0000F7FD0F20FAE70020F8E700BFF337002048
:109C100098370020FFFF7F0000E0FF000C4A10B5DE
:109C20001368144628B101200A490344887313605D
:109C300010BD13B97846FDF7DBFC2368013B2360B8
:109C4000002BF5D1034ABDE810409373FFF7ECBE3B
:109C50006C3700209837002000B58DB00323ADF895
:109C6000080001A88DF8102003918DF80430FEF74C
:109C700009FF0DB05DF804FB014B9868704700BF09
:109C800098370020034B98681B7B012B08BF00F11D
:109C9000FF30704798370020044B9B685840C2073C
:109CA00048BF03F1FF331846704700BF98370020C4
:109CB000014B187B704700BF9837002070B50E4EDF
:109CC000337813F0200415D10C4D43F0200333708A
:109CD0002973A8602C82FFF7B7FD2046FFF75AFDD5
:109CE000337843F04003C5E900443370FFF780FD4B
:109CF000204670BD0820FCE7F3370020983700208D
:109D00002DE9F3411D4CDFF8788000250221204623
:109D100002F06CFAEFB201460026B9B96EB12046E6
:109D2000019102F0CAFA0828019906D154F8043CBE
:109D30001BB10A463846414698470135032D04F1C8
:109D4000BC04E3D1012002B0BDE8F08154F8043C2A
:109D50001BB134F80C2C3846984734F80C3C0221DF
:109D60000133204624F80C3C02F05CFA0221204624
:109D700002F03CFA01360146CFE700BF0C38002064
:109D800054F5030038B5012104460C3002F02EFAD8
:109D9000054628B3164BC4F89C300023C4F8A03005
:109DA00003786268012B07D0022B1BD07846FDF7A1
:109DB0001FFC4FF4FA7307E081688B1A99084FF47F
:109DC000A9734B4303F5FA730A4A934294BFC4F84C
:109DD000A830C4F8A8200123C4F8AC4084F8B830F7
:109DE000284638BD83689B1A1A0B034B5343E9E797
:109DF0001D9E020060850100645E010010B50446EE
:109E0000FFF7C0FF48B104F19C000BF0E5FB20B167
:109E10007846BDE81040FDF7EBBB10BD4A4B1B7800
:109E20002DE9F74F07460C463BB10BF00BFC002326
:109E300084F8B83003B0BDE8F08F01F10C09D1F817
:109E4000A8504846012102F0D1F9064610B97846DB
:109E5000FDF7CEFBDFF8F8A0A5F5FA784FF4A97B63
:109E600000253378012BA8EB050506D0022B3BD04B
:109E70007846FDF7BDFB00231FE06368B268B5FBC1
:109E8000FBF5D21AAD00954228BF154625B90193BE
:109E90007846FDF7ADFB019BF168706823F0030382
:109EA0002A4619441844FFF785FB10B17846FDF7A0
:109EB0009FFB63681D446560B36862689A422AD15B
:109EC0000BF0C0FB4846012102F0ACF900236360AF
:109ED00084F8B8301D4B186801F0E8FA204603B04A
:109EE000BDE8F04FFFF78ABF6368B268B5FBFAF5CB
:109EF000D21A2D03954228BF154625B901937846FD
:109F0000FDF776FB019B706823F003032946184494
:109F1000FFF728FBC9E701F02DF93378C51B48BFCF
:109F20003D1A012B0BD0022B0CD07846FDF760FBBD
:109F300000232B44434594D90BF084FBCEE74FF428
:109F4000A973F6E75346F4E7FC370020F837002002
:109F5000645E010070B51B481B4C01F089FA1B4B75
:109F6000186004F11C0341F203060825636104F143
:109F70000C0004F118032361A681A57302F079F99E
:109F800004F1D803C4F8D03004F1C80004F1D403BC
:109F9000C4F8CC30A4F8C86084F8CA5002F069F95B
:109FA00004F5CA73C4F88C3104F5C873A4F884614D
:109FB00084F88651C4F8883104F5C270BDE8704059
:109FC00002F057B9019D020000380020F837002048
:109FD000022838B504460D4602D97846FDF708FB3D
:109FE0000248BC2303FB0404A56038BD00380020F0
:109FF00002282DE9F84F05460C46924602D97846CC
:10A00000FDF7F6FA14B97846FDF7F2FA2378012B3A
:10A0100012D16368990702D07846FDF7E9FAE36840
:10A020009A0702D07846FDF7E3FAA3689B0711D0A0
:10A030007846FDF7DDFA0DE0022B0DD16368C3F31E
:10A040000B0313B17846FDF7D3FAA368C3F30B03F0
:10A05000002BEDD1A36813B97846FDF7C9FAEFF3E9
:10A06000108772B6BC26DFF89C806E4306F10C0B9D
:10A07000C3440021584602F0B9F88146002836D082
:10A080000021584602F0CEF804F1100354F8042BD6
:10A0900049F8042B9C42F9D1BAF1000F05D0BC233A
:10A0A00003FB05835B88AAF80030BC2000FB058514
:10A0B0006B8895F8B84001336B80F4B9104B1D786C
:10A0C000B5B908EB0600FFF75DFE77B962B63C460E
:10A0D00040B106F19C0040440BF07EFA10B1784686
:10A0E000FDF786FA2046BDE8F88F2C46F0E70424F9
:10A0F000002FF7D127460020E8E70024F8E700BF4B
:10A10000FC3700200038002070B5EFF3108672B6DF
:10A11000144C236818BB13B97846FDF769FA236815
:10A12000013B236093B9104D95F8B83013B9284618
:10A13000FFF764FE95F8743113B90C48FFF75EFE23
:10A1400095F8303213B90A48FFF758FE2368094AD8
:10A15000003B18BF0123137006B962B670BD01330E
:10A160002360F3E7343A002000380020BC38002098
:10A1700078390020FC37002010B1024B800B185CAE
:10A18000704700BF64F5030012DF704707B501F0A8
:10A1900001FD90B10A4B1B685B060ED5094B1B688D
:10A1A000012B0ADD084B094AD3F804350849019010
:10A1B00000920220752202F01DFA03B05DF804FB44
:10A1C0002C2E0020282E002000100140D2F5030084
:10A1D000C7F5030070B58AB00BF0FEFE04460028F8
:10A1E00034D000238DF8103006460FCE05AD0FC5D4
:10A1F00033682B60627D052A0CD9207D00F00F03A7
:10A20000072B07D004AB063A04F11D0100F00F0044
:10A210000AF06CFD114B1A68AAB104AB0393237DBD
:10A22000C3F303038DF80430637D062B89BF063B1F
:10A2300000238DF8053004F11D0398BF8DF805301B
:10A24000029301A8904720460BF0B0FE0BF0DEFE13
:10A2500080F00100C0B20AB070BD00BF403A0020DB
:10A2600010B5114C2378022B8CB005D07846FDF741
:10A27000BFF901200CB010BDFFF7ACFB18B90B48BB
:10A28000FEF72AFCF5E70BF073FE03232C220021D6
:10A2900001A8237013F0BAFF1D2301A88DF8043024
:10A2A000FEF7F0FBE5E700BF3C3A00201C2E002043
:10A2B00000B50A4B1A78042A8DB00CD105221A7009
:10A2C00000212C2201A813F0A1FF1C2301A88DF866
:10A2D0000430FEF7D7FB0DB05DF804FB3C3A0020DC
:10A2E00008B50378122B08D10448FEF705FC044B8F
:10A2F0001868BDE8084001F0D9B808BD1C2E002040
:10A30000383A0020F7B5314F3A780546002A52D145
:10A31000002852D0067A0F2E01D0062E4FD105F01C
:10A320009DF8E868002843D0FDF772F90DF10700A9
:10A33000FFF72AFF0446C0BB9DF80730012B40D130
:10A34000FDF790F900F0A6FA304600F0D3FFE87868
:10A3500000F026F900F008FE0BF0D4F81C480BF0D2
:10A36000F7FE0AF045FE0AF097FCFFF7F3FD04F054
:10A37000A9F900F04FFC05F031F804F04BFE284637
:10A3800001F06EFBFDF724FF03F074FDFDF78EF87E
:10A3900008B1062817D10F4801F06AF80E4B186073
:10A3A0000E4B00221A6001233B70204603B0F0BD23
:10A3B000FDF73AF9BAE70824F7E70E24F5E7072492
:10A3C000F3E70224F1E70446EFE700BF3C3A002040
:10A3D000D5A1020061A20200383A0020403A0020D4
:10A3E00037B51C4D2A78012A04D0043A012A24D911
:10A3F00008241DE001F042FBFDF72CFFFDF756F8A5
:10A400000446C0B1062816D0134B1B685B040FD559
:10A41000124B1B68012B0BDD114B124AD3F804358C
:10A42000114901900092022040F2891202F0E2F8F4
:10A43000204603B030BD00F089FF0BF0BFF80446A2
:10A440000028F5D102232B70084B186801F02EF874
:10A45000EEE700BF3C3A00202C2E0020282E0020E2
:10A4600000100140FBF50300C7F50300383A002057
:10A4700008B5084B1A78032A0AD1042206481A7034
:10A480000BF062F818B17846FDF7B2F8002008BD6D
:10A490000820FCE73C3A0020B1A20200FDF7DCBE38
:10A4A000FEF71ABBFEF728BB08B500F02DFD002013
:10A4B00008BD05F0BFBF0000044B1A680132B2F1BD
:10A4C000704F08BF01221A6018687047443A002094
:10A4D00010B5044610B97846FDF78AF80023C4E9A0
:10A4E000003310BD38B50D46044610B97846FDF767
:10A4F0007FF815B97846FDF77BF800236B60EFF322
:10A50000108372B6226822B92560656003B962B60D
:10A5100038BD62685560F8E710B5044610B9784652
:10A52000FDF766F8EFF3108272B6206820B90023B9
:10A53000636002B962B610BD43682360002BF8D196
:10A54000F5E710B5044610B97846FDF751F82068D4
:10A5500010BD35DF70473CDF70473DDF70470000BE
:10A5600010B504464FF0FF30FFF7F3FFFF21002046
:10A57000FFF7F3FF21460020FFF7EDFFBFF34F8FFA
:10A580000549064BCA6802F4E0621343CB60BFF38F
:10A590004F8F00BFFDE700BF00ED00E00400FA05AB
:10A5A00007289ABF024B33F81000FA20704700BF0B
:10A5B00020F60300024B5868103840B2704700BFC5
:10A5C00000ED00E000280346B8BF00F11F03084A71
:10A5D0005B1152F82330424202F01F0200F01F00CC
:10A5E00058BF504223FA00F000F00100704700BF4E
:10A5F00000E100E046DF704730B501F11003103292
:10A60000103013F8014D12F8015D8B4284EA050405
:10A6100000F8014DF5D130BD2DE9F04F91B002F1B8
:10A620000F0604AC1D4689463611034600F1100C96
:10A63000A24618685968274603C7083363453C4655
:10A64000F7D102F00F04002E56D0B4FA84F77F0938
:10A650001022002108A813F0D9FDC7F1020B5046C3
:10A66000FFF7C8FF5FFA8BFB01220CA89DF93010A1
:10A670000F23804690F800C010F801EF4FEA4C0C11
:10A68000013B4CEADE1C9BB200F801CC002BF1D15F
:10A690009DF83F305B00DBB20029B8BF83F0870331
:10A6A0008DF83F30531C9B454FF00202DDD2013E36
:10A6B00009EB061117B30CAA6846FFF79DFF10229D
:10A6C00000210CA813F0A2FD0024B44228DB42466E
:10A6D000694608A8FFF790FF5046FFF78BFF10AAC6
:10A6E000434603CB934228606960984605F108050C
:10A6F000F6D111B0BDE8F08F3746A9E7224668468B
:10A7000013F05BFD10AB2344802203F8402C01348E
:10A71000102C02D10CAA6946CEE70DF80470F6E7BA
:10A7200009EB0412414608A8FFF766FF5046FFF701
:10A7300061FF0134C9E7000038B5114B1A680446BF
:10A740002AB11A6840685268821A002A0DDA1A681B
:10A7500062611C609A88013292B29A8012B978467E
:10A76000FCF746FF0123237038BD1A68154652696D
:10A770001AB15168091A0029F8DB62616C61E9E7D6
:10A780004C3A0020124B1A68824210B51A46044611
:10A790000BD142691A609A8892B2511E89B299808F
:10A7A0008AB97846FCF724FF0DE01B685BB1596954
:10A7B000A1420BD16169596193889BB2591E89B23C
:10A7C0009180002BEDD00023237010BD0B46EDE7E8
:10A7D0004C3A0020014B186800F068BE483A00204F
:10A7E000044B1A6822B11B680349586800F052B93B
:10A7F00000F0A6B94C3A0020D5A702002DE9F0419F
:10A8000000F0BEF8224E054637464FF00008336888
:10A8100023B133685B685B1B642B06D400F0B0F88F
:10A82000FFF7DEFF0120BDE8F08134682378012BBB
:10A8300002D07846FCF7DCFE63693B60BB88C4F855
:10A8400014809BB25A1E92B2BA8013B97846FCF7B4
:10A85000CFFEA36813B97846FCF7CAFE0223284648
:10A8600021692370A368984700F08AF82378022BA7
:10A870000546CCD1E2680AB92270C8E76368134480
:10A88000591B6429FBD463602046FFF755FFBEE7E0
:10A890004C3A002008B5064B064800221A605A6060
:10A8A00000F0E6FD044B1860BDE8084000F05BB81E
:10A8B0004C3A0020FDA70200483A002010B504469B
:10A8C00000F0D0FE10B97846FCF792FE14B9784635
:10A8D000FCF78EFEA36813B97846FCF789FE23784F
:10A8E000012B02D17846FCF783FE002363612046EA
:10A8F000FFF722FF00F044F8BDE81040FFF770BFFB
:10A9000010B5044600F0AEFE10B97846FCF770FEB4
:10A9100014B97846FCF76CFE2046FFF733FF00239E
:10A92000636100F02DF8BDE81040FFF759BF38B55E
:10A9300004460D4600F096FE10B97846FCF758FE26
:10A9400014B97846FCF754FE2046FFF71BFF00239E
:10A95000636120466560FFF7EFFE00F011F8BDE887
:10A960003840FFF73DBF08B513F0C4FA38B913F00B
:10A97000F3F920B17846BDE80840FCF739BE08BDC0
:10A9800010B5EFF3108072B60C4A0D4B1968D2F86F
:10A990000435D2F80441012C04BFD2F8043501314A
:10A9A00000B962B6074843EA01614FF480420023D0
:10A9B000E0FB0123D00B40EA434010BD00100140F2
:10A9C000543A002040420F000A4B10B54FF40032B9
:10A9D000094CC3F84823C3F80823226812B9784603
:10A9E000FCF706FE2468FFF7CBFF2346BDE81040C6
:10A9F000184700BF00100140603A002010B5EFF387
:10AA0000108072B61E4B1F490022C3F804210A6849
:10AA100001320A6000B962B61B4A116809B31168B5
:10AA2000013911601268E2B9184AD3F804051168B7
:10AA3000884217D2EFF3108072B6D3F80415146869
:10AA40000131A1422ABFD3F8042512680332C3F8AA
:10AA5000442500B962B64FF40032C3F84423C3F86A
:10AA6000042310BD0A4C226812B97846FCF7C0FDD9
:10AA70002468FFF785FF2346BDE81040184700BF54
:10AA800000100140543A0020583A00205C3A00205F
:10AA9000603A002037B50023044601930D4611B9F2
:10AAA0007846FCF7A5FD204B1D60FFF769FF031BEF
:10AAB000002BB8BF241A1D481D4AA8BF00244FF41C
:10AAC000004500210023E5FB040113F03DFAEFF3FC
:10AAD0001083019372B6174A174CD2F80435032835
:10AAE000C3F1FF1101F57F4138BF032081421349B3
:10AAF00010D30344C2F844354FF40033C2F8443352
:10AB0000C2F80433002323600B60019B03B962B6D3
:10AB100003B030BD03F17F43013303441A0E013209
:10AB2000226023F07F43EFE7603A002020A1070076
:10AB300040420F0000100140583A00205C3A0020CB
:10AB4000074B4FF40032C3F84823C3F80823054AE3
:10AB500000231360044A1360044A1360704700BF67
:10AB600000100140583A00205C3A0020603A002072
:10AB700030DF704731DF704710B5D0E900238468BB
:10AB8000C168A2EB731283EAF43303600C441344EC
:10AB9000114444608160C360184610BD73B50D4612
:10ABA000064610B97846FCF723FD0024A54201D8DB
:10ABB00002B070BD0DF10700FFF7DAFF9DF8072026
:10ABC000002AF7D02B1B9A4288BF8DF80730301926
:10ABD0009DF80710FFF7CEFF9DF807301C44E5E70E
:10ABE00037B50421044600230DEB01000193FFF764
:10ABF000D5FF074B2360019BE360C4E901331425B3
:10AC00002046FFF7B9FF013DFAD103B030BD00BFC8
:10AC1000ED5EEAF17047000007B52648019003F0A9
:10AC200073FE4FF48173ADF80630019803F06CFEAB
:10AC30004FF48273ADF80630019803F065FE40F2E0
:10AC40000113ADF80630019803F05EFE40F20313E5
:10AC5000ADF80630019803F057FE40F20513ADF849
:10AC60000630019803F050FE4FF48373ADF80630C0
:10AC7000019803F049FE40F20713ADF80630019841
:10AC800003F042FE4FF40073ADF80630019803F074
:10AC90003BFE4FF40C73ADF80630019803F034FE20
:10ACA0004FF40473ADF80630019803B05DF804EB7F
:10ACB00003F02ABE0300000148DF704749DF7047F8
:10ACC0004ADF7047074B032218681A74064A5A6114
:10ACD00043F2B06140F6D863984288BF0B46936058
:10ACE000704700BF903A0020B03A0020054B1B6827
:10ACF000A0F1780228335843034BB0FBF3F0101A4D
:10AD0000704700BFAC3A002040420F0038B50E4AF1
:10AD10000E4C012363711368002501331360257401
:10AD200000F084FA0AF004FD2068FFF7DFFF084A0C
:10AD30000146284600F0ECF920B17846BDE83840DD
:10AD4000FCF756BC38BD00BFC43A0020903A002042
:10AD5000C5AC02001F4B10B45A6928B11968DC68F1
:10AD600011440134DC601960996801240131E2402A
:10AD700001291C7499601C685A610ED002291AD0EE
:10AD80005B69154A1C44944203D840F6D76293424B
:10AD90001CD85DF8044BFFF7B9BFB2F5FA7F03D1B9
:10ADA00030B900225A61EBE740F6D8618A42E7D811
:10ADB00040F6D862F6E7DA68022A02D1064A121B88
:10ADC000F0E7012ADCD10028EBD0D9E75DF8044B8D
:10ADD000704700BF903A00208096980070B5424CB2
:10ADE000424D012323712B781BB1414B1E78002E5D
:10ADF0005BD000232374042853D8DFE800F0034D10
:10AE00004A4844003B4DA179AA68C4E9023323684B
:10AE10002260002934D0012121743749002B08BF5A
:10AE20000B46991AB1F57A7F26D39A4224D86161EC
:10AE300043F2B06043F69822C5E9020201236B7128
:10AE4000A371237C023B012B0DD8637943B10AF037
:10AE50008BFC2068FFF74AFF00F01AFA00236371A9
:10AE6000234B00221A70237C2448022B04BF0123A9
:10AE700023760023237170BD4FF47A736361D7E7A3
:10AE8000FFF744FFD4E70120FFF764FFD9E7002074
:10AE9000FAE70AF0FBFBD4E700F08CF90AF02EFC8D
:10AEA000CFE77846FCF7A4FBCBE700F063F92B78FB
:10AEB0002060022B0FD0032B06D0012B10D10223D0
:10AEC000237400232B70BCE70A4B0D490D4A5E71B9
:10AED000C3E90212A67103232374064B6361F0E7F2
:10AEE0007846FCF785FBECE7903A0020C13A002059
:10AEF000C03A0020B03A002080969800A03A002086
:10AF0000A0860100FF1FA107043808B5042825D832
:10AF1000DFE800F016220A030F00114B1B7E012B05
:10AF20001CD1FFF7CBFEC8B17846BDE80840FCF75E
:10AF30005FBB0B4B00221A76BDE808400AF050BCFC
:10AF400008480123437143F6982240F6D863C0E9CC
:10AF50000232FFF7B5FEE6E70248FAE708BD00BF98
:10AF6000903A0020B03A00200D4A4FF4807100233F
:10AF7000918043F2B06C43F698211370C2E902C18C
:10AF8000084A1060084A1370084A1370084A136090
:10AF9000084A13761360938001239371704700BFB2
:10AFA000B03A0020AC3A0020C03A0020C13A00205C
:10AFB000C43A0020903A002010B50D4C227E012AA0
:10AFC00009D0022A12D07AB90A48FFF775FE10B1EB
:10AFD0007846FCF70DFB0848FFF772FE10B1784683
:10AFE000FCF706FB02232376002000E0112010BDB1
:10AFF000903A0020DDAD0200B03A0020074B1B7CE8
:10B00000023B012B07D9064B1878013802288CBF68
:10B010000020012070470120704700BF903A0020B7
:10B02000C13A0020014B1868704700BF903A0020D9
:10B03000074A537910B543B11068FFF757FE04462D
:10B0400000F098F8231A48BF031B184610BD00BF34
:10B05000903A0020014B5879704700BF903A002089
:10B06000014B1879704700BF903A0020024B187EC0
:10B07000003818BF01207047903A0020EFF310838A
:10B0800072B6054A527922B1044A4FF48071C2F86F
:10B09000001103B962B67047903A002000E100E069
:10B0A000044B1B7E022B04D1034B01221A70FFF7C5
:10B0B000E5BF7047903A0020C13A0020054B1B7E47
:10B0C000022B06D1044A012808BF03231370FFF79F
:10B0D000D5BF7047903A0020C13A0020064B19783E
:10B0E0001A4631B128B90549097811B11870FFF72E
:10B0F000C5BF1070704700BFC03A0020C13A0020A1
:10B10000024B1B6803B962B6704700BFD83A0020F3
:10B11000022810B522D8EFF31084114B1C6072B6D0
:10B12000104B43F82020104B002243F820200F4BF7
:10B130001B787BB1830003F1804303F5004310309B
:10B14000C3F84021012202FA00F0094AC2F80403C0
:10B15000C3F84015FFF7D4FF002010BD0720FCE71F
:10B16000D83A0020C83A0020E43A0020D43A00201F
:10B170000080004008B5EFF310820A4B1A6072B6E7
:10B18000094B1B7853B1094B0022C3F84C21012213
:10B19000DA64D3F84C05FFF7B3FF08BD044B186819
:10B1A000F9E700BFD83A0020D43A002000800040E0
:10B1B000DC3A00202DE9F84F0024174EDFF85C80C0
:10B1C000A1464FF0010BA50005F1804505F50045AE
:10B1D000D5F84031CBB1D8F8043304F11007FB4067
:10B1E000DB0712D5D6F800A0BAF1000F02D17846DD
:10B1F000FCF7FEF90BFA07F7C6F80090C8F80873D9
:10B20000FFF7B8FFD047C5F840910134032C06F191
:10B210000406D8D1BDE8F88FC83A0020008000406D
:10B22000014B1B6818447047E03A002008B5134BE7
:10B230000022C3F84025C3F84021D3F84011C3F8D9
:10B240004425C3F84421D3F84411C3F84825C3F872
:10B250004821D3F848310A4B1B681BB9094B4FF4FE
:10B2600080721A60084B01221A70FFF789FB0146B1
:10B27000FFF780FF054B081A186008BD00800040EA
:10B28000D83A002000E100E0D43A0020E03A002063
:10B290000B4A0C4900231360536093600A4A0B6009
:10B2A00010600A4A4B6013708B60094B4FF0FF32FD
:10B2B000C3F80823074B4FF48072C3F8802170470E
:10B2C000E43A0020C83A0020DC3A0020D43A0020BA
:10B2D0000080004000E100E0044B1B780F2B1EBFF4
:10B2E000034B4FF48022C3F800217047483C0020F4
:10B2F00000E100E010B5104C104B207010480360C6
:10B300001023C0E90133FEF7E1F80E48FFF7E0F83B
:10B3100023780F2B0AD0072B09D8EC221A41D20729
:10B3200005D5094A5B01DBB282F8123310BD7846BD
:10B33000BDE81040FCF75CB9483C0020043B00200D
:10B34000F03A00204C3C002000E100E00D4B1B785F
:10B350000F2B0DD00C4991F812335A09EC231341ED
:10B36000DB0706D5094B9A6832B94FF480230B608E
:10B3700070477846FCF73CB91A6842F480221A609C
:10B38000704700BF483C002000E100E0AC5A0020BC
:10B39000F8B5EFF3108772B617480268511C0160C8
:10B3A00002BB164B1B780F2B21D0EFF3108C72B61B
:10B3B000134A144C95680123E5B99360124B134E60
:10B3C000D3F8801031401160C3F88060D3F8841046
:10B3D00051604FF0FF32C3F884202570BCF1000F9C
:10B3E00000D162B6036813B97846FCF701F907B9D2
:10B3F00062B6F8BD2370F1E7043C0020483C002011
:10B40000AC5A0020493C002000E100E0FC06FFBDF2
:10B4100038B5EFF3108572B6104C236813B978462F
:10B42000FCF7E6F82368013B2360A3B90C4B1B78BB
:10B430000F2B10D00B4B9A686AB10B4A127852B995
:10B44000EFF3108072B609491C680C605C684C60B0
:10B450009A6000B962B605B962B638BD043C0020F6
:10B46000483C0020AC5A0020493C002000E100E0AC
:10B4700038B5054610B97846FCF7BAF8094C236888
:10B480000D2B02D97846FCF7B3F8EFF3108372B6B0
:10B490002068421C2260044A42F8205003B962B678
:10B4A00038BD00BF083C00200C3C00200E4B1B6840
:10B4B000834210B5044602D87846FCF799F8EFF3BA
:10B4C000108072B6094A6109012304F01F0403FACF
:10B4D00004F452F82130234342F82130FFF7FCFEF8
:10B4E00000B962B610BD00BF083C0020443C0020FB
:10B4F00070B50D461646044610B97846FCF778F844
:10B5000015B97846FCF774F8EFF3108372B6002291
:10B51000C4E902562274246003B962B670BD00000B
:10B5200070B5044610B97846FCF762F8A36813B901
:10B530007846FCF75DF8EFF3108672B6237C03F0D3
:10B54000FF055BB90123064823742146FEF7CAFFB5
:10B55000FFF7C2FE284606B962B670BD1120FAE7B1
:10B560004C3C002010B5044610B97846FCF740F872
:10B57000207C10BD2DE9FF47334E337813B1784658
:10B58000FCF736F80125DFF8CC90DFF8CC80DFF847
:10B59000CCA035700024D9F80030A34212D82B4833
:10B5A000DFF8A880FEF7B8FF002760BB284C69468B
:10B5B0002046FDF7A5FFA0B300232846337004B052
:10B5C000BDE8F087630904F01F0158F82300C84064
:10B5D000C20716D5EFF3108072B6012202FA01F10C
:10B5E00058F8232022EA010248F8232000B962B665
:10B5F0005AF824309847074618B92046FFF756FFF7
:10B600003D460134C7E70468237C13B97846FBF74D
:10B61000EFFFD4E90230984727744046FEF77CFFDD
:10B62000C3E79DF8003043B1012BC0D1019B002B33
:10B63000BDD0DDE902019847B9E7019B002BB6D0E8
:10B6400002989847B3E700BF543C00204C3C0020D0
:10B65000F03A0020083C0020443C00200C3C002034
:10B66000FFF788BF07B5FEF7A5FF8DF803009DF82B
:10B6700003301749F02B0DD10B780F2B25D012205A
:10B68000FEF7A0FF80F00100C0B200F0010003B09F
:10B690005DF804FB9DF803305BB2002BABBF03F1F8
:10B6A00060430C4A03F5614303F00F03ACBF93F80A
:10B6B0000033D35C5B090193019A0B78934204D069
:10B6C000019A9342DBD30020DFE70120DDE700BFD2
:10B6D000483C002014ED00E046DF7047F0B58DB027
:10B6E00015466A460B46044600F1100C17462068C2
:10B6F0006168164603C6083464453246F7D104AC87
:10B7000003F1100618685968224603C20833B34291
:10B710001446F7D13846FFF7DFFF08AC2A460CADD8
:10B72000234603CBAB42106051601C4602F1080275
:10B73000F6D10DB0F0BDFEF76FBF01F09EBD01F078
:10B74000D6BD022930B41DD811B31970C168D20119
:10B750000C045A7004F47F04C1F3074222439A7028
:10B76000C1F30721120C1A71D97001890A0A42EA41
:10B7700001224188A3F805200A0A42EA0122A3F81F
:10B78000072022E0032926D0784630BCFBF730BFE3
:10B79000827AC47A197002F07F0242EAC412C46845
:10B7A0005A702504C4F3074205F47F052A439A70B2
:10B7B000C4F30724120C1A71DC700489D971220AAF
:10B7C00042EA0422A3F805201972026912BA30BCB9
:10B7D000C3F809207047002419705C70C1680D041B
:10B7E000C1F3074205F47F05C1F307212A43D9704D
:10B7F00001899A70120C1A710A0A42EA0122A3F80E
:10B800000520DC711C72E0E77FB50E461546044644
:10B8100000B112B97846FBF7EBFE0023CDE9003307
:10B82000CDE9023332462B4621466846FEF7F4FE48
:10B8300004B070BD2DE9FF41DDF82C800F461546A0
:10B840001C46064620B11AB113B1B8F1000F02D15F
:10B850007846FBF7CDFE6B463A4631462846FEF762
:10B86000DBFE9DF82820434621466846FEF7D4FEBD
:10B8700004B0BDE8F0810000F0B50F4691B0144669
:10B880001E46054608B101B113B97846FBF7B0FE74
:10B890001CB97846FBF7ACFE01E0102CF9D8274B19
:10B8A000029307AA042102A8FFF7AEFF03AB2946C3
:10B8B000102207A8FEF7B0FE3946224607A812F06C
:10B8C0007CFC10AB2344012203F8242C07ABA21804
:10B8D000194692B203A8FEF79FFE9DF82B3035461D
:10B8E00003F07F0305F8013B394622460BA812F00E
:10B8F00064FC04F1100710AB1F4404F11102022391
:10B9000092B207F8243C07A92B4603A80192FEF740
:10B9100083FE019A2B46113607AD186859682C46EC
:10B9200003C40833B3422546F7D1032107F8241C8A
:10B9300003A807A9FEF770FE11B0F0BD736D6B325E
:10B9400030B50C4689B0054600B111B97846FBF711
:10B950004FFE04210DEB01000E4B019304AAFFF7EB
:10B9600053FF04AB294618461022FEF755FE0A4B3A
:10B9700018681B798DF80C3004AB029002A91846A8
:10B980000522FEF749FE06AB03CB2060616009B0DB
:10B9900030BD00BF736D6B3330F6030030B50C461D
:10B9A00087B0054600B111B97846FBF721FE0E4B72
:10B9B000009302AA68460421FFF726FF02AB29463E
:10B9C00018461022FEF728FE084B0193042202AB12
:10B9D00018460DEB0201FEF71FFE9DF8173003F02D
:10B9E0003F03237007B030BD736D6B34696436015B
:10B9F00030B50268037CD17A87B000298DF8043015
:10BA0000836814BF0821042109330B44CDE90232B5
:10BA1000436804930446C3680593694601A801F08E
:10BA200085FFD0B1237C012B0ED02568FEF72AF9C3
:10BA3000286120680C30FEF7B7F8054620B101F008
:10BA4000EFFF284607B030BD2168009800F059FB91
:10BA5000009B093363610025F3E70425F1E700004B
:10BA600008B500B14068044B1860FDF72DFFBDE834
:10BA7000084002F0F7BB00BF583C002008B5FDF7B6
:10BA800047FFBDE8084002F02BBC10B5044610B9D2
:10BA90007846FBF7ADFD236813B97846FBF7A8FDA0
:10BAA00023685B6913B97846FBF7A2FD237C012B61
:10BAB00002D97846FBF79CFDE36813B97846FBF79B
:10BAC00097FD2046BDE81040FFF792BFF0B5044651
:10BAD000C7B010B97846FBF78BFD636913B9784698
