:020000022000DC
:1060000000F000206D630200556302005763020038
:10601000596302005B6302005D6302000000000040
:106020000000000000000000000000005F630200AC
:106030006163020000000000636302006563020008
:106040006763020067630200676302006763020020
:10605000676302006763020091CD0300676302007B
:106060006763020025C80300A99803006763020064
:1060700067630200676302006763020067630200F0
:10608000676302003162040019D0020067630200F6
:10609000956204006763020065D80300676302002D
:1060A00067630200676302006763020067630200C0
:1060B0006763020067630200000000000000000048
:1060C00067630200676302006763020067630200A0
:1060D000676302006763020067630200000000005C
:1060E00000000000000000000000000000000000B0
:1060F00000000000000000000000000000000000A0
:10610000000000000000000000000000000000008F
:10611000000000000000000000000000000000007F
:10612000000000000000000000000000000000006F
:10613000000000000000000000000000000000005F
:10614000000000000000000000000000000000004F
:10615000000000000000000000000000000000003F
:10616000000000000000000000000000000000002F
:10617000000000000000000000000000000000001F
:10618000000000000000000000000000000000000F
:1061900000000000000000000000000000000000FF
:1061A00000000000000000000000000000000000EF
:1061B00000000000000000000000000000000000DF
:1061C00000000000000000000000000000000000CF
:1061D00000000000000000000000000000000000BF
:1061E00000000000000000000000000000000000AF
:1061F000000000000000000000000000000000009F
:10620000344935480A1A02D0072291438D46334952
:1062100033480A1A06D00722914381F309880222E3
:1062200082F314882F483049304A00F042F8304851
:106230003049314A00F03DF830483149314A00F0E8
:1062400038F831483149324A00F033F831483249A0
:10625000324A00F02EF832483249334A00F029F829
:1062600032483349334A00F024F833483349002296
:1062700000F02AF832483349002200F025F832486D
:106280003249091A082902DB0022026041601F48D6
:106290001F49884205D00268043003B4904703BC0C
:1062A000F7E700208646EC4600200021284A904768
:1062B000FEE7884207D0521A05D0037801300B70F0
:1062C0000131013AF9D17047884202D002700130A1
:1062D000FAE7704700F0002000E8002000F00020FE
:1062E00000F0002068930400F02D002030300020E2
:1062F000A0630200A0630200FA6704006893040030
:10630000F02D0020F02D0020506C0400506C040093
:10631000506C0400506C0400506C0400506C04007D
:10632000506C0400506C040068930400A8950400AD
:10633000303000203030002030300020F461002068
:10634000F4610020F4610020F4610020F465002075
:10635000316A0200FEE7FEE7FEE7FEE7FEE7FEE742
:10636000FEE7FEE7FEE7FEE700F002B8FFF7FCBF3E
:1063700008484FF00701884385460748804707488B
:10638000016841F470010160BFF34F8FBFF36F8F5D
:10639000FFF736BF00F0002025DE030088ED00E0A7
:1063A00041DF7047014B1B880B8070475430002041
:1063B0000D4B1B6813F4804F03D00C4B1B68032B51
:1063C00000DC704700B585B0094BD3F80435029264
:1063D0000191084A009297220749042007F0FCFE29
:1063E00005B05DF804FB00BFE42F0020E02F002083
:1063F00000100140CC6C0400C56C040000B58DB0E9
:106400001DF0F6FE2022002103A820F091F90123BF
:106410008DF80C3007238DF80F3006238DF81430DB
:106420001E4B07931E4B0B931E4903A80BF090FBCA
:1064300060B30B2829D11C4B1B6813F4804F03D089
:106440001A4B1B68032B14DC174B1B6813F4804F8B
:106450001CD0164B1B68032B18DD154BD3F80435E5
:10646000144A009240F243121349042007F0B4FE8C
:106470000CE00F4BD3F80435104A009240F2411261
:106480000D49042007F0A8FEDEE720B91DF0C8FE84
:106490000DB05DF804FB17F0E1FDF7E711660200AF
:1064A0004165020030300020E42F0020E02F002062
:1064B00000100140486D0400C56C0400F86C040035
:1064C00000B583B0174A04214FF4C04007F068FEBE
:1064D000154B1B6813F4804F03D0144B1B68032B20
:1064E00010DC134801F01AFD1FF0D8FEB0B901F01E
:1064F00045FE01F079FE01F0A5FEFFF77FFF03B036
:106500005DF804FB0B4BD3F804350B4A00924FF4B3
:10651000A9720A49042007F05FFEE2E717F09EFD2A
:10652000E5E700BF75E10200E42F0020E02F002026
:10653000882F002000100140746D0400C56C040019
:1065400000B585B00021124801F00AF858B9114B86
:106550001B6813F4804F03D00F4B1B68032B05DC23
:1065600005B05DF804FB17F079FDF0E70B4BD3F8AD
:106570000435074A118892F8B02002920191084A26
:1065800000929F220749042007F026FEE8E700BF9B
:10659000002E0020E42F0020E02F002000100140FA
:1065A000AC6D0400C56C040008B5044B1980A1F55E
:1065B000004109B2024801F08FFC08BD54300020B0
:1065C000882F002000B583B00C4B1B6813F4804F5C
:1065D00003D00B4B1B68032B04DC0BF00DFB03B04B
:1065E0005DF804FB074BD3F80435074A0092BB2241
:1065F0000649042007F0F0FDEFE700BFE42F00207C
:10660000E02F002000100140E86D0400C56C04007C
:1066100008B50378232B00D008BDFFF7D3FFFBE7B5
:10662000F0B5C7B003781D2B04D00446142B09D055
:1066300047B0F0BD2B4800F0E1FF0028F8D017F07C
:106640000DFDF5E7284B1B6813F4804F03D0274B53
:106650001B68042B0EDC244B1B6813F4804FE7D01F
:10666000224B1B68042BE3DD2769802F28BF80277E
:10667000002320E01E4BD3F80435C288018900793D
:106680000390029101921B4A0092B2221A490520FE
:1066900007F0A2FDDFE7E268D25C18490D68100937
:1066A00059002E5C05A800F8136002F00F020131BA
:1066B000AA5C42540133BB42EDD305AA002302F881
:1066C000173003F1804303F58833D3F80435029281
:1066D0000B4A01920B4A0092B4220749052007F0A9
:1066E0007BFDA5E7002E0020E42F0020E02F0020F6
:1066F00000100140046E0400C56C0400E82F002067
:10670000346E0400406E040030B583B00446451C6E
:10671000504B1B6813F4804F03D04F4B1B68032B67
:1067200019DC022D31D0042D3AD0012D1FD0494B58
:106730001B6813F4804F24D0474B1B68032B20DDCC
:10674000464BD3F80435464A0092FD2245490420C1
:1067500007F042FD15E0414BD3F804350195424A5C
:106760000092D6223F49042007F036FDD9E73F4A80
:106770001388B3F5804F38BF4FF48043A3F58043AF
:106780001380012C2AD903B030BD384A13884BF648
:10679000FF718B4228BF0B4603F580431380F0E75F
:1067A0000BF0D2F998B92B4B1B6813F4804FE8D04B
:1067B000294B1B68032BE4DD284BD3F804352C4A06
:1067C0000092F7222749042007F006FDD9E70CF0D4
:1067D00001FF0BF0AFF9FFF7F5FED2E7234B198865
:1067E000A1F5004109B2234801F076FB224800F0F0
:1067F00067FF0446174B1B6813F4804F03D0164BFA
:106800001B68032B17DC002CBDD0124B1B6813F444
:10681000804FB8D0104B1B68012BB4DD0F4BD3F861
:1068200004350194154A00924FF484720D490220F8
:1068300007F0D2FCA7E7094BD3F804350B4A1288BE
:1068400001920F4A009240F205120649042007F017
:10685000C3FCD8E7E42F0020E02F00200010014007
:106860003C6F0400C56C0400486E040054300020E6
:106870005C6E0400882F0020002E0020946E04001F
:10688000E86C040000B583B03138032814D90D4BEF
:106890001B6813F4804F11D00B4B1B68032B0DDDCD
:1068A0000A4BD3F804350A4A00924FF48B72094917
:1068B000042007F091FC01E0FFF726FF03B05DF82C
:1068C00004FB00BFE42F0020E02F00200010014057
:1068D0003C6F0400C56C040000B585B003A811F03E
:1068E00091F90D4B1B6813F4804F03D00B4B1B68C1
:1068F000032B02DC05B05DF804FB094BD3F804352B
:10690000BDF80C200192074A00924FF48F7206499D
:10691000042007F061FCEDE7E42F0020E02F0020C9
:1069200000100140C46E0400C56C040000B58BB0BB
:1069300064211F4801F004FA1E4B1B7883B90393AE
:106940000593069307931C4B04931C4B08931C4B15
:10695000099303A801F092F920B117F07FFB01E041
:10696000FFF7BAFF01F094FD01F020FA154805F099
:1069700051F90BF033F958B9134B1B6813F4804FDE
:1069800003D0124B1B68032B05DC0BB05DF804FB36
:1069900017F064FBF0E70E4BD3F804350D4A009274
:1069A0004FF4BF720C49042007F016FCEDE700BF5E
:1069B0008568020030300020DD690200DC6E0400D2
:1069C00068700400F02D0020E42F0020E02F00204C
:1069D000001001403C6F0400C56C040000B583B09A
:1069E0000E4B1B6813F4804F03D00D4B1B68032B19
:1069F00008DC01F0F9FB01F025FCFFF76DFF03B0A7
:106A00005DF804FB074BD3F80435074A009240F2C7
:106A100023120649042007F0DFFBEAE7E42F0020F9
:106A2000E02F0020001001400C6F0400C56C040032
:106A300008B5FFF745FDFFF779FFFFF7B1FCFCE76D
:106A400008B5D0F8BC3013B1B0F8D810984708BDDD
:106A500038B51446054630B12AB12146287F1FF0CB
:106A6000FDF820B938BD784601F0D0FCF5E7034ABF
:106A700040F2B91117F000FBF4E700BF7870040092
:106A800008B580F80431C0F8FC102D23C0F800319F
:106A90003AB113465268C0F818211B68C0F8F830A4
:106AA00008BD0023C0F8183100F1F80190F8B800D3
:106AB0001FF0D4F80028F3D0024A40F2813117F0D9
:106AC000DBFAEDE77870040070B582B014461D461D
:106AD000064680B17AB12168307F1FF0ABF870B9FB
:106AE0002368019301A930461DF074FC0DB12368A1
:106AF0002B6002B070BD784601F088FCEBE7034ADA
:106B000040F2D11117F0B8FAEAE700BF787004003C
:106B100030B589B00446A0F1E80550F8283C0DF1E5
:106B20001E0128469847237F012B03D033B1022B47
:106B300008D103E014F80A2C002AF7D0BDF81E3063
:106B400024F80C3C002344F8083C144B1B6813F455
:106B5000804F03D0124B1B68032B09DC54F8243CF4
:106B600023B134F80E2C216A2846984709B030BD6D
:106B70000C4BD3F8043514F8382C34F80C1C206A6C
:106B80000490606A039002910192074A009240F2D9
:106B9000E2220649042007F01FFBDFE7E42F002074
:106BA000E02F002000100140F4700400DD700400AC
:106BB0000E4B1B6813F4804F03D00D4B1B68032B47
:106BC00000DC704700B583B00A4BD3F8043510F8E9
:106BD000382C0192084A00924FF43272074904207F
:106BE00007F0FAFA03B05DF804FB00BFE42F0020C1
:106BF000E02F00200010014038710400DD70040017
:106C000010B582B0134B1C6807E0002204F8042C76
:106C1000A4F19C0000F0AEFE2468C4B114F8043C5A
:106C2000002BF9D00C4B1B6813F4804FEDD00B4BAD
:106C30001B68032BE9DD0A4BD3F80435094A00929F
:106C40004FF42B720849042007F0C6FADDE7012053
:106C500002B010BD90300020E42F0020E02F002073
:106C60000010014054710400DD70040038B50D4679
:106C7000C4B2023120461EF07BFF50B9291D2046C8
:106C80001EF09EFF50B9294620461EF049FF50B91C
:106C900038BD074A892117F0EFF9EFE7044A8A2146
:106CA00017F0EAF9EFE7024A8B2117F0E5F9EFE771
:106CB0007870040010B582B00446694690F8B800B8
:106CC000FFF7D4FFB4F8D830BDF80210BDF80420A7
:106CD0002BB18B4238BF0B46934228BF1346A4F812
:106CE000D8302046FFF7ACFE02B010BD30B583B0FF
:106CF000054614467AB1694695F8B800FFF7B6FF25
:106D0000BDF802306380BDF80430A3809DF80030E8
:106D1000237003B030BD784601F078FBEBE710B587
:106D200082B00446B0F8D830ADF80030B0F8DA30B0
:106D3000ADF802300191D0F8C8301BB16946D0F8E7
:106D4000CC0098476946201D1EF056FB02B010BDCE
:106D500030B583B00446A0F1E805274B1B6813F457
:106D6000804F03D0254B1B68032B22DC94F82C307A
:106D7000022B03D034F80E3C24F8103C2846FFF7D1
:106D800099FF54F8243C23B134F80E2C216A28468C
:106D9000984734F8101CD9B934F8101C14F8300C8A
:106DA0001EF020FF08BB00212846FFF7B8FF03B004
:106DB00030BD134BD3F8043510F8382C0192114A2A
:106DC00000924FF454721049042007F005FACDE701
:106DD000012214F8300C1EF013FE0028DCD00B4A00
:106DE00040F2653117F048F9D6E7084A40F26931B8
:106DF00017F042F9D7E700BFE42F0020E02F002072
:106E00000010014064710400DD700400787004001B
:106E100030B583B014460546B8B1B2B1D5F8C0302C
:106E20000DF1060128469847BDF80630238095F8F5
:106E30001431022B0DD0B5F8DA30638005F1E8008B
:106E400000F0A6FD606003B030BD784601F0DEFAC8
:106E5000E4E7694695F8B800FFF708FFB5F8DA20CF
:106E6000BDF804309A420BD000236380D5F8083176
:106E700023B1D5F80C310BB14FF0FF336360E2E77B
:106E80004FF6FF73F1E700002DE9F04182B00446B0
:106E9000A0F1E80800F0A0FD0546204600F078FDCE
:106EA000074694F82C30022B20D034F80E0C34F81E
:106EB0000C6C801BC317A0FB050105FB0311226AA4
:106EC000D3171FF00EFB0644694614F8300CFFF789
:106ED000CDFECEB1BDF80430BDF802008642B8BF89
:106EE00006469E42A8BF1E46B6B20EE034F80C6CB1
:106EF000606AC317A5FB000105FB0311226A00238A
:106F00001FF0EFFA0644DFE7002624F8106C404635
:106F1000FFF796FD94F82C30022B0BD0B7F5FA7FD3
:106F200005D954F8083CEB1AB3F57A7F22D802B0A1
:106F3000BDE8F08134F8102C636A002B03DDBDF846
:106F400004108A4212D0002B0ADB0023002BE5D06C
:106F5000012384F898300B4B186805F08DFFDDE7AE
:106F6000BDF802309A4203D00023EFE70123EDE79A
:106F70000123EBE744F8085C39464046FFF7CFFEB3
:106F8000D5E700BF8C300020F8B138B50D46044677
:106F90000F4BC0F8B4300F4B0F4A1A600F4A5A60BB
:106FA000C0F8AC300E4B0F4A1A600F4A5A60C0F856
:106FB000A430B8301EF064FE00B138BD84F8B900CA
:106FC000294620461EF044FAF7E70E20704700BF1E
:106FD00064720400843000201D700200ED6F020016
:106FE0007C300020C96A0200516A020038B514469C
:106FF000054638B132B1214695F858001EF0EEFC36
:1070000020B938BD784601F001FAF4E7024A40F2AF
:10701000A11117F031F8F4E77870040070B5144648
:107020001D46064650B14AB1217896F858001EF028
:10703000BFFC38B90DB123782B7070BD784601F0D4
:10704000E5F9F1E7024A40F28D1117F015F8F1E782
:1070500078700400F0B587B015461F460C9E0446B4
:1070600038B332B3D4F8D0302BB1B5F9001089B2AF
:10707000D4F8D400984702233A46B5F900102046C8
:10708000FFF7FEFCD4F8C03004F1D8012046984741
:1070900004A994F8B800FFF7E9FDB5F90030002B1A
:1070A0000BDDD4F8F82042B1BDF81430A4F8DA3082
:1070B00009E0784601F0AAF9D4E7002B27DBB4F801
:1070C000D830A4F8DA30224B1B6813F4804F03D079
:1070D000204B1B68032B23DC04F1E80000F03CFC90
:1070E0009EB1B4F8D8303380B4F8DA20BDF814304B
:1070F0009A422AD000237380D4F8F83023B1B5F92E
:1071000000300BB14FF0FF33736007B0F0BDD4F81F
:10711000F830002BD3D0BDF81230A4F8DA30D2E723
:107120000D4BD3F80435B5F90020D4F8F8100391CD
:10713000D4F8181102910192084A009240F26912A3
:107140000749042007F048F8C6E74FF6FF73D2E777
:10715000E42F0020E02F002000100140887104007F
:10716000DD700400F0B589B015461F460E9E04463A
:10717000F0B1EAB1D4F8D0301BB12988D4F8D400EA
:107180009847D4F8C0300DF11E012046984706A953
:1071900094F8B800FFF76AFD2B88BDF81C108B42ED
:1071A0000BD8BDF81A108B4206D233B9194604E049
:1071B000784601F02BF9DDE71946A4F8DA1094F8C7
:1071C000B8001EF00FFD68BBB4F8DA1079BB94F874
:1071D000B93023B12A88BDF81E309A4248D0B4F89D
:1071E000DA00BDF81E1000233A46411A2046FFF788
:1071F00047FCD4F8F8501F4B1B6813F4804F03D0A2
:107200001D4B1B68032B1EDC04F1E80000F0A4FBFF
:1072100036B1B4F8D8303380B4F8DA3073807560A2
:1072200009B0F0BD154AD42116F026FFCCE70022A4
:1072300094F8B8001EF0E4FB0028C8D00F4AD7210C
:1072400016F01AFFC3E70E4BD3F80435B4F8DA2072
:10725000D4F8FC1004910395D4F81811029101920E
:10726000084A0092E3220849042006F0B5FFCBE764
:107270000025CDE7E42F0020E02F002078700400E7
:1072800000100140BC710400DD700400F0B589B04D
:1072900015461F460E9E0446002846D0002A44D0BC
:1072A000D4F8D0301BB12988D4F8D400984704F121
:1072B00008001CF0D7FE84F8DE003E4B1B6813F478
:1072C000804F13D03C4B1B68032B0FDD3B4BD3F897
:1072D00004352A7968B33A4902910192394A0092F9
:1072E0004FF489723849042006F076FFD4F8C03094
:1072F00004F1D8012046984706A994F8B800FFF792
:10730000B5FC94F8DE30B3B1B4F8D8202B681A4439
:10731000002A15DDBDF81C30934212DBBDF81A308F
:107320009A42B8BF1A4693B20BE0784601F06EF865
:10733000B6E72649D0E7B4F8DC202B681A44E7E723
:107340000023A4F8DA3001233A4629682046FFF7E3
:1073500097FB184B1B6813F4804F03D0164B1B6828
:10736000032B0FDC04F1E80000F0F6FA46B1B4F8A4
:10737000D8303380B4F8DA307380D4F8F8307360E2
:1073800009B0F0BD0D4BD3F80435B4F8DA200492FF
:10739000D4F8F8200392D4F8182102922A680192B6
:1073A0000B4A00924FF495720749042006F014FF2F
:1073B000D8E700BFE42F0020E02F0020001001409C
:1073C0001C72040024720400DD700400FC710400CF
:1073D0003072040038B50C46054620B12146281D00
:1073E0001EF028F838BD784601F010F8F6E70000E6
:1073F00070B582B005461C461646C2B1694695F87E
:10740000B800FFF733FC00238DF80030318891B9C4
:1074100001238DF8003044B1BDF802306380BDF81F
:107420000430A3809DF80030237002B070BD784610
:1074300000F0ECFFE2E7ADF802107388ADF804301D
:1074400095F8B8001EF07EFB90B9BDF8041095F8D1
:10745000B8001EF09FFB88B99DF8001095F8B800A1
:107460001EF048FB80B969462846FFF7B3FFD2E714
:10747000084A40F24B2116F0FFFDE6E7054A4FF4BB
:10748000137116F0F9FDE7E7024A40F24D2116F0BC
:10749000F3FDE8E77870040030B583B00C460023B4
:1074A000ADF80430054638B1ADF8044001A9281DF7
:1074B0001DF0B3FF03B030BD784600F0A7FFF3E73F
:1074C00070B504461D4616466AB1318894F8B80076
:1074D0001EF0E8FA58B931882046FFF7DDFF0DB1FC
:1074E00033882B8070BD784600F090FFEDE7034AAB
:1074F00040F20A2116F0C0FDEDE700BF78700400ED
:1075000038B50446154632B1294694F8B8001EF045
:10751000DFFA20B938BD784600F078FFF4E7034A77
:1075200040F2F11116F0A8FDF4E700BF78700400F6
:1075300038B50446154632B1294694F8B8001EF015
:1075400089FA20B938BD784600F060FFF4E7034AB5
:107550004FF4F37116F090FDF4E700BF787004006B
:1075600038B5002837D00446D0F8C030002B34D0CE
:10757000D0F8BC3033B12046FFF706FD054638B1E0
:10758000284638BDD0F8C430002BF4D10E25F7E7DB
:10759000134BC4F8E830134BC4F8EC30124BC4F86A
:1075A000F030124BC4F8F43004F1E800C4F8700174
:1075B000002384F8803100F031FA05460028DFD13D
:1075C00004F5C2710A4806F046FD0A4805F034FC8D
:1075D000094B1860D4E70E25D2E70E25D0E700BF8F
:1075E000B16B0200116B0200896E0200516D020046
:1075F00090300020016C02008C30002000285AD00E
:1076000030B585B0054690F8B84002A920461EF076
:1076100087FA30BB0DF10A0120461EF0A9FA30BBF3
:1076200003A920461EF0CCFA38BB694620461EF05E
:10763000D5F940BB0DF1020120461EF0E9FA40BB2E
:1076400001A920461EF006FA48BB0DF106012046AE
:107650001EF03EFA48BB694628461DF0C1FF05B042
:1076600030BD164A40F2C63116F006FDD2E7134A85
:1076700040F2C73116F000FDD2E7104A4FF47271A4
:1076800016F0FAFCD1E70D4A40F2C93116F0F4FCCD
:10769000D0E70A4A40F2CA3116F0EEFCD0E7074ABA
:1076A00040F2CB3116F0E8FCCFE7044A4FF4737197
:1076B00016F0E2FCCFE70E20704700BF78700400A0
:1076C000A0B310B50446E83000F054F9D4F8C03047
:1076D00004F1D80120469847B4F8D81099B9B4F805
:1076E000D81094F8B8001EF07DFAC8B9D4F8D0309C
:1076F00023B1B4F8D810D4F8D4009847002120461C
:10770000FFF70DFB10BD012294F8B8001EF078F9C8
:107710000028E4D0064A40F2DD3116F0ADFCDEE789
:10772000034A40F2E13116F0A7FCDFE70E20704774
:107730007870040008B5034B53F82030084698478A
:1077400008BD00BF8872040008B5034B53F8203011
:107750000846984708BD00BF9C72040008B58368BE
:1077600003B1984708BD006B003818BF012070476F
:107770000369013B13F1030F03D843691BB90020D0
:107780007047002070470120704708B5024601216C
:107790008C3009F0BBFB08BD08B50A4600230B631B
:1077A000022102F18C0009F0B1FB08BD90F82C30E9
:1077B000022B01D10020704770B5054638301CF00F
:1077C000C4FC4B01420143EAD064131A64EB01028A
:1077D000940044EA93749E002246331841EB02025F
:1077E000D40044EA5374D900C80B40EA4440E10B8A
:1077F0002A6A0023994208BF904201D3012070BD3C
:107800000020FCE710B504460023036303627030D8
:1078100004F09EFC04F138001CF0C3FC10BD10B550
:10782000044638301CF0BDFC00232362E3680BB132
:107830002046984710BD00002DE9F843044600F1AA
:10784000380528461CF0ADFC04F1200604F11003B5
:107850000FCB86E80F00636A83EAE378A8EBE3784E
:10786000002B4CD0216A4A01CB0E521A63F100035F
:10787000980040EA92709600761840F10007FB00ED
:1078800043EA5673F20016461F464246002330462E
:1078900039461EF0BFFD06460F46A16A4A01CB0ECF
:1078A000521A63F10003980040EA92704FEA820C8A
:1078B0001CEB010240F10003D90041EA5271D000F3
:1078C000804689468F4208BF864201D3B046B946FA
:1078D000B9F1000F08BFB8F57A7F14D22122002336
:1078E000C4E91023012384F8383028461CF030FC0A
:1078F00018B963680BB120469847BDE8F88378460D
:1079000000F084FDAEE74FEAC93141EA58414FEA41
:10791000C830064E064A002380194FF0000646EB99
:1079200001011EF077FDC4E91001DBE720A107008B
:1079300040420F0010B5044604F04CFC236B4FF49A
:107940007A7101FB030104F1700004F019FC236853
:107950000BB12046984710BD10B5044630B1224601
:10796000002104F18C0009F0D1FA10BD784600F036
:107970004DFDF4E710B5044630B12246032104F171
:107980008C0009F0C3FA10BD784600F03FFDF4E723
:1079900070B50446E0B1256A04F138001CF0D5FB4F
:1079A0004B01420143EAD064131A64EB01029400D4
:1079B00044EA93749E002246331841EB0202D10040
:1079C00041EA5371D800C30B43EA4143E81A70BD42
:1079D000784600F01BFDDEE738B50446D0B104F16F
:1079E00038001CF0B2FB4B01420143EAD064131A89
:1079F00064EB0102940044EA93749D0022462B1824
:107A000041EB0202D00040EA5370D900CB0B43EAAD
:107A1000404038BD784600F0F9FCE0E738B5044650
:107A200090B1C4F880400A4BA367A464094BE36497
:107A300004F138001CF0CAFB0546074904F18C002C
:107A400009F04EFA284638BD784600F0DFFCE8E73A
:107A5000997702008B770200D472040069DF7047C7
:107A60003A4B1B78002B70D000B587B0012804D0AA
:107A7000032863D007B05DF804FB0023019301A93C
:107A8000012015F091FD002842D10023039301222B
:107A9000114662F307118DF80C108DF80D20049338
:107AA000ADF814302123ADF81630019A03A9412016
:107AB000FFF7D4FF78BB01A815F0D0FD70BB244BB5
:107AC0001B6803B198470123029302A90DF102003C
:107AD00010F0F4FD28BBBDF8020010F067FA0DF1BC
:107AE000010110F007FCF8B90BF0EAFA9DF801105B
:107AF00000200BF0AFFDD0B904F01EF8D8B9134B3D
:107B000000221A70124B5B68002BB3D09847B1E784
:107B100016F0A4FAB9E716F0A1FACCE716F09EFA2F
:107B2000CDE716F09BFAD6E716F098FADCE7784630
:107B300000F06CFCE0E716F091FAE0E715F008FEC3
:107B4000002897D016F08AFA94E770479630002004
:107B50009830002008B5064B01221A70054804F041
:107B600059F804F03BF800B908BD16F077FAFBE7C6
:107B700096300020A82F002008B503781C2B00D0D9
:107B800008BD074B1B78002BFAD015F025FE18B95D
:107B9000044804F043F8F3E716F060FAF8E700BF92
:107BA00096300020A82F002008B50749074816F096
:107BB000F7FE00B108BD03230022054949690548C5
:107BC00016F00AFFF6E700BFB43000202034002092
:107BD00098300020EC32002008B50378023B082BD7
:107BE0003FD8DFE803F01C05113E3E2C3E3E360038
:107BF0001E4B9B68002B34D0007A002831D01C4AE1
:107C00000121117098472CE0184BDB684BB3184AE0
:107C1000127832B3164A00211170984721E0154BB3
:107C20001B784BB9114B1B691BB1114A0021117014
:107C30009847FFF7B9FF14E0FFF78CFF11E010221F
:107C40000A4B99690C4816F051FF50B116F006FA2C
:107C500007E08168C06809F00FFF18B9054B0122E1
:107C60001A7008BD16F0FAF9F8E700BF9830002046
:107C70009430002095300020EC32002070B586B0A2
:107C800004461F4A03AB07CA03C323F8022B120C96
:107C90001A701C4E35460FCC0FC594E8070085E8D6
:107CA0000700B36953B3184B009303AB174A184945
:107CB000184816F033FE034610B1184606B070BDE2
:107CC000154818F04BFB0146124816F053FE0346C8
:107CD0000028F2D1114818F0BBFC03460028ECD173
:107CE0000E4818F0EBFC01460A4816F043FE034626
:107CF0000028E2D1FFF758FF0346DEE70723DCE761
:107D0000E472040098300020D97B0200B4300020D7
:107D100020340020EC320020D43000209C3200209F
:107D200008B5064B1B681BB906E0044B1B68984757
:107D300012F030FF0028F8DA08BD00BF60340020E0
:107D400010B50C46144B1860144A012114481EF05B
:107D5000DFFAA0B9610CE00341F26F7200238B429D
:107D600008BF824210D24FF47A7200231EF052FBF9
:107D7000014600220B481EF0E1FA38B910BD0A4A4C
:107D80004A2116F079F9E5E70521F2E7064A4B2189
:107D900016F072F9F2E700BF60340020217D020086
:107DA0006473040064340020F0720400002800F0C2
:107DB00082802DE9F04FD1B004463F4B1B6813F48D
:107DC000804F03D03D4B1B68032B0BDC3A4B1B68E9
:107DD00013F4804F03D0394B1B68032B2ADC51B0BE
:107DE000BDE8F08F00230F2B0FD8E25C34490D68FB
:107DF000100959002E5C0FA800F8136002F00F0262
:107E00000131AA5C42540133EDE70FAA00238DF83B
:107E10005C3003F1804303F58833D3F804350292D4
:107E2000284A0192284A009242222849042006F05A
:107E3000D3F9CBE7264BD3F804350D932068020223
:107E400002F47F0242EA0062010A01F47F4142EA41
:107E5000010CA5882A0292B2E688310289B2277AFB
:107E6000637A94F80AE094F80B8094F80C9094F8F4
:107E70000DA094F80EB0E47B0B94CDF828B0CDF8AB
:107E800024A0CDF82090CDF81C80CDF818E0059303
:107E9000049741EA1621039142EA152202924CEA24
:107EA000106001900B4A00920D9B43220749042069
:107EB00006F092F993E77047E42F0020E02F0020AE
:107EC000E82F0020E0730400406E0400CD7304002E
:107ED00000100140F4730400F8B504460F4605682D
:107EE000067A43899BB107F50047618901FB07F1D9
:107EF000094A82FB01325318CA17C2EBE33292B22D
:107F000002B901223146284614F0E4F9F8BD78465A
:107F100000F07CFAE7E700BF0180008010B582B076
:107F200004464389CBB900226168206814F014FA32
:107F3000B8B9206814F00CFA6081144B1B6813F474
:107F4000804F03D0124B1B68032B0EDC6389C3B137
:107F5000206814F0DBFA02B010BD784600F056FA43
:107F6000E1E7784600F052FAE3E70A4BD3F804352C
:107F70000190094A009266220849042006F02CF973
:107F8000E4E7784600F042FAE2E700BFE42F002081
:107F9000E02F002000100140A87404009974040030
:107FA00072DF704773DF704774DF70472DE9F04769
:107FB000A2B006460F469046314A02F10409002558
:107FC0005560D5602F480378C3EB431C2E4C6444A6
:107FD00014602E49614491601F2191809181013389
:107FE00003F0010303704FF03C0A5246294613A8E0
:107FF0001EF09EFB06238DF84F30ADF8486001233C
:108000008DF84A30ADF85C3012AA1892ADF83C6099
:10801000ADF8408011970DEB0A021D928DF8783073
:108020005246294668461EF083FB02238DF8003035
:108030004A46214613A815F0A9F990B9104B03F14F
:108040000C029968684615F0A1F968B9104A0C4904
:108050001048FFF7A5FF082809D070B922B0BDE885
:10806000F08715F0FBFFE9E715F0F8FFEEE70022D7
:1080700003490848FFF794FFEFE715F0EFFFEDE73E
:10808000C83400208434002088340020D8340020F4
:10809000B82F0020B42F0020B0F5202F0AD2074BB4
:1080A000A3FB0023DB0808B103B90123044A938131
:1080B000916070474FF6FF73F5E700BFCDCCCCCC95
:1080C000B82F002008B50121054B1878FFF76AFF8B
:1080D00018B9002004F0A2FC08BD15F0BFFFF8E7B6
:1080E000B42F002008B5044B1878FFF75DFF00B9E6
:1080F00008BD15F0B3FFFBE7B42F002076DF704713
:108100007ADF70477CDF704769DF704708B515F08C
:10811000A5FF08BD08B503F085FD08BD00B583B017
:10812000037823B1012B0BD003B05DF804FB3B2196
:108130004088FFF7E3FF0028F6D015F08FFFF3E744
:10814000094B1B6813F4804FEED0084B1B68032BC0
:10815000EADD074BD3F80435064A00926822064947
:10816000042006F039F8DFE7E42F0020E02F00209C
:10817000001001403C7504002175040000B585B075
:1081800015F0E6FA18BB0023039303A9012015F0AC
:108190000BFAF8B9002300930122114662F307118C
:1081A0008DF800108DF801200193ADF808302123DF
:1081B000ADF80A30039A69464120FFF7A5FF60B980
:1081C00003A815F04BFA58B905B05DF804FB15F09B
:1081D00045FFD8E715F042FFDCE715F03FFFEFE77A
:1081E00015F03CFFF0E7000000B585B09DF80C30BD
:1081F000012262F3030362F307138DF80C3021228E
:108200000F4903A8FFF77EFF98B97823ADF8043033
:10821000C823ADF806300023ADF808304FF4C8731A
:10822000ADF80A3001A8FFF76BFF28B905B05DF87B
:1082300004FB15F013FFE8E715F010FFF6E700BFA9
:108240006875040000B58BB07823ADF80430C823FE
:10825000ADF806300023ADF808304FF4C872ADF821
:108260000A200693079301AA039240F6CD42049296
:108270004FF48032059203228DF81820ADF81A30A1
:108280008DF81C30064B0893064B099303A815F094
:1082900045FC10B90BB05DF804FB15F0DFFEF9E703
:1082A0001D8102000D8102000620704700B587B0D5
:1082B00044F20103984262D01BD8012836D041F223
:1082C0000103984276D1474B1B6813F4804F36D098
:1082D000454B1B68002B32DD444BD3F8043502922A
:1082E0000191434A009263224249012005F074FF44
:1082F00025E044F2020398425CD13A4B1B6813F428
:10830000804F1CD0384B1B68002B18DD374BD3F83F
:10831000043510680390526802920191364A009227
:1083200069223449012005F057FF08E02D4B1B68F6
:1083300013F4804F03D02C4B1B68002B12DC4FF042
:10834000A0434FF4F012C3F81825C3F80C25EFF33F
:10835000108372B64DF6AD6C284B1B78002B3ED0C7
:1083600030BFF9E7214BD3F8043502920191244A3A
:10837000009260221F49012005F02EFFDFE7194B14
:108380001B6813F4804FDAD0174B1B68002BD6DD27
:10839000164BD3F80435106804905068039002918E
:1083A00092680192174A009273221249012005F047
:1083B00013FFC4E70B4B1B6813F4804FBFD00A4B6D
:1083C0001B68002BBBDD094BD3F8043501910E4A25
:1083D00000927B220749012005F0FEFEAFE707B0BF
:1083E0005DF804FBE42F0020E02F00200010014086
:1083F00020760400F175040044760400D02F00209C
:1084000004760400647604008876040000B583B026
:10841000014600230093054B01936A4644F2020093
:10842000FFF744FF03B05DF804FB00BF847604004F
:1084300010B40346044C006859689A68DB680FC49E
:108440005DF8044B704700BF183500200D4B0E4AF5
:1084500092E8030083E8030003F108020B4903C913
:1084600082E8030093F9062002F00F0242F0400276
:108470009A7193F9082002F03F0242F080021A72CA
:10848000704700BF1835002060000010A4000010E5
:10849000004870471835002000231F2B09D80749D2
:1084A00001EBC30000224280426001F83320013317
:1084B000F3E7034B00221A60704700BF2835002005
:1084C0002836002030B405460F4B1B6800240AE014
:1084D0001F230E4A12F83300A0B102EBC3025288E8
:1084E000AA4207D001341F2C0BD85A1E002BEFD004
:1084F0001346EEE7054A02EBC30252688A42F1D105
:1085000000E0002030BC70472836002028350020CD
:1085100030B40A4A13680A4C04EBC30568806960EA
:10852000012104F833100B441360202B01D030BC20
:108530007047134600221A60F9E700BF2836002072
:1085400028350020F0B414461D46002300E0013316
:10855000072B0ED81A0108498A5A8242F7D101EB3B
:108560000312D2E90267AF4208BFA642EFD1012051
:1085700000E00020F0BC70473036002030B4C16904
:108580008269C3880D0A0C06C2F30C01994216D207
:108590005B1A1344A3F50053E41845F10005094A9A
:1085A0001368591C116003F00703808A064A1901F9
:1085B00002EB03135052C3E9024530BC70475B1A0B
:1085C0001344E9E7B036002030360020C37D002B8D
:1085D00042D0C3780A7802F0800203F07F0313438D
:1085E0000B7002780B7803F07F0343EAC2130B7021
:1085F0000378002B41D030B48378082B14BF0022BD
:1086000001224B7803F07F0343EAC2134B70C58805
:1086100003F08003C5F3861423434B708A7802F07D
:10862000030242EA8502D2B28A70057A02F0FC02A5
:10863000C5F3C10422438A70CB7803F01F0343EAD9
:108640004513DBB2CB70427A03F0E00302F01F0265
:108650001343CB7030BC7047C3780A7802F0BF0276
:108660009B0103F0400313430B70027903F0C00336
:1086700002F03F0213430B70B3E770470023032B54
:1086800031D810B402E00133032B28D8C3EBC30266
:10869000164C04EB021292F84820012AF3D1C3EBE6
:1086A000C30204EB0212948AC2899442EBD1C3EB59
:1086B000C3020E4C04EB0212D2888A42E3D1C3EB10
:1086C000C30204EB0212B2F8582012B1848AA2420B
:1086D000D9D1C3EBC303054800EB031000E0002031
:1086E0005DF8044B70470020704700BFDC36002067
:1086F000002300E00133032B16D8C3EBC3020B4960
:1087000001EB021292F84820022AF3D1C3EBC30214
:1087100001EB0212918A828A9142EBD1C3EBC3032F
:10872000024800EB0310704700207047DC36002041
:1087300008B9042070470820704730B403460C463F
:108740000978C17000214162A1680B2903D8217BFF
:10875000F9B1012100E0012119700020987029B1C0
:10876000A1680731C9080139597218720121D975F8
:1087700003F10C056169206985E80300E1899982AC
:10878000A1691962217F9975216AD9629A6230BC08
:1087900070470021E0E700000021164B1B688B4268
:1087A00026D90023144A02EBC10252689A421DD90D
:1087B00010B4114A52F8312002EBC30412F83320EE
:1087C00082420DD001330C4A02EBC10252689A4238
:1087D000EFD80131074B1B688B4205D90023F2E724
:1087E00060685DF8044B70470020FAE70131D4E778
:1087F00000207047B4360020B836002070B58CB029
:1088000006460D4614462C22002101A81DF090FFBB
:108810000F238DF80430ADF808604FF0000365F3C6
:1088200000038DF80A308DF80B4001A801F0EAF939
:108830000CB070BD30B58DB005460C462C22002121
:1088400001A81DF075FF10238DF8043002958DF8F6
:108850000C4001A801F0D6F90DB030BD00B58DB0C7
:1088600010B913F1020F06D1074B186804F004FB8E
:108870000DB05DF804FB01218DF804100293039202
:1088800001A801F0BFF9EFE7C0360020F8B5069C5B
:10889000002960D01E460F4615685168D2F808C0FE
:1088A000D368E5602161C4F814C0A36115695169FA
:1088B000E5612162002363700278D20922705AB305
:1088C0000423BB4249D8E17D41B3037803F07F0321
:1088D000E3700023A3709AB143789B0103F4FE5325
:1088E000827843EA9203E3808378DB0003F0180385
:1088F000C27843EA52132372C37803F01F036372F2
:10890000002363623378032B21D83278144B53F859
:108910002230E3620020F8BD0123D2E70178C1F3E1
:108920008011E170017801F03F01217142B190F9AD
:108930000130002B02DB0423A370CCE70823FBE704
:108940000421A1700B44BB42C5D90920E3E7784656
:10895000FFF75CFDD9E70920DDE70920DBE700BF71
:108960005878040070B50C461D4603789BB1042668
:108970003244A26000F10C032360836A6360C36A1F
:10898000E36000232374204604F0E8FD10B9636916
:108990001E442E6070BD0126EAE72DE9F0418EB03D
:1089A0000D4616461C46804600282DD0002D2FD09F
:1089B000002C31D0636A0233059304F10C00E37894
:1089C000002B2DD00121A27801AF3B46082A14BF0D
:1089D0000022012204F095FB0697CDF81C80B2B26C
:1089E000ADF820200B9515440C95A3788DF8343004
:1089F000237B022B16D00023ADF8283005A804F005
:108A000078FB0EB0BDE8F0817846FFF7FFFCCDE7BC
:108A10007846FFF7FBFCCBE77846FFF7F7FCC9E7A2
:108A20000221D0E723692BB1236909931023ADF804
:108A30002830E3E77846FFF7E9FCF5E72DE9F04158
:108A400088B004460D46C37D002B3CD0082605FBAC
:108A500006F8637AAB4238D0257201AB324602A9E0
:108A60002046FFF77FFF074648BB4DB994F85330C7
:108A700033B9A369C3F30C03E380012384F85330B3
:108A8000E37D7BB994F8523063B91DBBE06EB4F856
:108A90004A10A27823468A1A0146FFF77EFF012377
:108AA00084F8523007992046FFF790FDE16E324678
:108AB000414401981DF013FE02A804F075FD3846EC
:108AC00008B0BDE8F0810C26C1E7B4F84A60A6EB17
:108AD0000806C1E77846FFF799FCD7E770B5054669
:108AE0000E4609B100230B6095F85040002104E0C8
:108AF000631C85F850300134E4B26B7AA34210D382
:108B0000EA6C0123A3401A42F5D121462846FFF71B
:108B100095FF014628B9002EEAD03368013333604F
:108B2000E6E7084670BDF0B589B004460E46154626
:108B300083789A18C37D63B10B239A4221D801AB85
:108B400002A92046FFF70EFF074620B1384609B0BC
:108B5000F0BD0F23F1E707992046FFF737FDE37DCE
:108B600043B12A46314601981DF0B9FD02A804F030
:108B70001BFDEBE723462A4601993046FFF70DFF20
:108B8000F4E70927E2E7000010B5044690F8483002
:108B9000012B0CD103F01EFB237B012B0BD0094BC7
:108BA000D968014404F1300003F0EAFA10BD7846B8
:108BB000FFF72CFCEEE7A17D024BDA681B6903FB93
:108BC0000121EEE7C436002030B583B0002403E075
:108BD0002846FFF7D9FF0134032C18D8C4EBC4038F
:108BE0000C4A02EB031393F84830012BF3D1002316
:108BF0000193C4EBC40502EB051501A92846FFF754
:108C00006DFF0428E4D0019B002BE4D0E0E703B023
:108C100030BD00BFDC36002038B5044690F848303F
:108C2000022B09D1064B1D6803F0D4FA411904F157
:108C3000300003F0A5FA38BD7846FFF7E7FBF1E70F
:108C4000C436002038B5044690F84830022B10D1C5
:108C50000A4B5D7D5A689B6803FB052503F0BAFA51
:108C6000411904F1500003F08BFA012384F86830B5
:108C700038BD7846FFF7CAFBEAE700BFC4360020DC
:108C800010B50446808A02F015FE01281CD1237B12
:108C9000E3B194F91620002A1ADBE27D4AB1022BD7
:108CA00018D094F90330002B16DBA378B3B9002059
:108CB0000BE0E2780AB9012B12D1237893B9A3789B
:108CC000042B11D1002000E0102010BD1020FCE783
:108CD0000720FAE71020F8E70720F6E70720F4E777
:108CE0000720F2E70020F0E70720EEE738B504465A
:108CF00003784BB1C388C2698169808A06F054FC4D
:108D0000054645B9284638BDC2698169808A06F0A2
:108D100045FC0546F5E7E169002201F00101A08A62
:108D2000FFF76CFDEEE700002DE9F04780460E46A8
:108D300017464B1EDBB2012B0FD8B7F5C07F10D8FA
:108D40000024032C1AD8C4EBC403314A02EB0313EA
:108D500093F848304BB10134F3E77846FFF756FB00
:108D6000EBE77846FFF752FBEAE7C4EBC40502EBFA
:108D70000515384608F067FEE86600E000255DB39B
:108D8000EB6E002B42D043462C4608F1300ED3F850
:108D900000C058689968DA68C4F800C06060A160D3
:108DA000E260103310347345F1D10023EB64A5F871
:108DB0004A70012E13D06FF00103AB62002385F8D7
:108DC0006830144BAB652D66134BAB632D640120EB
:108DD00002F044FA85F848602846BDE8F0870F4B5A
:108DE0001B7D85F85130002385F8523085F85330CB
:108DF00085F85030D8F828206A65A5F858306FF00B
:108E00000103AB62064BAB632D64E0E71D46E3E76D
:108E1000DC3600200F98020059910200C436002071
:108E2000A591020000B585B000228DF80F20A0B1F9
:108E30000B46024602320A600DF10F01184604F09B
:108E40005CF99DF80F3043B10C4B1B6813F0040F15
:108E500003D00B4B1B68032B04DC9DF80F0005B0FF
:108E60005DF804FB074BD3F80435074A009240F243
:108E700015420649042005F0AFF9EEE7E42F002083
:108E8000E02F002000100140107704000377040059
:108E90002DE9F0438FB004460E4615461F46D0F824
:108EA000188003784BB1C288C8F30C03934241D2B7
:108EB000D21A4244A2F50052A26104F10C00E378F8
:108EC000002B3AD00121A2780DF128094B46082A3F
:108ED00014BF0022012204F014F9C4F81880CDF860
:108EE00008900396A378EA1A92B2ADF810203244A3
:108EF000089207978DF824300023ADF81830E378F6
:108F00007BB3237B022B1AD02546002345F8243F50
:108F10002A462179206A0FF0E7FE606AA8B101A90C
:108F2000FFF780FF002840D12A462179206A0FF000
:108F3000DBFEF2E7D21A4244BEE70221C3E7102368
:108F4000ADF8183023690593DEE7237B022B30D17F
:108F500004F10C01E0890FF079FF0028D1D1052040
:108F600024E0237B012B01D005201FE0E389ADF82D
:108F70000030A38AADF802300025012D13D8214618
:108F8000002341F8243F0EAB03EB450333F8380CC4
:108F90000FF0C7FE01A9606AFFF744FF08B9013569
:108FA000EBE7002002E0052000E000200FB0BDE864
:108FB000F0830520FAE7000070B5F0B00E461446C5
:108FC0001D4610AB0A4601462046FFF761FF50B12F
:108FD000214B1B6813F0040F03D0204B1B68052B9B
:108FE0002DDC70B070BD2046FFF780FE0028F8D160
:108FF00003AB01228DF80C20A28AADF80E200022CE
:1090000004928DF8142010AA0692A178711AADF876
:109010001C1008AA93E8030082E803000AAB216948
:10902000E06883E80300A37D8DF83830236A0C9351
:10903000636A0D930F9505A800F0E4FDD1E7084B96
:10904000D3F80435074A009240F20172064906201F
:1090500005F0C2F8C5E700BFE42F0020E02F002094
:1090600000100140247704000377040010B5044683
:10907000C06E08F0ECFC04F1300003F069F894F8DD
:109080004830022B0AD07022002120461DF050FBF0
:10909000002084F8480002F0E1F810BD04F150000F
:1090A00003F056F8EFE710B58CB0044690F848305E
:1090B000012B0FD101238DF80430636D029303F06F
:1090C00089F8039001A800F09DFD2046FFF7CEFF30
:1090D0000CB010BD7846FFF799F9EBE730B585B0D5
:1090E0000D460446A8B194F84830022B15D0294605
:1090F000606DFFF79FFB2046FFF7B8FF114B1B6821
:1091000013F0040F03D0104B1B68032B09DC05B0D0
:1091100030BD7846FFF77AF9E5E72046FFF72EFAEB
:10912000E5E70A4BD3F8043594F8482002950192FC
:10913000074A009240F2F3120649042005F04CF869
:10914000E5E700BFE42F0020E02F002000100140E1
:10915000507704000377040008B508460021FFF7A4
:10916000BDFF08BD08B5037B012B02D0FFF79BFFB5
:1091700008BD0121FFF7B2FFFAE7000008B590F83B
:10918000513053B1013B80F85130002380F850300A
:10919000034B186803F070FE08BDFFF7E3FFFBE721
:1091A000C036002010B50C4691F84830012B03D191
:1091B0002046FFF7E3FF10BD7846FFF727F9F7E7F2
:1091C000062976D1F0B585B015460678B20102F4CD
:1091D000FE5241788478C3781B0443EA046304791F
:1091E00043EA042344791C4376B242EA91012846BB
:1091F000FFF744FA0746E0B1002E2FDBC289A98AA7
:109200008A422BD02B4B1B6813F0040F3ED02A4B05
:109210001B68012B3ADD294BD3F8043502910192EA
:10922000274A009240F27B622649022004F0D4FFD4
:109230002CE0204B1B6813F0040F27D01E4B1B683B
:10924000012B23DD1D4BD3F804351F4A009240F259
:1092500077621C49022004F0BFFF17E0002E17DBE5
:10926000FD6C2543FD64BCB13B78D3B17B7A5A1CBD
:1092700001239340013B9D4217D0002187F85010F5
:109280003846FFF72BFC3846FFF77EFC05B0F0BDF3
:10929000AB8AA7F85830E3E703213846FFF71EFFF3
:1092A000F4E77846FFF7B2F8E0E73846FFF7FBFE51
:1092B000ECE77047E42F0020E02F00200010014071
:1092C000A477040003770400747704002DE9F041CB
:1092D0008AB007460E4614461D461046FFF706FDA7
:1092E00050B994F80380B8F1000F08D12B462246FC
:1092F00031463846FFF764FF0AB0BDE8F0814046CA
:10930000FFF74AFA02460028F6D08DF80480236A57
:109310000793A38AADF8123005AB2169E06883E8B2
:109320000300A37D8DF820300297039623788DF8F3
:109330001030E36A0993294601A89047DCE710B58D
:10934000547814F0010F03D0D47D14B1FFF7BEFFA1
:1093500010BDFFF731FEFBE708B501390130FFF71B
:10936000EEFF08BDF0B5C7B00F461646827832440E
:10937000C37D2BB14FF4807393427CD3002303E071
:109380004FF4C073F8E70133032B1AD8C3EBC304BF
:109390003B4D05EB041494F848100129F3D1C3EBBD
:1093A000C30105EB01118C8A818A8C42EBD1C3EB9E
:1093B000C30105EB0111CC89C1898C42E3D1082599
:1093C00052E00121FFF7B0FC0446002855D0324698
:1093D0003946C06E1DF083F90023459345A9204608
:1093E000FFF77CFB054608B1042840D1459B0BBB29
:1093F000244B1B6813F0040F35D0234B1B68032B41
:1094000031DDB4F84A70802F28BF80270023BB428B
:1094100014D2E26ED25C1D490D68100959002E5C11
:1094200004A800F8136002F00F020131AA5C425454
:109430000133ECE72046FFF7A7FBD9E704AA002396
:1094400002F8173003F1804303F58833D3F804356D
:1094500002920F4A01920F4A00924FF4AC620E49F9
:10946000042004F0B9FE0025284647B0F0BD204690
:10947000FFF7FCFDF8E70925F6E70425F4E700BF50
:10948000DC360020E42F0020E02F0020E82F002011
:10949000E8770400406E04000377040070B50446CA
:1094A0000D461646FFF7ECFB30B923782BB1324658
:1094B00029462046FFF756FF70BD32462946204612
:1094C000FFF731FBF8E7000038B504460D46CB69DD
:1094D0005B780371CB691B7883F00103C370CB69A0
:1094E00043628B8A0B2B07D8CB7A002B35D10B7BB1
:1094F000012B02D0002300E001232370002B31D088
:10950000287B02282BD0FFF713F9A070AB8A034405
:109510000B33174A82FB03235B10013B637200236A
:1095200023720023E37504F10C0395E8030083E83C
:109530000300AB6923622B89A382AB7AA3752B6AE4
:10954000A362DF23E36228460FF0AEFC20B12B7844
:10955000012B0AD0FF23E36238BD0123CDE7054B81
:10956000987DD0E70423A370DBE72023F3E700BF57
:10957000ABAAAA2AC436002010B54FF4E07200212D
:1095800013481DF0D5F806F0CDF90024114B1C60EE
:109590008022214610481DF0CBF8104B104A1A606B
:1095A000104A5A604CF250329A600F49D9601A61E1
:1095B00004221A759C7508225A750C4803F03CFC6D
:1095C0000B4B18600B4B1C600B4806F0A3FA10BD48
:1095D000DC360020B036002030360020C4360020B3
:1095E00080969800F049020020A10700019802002F
:1095F000C0360020B43600205D88020008B505F0B2
:10960000C5FF08BD98B110B58CB00446036983B19D
:10961000C36983B1836983B101466846FFF754FF8C
:10962000A28A21696846FFF739FF0CB010BD0E20F1
:1096300070470E20F9E70E20F7E70E20F5E700004F
:1096400058B310B590B00A46044643683BB38369EB
:109650003BB3014604A8FFF770F8134B1B6813F0E7
:10966000040F03D0114B1B68062B06DCA26861684F
:1096700004A8FFF713FF10B010BD0D4BD3F804354D
:109680002278A169029101920A4A009240F60302EF
:109690000949072004F0A0FDE8E70E2070470E20DE
:1096A000E9E70E20E7E700BFE42F0020E02F0020CD
:1096B00000100140F877040003770400037B012BBE
:1096C00001D00020704730B591B004460D46334BB1
:1096D0001B6813F0040F03D0314B1B68032B41DCD4
:1096E00004A900230593CDF81730E288C2F3861051
:1096F00092008DF811202A0E8DF812202A0C8DF878
:1097000013202A0A8DF814208DF815506278022A49
:109710000CBF80221A4642EA00028DF810204FF05A
:10972000060209924FF001028DF82C20A28AADF8B2
:109730002E200C938DF81C300891226A0D928DF822
:109740002830E36A0F9319D0E389ADF82A30A37D5E
:10975000F3B98DF838306FF0010107A8FFF770FFFB
:1097600011B030BD0F4BD3F804350F4A009240F2D0
:1097700063220E49042004F02FFDB1E70DF10E0124
:1097800003A80FF07FFBBDF80C30ADF82A30DEE700
:10979000074B5B7D8DF83830DDE700BFE42F0020FC
:1097A000E02F00200010014024780400037704001B
:1097B000C436002090F84830022B00D0704710B516
:1097C000044690F86830022B00D010BDC16CFFF742
:1097D00075FF0028F9D1002384F86830F5E7000010
:1097E00010B5002407E0C4EBC40213010348184479
:1097F000FFF7E0FF0134032CF5D910BDDC36002063
:1098000008B5FFF7E1F9FFF7EBFF012008BD10B540
:109810000C4691F84830022B06D1022384F86830B8
:109820002046FFF7C7FF10BD7846FEF7EFFDF4E7CF
:10983000F0B583B00446C5698269C3882F0A2E0635
:10984000C2F30C05AB4232D95B1B1344A3F50053A2
:10985000F61847F1000732463B46A08AFEF772FE33
:10986000002840F08B802046FEF742FF054648B3B3
:10987000D0F81CC08269C3884FEA1C214FEA0C60F3
:10988000C2F30C0C9C4515D2A3EB0C031344A3F5B7
:109890000053C01841F10001B94208BFB0420DD3D6
:1098A0008F4208BF864230D3284603B0F0BD5B1B11
:1098B0001344CDE7A3EB0C031344EAE70521284644
:1098C000FFF70CFCE388E269A169A08A05F02AFF92
:1098D000E8B9627A531CE17D99B3082202FB03F2D6
:1098E00089B34FF48073934230D302212046FFF7AF
:1098F0001BFA05460028D7D100212046FFF7DEFEDF
:1099000002210020FEF796FFCEE70025CCE7E38892
:10991000E269A169A08A05F07FFF60B1237863B195
:10992000617A4B1C0121994001392046FFF7C6FEA0
:109930002046FFF7DBF90025B6E77846FEF766FD1F
:10994000EEE70C22CAE74FF4C073CCE70C4B1B6860
:1099500013F0040F03D00B4B1B68002B01DC002518
:10996000A2E7094BD3F804350192084A009240F26D
:109970007F320749012004F02FFCF0E7002593E730
:10998000E42F0020E02F0020001001403478040074
:10999000037704002DE9F04182B007460E461446D5
:1099A00098461046FFF744FF002846D00546404B36
:1099B0001B6813F0040F03D03E4B1B68032B3FDCE6
:1099C0002846FFF729F92B7B012B47D0EB6C217A36
:1099D00001228A40134230D11A43EA64043E237ABA
:1099E000E27D002A42D04FF0080C0CFB03FC697AA0
:1099F0008B423ED0002A41D00823B34240D1AA690D
:109A0000A3699A4209D205F10C0E0C340FCCAEE8D2
:109A10000F0094E803008EE80300E86E3246391D1B
:109A200060441CF05CFEEC6C2B7873B36B7A5A1CB0
:109A300001239340013B9C422BD002B0BDE8F08152
:109A40001D4BD3F80435227A01921C4A009240F251
:109A5000A3321B49042004F0BFFBB1E795F868303E
:109A6000002BB3D12846FFF7EDF8AFE74FF00C0C11
:109A7000BBE70CEB0603A5F84A30C0E70C23BCE7B4
:109A800004212846FFF72AFBD7E77846FEF7BEFCFD
:109A9000CCE7E96C2846FFF711FE43462A46B5F8A5
:109AA0004A10E86EFFF74BFC2846FFF7DFFAC4E7E1
:109AB000E42F0020E02F002000100140487804002F
:109AC000037704002DE9F04190B000284CD00F46F8
:109AD00014461E468046002A48D004AB0093334605
:109AE000FEF7D4FE054618B1284610B0BDE8F08157
:109AF00004A8FFF7C5F805460028F5D10023029316
:109B0000039302A960880FF0A1F928B19DF81130E4
:109B100043F001038DF811302269E168208905F0D6
:109B2000B9FD38B19DF8113003F0FE038DF8113006
:109B3000002BD9D09DF81130002BD5D013F0010F98
:109B400001D0039B08939DF8103033B1334604AA2B
:109B500039464046FFF71EFFC6E7334604AA39469A
:109B60004046FFF7F9FBBFE70E25BDE70E25BBE733
:109B7000F8B508B30E460546164B1F68F7B93C46C4
:109B8000B4420FD205EBC4035B68D3B115F83400BF
:109B900015F93430002B16DBB8B1FEF7FDFDB0B976
:109BA0000134EDE70C4B43F8375003EBC7035E601D
:109BB0007B1C084A136002E00E2700E004273846A9
:109BC000F8BD0E27FBE70B27F9E70F27F7E70F276D
:109BD000F5E700BFB4360020B8360020084B1968FE
:109BE00061B110B504E0064804F060FA214624B1E2
:109BF0000C680B79002BF9D0F5E710BD704700BF5A
:109C0000A038002038B5054630B1104B1C68ACB107
:109C10000F4B01221A7004E07846FEF7F7FBF4E7D9
:109C200024683CB12379002BFAD154F8043C28462F
:109C30009847F5E7064B1B78022B00D038BDFFF79D
:109C4000CDFF034B00221A70F8E700BFA0380020B8
:109C50009C38002010B5044630B100232372211D2A
:109C6000034804F0F8F910BD7846FEF7CFFBF4E79F
:109C7000A038002010B5044658B10A4B1B78013BB0
:109C8000DBB2012B09D8074B02221A700123237281
:109C900010BD7846FEF7BAFBEFE7211D024804F03D
:109CA00005FAF5E79C380020A03800200A88836870
:109CB0009B5A07339BB223F0030313449BB20288E1
:109CC000043A934200D900230B80704710B582B04C
:109CD00004468368C91AADF806100DF10601FFF7B6
:109CE000E5FFBDF80630A068184402B010BD00883A
:109CF000043880B2704743888268D018D15201235B
:109D0000837070478268002393704380838070471C
:109D1000073189B221F0030189B2428883889A42CF
:109D200004D29B1A99421EDC0020704710B59A425B
:109D30000FD90488A41AA14217D98B4217D3032C38
:109D400003D98368134404229A7000234380184681
:109D500004E0826813449B780BB1042010BDFFF728
:109D6000D1FF0020FAE7042070470020F6E7042026
:109D7000F4E738B504460D468368828813448B4265
:109D800002D07846FEF742FB0023AB70211D20462F
:109D9000FFF78CFFA288A36813449B78042B00D0A4
:109DA00038BD0023A380FBE710B50C4683684288CA
:109DB00013448B4202D07846FEF728FB0023A370A1
:109DC00010BD70B5054614460E46002944D0002D3E
:109DD00046D0B6F1005F08D94FF08053D3F80C316C
:109DE00003F50023B6EB832F0ED3B6F5000F08D989
:109DF0004FF08053D3F80C3103F50053B6EB832FAB
:109E000002D37846FEF702FB631E3344B3F1005FD2
:109E100008D94FF08052D2F80C2102F50022B3EBA2
:109E2000822F0ED3B3F5000F08D94FF08052D2F82D
:109E30000C2102F50052B3EB822F02D37846FEF7D5
:109E4000E5FA042C10D92C8000236B80AB80AE6027
:109E5000043C3480B37070BD7846FEF7D7FAB6E79D
:109E60007846FEF7D3FAB4E77846FEF7CFFAEAE78A
:109E700038B50446A0B16288A36813449B78012BCF
:109E800012D0EFF3108572B6A388A16819448B78BD
:109E9000032B0DD02046FFF735FF05B962B638BD5C
:109EA0007846FEF7B3FAE6E77846FEF7AFFAE8E75A
:109EB0002046FFF70BFFA368C31A6380002383705B
:109EC000EBE72DE9F0410E4614460546D0B1EEB160
:109ED0006A88AB6813449B78012B1BD024B32846B7
:109EE000FFF705FFA04221D3EFF3108872B6214699
:109EF0002846FFF70DFF074680B1B8F1000F16D1D5
:109F000062B614E07846FEF781FAE0E77846FEF79D
:109F10007DFADDE77846FEF779FADFE72146284645
:109F2000FFF7E9FE3060E8E7092700E00927384637
:109F3000BDE8F081F8B50C4615460646E0B1FCB127
:109F4000A378012B20D12388AB4221D325B3EFF393
:109F5000108772B625800223A370F1183046FFF7F0
:109F6000A5FE7388B288934203D0B26813440022DE
:109F70009A7007B962B6F8BD7846FEF747FADEE791
:109F80007846FEF743FADBE77846FEF73FFADAE772
:109F90007846FEF73BFAD9E77846FEF737FAD6E778
:109FA00070B50C46054690B1ACB1EFF3108672B6B1
:109FB000AA88AB6813449A78042A10D09A78022AA7
:109FC00015D0032A18D0052006B962B670BD7846B0
:109FD000FEF71CFAE8E77846FEF718FAE5E7291DD0
:109FE0002846FFF763FEAA88AB681344E6E703221E
:109FF0009A7023600020E7E77846FEF707FA002012
:10A00000E2E738B5044680B1EFF3108572B6A08858
:10A01000A16801448B78042B0BD08878022814BFE8
:10A020000020012005B962B638BD7846FEF7EEF98A
:10A03000EAE72046FFF74AFE0146EEE738B5054657
:10A0400078B1EFF3108472B6A888A96801448878C3
:10A05000C31EDBB2012B08D82846FFF737FE0146A6
:10A06000F5E77846FEF7D2F9EBE7022814BF0020A7
:10A07000012004B962B638BD70B50C46064678B109
:10A0800094B1EFF3108572B6A378012B10D0032B97
:10A0900013D121463046FFF76CFE05B962B670BD9C
:10A0A0007846FEF7B3F9EBE77846FEF7AFF9E8E755
:10A0B00021463046FFF778FEEFE77846FEF7A6F92F
:10A0C000EBE710B5EFF3108472B68388816819440A
:10A0D0008B78042B06D08878B0FA80F0400904B958
:10A0E00062B610BDFFF7F2FD0146F4E708B5064B76
:10A0F000986800221A605A609A60DA601A615A61A0
:10A100009A6104F0E9FF08BDA438002000B585B0CD
:10A110000A4BDB6802228DF8002001934FF4805334
:10A120000293074A6946012001F0DAFA18B90120C2
:10A1300005B05DF804FB0020FAE700BFA43800205A
:10A14000C038002000B585B00A4B1B6802228DF88C
:10A15000002001934FF480530293074A694601207F
:10A1600001F0BEFA18B9012005B05DF804FB00202B
:10A17000FAE700BFC4380020C0380020164BDA6868
:10A18000137951795B1A03F57F2303F6FF7302EB12
:10A1900003339A4205D002F580520F4BDA60032058
:10A1A000704700B585B00D4B1B6801208DF800008D
:10A1B00001930B4B0393042302930A4A694601F06F
:10A1C0008FFA18B1002005B05DF804FB024B0122A4
:10A1D0001A760220F7E700BFA4380020C438002018
:10A1E000C8380020C038002000B585B00C4BDA68B4
:10A1F0000C4B1B68043301208DF80000019203937F
:10A2000040F6FC730293084A694601F069FA28B9DE
:10A210000120034B187605B05DF804FB0020FAE737
:10A22000A4380020C4380020C038002000B585B014
:10A230000A4B1B6801208DF800000193084B039323
:10A2400004230293074A694601F04AFA18B901202B
:10A2500005B05DF804FB0020FAE700BFC438002019
:10A26000B0380020C038002010B584B0104BDA6838
:10A270001478104B1B68043301208DF80000019303
:10A28000039202940C4A694601F02AFA70B9094B0C
:10A290001B6804F0FC041C440434054B5C61D96861
:10A2A0000A780A441A61012004B010BD0020FBE7BF
:10A2B000A4380020C4380020C038002008B500238E
:10A2C000092B09D8064A52F82320824201D00133D3
:10A2D000F6E7044A536002E07846FEF797F808BDB7
:10A2E00014790400A438002010B5214BDB6853B169
:10A2F0001F4B1B7E5BB91E4B5B68092B26D978462A
:10A30000FEF784F822E07846FEF780F8F0E778461A
:10A31000FEF77CF8EFE7164A536801335360092BC8
:10A3200021D97846FEF772F81DE0114B00225A60E1
:10A3300019E00F4B1B7E1BB10D4B02221A7012E06D
:10A34000FFF7D4FE0FE00A4B1B7E83B9084B5A6817
:10A35000084B53F82230984704460228E9D00328D6
:10A36000E3D00128D7D0012CEDD0032CEBD010BDC9
:10A37000A438002014790400104B1B681B685A1E77
:10A3800012F1030F18D8C3F30B020AB10020704773
:10A3900010B50B4AD3600023137653760124147052
:10A3A00093600848FFF78AFF0749204601F086F9C5
:10A3B000FFF79AFF204610BD00207047C4380020E8
:10A3C000A43800200DA10200CDA3020008B50B782F
:10A3D000032B06D00B4B1B78012B06D0022B0BD086
:10A3E00008BD084B00221A76F4E7064B1B7E002BB3
:10A3F000F6D1FFF779FFF3E70B78032BF0D1FFF7E6
:10A4000075FEEDE7A438002000B585B0174BDB687A
:10A4100018784FF6FF7203F58051184405F030FBB1
:10A42000E0B10246114BD9680B780B44984217D023
:10A430000E4B5B7E83B10E4B01208DF80000019224
:10A440000393042302930B4A694601F049F948B982
:10A450000120064B187606E0074BEDE7012002E0ED
:10A46000012000E0002005B05DF804FBA4380020C6
:10A470004C7C0400C0380020487C040008B5104B18
:10A48000DB681878002203F58051184405F0F8FACB
:10A4900008B1012008BD0A4BDA68137951795B1ABB
:10A4A00003F57F2303F6FF7302EB03339A4205D0D3
:10A4B00002F58052024BDA600320EBE70220E9E765
:10A4C000A4380020F0B585B0514BDE68727933793D
:10A4D000591E8A4214D006F580510D780D444D491D
:10A4E0000968081D0F7907449B1A06EB03366B8831
:10A4F000013B9BB247F6FE62934260D92C461AE0BC
:10A500000120434B58767EE07846FDF77FFF15E04B
:10A5100024F47F6424F00F0404F5805423781C4451
:10A52000A64247D9A54247D26388013B9BB247F672
:10A53000FE62934211D92388002BE5D0238804EBD7
:10A54000830323F47F6222F00F029342E0D06288FB
:10A55000B2F5FE4FDCD01C46E2E725462FE07846F8
:10A56000FDF754FF15E024F47F6424F00F0404F594
:10A57000805423781C44A64220D9A5423BD263884C
:10A58000013B9BB247F6FE62934211D92388002B10
:10A59000E5D0238804EB830323F47F6222F00F02CB
:10A5A0009342E0D06288B2F5FE4FDCD01C46E2E771
:10A5B000254604E0002502E0002500E00025E5B185
:10A5C000144B19686A8801F58051384605F058FA2D
:10A5D000074690B101200E4B18768DF800000195CA
:10A5E0000D4B0393042302930C4A694601F078F85B
:10A5F00058B92C46CAE70025E1E7B5FA85F56D099B
:10A60000034B5D76012005B0F0BD0020FBE700BFE5
:10A61000A4380020C4380020447C0400C038002046
:10A620002DE9F04186B0644B1B692BB1624B5B692D
:10A6300033B14FF0000846E07846FDF7E7FEF5E756
:10A640007846FDF7E3FEF4E77846FDF7DFFE15E018
:10A6500025F47F6525F00F0505F580552B781D4401
:10A66000AF421CD9AC421ED26B88013B9BB247F66D
:10A67000FE62934211D92B88002BE5D02B8805EB85
:10A68000830323F47F6222F00F029342E0D06A88B2
:10A69000B2F5FE4FDCD01D46E2E72C4600E0002478
:10A6A0001CB100943AE00024FAE700230093019BD8
:10A6B000002B5CD14FF00108002C77D0628847F660
:10A6C000FF739A4272D0B8F1000F73D13A4B5A69B6
:10A6D00022F47F6626F00F06B61A06F580561C692E
:10A6E000DF683B797A799B1A07EB033700230193E4
:10A6F0006388013B9BB247F6FE629342D1D925465F
:10A70000B9E77846FDF782FE23E024F47F6424F065
:10A710000F0404F58054237823441C46A742C6D96D
:10A720002388019A02EB83029642C0D9009B6340C2
:10A7300023F47F6323F00F03002BB8D16388013B20
:10A740009BB247F6FE618B42B1D801922388002B61
:10A75000D7D0238804EB830323F47F6222F00F0217
:10A760009342D2D06288B2F5FE4FD6D1CDE7124ADD
:10A77000526901208DF808000392009A0592049313
:10A780000E4A02A900F0ACFF70B90B49019B23F0FF
:10A7900003024B6913444B6114B1074B1C618BE7F7
:10A7A0007846FDF733FEF8E7002000E0012006B010
:10A7B000BDE8F0810120FAE7A4380020C03800206D
:10A7C00000B585B040F6F8731B68B3F1FF3F09D0C0
:10A7D000B3F1FF3F0CD07BB1B3F1FF3F37D0A3F50E
:10A7E00080520FE01E4A1268B2F1FF3FF0D103E041
:10A7F0001B4A1268002AEFD14FF080514B690A6959
:10A8000002FB03F2A2F58052164B1A60164B1B682E
:10A8100013F4801F16D0154B1B68062B12DD144B4A
:10A82000D3F8043540F6F8710968B1F1FF3F13D051
:10A83000029201910F4A009240F267220E490720CE
:10A8400003F0CAFCFFF798FD05B05DF804FB044B6C
:10A850001A68A2F58052D5E701490968E8E700BF08
:10A8600014100010C4380020E42F0020E02F002036
:10A8700000100140E0780400C778040010B50446D9
:10A88000B0B1104B1B78BBB10E4BD968E368587957
:10A89000A3EB0032914211D31A79121A02F57F22EA
:10A8A00002F6FF7203EB0233994209D8012004E05B
:10A8B0007846FDF7ABFDE4E7002010BD0020FCE783
:10A8C0000020FAE7A4380020024B1878003818BF9F
:10A8D00001207047A438002010B504460E4B1B78A9
:10A8E00093B92378032B13D10B4B9C60E268DA6099
:10A8F00000225A601A76012018705A76074900F033
:10A90000DDFEFFF7F1FC10BD7846FDF77FFDE8E7BF
:10A910007846FDF77BFDE7E7A4380020CDA30200D1
:10A92000014B1868704700BFC438002010B50446BA
:10A9300080B163681BB123680BB1A36813B9784673
:10A94000FDF764FDA3685A1E134207D10023E3609C
:10A95000236110BD7846FDF759FDEAE77846FDF71B
:10A9600055FDF3E7F8B500B30F4604468368F3B12D
:10A97000EFF3108572B60369C268934211D0016883
:10A9800042688668013E334003FB021117B1384626
:10A990001BF0A5FE23690133236155B962B6284631
:10A9A000F8BD05B962B60525F9E70E25F7E70925D3
:10A9B000F5E70025F3E700000246C0F30B0040BBBB
:10A9C00049B310B401F6FF710C0B144B0221C3F80C
:10A9D0000415124BD3F80034002BFAD001460AE0DC
:10A9E0000E4BC3F808250D4BD3F80034002BFAD0DA
:10A9F00002F580520131A142F2D3084B0022C3F884
:10AA00000425064BD3F80034002BFAD05DF8044B34
:10AA10007047102070470920704700BF00E00140D8
:10AA200010F0030F2FD110B4044611F0030F2CD1F6
:10AA30006AB312F0030F2CD19008174B0122C3F810
:10AA40000425154BD3F80034002BFAD002E004346F
:10AA500004311046421E50B10B68B3F1FF3FF6D0EF
:10AA600023600D4BD3F80034002BFAD0EFE70A4BEC
:10AA70000022C3F80425084BD3F80034002BFAD089
:10AA80005DF8044B7047102070471020F8E709204C
:10AA9000F6E70920F4E700BF00E00140094B1B780E
:10AAA00013F0040F02D00378122B00D07047064B2E
:10AAB0001A68064B5A60034B1A786FF382021A70B9
:10AAC000F4E700BF6039002050390020FC38002036
:10AAD00010B582B001900C46000C012810D12368FB
:10AAE000094A136009490B7843F001030B705B08B6
:10AAF00083F0010303F001031371002002B010BDC5
:10AB00007846FDF783FCEAE75039002060390020E1
:10AB100010B582B001900C46000C02280FD12268BB
:10AB2000094B1A6022791A71002058719871D871F6
:10AB3000064A137843F00203137002B010BD784642
:10AB4000FDF764FCEBE700BF4839002060390020C6
:10AB500010B582B001900C46000C032806D1054BBD
:10AB6000186820601B79237102B010BD7846FDF78C
:10AB70004DFCF4E75039002010B582B001900C462E
:10AB8000000C03280CD1084B2068186022791A7138
:10AB9000064A137843F001031370002002B010BD81
:10ABA0007846FDF733FCEEE750390020603900208D
:10ABB00010B582B001900C46000C042805D1054B5D
:10ABC00003CB2060616002B010BD7846FDF71EFC2B
:10ABD000F5E700BF4839002010B582B001900C465F
:10ABE000000C04280BD1084B2068616803C3074A96
:10ABF000137843F002031370002002B010BD7846B2
:10AC0000FDF704FCEFE700BF483900206039002061
:10AC100000B583B00190000C032806D1054B00223B
:10AC20001A601A7103B05DF804FB7846FDF7EEFB7D
:10AC3000F4E700BF5039002000B583B00190000C4C
:10AC4000042806D1054B00221A605A6003B05DF853
:10AC500004FB7846FDF7DAFBF4E700BF4839002033
:10AC600010B582B00024ADF800400123ADF80230E9
:10AC7000009806F086F8ADF804400223ADF80630DF
:10AC8000019806F07EF802B010BD000000B585B056
:10AC9000184B1B7813F0400F0FD0164B1B7813F096
:10ACA000040F07D1144B5B6803F500530193B3F114
:10ACB000807F06D905B05DF804FB7846FDF7A6FB5A
:10ACC000EBE70E4B1B788DF808300A4A137843F0F7
:10ACD000040313700023ADF80C300323ADF80E30DD
:10ACE00001A9039806F01CF80028E3D07846FDF788
:10ACF0008DFBDFE760390020FC380020613900203F
:10AD000000B585B00022ADF809200F4B996801917C
:10AD10001B7B8DF808300D490B780133DBB20B70CB
:10AD20008DF80B30ADF80C200423ADF80E300DEB90
:10AD30000301039805F0F4FF10B905B05DF804FBBA
:10AD40007846FDF763FBF8E7FC3800206139002006
:10AD500000B585B00F4B9A6801921A7B8DF80820D8
:10AD60001B8AADF809300C4B1B788DF80B30002393
:10AD7000ADF80C300423ADF80E300DEB0301039851
:10AD800005F0CEFF10B905B05DF804FB7846FDF77D
:10AD90003DFBF8E7FC3800206139002000B58DB09C
:10ADA0000B4B1B7B012B0ED0094A926804928DF845
:10ADB0000830039002238DF8043001A8FEF722FF2B
:10ADC0000DB05DF804FB024A9268013A0492EEE786
:10ADD000FC38002008B51D481D4B036000F01AFF29
:10ADE0001C4B1B7813F0200F2AD103F00303032B15
:10ADF00014D1194B1968194A916019791173B3F874
:10AE000005001082DB79164A1370164A12799342B4
:10AE100017D0B1B9114B00221A6007E00F4B002286
:10AE20001A609A601A731A82FFF76AFF0B4B1A684E
:10AE30005A60084A137843F040031370FFF726FF67
:10AE400008BD084B1A68054B1A60EFE73C39002033
:10AE50009DAA02006039002048390020FC380020FB
:10AE6000613900205039002010B582B00024ADF8BF
:10AE700000400323ADF80230009805F082FFADF8E2
:10AE800004400423ADF80630019805F07AFF084B22
:10AE90001C605C609C60DC601C61064A137803F0F7
:10AEA000DF0343F040031370FFF7F0FE02B010BD64
:10AEB000FC3800206039002038B50C4D00242C608F
:10AEC0006C60AC60EC602C6101F084F9084B586058
:10AED000084A9A60084ADA601C615C61074B1A787C
:10AEE00064F3C3021A706C6038BD00BFFC380020E8
:10AEF000D838002059B00200008793036039002041
:10AF000008B50C4B1B7813F0100F00D008BD0A4891
:10AF10000A4B036000F07EFEFFF75CFFFFF7A0FE28
:10AF2000074801F0EFF8034A137843F01003137059
:10AF3000ECE700BF60390020F0380020B1B102001A
:10AF4000D8380020034B1878800880F0010000F00A
:10AF5000010070476039002010B501F0F5FE174B75
:10AF60001B7B1BBB154B9B7B2BBB144B1A8A41F2E3
:10AF700082639A4206D8124B1B7813F0080F05D053
:10AF8000012300E001231BB9082410E00023FAE7A5
:10AF90000A4B01221A7300241C829A6801329A60BB
:10AFA000FFF7AEFE2046FFF7F9FE00E0082401F0AF
:10AFB0000FFF204610BD0824F9E700BFFC38002031
:10AFC0006039002010B501F0BFFE214B5B7BABB1B7
:10AFD0001F4B9B7B03BB1E4B1A8A41F282639A4232
:10AFE00006D81C4B1B7813F0080F05D0012300E096
:10AFF00001239BB1012302E00023FAE700231C4652
:10B000000BB3134B00225A731B7B4BB1012B0ED099
:10B010007846FDF7FBF916E00023F0E70023EEE7A2
:10B02000FFF79AFF78B17846FDF7F0F90BE0084B8F
:10B0300000201860586018731882FFF7AFFEFFF702
:10B040005FFEFFF723FE01F0C3FE204610BD00BFE8
:10B05000FC3800206039002008B52C4B1B7BDBB18D
:10B06000012B2ED07846FDF7D1F9284A138A0133F7
:10B070009BB21382264AA2FB03121209C2EB0212F0
:10B08000A3EB42039BB2002B3DD0204B5B8A13B154
:10B09000013B1E4A538208BD1C4B1A8A41F282634F
:10B0A0009A4206D81B4B1B7813F0080F07D00123D8
:10B0B00000E00123002BD8D0FFF784FFE5E7002351
:10B0C000F8E7124B1B8A41F28262934206D8114A7A
:10B0D000127812F0080F14D0012200E00122002A99
:10B0E000C3D042F2B012934202D9084B01225A73E4
:10B0F000FFF768FF0028C8D1044B5B7B012BB4D15C
:10B10000C3E70022EBE7FFF723FEBEE7FC38002091
:10B11000898888886039002010B5244B1B7B002B60
:10B1200035D10446214B5B8A2BBB1AB91F4B9B6858
:10B130008B4205D3FAB11D4B9B6801338B421AD267
:10B140001A4B9B682A338B4223D3184B9B7B03BB40
:10B15000164B996000221A605A601A8242F6065114
:10B1600059825A731A73FFF7CBFDFFF78FFD204604
:10B17000FFF714FE0DE062B10C4B9B6801338B426C
:10B1800007D10A4B01225A73FFF71CFF01E0012B84
:10B1900000D010BD002AFCD1044B9B688B42F8D133
:10B1A000024B01225A73FFF70DFFF2E7FC38002033
:10B1B0000378042B00D0704743681B78002BFAD02B
:10B1C00010B58468027E437E012A14BF002201224A
:10B1D000416904F11000FFF79FFF10BD1B4B1B7866
:10B1E00013F0400F30D010B50446194B1A685B6855
:10B1F0009A4225D2164B1B7B012B14D0154B9A4239
:10B2000013D2134B1A685B68403B9A4215D2EFF396
:10B21000108172B60E4A1368581C1060236001B981
:10B2200062B6002010BD0C4BE9E7094B01225A73AE
:10B23000FFF7C8FE0028EAD1E3E7FFF727FDE6E7BE
:10B24000FFF724FD0F20EDE70F2070476039002045
:10B25000FC380020FFFF7F0000E0FF0008B538B198
:10B260000D4B01229A730D4A13680133136008BD18
:10B270000A4B1B685BB1094A1368013B1360002B42
:10B28000F5D1054B00229A73FFF79CFEEFE7784655
:10B29000FDF7BCF8EFE700BFFC380020CC380020F9
:10B2A00000B58DB0ADF808008DF810200391032390
:10B2B0008DF8043001A8FEF7A5FC0DB05DF804FB85
:10B2C000014B9868704700BFFC380020054B1B7B82
:10B2D000012B02D0034B98687047024B98680138E5
:10B2E000704700BFFC380020044B9B68584010F0AA
:10B2F000010F00D0013B1846704700BFFC3800200A
:10B30000014B187B704700BFFC3800200F4B1B78A7
:10B3100013F0200F01D00820704770B50B4E43F09A
:10B32000200333700A4DA860297300242C82FFF794
:10B33000E7FC2046FFF732FD2C606C60337843F069
:10B3400040033370FFF7A2FC204670BD6039002037
:10B35000FC3800202DE9F041002624E02449BC23DC
:10B3600003FB04F3CA5A0132CA520221284602F0F2
:10B37000E5FC01370221284602F0B0FC014679B114
:10B380001B4ABC2303FB0423D3F80880B8F1000F49
:10B39000E4D0BC2303FB04F3D25A3046C047DDE7B8
:10B3A00097B90136F6B2022E1FD83446BC2303FBF0
:10B3B00006F308330E4D1D4404350221284602F0E1
:10B3C0008DFC01460027DAE7284602F01FFD082819
:10B3D000E7D1074BBC2202FB0434A368002BE0D06A
:10B3E0000022044930469847DBE70120BDE8F081A0
:10B3F0006C3900204C79040008B5082383731023AE
:10B40000437300F11C0343610323037300F118032A
:10B4100003610C3002F0CCFC08BD000008B50378D5
:10B42000012B06D0022B07D07846FCF7EFFF002057
:10B4300003E04FF4A97000E0004808BD645E01001D
:10B4400008B50378012B07D0022B13D07846FCF700
:10B45000DDFF4FF4FA7308E08368591A89084FF446
:10B46000A97303FB01F303F5FA730748984228BF59
:10B47000184608BD8368591A090B044B03FB01F3F6
:10B4800003F5FA73F1E700BF60850100645E010017
:10B4900038B5044601210C3002F020FC054678B195
:10B4A000084BC4F89C300023C4F8A0306168FFF753
:10B4B000C7FFC4F8A800C4F8AC40012384F8B83032
:10B4C000284638BDE5B5020010B50446FFF7E0FF99
:10B4D00020B104F19C000EF093FA00B910BD78463B
:10B4E000FCF794FFFAE70000F8B505460C4616464F
:10B4F00017680378012B19D11249A1FB0431C9093E
:10B500008B00AC68E41BB4EB810F00D31C468CB1FC
:10B51000686827F00307E968224639443844FFF792
:10B520007FFA58B933681C443460F8BD7846FCF79C
:10B530006DFFE1E77846FCF769FFE9E77846FCF73D
:10B5400065FFEFE7EB5DF260F8B506460C46154681
:10B5500017680378022B17D1114BA3FB04231B0C94
:10B560001A03B468E41BB4EB033F00D314467CB168
:10B57000706827F0030721463844FFF71DFA58B9D1
:10B580002B681C442C60F8BD7846FCF73FFFE3E7CE
:10B590007846FCF73BFFEBE77846FCF737FFEFE731
:10B5A000B77609BB38B505460C4611462378012B02
:10B5B00006D0022B0FD07846FCF728FF002304E0CA
:10B5C000021D2046FFF790FFA3686868984214BFE9
:10B5D0000020012038BD021D2046FFF7B5FFA368FB
:10B5E000F3E700002DE9F8430F46D1F8A850254BAA
:10B5F0001B786BB90446A5F5FA7501F10C08012119
:10B60000404602F06BFB064648B14FF0000924E0CB
:10B610000EF032FA002387F8B830BDE8F883784698
:10B62000FCF7F4FEF1E70EF027FA0121404602F0A4
:10B6300085FB00237B6087F8B830134B186801F056
:10B640001BFC3846FFF740FFE7E7A4EB0009304654
:10B65000FFF7E4FE4844A8420DD8A5EB09023146A5
:10B660003846FFF79FFF0028DDD101F03FFAB0EB2D
:10B670000409ECD5E9E70EF0FFF93846FFF724FF9F
:10B68000CBE700BF683900206439002010B50848B6
:10B6900001F0D2FB074B1860002406E0064BBC20EB
:10B6A00000FB0430FFF7A8FE0134022CF6D910BDD0
:10B6B00055B30200643900206C39002038B50446C7
:10B6C0000D46022805D80548BC2303FB0404A560E9
:10B6D00038BD7846FCF79AFEF5E700BF6C390020CC
:10B6E0002DE9F84305460C461746022816D8CCB17A
:10B6F0002378012B1AD0022B3ED16368C3F30B03CE
:10B70000002B31D1A368C3F30B03002B30D1A36806
:10B71000002B34D17846FCF779FE30E07846FCF710
:10B7200075FEE4E77846FCF771FEE1E7636813F025
:10B73000030F0DD1E36813F0030F0DD1A36813F0CD
:10B74000030F0DD1A368D3B97846FCF75FFE16E06E
:10B750007846FCF75BFEEDE77846FCF757FEEDE731
:10B760007846FCF753FEEDE77846FCF74FFEC9E755
:10B770007846FCF74BFECAE77846FCF747FEEFF346
:10B78000108872B6BC2606FB05F606F108032A4EA1
:10B790001E4404360021304602F0A0FA814678B3F8
:10B7A0000021304602F0CAFA20686168A268E368A6
:10B7B000C9F80000C9F80410C9F80820C9F80C300D
:10B7C0002FB11D4ABC2303FB05235B883B801A4A2B
:10B7D000BC2303FB05235A8801325A8093F8B83002
:10B7E00083B9164B1B7813B10024A1460CE0124B11
:10B7F000BC2000FB0530FFF74BFE8146002403E030
:10B80000042401E00024A146B8F1000F00D162B683
:10B81000B9F1000F09D0BC2000FB05F09830064DAF
:10B82000284404300EF0ECF810B92046BDE8F88347
:10B830007846FCF7EBFDF8E76C390020683900200A
:10B8400038B50446EFF3108572B610B9164B1B6875
:10B8500073B18CB1144A136801331360124B1B6827
:10B86000003B18BF0123114A137005B962B638BDF9
:10B870007846FCF7CBFDECE70B4B1C68013C1C60E9
:10B8800034B1EBE7BC2000FB0420FFF71DFE0134C0
:10B89000022CE3D8064ABC2303FB042393F8B830F8
:10B8A000002BF4D1EEE700BFA03B00206839002058
:10B8B0006C39002018B1830B024AD05C704700201D
:10B8C000704700BF5C79040012DF704700B583B099
:10B8D00001F020FF40B10C4B1B6813F0400F03D068
:10B8E0000A4B1B68012B02DC03B05DF804FB084B1C
:10B8F000D3F804350190074A0092752206490220C8
:10B9000002F06AFCF0E700BFE42F0020E02F0020E7
:10B9100000100140CC790400BF79040000B58DB05F
:10B92000114B1B78022B06D07846FCF76FFD0120E7
:10B930000DB05DF804FBFFF705FB18B90B48FEF7E7
:10B9400089F9F4E70EF0D0FD074B03221A702C2280
:10B95000002101A81AF0ECFE1D238DF8043001A887
:10B96000FEF750F9E3E700BFA83B0020D42F0020EA
:10B970000B4B1B78042B00D0704700B58DB0084BE3
:10B9800005221A702C22002101A81AF0D1FE1C23D6
:10B990008DF8043001A8FEF735F90DB05DF804FB11
:10B9A000A83B002008B50378122B00D008BD04483E
:10B9B000FEF760F9034B186801F05EFAF6E700BF86
:10B9C000D42F0020A43B002070B58AB00EF0CEFD2D
:10B9D00048B3064600238DF8103005AC05460FCD60
:10B9E0000FC42B682360727D052A04D9337D03F0D0
:10B9F0000F03072B1ED1174B1A688AB104AB0393B0
:10BA0000337DC3F303038DF80430737D062B1BD9FC
:10BA1000063B8DF8053006F11D03029301A89047FF
:10BA200030460EF083FD0EF0BDFD80F00100C0B287
:10BA30000AB070BD307D04AB063A06F11D0100F07E
:10BA40000F000DF0A3FAD6E700238DF8053002931E
:10BA5000E4E700BFAC3B002070B582B0314B1B78EF
:10BA6000002B54D10446002855D0067A0F2E01D061
:10BA7000062E52D105F0E6FFE06870B1FCF7D8FC65
:10BA80000DF10700FFF720FF0546002840D19DF883
:10BA90000730012B04D002253AE0FCF7D7FCEFE792
:10BAA000FCF7FAFC00F01AFB304601F0F5F8E078FC
:10BAB00000F03EF900F0E6FE0DF024FF1A480EF00B
:10BAC0000DFE0DF00BFC0DF043FAFFF7DFFD05F066
:10BAD0006DF800F0FDFC05F075FF05F039FD20461E
